:020000040800F2
:10280000004000202D9201083139000833390008BA
:1028100000000000000000000000000000000000B8
:102820000000000000000000000000003539000832
:102830000000000000000000373900085DCA0008F1
:102840007D9201087D9201087D9201087D92010828
:102850007D9201087D9201087D9201087D92010818
:102860007D9201087D9201087D920108ED500008DB
:102870007D9201087D9201087D9201087D920108F8
:102880007D9201087D9201087D9201087D920108E8
:102890007D9201087D9201087D9201087D920108D8
:1028A0007D9201087D9201087D9201087D920108C8
:1028B0007D9201087D92010800000000DD72010890
:1028C00002780B78002A03D0013001319A42F7D008
:1028D000D01A70470023C25C0133002AFBD1581E76
:1028E0007047000002B47146490849000956490082
:1028F0008E4402BC7047C04602B471464908490084
:10290000095C49008E4402BC7047C04603B471465E
:10291000490840004900095E49008E4403BC7047E5
:1029200003B47146490840004900095A49008E44E1
:1029300003BC7047002243088B4274D303098B42C7
:102940005FD3030A8B4244D3030B8B4228D3030C7F
:102950008B420DD3FF22090212BA030C8B4202D321
:102960001212090265D0030B8B4219D300E0090A49
:10297000C30B8B4201D3CB03C01A5241830B8B4252
:1029800001D38B03C01A5241430B8B4201D34B033B
:10299000C01A5241030B8B4201D30B03C01A5241A0
:1029A000C30A8B4201D3CB02C01A5241830A8B4225
:1029B00001D38B02C01A5241430A8B4201D34B020E
:1029C000C01A5241030A8B4201D30B02C01A524172
:1029D000CDD2C3098B4201D3CB01C01A5241830926
:1029E0008B4201D38B01C01A524143098B4201D360
:1029F0004B01C01A524103098B4201D30B01C01A8B
:102A00005241C3088B4201D3CB00C01A5241830804
:102A10008B4201D38B00C01A524143088B4201D331
:102A20004B00C01A5241411A00D201465241104691
:102A30007047FFE701B5002000F0F0F802BDC04686
:102A40000029F7D076E7704703460B437FD4002276
:102A500043088B4274D303098B425FD3030A8B4232
:102A600044D3030B8B4228D3030C8B420DD3FF229C
:102A7000090212BA030C8B4202D31212090265D06A
:102A8000030B8B4219D300E0090AC30B8B4201D31D
:102A9000CB03C01A5241830B8B4201D38B03C01A64
:102AA0005241430B8B4201D34B03C01A5241030BDB
:102AB0008B4201D30B03C01A5241C30A8B4201D38C
:102AC000CB02C01A5241830A8B4201D38B02C01A37
:102AD0005241430A8B4201D34B02C01A5241030AAE
:102AE0008B4201D30B02C01A5241CDD2C3098B4293
:102AF00001D3CB01C01A524183098B4201D38B0110
:102B0000C01A524143098B4201D34B01C01A5241B2
:102B100003098B4201D30B01C01A5241C3088B42F7
:102B200001D3CB00C01A524183088B4201D38B00E2
:102B3000C01A524143088B4201D34B00C01A524184
:102B4000411A00D201465241104670475DE0CA0F5B
:102B500000D04942031000D34042534000229C461B
:102B600003098B422DD3030A8B4212D3FC22890125
:102B700012BA030A8B420CD3890192118B4208D3FB
:102B8000890192118B4204D389013AD0921100E05D
:102B90008909C3098B4201D3CB01C01A5241830971
:102BA0008B4201D38B01C01A524143098B4201D39E
:102BB0004B01C01A524103098B4201D30B01C01AC9
:102BC0005241C3088B4201D3CB00C01A5241830843
:102BD0008B4201D38B00C01A5241D9D243088B4299
:102BE00001D34B00C01A5241411A00D2014663463C
:102BF00052415B10104601D34042002B00D54942A0
:102C0000704763465B1000D3404201B5002000F0DE
:102C100005F802BD0029F8D016E770477047C04696
:102C20001C2101231B04984201D3000C10391B0AFC
:102C3000984201D3000A08391B09984201D30009C0
:102C4000043902A2105C40187047C0460403020217
:102C50000101010100000000000000000448054BD4
:102C600010B5834203D0044B002B00D0984710BD11
:102C7000EC000020EC00002000000000064807499E
:102C8000091A8B10C90FC91810B5491003D0044B8D
:102C9000002B00D0984710BDEC000020EC00002075
:102CA0000000000010B5074C2378002B09D1FFF776
:102CB000D5FF054B002B02D0044800E000BF0123E4
:102CC000237010BD6002002000000000B89F0108C2
:102CD000054B10B5002B03D00449054800E000BFA8
:102CE000FFF7CCFF10BDC0460000000064020020CA
:102CF000B89F0108054B82B0DA6B0243DA63DB6BE5
:102D000018400190019B02B07047C046001002407D
:102D1000054B82B01A6C02431A641B6C1840019078
:102D2000019B02B07047C04600100240802130B5C0
:102D300080240822454B49009962A40045B2002D29
:102D400000DA81E09C62C046C046C046C046C0462C
:102D5000C046C046C046C046C046C046C046C04643
:102D6000C046C046C046C046C046C046C046C04633
:102D7000C046C046C046C046C046C046C046C04623
:102D8000C046C046C046C046C046C046C046C04613
:102D9000C046C046C0469961C046C046C046C0460F
:102DA000C046C046C046C046C046C046C046C046F3
:102DB000C046C046C046C046C046C046C046C046E3
:102DC000C046C046C046C046C046C046C046C046D3
:102DD000C046C046C046C046C046C046C046C046C3
:102DE000C046C046C046C0464000C0B29962C04618
:102DF000C046C046C046C046C046C046C046C046A3
:102E0000C046C046C046C046C046C046C046C04692
:102E1000C046C046C046C046C046C046C046C04682
:102E2000C046C046C046C046C046C046C046C04672
:102E3000C046C046C046C046C046C046C046013A2D
:102E4000002A00D07AE730BD9C617CE70004005086
:102E5000054B82B05A6B02435A635B6B184001907A
:102E6000019B02B07047C046001002400222064B90
:102E700099681142FCD00122187399681142FCD064
:102E8000D868C0B27047C0460038004010B5040092
:102E9000000CC0B2FFF7EAFF200AC0B2FFF7E6FF5E
:102EA000E0B2FFF7E3FF10BD0B4B5A7E002A02D0C1
:102EB0009B7E002B0ED10322084B01211A700022A9
:102EC000074B1A70074B1970074B1B788B4201D0C8
:102ED000064B1A707047C0464C1E00203507002074
:102EE0001B1E002034070020FF1D0020570000207B
:102EF000084B1A68293213780133DBB2072B00D94B
:102F0000012313700122044B1A80044A044B1278E7
:102F10001A7070471C1E002032070020FF1D002081
:102F2000570000200122064B1A80064B1A683432E3
:102F300013780133DBB2032B00D1002313707047E9
:102F4000320700201C1E0020012305498A7F5A40B9
:102F50008A77044A1370044A1370044A1370704746
:102F60004C1E002010070020140700202D1E0020FA
:102F70000B4810B502780B4B002A0FD00633D97FCF
:102F80004C426141D977012300215A400270064A20
:102F90001170064A1370064A137010BD0533EEE730
:102FA0000F0700204C1E00200E07002014070020F1
:102FB0002D1E00201049114A0B7870B5501D104D80
:102FC000104C002B0FD02D78C57720780632D077A3
:102FD000012253400B7000210B4B19700B4B1A70E0
:102FE0000B4B1A7070BDC67F2E70951DED7FC37799
:102FF00025701800EAE7C0460D0700204C1E00208F
:103000000C0700200B0700200E07002014070020EB
:103010002D1E0020012306490A785A400A7000211B
:10302000044A1170044A1370044A13707047C04672
:10303000BF1D00200E070020140700202D1E0020B9
:103040000123044A11784B4013700222024B1A707C
:103050007047C04604070020030700200123044AEC
:1030600011784B4013700222024B1A707047C04611
:103070000207002003070020044B05481A8850432C
:10308000044A801880B21880000A70472A00002085
:103090000508000019360000F0B5130007270322C9
:1030A0003B405A431B4B85B0D31801930123039136
:1030B0009C46002102900020019B5B5C0093009BDA
:1030C0006246C340134213D0039B1C18A3B23F2B8C
:1030D0000ED86546029B5A18E3B23C40A540D2B2D6
:1030E000ECB2072B0CD80C4BD5189B5C1C432C70F6
:1030F00001300528E3D101310329DCD105B0F0BD51
:10310000DB08013BDB01054E9D18AD19F618B35CD9
:10311000ECE7C04630AD01083D070020B3190020A0
:10312000054B1A78002A06D000221A70034B013290
:103130001A70034B1A707047C0060020281E00202A
:103140002D1E002030B50E4B1B689A8B0D4B186856
:103150000D4B19680D4B1C6C844207D15C6C8C4282
:1031600004D11C0048342488944207D01C00002558
:103170004A3418645964483325801A8030BDC046EB
:103180003C1D002028070020780400207C0400203B
:103190000E4B10B51B68191E13D00D4A1268918B87
:1031A00000290ED083420ED80A4A126882420AD3FE
:1031B000C01AFFF7BFFB084B0021984201D801302D
:1031C00081B2080010BD0021FBE7C046280700209F
:1031D0003C1D002078040020FEFF000010B5094CC3
:1031E0002278531CDBB2172B00D90023064952006A
:1031F0005052064A23701378172B01D801331370ED
:1032000010BDC046450400204604002044040020B0
:103210000122054B52421A800023044A1360044ADB
:103220001370044A1370704704000020400400200B
:103230003D0400203C04002070B51E4A03001268C3
:103240000232D47F221C082C00D208221A491B48C3
:103250000D88083A92B2854206D100200B80844244
:1032600001D0A342404170BD15482E1C854201D9B2
:103270001448068814481036B6B21C1C834201D983
:10328000124804880834A4B29E4202D80120934216
:10329000E9D2A64202D801209442E4D29D4202D94A
:1032A00000200B80DFE707226A430432D318DB08D3
:1032B000F6E7C0463C1D002004000020FFFF000090
:1032C000EFFF0000D8A00108F7FF0000DAA0010816
:1032D000002806D0044A13780133DBB2032B01D84F
:1032E000137070470023FBE739040020F8B5104C39
:1032F0002368002B02D000232360F8BD0D4B0E4F36
:103300001B681B691D680D4B2560597B4A42514162
:1033100048224A439B180833DE6F3E60FFF778FF70
:10332000B54201D926603D60FFF70CFFE5E7C046D6
:10333000280700201C1E0020780400204C1E0020BE
:10334000074B1B78012B0AD0064B1B78012B06D0AC
:10335000012205494B7E53404B76044B1A7070474F
:10336000FF1D0020261E00204C1E002010070020FC
:103370000021012210B5124B1960124B587B4240BC
:1033800011485A7304788C4202D001700F480170C2
:10339000991DC87F002801D0501CC8770533D97FFC
:1033A000002901D00132DA770123094A1370094A52
:1033B0001370094A13700022084B1A7010BDC046E2
:1033C000280700204C1E00201B1E0020181E002075
:1033D0001007002014070020520000205700002092
:1033E000092802D83030C0B2704703000A3BFF20E2
:1033F000052BF9D8014AD05CF6E7C046FBAA0108C4
:1034000010B50E4A0E48137B59424B410021DBB2E6
:1034100013738B4200D04831843152180260094A3C
:103420001378002B03D101331370074A1370002067
:103430000EF0F8FA0A22054B1A8010BD4C1E00202F
:103440003C1D0020250700202D1E0020BC0600206A
:10345000194B10B51B78002B11D0FFF761FE174AEE
:10346000174B12781B7852B2002A1BD1154AD27F13
:10347000002A05D1032B02D003200EF099F910BDCC
:10348000114A1278002AF5D16420104908801049A9
:103490000A7010490A7001210F4A117001210A4A6D
:1034A0001170E7E7084A11780029E3D114200B4A8C
:1034B00010800B4AF1E7C046BE060020E01D002048
:1034C000261E0020511E0020BA1D0020BC06002030
:1034D00052000020250700202D1E00202E0700206E
:1034E00053000020034B10B51B78002B01D1FFF7D0
:1034F000AFFF10BDB51D0020302210B500210448DB
:1035000015F0E8FE0022034B1A70034B1A7010BD31
:1035100046040020450400204404002010B5084B58
:103520001B78012B01D9042B05D1062008F082FB62
:10353000062008F07FFB0022024B1A7010BDC04627
:103540008C1E002038000020A023402210B5DB058F
:103550009A6214F0ADFA10BD10B5032804D0072804
:1035600009D0074B185C03E0064B1878A6231843D4
:10357000FFF7EAFF10BD044B18781530C0B2F7E72B
:10358000A8AD01083C0700202C00002070B50C4BB2
:103590001B6834331C78012C0AD10321094D28788B
:1035A0000130FFF737FB2970200009F085F970BD65
:1035B000002CF9D1044D052128780130F1E7C046EF
:1035C0003C1D00200A0700200907002070B508F004
:1035D0003DFD114B041E00D1104B19680D002D3517
:1035E0002A78343153425341D8B228700B78012BDA
:1035F00007D153425A4103205242104014F066FA58
:1036000070BD002CFAD000208242F7D1044B18780C
:103610000130C0B2F2E7C0463C1D00201C1E002055
:103620000807002070B5868B0068714308183100C8
:103630001C00150008F006FCA04206D8A84203D2E0
:103640003100A01B08F0FEFB70BD2800FCE7000065
:10365000F0B5212585B0FFF775FD164B1E68164B9A
:103660001B785BB20193154B1B680293144B1B68CC
:103670000393144B1F783000039B029A0199FFF7C4
:10368000D1FF013DEDB204003060002D07D0FFF7FF
:103690007FFD002803D000230B4ABB4202D120004B
:1036A00005B0F0BD0232911E09888142E3D001339A
:1036B000DBB2F2E73C1D0020E01D002028070020BF
:1036C00078040020C60400207C04002010B50EF011
:1036D000B9FE0122044B1A70044B1B78002B01D059
:1036E000034B1A7010BDC0469F0600203007002013
:1036F0001407002010B50A4C2378002B05D00020B9
:103700000EF056F80023237010BDFFF7DFFF054BC6
:1037100019780029F3D00A224A43034B1A70F1E7C3
:103720009F0600208E1E00209E060020264B70B5AE
:103730001A688023D28BDB009A422ED200230A25FE
:1037400018002249224E0A78DCB2944209D300289C
:103750000DD1042A21D1002301220B701D4B1A70B8
:1037600007E06843F45C0133001980B2ECE7042AF7
:10377000F1D000220138184D84B2110020006E7B78
:1037800008F0ECFD002809D1124B1B78012B02D860
:103790000222124B1A700AF02DF970BD002302218B
:1037A0000E4A1370321D520054530D4A76001170A8
:1037B0000C4A745313700C4A1370687B09F01AFF9B
:1037C0000AF018F9E7E7C0461C1E00201B1E002067
:1037D000D0030020201E00204C1E0020191E0020B7
:1037E000030700200207002004070020F8B5264B3D
:1037F000264C1A78002A03D0A11DCA7700221A701D
:103800000022234B1A70FFF777FE224B1F68224BD2
:103810003E001B78002B01D0204B1E688022204BDD
:10382000D2001B8893421CD2207BB2B2031D5B00E6
:10383000E25202214300E25209F0DCFEB74204D01A
:103840000AF0D8F80122174B1A700023383423707D
:103850000AF070FB01200EF0E5F80122124B1A70FD
:10386000F8BD124B1D6828002E6008F0F9FE2800F4
:1038700008F0E2FDB742E8D001232A00217BE88B63
:103880000AF0EAFAE1E7C046380400204C1E0020A6
:10389000E01D002034040020A0060020A80600201F
:1038A0002C0700202D1E0020281E00203C1D00207B
:1038B00010B5174B174CDB7F002B19D0164A137825
:1038C000002B03D000231370144A1370144A637B37
:1038D00011688022C98BD20091420AD25B00E218A3
:1038E0009288E25201220F4B1A700F4B92181A70F5
:1038F00010BD04335B00E05A002301211A0008F0D8
:1039000067FD0A4B9842F3D0637B5B00E052E9E726
:10391000501E00204C1E00201B1E0020181E0020E0
:103920001C1E00209406002003070020FFFF00005B
:103930007047FEE770477047014B024A9A60704734
:1039400000ED00E0002800080E4B1A7882420DD0EE
:1039500018700D4B0D4A1B5C0D4913800D4A1288DF
:103960009B1A9AB21BB2002B01D10B707047181131
:10397000002B03DD53421B115B4218B2064B18802B
:103980000123F2E7D1170020C7AD0108C8170020B6
:10399000CE170020CC170020CA170020902210B5A7
:1039A000054B5200985CFFF7CFFF0022034B1A80B3
:1039B000034B1A7010BDC0464C1E0020FC1D002099
:1039C000CF170020F8B5802380267E4F7E4C9B00C9
:1039D0007600BB610500A662C046C046C046C04630
:1039E000C046C046C046C046C046C046C046C046A7
:1039F000C046C046C046C046C046C046C046C04697
:103A0000C046C046C046C046C046C046C046C04686
:103A1000C046C046C046C046C046C046C046C04676
:103A2000C046C046C046C0468020BB622843FFF760
:103A30007DF92368654A13402360C046C046C046EE
:103A4000C046C046C046C046C046C046C046C04646
:103A5000C046C046C046C046C046C046C046C04636
:103A6000C046C046C046C046C046C046C046C04626
:103A7000C046C046C046C046C046C046C046C04616
:103A8000C046C046C046C046C04610230020400085
:103A900080B2844601212069A661400A084061463F
:103AA0000843C046C046C046C046C046C046C046A1
:103AB000C046C046C046C046C046C046C046C046D6
:103AC000C046C046C046C046C046C046C046C046C6
:103AD000C046C046C046C046C046C046C046C046B6
:103AE000C046C046C046C046C046C046C046C046A6
:103AF000C046A662C046C046C046C046C046C04694
:103B0000C046C046C046C046C046C046C046C04685
:103B1000C046C046C046C046C046C046C046C04675
:103B2000C046C046C046C046C046C046C046C04665
:103B3000C046C046C046C046C046C046C046C04655
:103B4000C046C046013B002B00D0A0E723681A40C6
:103B50008023DB021343236080239B00BB61C046AC
:103B6000C046C046C046C046C046C046C046C04625
:103B7000C046C046C046C046C046C046C046C04615
:103B8000C046C046C046C046C046C046C046C04605
:103B9000C046C046C046C046C046C046C046C046F5
:103BA000C046C046C046C046C046C046C046A661E4
:103BB000A361074B302D02D0472D01D1054B188052
:103BC000F8BDC0460014005000040050FFFFF3FF92
:103BD000360000203400002070B5060069200D007A
:103BE000FFF7F0FE040003040BD46A20FFF7EAFE9F
:103BF0000C4B24030005000D1C40044302203460DC
:103C000070BD6820FFF7DEFE030000201A04F7D421
:103C10000548DB04DB0C58430449FEF715FF2880F8
:103C20000120EDE700F0FF00EB120000102700007C
:103C3000F7B5694B694A00931B780192002B26D196
:103C400013785BB2002B0AD0654B664A1B889B1821
:103C5000062B04D8644B1B78002B18D0F7BD634BA0
:103C60001D786B1E022B27D86149624B0A78002A07
:103C700003D0614A1278002A06D01A78002A1BD095
:103C80005E4A1278002A17D100220A701A700120A9
:103C90000DF0C8FE01225A4B1A70019B1B785BB2D3
:103CA000002BDBD0574B1A78502AD7D8002A00D0E7
:103CB00089E0FFF79BFDD1E74B4B01241B78524F66
:103CC000002B0AD03B78DAB2002B05D1A5421AD0DE
:103CD0000ED9AB1EA34229D900243B784B4E002BB2
:103CE00069D1002C67D13378002B41D13470B5E70E
:103CF000474BDB7D002BEFD0464B19780029EBD0EA
:103D000002241A70E9E7444B1978394B002906D090
:103D10001A70404B1A78002ADED00022F0E71A7899
:103D2000002AF6D11D706432334BF1E73B4B197812
:103D3000304B002914D03A490978012910D11A7062
:103D4000344E3378002BC7D00C20FFF73BFE040520
:103D5000A40F013C63425C41002364003370BCE764
:103D60001A78002AECD101321A70244B6332E6E74C
:103D70002C4BDB7F002BB9D0023D012DB6D80C2097
:103D8000FFF720FE0005800F0128AFD1254BDB7F18
:103D9000002B00D162E7A0238022DB0552009A624B
:103DA000214BEC3A1A800023009A137001223A70DA
:103DB0001E4A137052E700233370012C00D166E7CE
:103DC000022CE3D04AE719235343194A13800022F7
:103DD000184B1A7042E7C046B5060020E01D0020CF
:103DE0002C07002000FCFFFFBE060020BB060020C1
:103DF000B9060020B6060020B4060020B306002055
:103E0000281E0020741E0020B2060020B0060020EC
:103E10004C1E0020B1060020BA060020B806002083
:103E2000B70600204F1E0020AE060020441D0020D3
:103E30002E07002053000020F8B50C00374B302827
:103E400002D0472805D1364B1A88A24200D142E160
:103E50001C8080238026334F334D9B007600BB614E
:103E6000AE62C046C046C046C046C046C046C04618
:103E7000C046C046C046C046C046C046C046C04612
:103E8000C046C046C046C046C046C046C046C04602
:103E9000C046C046C046C046C046C046C046C046F2
:103EA000C046C046C046C046C046C046C046C046E2
:103EB000C046BB62FEF73AFFC046C046C046C04699
:103EC000C046C046C046C046C046C046C046C046C2
:103ED000C046C046C046C046C046C046C046C046B2
:103EE000C046C046C046C046C046C046C046C046A2
:103EF000C046C046C046C046C046C046C046C04692
:103F0000C046C046C046C0461023AE6222B2002A58
:103F100000DAE1E080229200AA6207E03600002089
:103F2000340000200014005000040050C046C04679
:103F3000C046C046C046C046C046C046C046C04651
:103F4000C046C046C046C046C046C046C046C04641
:103F5000C046C046C046C046C046C046C046C04631
:103F6000C046C046C046C046C046C046C046C04621
:103F7000C046C046C046C046C046C0466400AE61AA
:103F8000A4B2C046C046C046C046C046C046C046B1
:103F9000C046C046C046C046C046C046C046C046F1
:103FA000C046C046C046C046C046C046C046C046E1
:103FB000C046C046C046C046C046C046C046C046D1
:103FC000C046C046C046C046C046C046C046C046C1
:103FD000C046AE62C046C046C046C046C046C046A7
:103FE000C046C046C046C046C046C046C046C046A1
:103FF000C046C046C046C046C046C046C046C04691
:10400000C046C046C046C046C046C046C046C04680
:10401000C046C046C046C046C046C046C046C04670
:10402000C046C046013B002B00D06FE7C046C046EB
:10403000C046C046C046C046C046C046C046C04650
:10404000C046C046C046C046C046C046C046C04640
:10405000C046C046C046C046C046C046C046C04630
:10406000C046C046C046C046C046C046C046C04620
:10407000C046C046C046C046C046C04680239B00DE
:10408000BB61C046C046C046C046C046C046C046EA
:10409000C046C046C046C046C046C046C046C046F0
:1040A000C046C046C046C046C046C046C046C046E0
:1040B000C046C046C046C046C046C046C046C046D0
:1040C000C046C046C046C046C046C046C046C046C0
:1040D000C046AE61AB61F8BD80229200AA6125E7BF
:1040E00070B590B0040040226846184915F021FAD6
:1040F000392C08D82F2C25D8232C25D00EAD2A2CCE
:1041000009D010B070BD2300413B373C032BF8D8D9
:10411000A4006C44250028880D4C0E4E60430E49C7
:104120008019FEF707FC81B27120FFF785FE6B88CE
:1041300009495C43A019FEF7FDFB81B27220FFF72D
:104140007BFEDEE7303CE3E70FADE4E7D09F0108FC
:104150004C930100881300001027000010B5094C93
:104160002388002908D04022C240134399B233204B
:104170002180FFF761FE10BD4121494201411940F4
:10418000F5E7C046B019002010B5040051200A49D7
:10419000FFF752FE07200949FFF74EFE21050820D0
:1041A000090DFFF749FE802321021B02090D08209B
:1041B0001943FFF741FE10BD33A00000D70A0000ED
:1041C0000C4B10B5C1184B1E9941040049420A4BD3
:1041D000890A8902C9185120FFF72EFE0748084BAB
:1041E00060430849C018FEF7A5FB81B20720FFF71E
:1041F00023FE10BDBFF5FFFF40940000982603008A
:1042000050C30000A086010070B5040031200D00ED
:10421000FFF7D8FBA02361051B02490D19430600D7
:104220004620FFF709FEC0216D056D0D49012943A8
:104230007920FFF701FE7A200449FFF7FDFD0421F4
:104240003143312089B2FFF7F7FD70BD9A28000095
:1042500010B5040081B23820FFF7EEFD3920210CA3
:10426000FFF7EAFD10BD000010B50349000201434D
:104270004720FFF7E1FD10BD4260000010B5372078
:104280000549FFF7D9FD00213020FFF7D5FD30208B
:104290000249FFF7D1FD10BD1F9F0000F1BF0000D4
:1042A00010B53120FFF78EFB0223984381B23120F5
:1042B000FFF7C2FD00212B20FFF7BEFD10BD00005F
:1042C00070B505003120FFF77DFB0400002D06D1FD
:1042D00008239C43A1B23120FFF7AEFD70BDAB1E99
:1042E0005A1E9341AD21DB03890119432920FFF7B1
:1042F000A3FD0120A84280410549404280030143BB
:104300002820FFF799FD0821214389B2E3E7C04641
:10431000382B000010B53120FFF754FB04239843DD
:1043200081B23120FFF788FD10BD10B50021242097
:10433000FFF782FD10BD0000DB2110B52120C90070
:10434000FFF77AFD24200249FFF776FD10BDC04635
:104350007FC1000010B550200149FFF76DFD10BD71
:1043600018BB000010B550200149FFF765FD10BDD6
:10437000183B000010B500213020FFF75DFDE8215B
:1043800037204901FFF758FD10BD000010B500218E
:104390007020FFF751FD0020FFF766FFFFF7E2FFF7
:1043A00000213020FFF748FD30200249FFF744FD8F
:1043B00010BDC046F1BF000010B5C3217020FFF74B
:1043C0003BFD72200A49FFF737FDC1215820FFF756
:1043D00033FD5C200749FFF72FFD8E215D20C901C9
:1043E000FFF72AFD5E200449FFF726FD10BDC046F9
:1043F00065300000655600000432000010B5002151
:104400003020FFF719FD10BD054B10B51B78002BB0
:1044100005D001210020FFF7A1FEFFF72FFF10BDFF
:10442000B51D002010B50400FFF794FF0020FFF732
:104430001BFF00217020FFF7FFFCFFF776FF302005
:104440000349FFF7F9FC002C01D1FFF78BFF10BDEA
:10445000FEC1000010B530200149FFF7EDFC10BD92
:10446000FAC3000010B50400FFF766FFFFF772FF04
:104470000020844200D00330FFF7F6FE702003498D
:10448000FFF7DAFCFFF7E6FF10BDC046C3C300002C
:1044900010B56720FFF796FAC005C00D10BD0000EB
:1044A00010B5064B064A1B7811781B011943B0233F
:1044B0001B0248201943FFF7BFFC10BDCA1E002095
:1044C000CC1E002010B501240E4B05201A78544054
:1044D0001C70614261410F2349421940A1231B0115
:1044E000C91811F0EAFB0022074B944202D11A00CE
:1044F0007F3212787E331A70FFF7D2FF0122034B0E
:104500001A7010BD050700204C1E00202D1E002033
:1045100010B5FFF79DFEC02151208900FFF78CFCEC
:10452000FFF7ACFE10BD10B500210420FFF716FE0A
:1045300000210320FFF712FE10BD00000B4B10B549
:10454000984208D801210420FFF708FE002103202B
:10455000FFF704FE03E0013002D1FFF7E4FF10BDD6
:1045600000210420FFF7FAFD0121F0E7FF3EAB0137
:1045700070B51D4B1B78013B012B27D900241B4B29
:104580001B4A1C7013781B4DA34220D01A4B147089
:104590001C701A4B80221C80A02301265200DB05D0
:1045A0009A62174B1C7011F0A1FB164B1B68186820
:1045B000FFF7C4FF144B1E70144B1C7009F0BAFCBB
:1045C0005022134B2C701E70124B1A8070BD124A71
:1045D000137008F053F801200DF024FA11F072FE68
:1045E00003232B70F2E7C046261E00201B1E00206E
:1045F0001A1E002057000020DF1D00201207002097
:10460000441D00203C1D00202D1E0020841E002083
:1046100014070020B21D00203007002070B50F4D98
:1046200004002A68002A08D0002318000C49A1427F
:10463000584191425B41984202D02000FFF77EFF33
:1046400020002C60FFF704FE00213020FFF7F4FB70
:10465000044B30201988FFF7EFFB70BD40040020A9
:10466000FF3EAB013A040020A023F7B51600082254
:104670000500DB059A6203200C00FEF7F7FB28001B
:10468000FEF704FCC0232E4DDB00AA681100194080
:1046900001911A420AD10F2E0AD8A619B44249D064
:1046A000FF20FEF7E3FB20700134F7E7EA68ECE750
:1046B00040222B68042093432B6013F0DDF9052082
:1046C00013F0DAF9802284211E4B52015A601E4FEA
:1046D0000420490113F06CF905201C4913F068F916
:1046E000FC601B4C31000420BC6013F071F9194AC6
:1046F000194B3100D36094600224052013F068F94F
:10470000019B164E042033703B6823433B6013F03B
:10471000C1F9052013F0BEF901236A681343402252
:104720006B602B6813432B606B681C436C603378A1
:10473000002BFCD0A0230822DB059A61F7BDC04600
:104740000038004000000240440002401010000009
:104750000C38004058000240C4170020C017002049
:1047600000B503000078002207280DD8FEF7C4F832
:10477000040E14191E232B2B0122552904D0AA291B
:1047800001D0002000BD04221A70FAE7AA394A427B
:10479000514149001970F4E700229142F4D10332EB
:1047A000F2E7484241411A70C8B2EBE700225529AE
:1047B000EAD10532E8E7032901D10622E4E704291A
:1047C000E2D10722E0E712290BD8102909D0074AC5
:1047D000073811700021064A117041424841054ACC
:1047E0001070002201201A70CCE7C0462D00002076
:1047F000BF070020BE0700200022034B1A70034BA6
:1048000001321A707047C046BD0700202D1E0020DF
:10481000F7B5A02640275039F6050430C4B20193FD
:10482000C8B2B762150013F043F9102023091843EA
:1048300013F03EF90F2020402C0013F039F9019BB2
:10484000B7615E19B44200D1F7BD6B461879002DEF
:1048500000D0207813F02CF90134F3E7F8B50423E5
:10486000124E0400B3624020FEF76EFE104A002C88
:1048700007D0104B01251F00072C0AD8621ED20159
:10488000D218802321000020FFF7C2FF0423B36168
:10489000F8BD290001353A0080230020EDB2FFF772
:1048A000B7FF8037082DF4D1F0E7C0460004005070
:1048B0003D070020B319002010B50820FFF7CEFFF8
:1048C00010BD10B50130C0B2FFF7C8FF012012F0D3
:1048D00049FB10BD10B50020FFF7C0FF10BD000060
:1048E000F7B5041E294E2A4F2BD00024FEF7C4FB37
:1048F0007021FEF7A5F8A5192970FEF7BDFB03216D
:10490000FEF79EF83D19013101342970202CEDD1BC
:1049100009F0DEFD002509F017FD0024EFB2BB0011
:10492000DBB20193725DE100611A5118D2191219BC
:1049300009B2D2B2002C16D10198FEF7ADFB0134BA
:10494000F0E735002B783A5D9B18DBB22B70702BAB
:1049500004D9FEF791FB0F2318402870013401356C
:10496000202CEFD1D4E7032C02D901231A4202D024
:104970000198FEF791FB0134082CD3D10135202D8D
:10498000CBD1FFF7A7FFFFF797FFF7BDE2060020A7
:10499000C206002070B5254B1C78002C3ED0244B5D
:1049A000DB7F013B3B2B39D8224D2B78002B35D1B7
:1049B000214B1B78002B31D1204B1B78012B2DD0A4
:1049C00007F044FB002829D11D4B1B78002B25D173
:1049D0001C4B1B78002B03D01B4B1B78002B1DD0CE
:1049E0001A4B1B78002B19D1194B1B78002B01D0C7
:1049F000032B13D1631E012B11D810F069FCFFF7B4
:104A000069FFFFF759FF012300202B70114B18702D
:104A1000114B1870114B187012F0A4FA70BD032CD2
:104A2000F1D10120FFF75CFFEDE7C046C106002091
:104A3000541E0020C0060020F61D0020261E002067
:104A4000DC1D0020DF1D0020A71D0020F31D00201D
:104A5000FF1D0020BF060020281E00202D1E002064
:104A60000422074B10B5E2209A62FEF76DFD002488
:104A700020000134E4B2FEF76FFD082CF8D110BD20
:104A800000040050042370B50024064DAB622000E2
:104A90000134E4B2FEF760FD0B2CF8D10423AB61C6
:104AA00070BDC046000400500B4B70B51B680B4C2A
:104AB000584300236568A268834200D370BDA16893
:104AC0008A4203D99B185B1A0A00F5E78A42FBD297
:104AD0006E1AF318D318F7E7D417002010E000E09F
:104AE000324870B50378002B20D0314B314A002179
:104AF000595E13885B181BB21380002917DD2E49FD
:104B00000024095F994219DD1478002C1CD12B4A2E
:104B1000013413680720A343136012F0ADFF200097
:104B2000FFF7C2FF8022264B52009A6270BD002917
:104B3000EAD021490024095F9942E5DB1E4B1B881E
:104B4000138000230370DFE76401FF212000FDF7DD
:104B5000F1FEFF2300225B019C421AD01100194E86
:104B6000194D0B0082424B415B42334001339400AC
:104B7000FF3301322B51202AF3D101240F4D2B6832
:104B80002342D3D1072012F085FF2B681C432C60F1
:104B9000CCE70121094A072013688B43136012F008
:104BA0006BFF8022064B52009A61BFE7CE170020B0
:104BB000CA170020CC170020C8170020001400409E
:104BC0000014005000FFFF00D8170020782170B5B6
:104BD0001B4A1C4B12781C4C4A431A801B4A1C4B24
:104BE00012781A701B4B1D781B4BDB7F002B06D1F4
:104BF000FEF7D4FE002D01D0FEF790FC70BD01221F
:104C0000164B1A702223FF33E05CFEF79DFE002D49
:104C100005D0134B1B78002B0CD1FEF77FFC08341A
:104C2000E17F00230F4A3D2902D00A234B43013381
:104C30001380E3E7FFF754FF0B48FFF735FFE8E782
:104C400056000020F81D00204C1E0020D117002027
:104C5000D017002038000020541E0020CF1700205D
:104C6000CE170020FC1D002010270000064910B5BB
:104C70000B78002B03D0054A054B1278DA77002316
:104C80000B70FFF7A3FF10BD0707002006070020E9
:104C9000541E002080220A4B520243439B1810B539
:104CA00071200C00590CFFF7C7F8FFF75BFBFA20E7
:104CB00080006043FFF7F8FEFFF74CFB10BDC046D5
:104CC0001DA61400F8B51C0005000E001700FFF724
:104CD00041FB201E05D0A02380220320DB055200CB
:104CE0009A61FFF7C1FA12493F02394389B2702035
:104CF000FFF7A2F8FFF7AEFB0E48FFF7D5FE310035
:104D00002800FFF7C7FF002C07D0A0238022DB0577
:104D1000520000209A62FFF7A7FA00217020FFF7E7
:104D20008BF830200449FFF787F8FFF71BFBF8BD2D
:104D30000080FFFF50C30000FEC1000010B500213D
:104D40003F20FFF779F868215920FFF775F80348ED
:104D5000FFF7AAFEFFF752FB10BDC04630750000FA
:104D600010B5FFF7EBFF00210220FFF765F80021E7
:104D70003F20FFF761F8FFF781FAC0213F2089014A
:104D8000FFF75AF859200449FFF756F8592003490C
:104D9000FFF752F810BDC0466840000068300000C0
:104DA00070B50D000400FFF7D5FAC221702009028A
:104DB000FFF742F880230B495B026943C918712051
:104DC000490CFFF739F80020844200D00330FFF788
:104DD0004BFAFFF73FFB0448FFF766FEFFF7C2FA06
:104DE00070BDC0461DA6140050C30000F0B5FA26E1
:104DF0000500002485B003930AAB1F880BAB1B880A
:104E0000B6007343019102920093285D002801D1FE
:104E100005B0F0BDFFF764F9FFF7A4FA019B002B82
:104E200002D00298002C06D02B5D03982A2B02D0CA
:104E3000232B00D038007043FFF736FEFFF78AFAC5
:104E40000098FFF731FE0134DFE7000070B5A025C0
:104E50000826094CED050520AE62FEF707F8FF2095
:104E6000FEF704F8AE61C00705D50A20013CFFF744
:104E70001BFE002CEFD170BD40420F0070B5A02486
:104E800008250600E405A5620620FDF7EFFFA561F1
:104E9000FFF7DCFFA5622020FDF7E8FF3000FDF7FB
:104EA000F5FFA561FFF7D2FF70BD000010B504004B
:104EB000FFF7E4FF054B1B68A34205D18022FF21C9
:104EC0000348520114F006FA10BDC046300000201D
:104ED000C0070020F0B587B06B46049003921A7C9F
:104EE0008023A0255B0002919B1AED05039A019295
:104EF0009A4200D9019308231C00AB620620FDF7FB
:104F0000B5FFAC610220AC62FDF7B0FF0498FDF77D
:104F1000BDFF029C019AA6180F2A5BD94022314C92
:104F200004202368304E9343236012F0A5FD052032
:104F300012F0A2FD80222D4B52015A600021042064
:104F400012F036FD9021052012F032FD284F294B3A
:104F50000420F3600199B76012F03AFD264B0299E4
:104F60000520D9609F60019912F032FD234B022782
:104F700005930023059904200B7033683B4333608D
:104F800012F088FD052012F085FD012362681343AD
:104F90004022636023681343236063681F43676094
:104FA000059B1B78002BFBD00823AB61FFF74EFF5E
:104FB000019A049B944663440493029B63440293C6
:104FC000039B9B1A03938023039A5B00002A8DD1D5
:104FD00007B0F0BD20780134FDF748FFB442F9D1A5
:104FE000E2E7C046003800404400024000000240B2
:104FF0000C380040C417002058000240C0170020A1
:10500000F0B587B0059380230705040B3F0D5B01C6
:105010000190029103922403DE1B039B002B03D11A
:10502000FFF714FF07B0F0BDFFF710FF039DB54277
:1050300000D935002B4E3368A34206D080222000D1
:1050400029495201FFF710FB3460274E2A00BE1990
:105050003100029814F0B4FA002826D00023F25C44
:10506000FF2A31D101339D42F9D100232A003000BB
:105070000299049314F05DFA049B002B2DD02000BC
:10508000FFF7FCFEFFF7E2FE059B174E002B1DD03D
:10509000EF193A0031002000FFF71CFF8022520177
:1050A000FF21D21BF01914F015F9019B00275B19A1
:1050B0000193029B5B190293039B5B1B0393802369
:1050C0005B011E00E418A8E70123CFE7802231002E
:1050D00020005201FFF7FEFEE7E72A00029901983F
:1050E000F8E7C04630000020C007002080201C499F
:1050F00080010B6810B5034230D00224194B1A68A6
:1051000022422BD01A68A2431A6048600A20FFF797
:10511000CBFCC021144A154B49019868084202D0C3
:10512000013A002AF9D180210F4A9868084202D03A
:10513000013A002AF9D1C0210B4AC90098680842F7
:1051400002D0013A002AF9D102215A688A435A60F2
:105150005A6801398A435A60054B197010BDC04620
:1051600000000240440002401127000000380040C7
:10517000C017002070B540262025094C0120A661EB
:10518000FFF792FCA5610120FFF78EFCA6620120CB
:10519000FFF78AFCA5620120FFF786FC70BDC046C0
:1051A0000014005070B540252026094C0120A5624E
:1051B000FFF77AFCA6620120FFF776FCA6610120CA
:1051C000FFF772FCA5610120FFF76EFC70BDC046C1
:1051D00000140050F7B5234C234A23680190134074
:1051E0002360082300252027012600933000A762B2
:1051F000FFF75AFC3000A761FFF756FC3000FFF7BD
:1052000053FC23696D00EDB25B0600D535433000D9
:10521000A762FFF749FC009B013BDBB20093002B28
:10522000E4D12268104B01201A4080235B01134314
:105230002360A762FFF738FC019A4023002A0ED0B2
:10524000A36120260120FFF72FFCA6610120FFF7B4
:105250002BFCA6620120FFF727FC2800FEBDA362FD
:10526000EFE7C04600140050FFCFFFFFF8B5202342
:10527000264C0500A3620120FFF716FC08266BB23E
:10528000002B3EDB4023A36220270120FFF70CFC0C
:10529000013E0120A761FFF707FC6D000120A76216
:1052A000F6B2FFF701FCEDB2002EE8D140252368ED
:1052B000174E012033402360A561FFF7F5FBA7617E
:1052C0000120FFF7F1FBDF3723691A002A402B4248
:1052D0001AD0013F0120FFB2FFF7E6FB002FF3D108
:1052E00001256D422023A3620120FFF7DDFB80230F
:1052F00022685B0132401343236040232800A361EE
:10530000F8BD4023A361BFE71500EBE70014005090
:10531000FFCFFFFFF7B52F490B78DAB20192132BBD
:1053200014D02D4C087823780525C0B2002B00D06E
:1053300028352A4A13780133DBB21370AB4204D309
:1053400013230B70002313702370FEBD78230024F9
:10535000234DAB6100260823370000930A20FFF796
:10536000A3FB3A00F0272B693F021F40974212D15E
:10537000012E18D00126009B013B0093002BEDD19C
:105380000134052C0DD078230122AB61713B1B1B2E
:105390009A40AA62DEE70026EDE7320010E0022222
:1053A0000EE0019812E080211A0009020A400B4227
:1053B00006D05A04F1D59A04F1D50322DB04DFD4D8
:1053C000084BA1005B18985C1328D9D07823AB61F7
:1053D000BBE7C0462D000020BE070020BF0700200D
:1053E00000040050B3AD010810B532246320FEF76D
:1053F000E9FAC0B2C72806D9013C0120E4B2FFF7A0
:1054000053FB002CF2D1FFF743F8FFF741F810BD32
:1054100070B5FFF7E9FF1A4A0400031C904201D956
:10542000184B1B88184A083312689BB20232D17F8E
:10543000164A1588164A954204D1002901D099428E
:1054400012D970BD134E2A1CB54201D9124A1288D6
:10545000103292B29A42F4D80A1C082900D20822CB
:10546000083A92B29A42ECD8AF204000FFF71CFBFA
:10547000FFF7BAFF231C844200D2031C98B2E0E776
:10548000F7FF0000DAA001083C1D00200400002006
:10549000FFFF0000EFFF0000D8A00108604BF0B54F
:1054A0001C68604B85B01B68002B00D1A8E05E4BE8
:1054B0001B78002B00D19DE0A31CDB7F002B00D1CB
:1054C00098E03020FEF77EFA0626584A584B1040E6
:1054D0001880FEF7BDF82060200007F0C1F82369AE
:1054E0001D68544B1B68002B06D0534A127852B2E9
:1054F000002A4ADD9D424CD32800FFF78FF8FFF7C2
:1055000087FF0500FDF76AFE2800FDF795FE0028DD
:1055100061D0A18B4B1EF82B28D8FA20236880007D
:105520000293FDF791FA502800DD50200026370045
:1055300083B2039323691B680193FEF789F8206007
:10554000200007F08DF8236918683B4B1B785BB28D
:10555000002B21DD019B834223D9029B2000236085
:1055600007F07EF823691868FFF758F80122334BDB
:105570001A70200007F074F8200006F05DFF01208B
:105580000CF050FA09222E4B2EE0002AB4D09D4296
:10559000B2D9FDF73DFEAFE7002B02D0019B83425D
:1055A000DBD3FFF73BF8FFF71FFF854209D2050069
:1055B0000027236802930136039BB6B2B342B9D1E8
:1055C000CBE78542F7D9281A0728F4DD0137FFB267
:1055D000022FF0D9C1E7013EF6B2002E00D078E7E5
:1055E0000122164B1E70164B1A800122154B1A70A1
:1055F00005B0F0BD114A1370FEF72AF82060B8E735
:105600000E4A0D491370208E0F4AC00009781318F6
:105610005B68825849B22000FEF704F8EEE7C04606
:105620003C1D00202807002003000020FFFDFFFF95
:105630003A04002040040020E01D00203D0400202A
:105640002E070020281E002004AB0108F0B5D24B25
:10565000D24C1A7895B0531E182B3DD823008021C8
:105660002A331B78C9000593A38D8B4231D01BB21E
:10567000E58D8D4236D02DB2C9490191098802913C
:10568000059900290ED0C7490E780391002E2CD021
:10569000012E00D13DE10323039A1370C24B019AFE
:1056A0001B8813800025BE4B01221E88BF4B5D570F
:1056B0002300701929331B78290080B206F088FE78
:1056C000BB4B0700984200D035E1FDF7A1FD002754
:1056D0001BE001235B42CBE7012301215B421D005C
:1056E0000591C9E701256D42C6E7AF4902980880D8
:1056F000002B00DA0DE19FB23100380006F02EFEDB
:10570000002800D105E1039B1E70019B1F80237BB5
:105710001A1D5B00E752A74B52001B68A752039368
:10572000DF83A54B1B78002B00D169E1039B02337B
:10573000DB7F002B00D127E11022380108A9FEF7FA
:1057400093FF089B0193013B033300D919E1152016
:1057500008ABC0181B22002113F0BCFD019B099E61
:105760000C930E93954B9E4200D9954E109608AB24
:105770009B7A0F241A0008A922401B090A750B778F
:105780000CA8097A06F048FE08AB597A0EA806F074
:1057900043FE08ABDB7A1C400294022C01D90022A4
:1057A000029202990CAA11761D092F2B00D900250F
:1057B000D57508AB9B7B0493172B01D90423049365
:1057C000049B0CAA049993757E4B4900CB5A012186
:1057D0000793938208AB1B7BFF2B00D0BAE0517676
:1057E0000691029B012B00D1C4E0022B00D1C5E041
:1057F00008AB5B7BFF2B06D01B075B0F042B00D98C
:1058000000230CAA9377482264496F4C0B7B20003D
:105810005343C918843113F08CFE0CAA11002300E5
:10582000E78381C981C39C46180088C988C0634644
:1058300007990298A1830499A661D9772100343190
:105840000D70611CC8772100507E2931087020003E
:10585000917E2B3001702000D67E2D300670200006
:10586000167F333006702000069E28300670907F29
:105870002200002901D01A00230022610122210008
:105880006361524B32311A70039B0870039E3433AC
:105890001C782D363278A54201D1002A16D01D7011
:1058A00000233370A54202D0280007F005F800203D
:1058B000012D03D13078002800D0032012F006F922
:1058C000A54203D00122424B52421A803020FEF7FB
:1058D00079F8404A404B104018800198FEF79EFE30
:1058E000FFF796FD0400FDF779FC2000FDF7A4FC0E
:1058F0003A4B002876D001221A70284B0221187BDF
:1059000007F078FE01200CF08DF80122344B1A705C
:105910007FE0230029331A78002D00DABBE6AFB20E
:105920000021380006F01AFD002800D1B3E601225C
:105930001C4B1A70E9E6002D05DD864200D8E4E62E
:10594000FDF766FCE1E6002D00D1DEE6864200D3DD
:10595000DBE6F5E718000840907658080840D07656
:10596000D806400F507658099B0908400B40107725
:10597000069336E7019B9B190E9339E7019B9B1B0E
:10598000FAE70022114B1A700022144B1A70029B86
:10599000BB423ED0B1E7C046751E00204C1E002021
:1059A0002C0700203904002030040020E01D0020D6
:1059B000FFFF00003C1D002003000020FFE0F50574
:1059C00040420F00ECAC0108E80300203C0400203A
:1059D00004000020FFFDFFFF3A0400203D040020EA
:1059E000281E00201870019A039B1A6001220B4B9D
:1059F0001A800B4B1A700598FDF76AFC15B0F0BDC4
:105A0000029BBB4200D078E7064B1B78002B00D0EE
:105A100073E70922014B1A80EDE7C0462E070020EC
:105A2000281E00203D040020F0B585B0041E03911F
:105A300007D0324A324BD17F19700023D377314AD5
:105A4000137006F01BFE06F001FB2F4B01932F4B4A
:105A50000293002812D0A02380220025DB055200EB
:105A60009A622B4B1D702B4B1D70019B1D70029B6E
:105A70001D7006F0F7FA28000BF09AFE0022264B64
:105A80001E68264BF78B1F80254B1A70254B039AF7
:105A90001A70FDF731FDFDF7BBFB8023224DDB00C3
:105AA0009F4221D2214B187806F012FC002804D125
:105AB000013006F025FC08F041FD002C03D0F38BEB
:105AC0001B4A2B601360FFF7C1FD1A4B2A681A604E
:105AD0003222194B1A800023184A1370019A13704E
:105AE000029A137005B0F0BD002C03D03368104A41
:105AF0002B601360FFF7D2FCE7E7C046521E002080
:105B000038040020A0060020BA1D0020BB1D002084
:105B1000441D0020300700203C1D00202C070020E1
:105B200039040020E01D0020A8060020751E00207A
:105B300034040020A40600202E070020530000207B
:105B4000010010B50020FFF76FFF074B1B68023301
:105B5000DA7F1423002A00D0133B044A138000226A
:105B6000034B1A7010BDC0463C1D00202E070020BC
:105B7000530000200A4B10B51A68002A01D1094AC7
:105B80001A601868084A4118914206D913F078FB48
:105B90000C2303600120404210BD1960FCE7C046A1
:105BA00038070020303100200040002070B506008A
:105BB0000D001400FEF720FE2A4B1B78002B1DD190
:105BC00029490B78002B19D00122284B1A70122E6C
:105BD00013D1002C11D1002D0FD0254B1A70254B5D
:105BE000254A1C701378002B01D10B7005E02D2184
:105BF000013BDBB21370214AD15470BD112E1DD070
:105C0000122E13D000230A2E1FD0AC42F5D1012052
:105C10001B4A174912780870002A1DD0172B1BD871
:105C2000184ADA40024217D00223DEE7164B002C56
:105C300002D044331B78E8E74333FBE7124B002CD8
:105C400001D04633F6E74533F4E79C42DDD020220D
:105C50000D4BFF329B5CD8E70C4A9B009B58984742
:105C6000CBE7C046FF1D0020DE1D0020BD1D00202B
:105C7000191E0020570000202407002015070020CF
:105C80001A1E00202CDCF2004C1E002048AD01083A
:105C90000E4910B50A780E4B002A0AD10833D87F76
:105CA0000C4A10703D22DA7701230B70FEF78EFF4D
:105CB00010BD2221084AFF31595C12780833914205
:105CC00002D10022DA77F1E73D22FBE70707002047
:105CD0004C1E002006070020D0170020BFF34F8F76
:105CE000034B044ADA60BFF34F8FC046FDE7C0465E
:105CF00000ED00E00400FA05F7B50190FDF710FA99
:105D0000E122424B424E52011A803378002B01D0DF
:105D10000FF0ECFFA0238022DB0552009A613D4B7F
:105D2000FF3A1A703C4B1B789B0701D5FEF74EFFDC
:105D300000223A4B3A4C9A563A4F3B4D002A1DD11D
:105D4000631DDB7F002B44D1FEF7AAFB3B68343395
:105D5000187806F0B1FD01980BF02AFD019B022B8B
:105D600002D03378002B4CD0304B1B78012B02D063
:105D700000200FF05FFA01232B70F7BD2834FDF7E8
:105D800047FA2378502B20D9294A1178002909D1C4
:105D9000503B1900FA235B004B4326499BB20B8012
:105DA0000123137000228020234BC0001A70234A65
:105DB000234B116819603968CB8B834200D30B6881
:105DC000136001221F4B1A70BEE70022194B1A8084
:105DD000E8E70634E17F4B424B413C205B42FF3019
:105DE0000340194869330380184B1A70002902D107
:105DF0000122174B1A700022164B1A7001232B70C8
:105E0000A2E70122144B1A70B5E7C046221E0020FB
:105E10001A1E0020441D0020AC060020E01D0020BA
:105E20004C1E00203C1D00202D1E0020FF1D0020C8
:105E3000BB1D00202E07002053000020A8060020D4
:105E4000A4060020A0060020BC060020520000206E
:105E5000BC1D002025070020281E002010B5174B70
:105E60001B78022B08D006F009FC01200BF0DAFDAC
:105E70000220FFF741FF10BD0022114B1A70114B99
:105E80001B785BB2934208D0FA210F4B490019806E
:105E90000E4B1A700E4B01321A7001200BF0C2FD2E
:105EA0000C4B0D4C1B78002B04D010F00BFA032385
:105EB0002370E0E7094B1B78FAE7C046261E002056
:105EC00030070020E01D00202E0700205300002096
:105ED000BB1D00201A1E002057000020FF1D0020BF
:105EE0001E4B10B51B78D8B2002B09D11C4B1B7868
:105EF000002B04D00BF05CFC01221A4B1A7010BD71
:105F0000194B1A78194B1B78134359424B411849C6
:105F1000DBB20978C8B2002905D0012A03D10021DB
:105F2000144B1970030014490978002912D0134941
:105F3000097801290ED1023A012A0BD80022104B10
:105F40001A70104B04201B78002B00D00238FFF78A
:105F5000D3FED4E7002BF4D1D1E7C046BE06002023
:105F6000261E0020281E0020BB060020E01D002069
:105F7000BA060020B9060020B8060020B7060020A7
:105F8000B60600203007002010B51A491A4B0878D1
:105F90001A781A4B00280FD0032A0FD0184A12780B
:105FA000D0B2002A00D108701B88164A9B18062B15
:105FB0001DD9FFF74BFB12E0032AF5D11B88114ACC
:105FC0009B18062B03D9104B1B78002BF1D10F4BDC
:105FD00004201B78002B00D00238FFF78DFE002331
:105FE0000B4A13700B4A13700B4A137010BDFFF766
:105FF00055FAF4E73D040020261E00202C0700205F
:10600000BE06002000FCFFFFBB060020300700207A
:10601000BB1D0020BA1D002053000020F8B5C04C65
:106020000E00657B002902D00122BE4B1A70237F2F
:10603000002B04D0022802D0FEF7DEFBF8BDBA4BDD
:106040001B78012B03D1B74B02221A70F6E71228F6
:1060500000D93DE2FCF764FC130016008D009300AC
:106060009900A500DC00DF00CA01D9013C02F30160
:10607000F3013C023C023C023C0218021802FEF70B
:1060800077FADBE7A94BAA491A68D38B5B18062B72
:1060900043D9FEF7B1FB231DDB7F002BD3D0A54BEB
:1060A0001B78002BCFD1A44B1B785BB2002B0BD0FD
:1060B000A24B1B78032BC1D1A14B1B78002BBDD069
:1060C000A04B1B88002BB9D08023627BDB005100E2
:1060D000605A9842B2D248235343E3181A008020F2
:1060E000B4321288C000121892B2A23362521A80DF
:1060F00006F0C4FA944B1C68200006F0B1FA2000A8
:1061000006F09AF901200BF08DFC01238F4A1380D1
:106110008F4A13708F4A137090E7138E062B07D1A6
:1061200011698D480E68864202D88C4B0B6085E75A
:1061300001339BB21386042B17D1894B1B78002B9C
:1061400001D105331386138E8022D2009B180122C1
:106150009BB26D0063536519AB807D4B1A70814B08
:1061600092181A70804B00226FE7062BEBD90023A0
:10617000E8E701227B4B1A70FDF7FAF85EE701228F
:10618000784B1A70FDF794FB58E7FEF735FB0020BB
:106190000634764BE27FE0771A700CF0E3FA724B2C
:1061A00052E7002E04D111F09FFC6F4B1E7045E7A3
:1061B00005F030FD051E00D040E75C4B1C688023D5
:1061C000E08BDB00984202D3FDF790F836E705F04C
:1061D000F7FF037801007F2B0AD97F221340037059
:1061E000E08B05F0DDFF01225E4B1A70604B2CE75F
:1061F00022002E3213780133DBB2192B00D92B0089
:106200001370012321001A00E08B11F05FFBEAE715
:10621000FCF76EFE12E7574D2B78002B02D010F0E2
:10622000C5FD0BE7621DD27F534B1A70A21D534B65
:10623000D27F1A70524B1A78002A01D101321A709B
:106240000023504AA38413704F4A137006F016FAC5
:106250004E4A4F4E1378002B04D14E4B31781970B3
:106260000123137001274C4B38001F700BF0DAFB31
:106270004A490A78002A05D141342078484B0F70EA
:10628000187022700124FEF750F802203470FFF7D6
:1062900033FD00231421434A1370434A1370434AC9
:1062A0001170C821424A89001180424A1470424A42
:1062B0001370424A1370424A1370424A1370424AA2
:1062C000137010F045FD414B414A188803234343A6
:1062D0001188994200D01380012010F0CBFC0122DC
:1062E0003C4B2A701A7000217F323B4812F0F2FFBB
:1062F00080220021394812F0EDFF80220021384829
:1063000012F0E8FF00218022364812F0E3FF00225D
:10631000354B1A7010F09CF9022005F08BFC8DE6CD
:106320004C1E0020191E0020FF1D00201C1E0020F6
:1063300000FCFFFFFA1D0020E01D0020261E0020AB
:10634000BA1D00202E0700203C1D0020320700202F
:1063500094060020281E0020FFE0F50500E1F50569
:10636000E40300200307002057000020E30300207F
:1063700093060020D71D0020E2030020E103002047
:10638000E00300202507002052000020DF0300204A
:1063900030070020DE030020BC1D0020DD030020AC
:1063A000DC030020470500204B05002001000020F1
:1063B0000C00002000000020DB030020DA03002096
:1063C000F4050020D9030020D80300201C00002081
:1063D00010000020F6050020331B0020B31B002016
:1063E000331C0020B31C0020BD070020002E02D16A
:1063F000FFF74EFC22E60121394B1B682B331A783C
:106400004A401A70374B198018E6002E02D1FEF769
:106410002DFC13E6260000224A361100308805F0D4
:106420009DFF002800D109E632882B1D5B006D001E
:10643000E252625301222C4B1A702C4B04E62C4B77
:106440001B785BB2002B0BD00B2806D10A3805F065
:1064500057FF08F073F8274B85E601204042F6E726
:10646000254AE37D11780A2900D113700B2807D142
:10647000082B01D80133E37501221C4B1A70EAE79F
:10648000002BF9D0013BF6E7154B1C4D1968002392
:106490000C000834E27FEE5C964203D00133182BE7
:1064A000F9D10023122803D1172BD4D0012202E006
:1064B000FF22002BCFD0D218D2B2AB5C104AE377C8
:1064C000CB8B9B18062BD7D80122064B1A80D3E71B
:1064D000FEF792F9002E00D1B0E50122094BB4E598
:1064E0001C1E002032070020940600200307002015
:1064F000E01D0020BD07002002000020E3AA0108E3
:1065000000FCFFFF191E002010B5142200210248D4
:1065100012F0E0FE10BDC046021E002070B5414BD7
:1065200004001B78A0B0002B40D005F08FFD051EA5
:106530000BD103200EF07EFE3B4B1D703B4B1B78B6
:106540005EB2002B03D00FF0B9FC20B070BD384A0A
:10655000384B394D002C25D001216846117080221E
:10656000FE311E7012F0B6FE3300802269463348B9
:10657000FEF746FD6022FF21314812F0ABFEAB7DF5
:10658000304A9B075B0F9D5A2F4B07201D800FF051
:1065900073FB2E4B000918802200012128000FF008
:1065A00055FCD2E714701C70AD8AEDE705F032FBA4
:1065B000041ECAD11C4B1870254B1870FFF7A4FF9E
:1065C00006F05CF8200000240EF034FE214B1C572E
:1065D000002C16D08022204BD2001B88934202D37D
:1065E000FDF704F9B1E7012005F08AFE07F0A6FFE8
:1065F00007F0A0FC2000FFF7A3FA0122174B1A7046
:10660000A3E7174B1B685A1E9341164A01331370B8
:1066100007F090FC01210800FFF706FA124B1C70EE
:10662000EBE7C0461A1E002030070020DF1D0020C7
:10663000AA1D0020A61D00204C1E002028A000003E
:10664000461D00202CAF0108401D0020421D0020E7
:10665000171E0020E01D00202C0700202D1E00200A
:1066600028070020841E00202507002010B50120E7
:10667000FFF754FF10BD00000F2210B500210448A1
:1066800012F028FE0022034B1A70034B1A7010BD43
:106690001507002024070020DE1D0020114B70B5D7
:1066A0001B78002B03D1104B1B78002B07D0FFF772
:1066B000E3FF00220D4B1A700D4B01321A700D4B87
:1066C0000D4C1B780D4D002B03D123782A781343F2
:1066D00007D0FEF791F8002301222B702370044BA2
:1066E0001A7070BDDE1D0020240700205700002016
:1066F000281E0020BD070020201E00201B1E002099
:1067000010B51D4B1B78002B03D11C4B1B78012BA4
:1067100007D1002921D100281FD00222184B1A705E
:106720001BE0002915D1002818D1164A1278002A3A
:1067300001D1002B01D0032B0FD10123124A117874
:106740004B40137002D01022104B1A70104B0122D4
:10675000E5E7002801D0FCF7F3FD10BD084A032B44
:1067600002D001231370F8E70A4B1B78002BF8D0F6
:1067700002231370084BEAE71B1E0020FF1D0020B8
:10678000191E00201A1E0020BD070020201E002018
:106790002D1E0020DF1D0020BD1D00200022404BCB
:1067A00070B51A70904203D03E4B1B78934212D0C2
:1067B0003D4B1B78012B0DD10024FCF79BFF3B4B7D
:1067C00020001C7006F024F9394B1B78012B01D0F6
:1067D000384B1C7070BD05F01DFA354D002807D0F0
:1067E0000CF050F8344B1B78002B2ED0334B2AE0A2
:1067F000334B1B785BB2002B02D0FCF7F7FFF1E7BD
:10680000304B1B78002B05D00FF058FB0322294B8F
:106810001A70E7E72B78032B14D0234A1278012A49
:1068200003D1294A1278002AD4D0012B02D00022A9
:10683000204B1A702549264B09781A78002915D162
:10684000002A1AD1234B01221A700022224B1A70FF
:106850002B78012B04D0174B1978032900D01A701C
:1068600001221E4B1A701E4B1A70B3E7002A04D186
:106870001C4A1278002AE5D01A701A780E2A01D91B
:106880000E221A7000261B78164A174C17491370EF
:1068900020000E22CE5412F055FEA673D2E7C04659
:1068A0001B1E0020C91D0020261E0020AE1D00203A
:1068B000FF1D002057000020DC1D0020980600204E
:1068C000E01D0020DF1D00209E060020DE1D0020B0
:1068D0002407002034070020C80400202D1E0020BB
:1068E000281E0020E50300208C1F00201507002033
:1068F000F0B5B94F04003B780D00160085B0132B9E
:1069000007D0A34203D1002D01D113233B7005B062
:10691000F0BDB24A1278002A0FD0002901D1102808
:106920000AD1FCF7FDFBFEF751F9102C05D000222F
:10693000AB4B3C701A70EAE71C00AA4F3B78132B54
:10694000DFD1002D00D135E1A74B1B78002B00D102
:1069500030E1FCF7E5FBFEF739F9102CE7D1A34B4A
:1069600002931B78052B02D100200AF021FFFA22A6
:106970009F4B92001A809F4B01939F4B19780029DF
:1069800003D01E224A439D4B1A70002D00D06DE1AA
:106990009B4F3B78002B02D007F02CF83D70994FAD
:1069A0003B78002B03D007F05FF800233B70964F35
:1069B0003B78002B03D006F0EFFF00233B70934F92
:1069C0003B78002B13D0924B1A68019BD08B597BDC
:1069D000012307F041FA00233B7005F01BF9002862
:1069E00005D18C4B1A78002A01D101321A7000228D
:1069F000894B1B78934207D0884B1B78934203D175
:106A0000874B1A7853425A417A4F7B7E002B01D133
:106A1000002A04D0029B1B78013B591E8B418149FF
:106A20000978002900D05AE1002B00D185E1102C13
:106A300000D056E17C4B1A780192002A05D00196CD
:106A4000002D02D11D7001230193784B03931B7815
:106A5000002B05D0102C01D00D2C01D1FDF7CCFE60
:106A6000019B002B11D1029B1B78012B00D009E266
:106A70006F4B02931B780193002B00D0C2E1102CC6
:106A800000D06FE12800FFF789FE554C20780028E0
:106A900003D005F0CFF800232370664C664A2378B4
:106AA0000192002B09D02822644B1A800BF020F9A8
:106AB0000123019A137000232370614C2378002B6B
:106AC00009D0002E00D058E306F0CEFF00230122AB
:106AD00023705C4B1A705C4B1A78002A06D0002297
:106AE0001A70964200D04CE306F056FF574B1A78C6
:106AF000002A06D000221A70964200D045E306F024
:106B000079FF534B434F03931B88524C0293002B46
:106B100023D0002E01D1002D0AD009F079F9404B85
:106B20001B78002801D0012B02D0022B00D030E3CB
:106B3000374B30491A686B46497B1B7AD08B07F07C
:106B40008BF905F067F83B78002803D1002B01D1C1
:106B500001333B700023039A13803D783E4E002D95
:106B600000D124E33D4B02931B78002B00D11AE3A4
:106B70002900002006F03EFD2900012006F03AFD24
:106B80002378FF2B01D100232370012333700023CE
:106B9000029A3B70137005F071FD01200AF042FF6C
:106BA000002333702E4B1B78002B00D103E3FFF73B
:106BB00055F900E30D2C00D0D1E62A4B1F78002FA9
:106BC00000D0CCE6284BDB7F002B00D1C7E6FDF7D9
:106BD000FDFF034B1F709AE629000020F61D0020E0
:106BE000191E002028000020C0060020261E0020BC
:106BF000500000204C1E00208A1E00202C1E002069
:106C00009D0600209C0600209B0600209A0600207E
:106C10001C1E002003070020D21D0020CE1D0020D6
:106C2000FF1D00209906002098060020BD070020C7
:106C3000350700209706002096060020001E002041
:106C4000100700202D1E002095060020940600202D
:106C50003207002057000020140700209306002070
:106C600030070020CF170020541E002009F0D0F874
:106C7000B64F102C03D1B64B1B78DB0727D53B78DA
:106C8000012B04D1132804D01538012801D9FDF7B0
:106C90009DFF0D2C1BD1002E19D0AE4B1B78002B65
:106CA00007D0FFF731FC0022AB4B1A70AB4B01321F
:106CB0001A70FFF7F3FC0122A94B1A70A94B1B783D
:106CC000002B01D0FFF7CAF80022A74B1A603B78CF
:106CD000012B00D08BE62822A44B1A8087E6002BDC
:106CE0002BD00D2C0DD1002D00D110E6002A00D1A3
:106CF00082E201209E4B1870984B187004F09AFFA6
:106D000005E60F2C0DD1002D00D100E6002E18D184
:106D1000022004F08FFF0422964B1A708F4B033A27
:106D200008E62300113B012B1AD90A2C00D05FE2A0
:106D3000002E15D1002DEBD0E9E5092C01D90F2C3F
:106D40000BD18D4B1B78002B0AD0002D00D1DEE536
:106D5000002E00D0DBE50220D0E7102C00D169E640
:106D6000864B68E6FE230293112C06D02000FCF728
:106D700037FB0290FF2800D187E6002D0CD1A0231D
:106D80008022DB0552009A627D4B28001D70FDF7C2
:106D900049FBFDF785FA78E6002E00D075E63B004A
:106DA0007A331B78002B07D0A0238022DB0552000A
:106DB0009A61734BFF3A1A70FDF772FA029B7A37A9
:106DC000FE2B04D138786F49FDF7EAFF5DE63C7889
:106DD000FDF7B2FAFDF7BEFA002C01D003230193B0
:106DE0000198FDF741FA68497020FDF725F8FDF795
:106DF00031FB6648FDF758FE0298FDF771F9FDF783
:106E0000B1FA42E6B54200D13FE6019B032B02D026
:106E1000002D00D139E6A0238022DB0552009A62C2
:106E20000022574B1A700223019A9A43012A01D17A
:106E30000BF008FB00235022029955480B70554B6C
:106E40001A80FDF731FE01200AF0ECFD3F4B1B7864
:106E5000012B02D00022504B1A704237387800289C
:106E60000BD10AF0A5FC01234C4A102C03D0434A55
:106E7000002E00D009E6137007E60A224243484B71
:106E80001A70F0E7474B364A02931B780192002BA9
:106E90001BD12E4B1F78FF2F09D02300113B012B54
:106EA00000D959E1039B1B78002B00D054E104F07A
:106EB000B1FE002800D057E1042F00D154E1320088
:106EC00029002000FEF772FEDFE5002E00D0DCE591
:106ED000002D00D1D9E5102C33D00122019B1A706E
:106EE0000C2C06D80A2C25D866D00223019A1370E0
:106EF00027E00D2CF9D1FDF721FF2B4B1B78012B3F
:106F00000DD12A4B2A4A1B88934208D0787B022154
:106F1000021D5200BB524200BB5206F06BFB05F053
:106F2000ADFB01200AF07EFD00200EF083F9002366
:106F3000029AA0E701211C4A13784B4013701D4BA5
:106F40001E700122054B1A709FE5C046FF1D0020F0
:106F5000AC060020021E0020171E0020281E002064
:106F6000191E00203007002028070020001E0020E6
:106F7000CE1D0020291E0020FA1D0020BD1D00206E
:106F8000441D0020D6060000C3C3000050C300000B
:106F900088130000B21D0020570000209806002032
:106FA0009E060020F31D00209206002026000020EF
:106FB000FFFF000091060020924C93492000934A65
:106FC00005F022FB230001222D331A70230020003C
:106FD00029331A7005F030FA8D4B01201C608D4B5F
:106FE0001C608D4B1C600AF01DFDFDF7E5F9FDF7F7
:106FF000A5FE8A4B1B78002B00D0A1E0884F4622CB
:107000000021380012F066F9864C874B8749884A80
:1070100023804B7BA2800222A27146325A438B18F6
:107020001800843000880192208118008630008882
:10703000608118009C3002884088A281E08118009D
:1070400089300078B222207418009130007894467C
:1070500060741800883000789C44A0741800903048
:1070600000786246E0741800B83000782075180087
:10707000A430007860751800AC300078A075180056
:10708000B7300078E0751800AD3000782076180031
:10709000B1300078127860761800AF300078A076B2
:1070A0001800B6300078E0761800AB3000786077D2
:1070B0001800B0300078A0771800B4300088E0776E
:1070C000601CC27718008022B930A23300781B8878
:1070D000F877D200574893422BD2190006F064FA91
:1070E000422138000EF000FB0627A31DD887524B23
:1070F00020200834E3870FF095FA504C277007F0F2
:1071000033FBFDF7D9FB05F0E3FA10F099FB88217A
:107110003620FCF791FE00210120FDF71FF805F055
:10712000ADFA01200AF07EFC01232370444B1F704E
:1071300007E7019ABA325118102212F0FAF9CFE794
:1071400002223E4B1A703F4B033A1A8000223E4BFC
:107150001A70FDF705FEF4E63C4BBF003200290033
:107160002000FB58984790E4002E00D08DE4002DBD
:1071700000D18AE40223019A7DE60122344B1A7081
:10718000A4E40122334B1A70B0E40122324B1A708E
:10719000B7E40122314B1A702378FF2B00D0D9E4D9
:1071A00000232370D6E4214B2900587BE6E4337892
:1071B000002B00D0EFE4019B1B78002B07D00023AD
:1071C000019A13702822264B1A8008F02FFE254DB5
:1071D0002B78002B03D00BF025FA00232B7020789E
:1071E0000EF028F8FF23012223701F4BFFF7A2FBAC
:1071F000002D01D1FFF78BFB002E01D0FFF787FB9D
:1072000086E5C046000600200504000090FE9602B8
:107210003C1D00201C1E0020381D0020920600206E
:107220004A06002048060020CDABFFFF4C1E002080
:10723000A5BEFFFF6A060020BADCFFFF9106002012
:10724000191E002026000020900600201CAD010819
:107250009C0600209B0600209D0600209A06002028
:10726000001E002034070020281E002000221020CD
:10727000110010B5FFF73CFB0022064B1A70064BBD
:107280001B78132B02D0054B01321A70FDF7E8FB77
:1072900010BDC046DC1D002058000020BD1D002090
:1072A000F0B5534B9BB01B780193052B00D0C5E084
:1072B000504B1B78002B00D1C0E04F4B1B78002BAC
:1072C00000D04BE24D4B1B78002B01D001F0CCF8E5
:1072D0004B4A4C4B147800932700781E87411B784B
:1072E000FFB2002B02D000210098017046490D78B2
:1072F000002D01D101F0EBF9002B03D1002C00D0BF
:1073000013700027414B1B78032B01D001F0B2F919
:107310003F4A13780133DBB2072B01D801F0B2F9F1
:1073200000201070FDF7DCFA2B00002F01D001F0D7
:10733000D6F9002B01D001F0DBF9364D2B78002B6C
:1073400005D0354B1B78002B01D001F0DEFC334B10
:107350001B78022B01D001F0D0F9314B1B881B07A1
:1073600005D180232F4A9B0151694B4053612E4A1E
:107370001388002B01D0013B13802C4A1388002B6B
:1073800001D0013B13801A4B1C78012C0ED1284BE5
:10739000187800280AD00138C0B21870002805D12A
:1073A0000AF006FA164B1C70009B1C702B78002B01
:1073B0000DD0204A1388002B09D0013B9BB21380CB
:1073C000002B04D10EF07EFF03200DF033FF04F0FC
:1073D00021FC002801D101F0F6F9174E3378002B7B
:1073E00001D101F0C7F9013B337001F0ECF9C0465F
:1073F000261E0020B51D0020D71D0020FE05002000
:107400002D1E0020281E0020C0060020C1060020DE
:10741000BF0600201A1E0020FE1D0020EC040020E4
:10742000CC1D002000080050B21D0020B01D00201F
:107430009E06002012070020E804002004F0EAFB6A
:10744000002800D039E70C20FCF7BCFA01231842D1
:1074500000D132E700210220FCF7EEFC0220FCF70D
:10746000B1FA082307043F0E04001F4226D00B2068
:10747000FCF7A8FA0005000FFBF7B2FF0600FF2893
:107480001CD0019B012B19D0C54B1B78002B15D0AC
:10749000C44D2800FBF71EFA0200132804D128006F
:1074A000C14912F01FF812220023AE54AD180C226D
:1074B0006B70BE4B1A70BE4B0B3A1A707B0702D52D
:1074C0000122BC4B1A7001231F4209D00122BA4B82
:1074D0000C201A70FCF776FAB84B800BC0B218700B
:1074E000BB0702D50022B44B1A70E5B2630602D581
:1074F0000122B34B1A70240602D50022B04B1A7039
:10750000EB062AD50122AF4B1A70AF4B09321A8015
:10751000AE4B9A7F002A20D0019A052A08D1AC4AA6
:107520001178002904D11420AA4A1080AA4A1170A7
:107530000533DB7F002B10D0A84AA94B1178002916
:1075400002D11988132908D8142119800023137037
:10755000A44A13700122A44B1A70AB0604D5002272
:10756000984B1A70984B1A806B070AD501229F4BD3
:10757000110005201A70FCF7F1FDE1229C4B52012D
:107580001A8008231D4205D00021984B0520197050
:10759000FCF7E4FDFB063CD5964B1C78042C38D157
:1075A000954B1B78012B34D1944B1B78002B30D199
:1075B000934E5F203378013CDAB20133DBB2337093
:1075C0000092FCF7FFF9009B8E4D5B00E852002C07
:1075D000EED13378232B1CD90122754B0B2034704C
:1075E0001A70FCF7EFF90600FDF7BAFBF60609D4AE
:1075F0002A88854B9A4205D12B000833DA8F834BBA
:107600009A4272D0FDF79AFBFDF7AAFB80480FF073
:1076100067FD30231F4200D115E77E4B1B78002BFE
:1076200000D110E77C4B1B78012B00D00BE77B4B84
:1076300000931B78022B02D0052B00D003E7042512
:107640006F4CBF0602D523782035ED1A0026AE42D6
:107650006DD123780123564E33702378232B00D825
:10766000F1E6237800230B202370FCF7ABF904002C
:10767000FDF776FB250010231D401C4266D1614CAE
:10768000614B22889A4261D123000833DA8F5F4B25
:107690009A425BD120200EF0C5FFA31D4221604815
:1076A000DF8F0EF021F8874250D1E388A2881B04B7
:1076B00013435C4A1B021B0A934247D10022280055
:1076C000110004F04BFE071E01D101F089FB80235D
:1076D0000135ADB2DB009D42F0D10423009A137056
:1076E000033B3370FDF72AFBADE622200EF09AFF34
:1076F00042214B480DF0F8FFAB1DDB8F834200D0D9
:1077000084E76D880EF05EFE8188A3B2994200D8AE
:107710007CE7062363430268D618D35AAB4204D8E9
:107720007388AB4201D901F0D5FB0134EDE75F204E
:10773000FCF748F92378232B06D823785A1CD2B2B9
:107740002270304A5B009852013680E70523009A88
:107750001370043B3370FDF739FA74E6324B009333
:107760001B78022B01D000F0D1FC304A117800299F
:1077700000D14EE12E4C2378002B02D0013B237028
:10778000A6E52C4D28780138052800D927E1FBF71C
:10779000C7F8530055000C01250125012801C046FA
:1077A000FC050020021E0020031E0020171E0020E2
:1077B000281E0020B1060020B8060020B7060020D1
:1077C000BA060020AF1D0020B01D00204C1E002076
:1077D000B51D0020F41D0020B61D00205200002021
:1077E000BC060020250700202D1E0020BE0600201C
:1077F000221E0020FF1D0020361D0020FD05002058
:107800009006002048060020CDAB0000BADC000046
:10781000FA050020F31D00209206002091060020AA
:107820004A060020A5BE0200F6050020F50500204E
:10783000A5050020A405002002232B70C24B1B6865
:10784000002B00D195E0C14A12789B5C002B00D13F
:107850008FE0BE4BBC4A1B781268D35C2E2B00D045
:1078600099E0BB4B01201988FDF79AFAB94B1888AB
:107870000A210530FBF7E8F820700322B64B1A7096
:107880000EF0E6FEB54B1B78002B00D020E519E585
:10789000059B9B5C1F00613F192F22D8203BDBB268
:1078A00000200090039F0098BC46C0003F5C8444C9
:1078B0009F4238D163465B68002B3AD108000B0029
:1078C0000132019FD5B2AF42E2D8002804D0002196
:1078D0009E4A11709C4A1160002B3AD0A04B1D703B
:1078E00037E0202BDCD1049B002BE8D0002EE6D122
:1078F000019F531C9F42E2DD002803D0934B1E7072
:10790000914B1E600123029A0A2113700522924BAB
:1079100001351A70934B18888018FBF795F8904B37
:1079200020701D70D4E40098013000903628B9D141
:10793000C4E718780028C1D00021844A01351170AD
:10794000814A13600122864B1D70874B1A70874B4A
:1079500019707D4B1868002806D0FAF7BBFF7B4BE7
:107960001B78834200D274E706227B4B1A70804B4F
:107970002AE000207F4B804D1B78059501937A4BC0
:107980007E4D1B7803950493784B1E780293744BBD
:107990001A78030095E72D2B00D06EE76C4B012081
:1079A0001988FDF7FDF9764B61E7FCF7D3FC674AD0
:1079B00013780133DBB21370634A1268D35C002B77
:1079C00009D002232B706F4B18880A210530FBF772
:1079D0003BF820707CE404232B70C8E702232B7053
:1079E00076E4002626700124009B16701C702E7011
:1079F000FCF7CCFC0220FEF77FF9634B30001E70D1
:107A0000624B1E7005F004F804F038FE604B1C70E9
:107A100036E7052206A811F05DFC5E4C5E4F237828
:107A20003878002B4AD05D4D2B78034346D126226F
:107A30005B4BFF329E5C2822FF329B5C5A1E312A30
:107A400000D91423322157485943FAF773FF564B94
:107A500080B2188003234343544A9BB21380544A94
:107A60001080544A138007224243534B1A80052347
:107A70003B70524B1A68524B1A800023514A2B70AC
:107A80001370514A1370514A1370514A1380514A6E
:107A90001370514A1370514A1360514A1360514A8E
:107AA00023701370504B514A1978002902D0117875
:107AB000B1420BD0167001221A7007E0052803D0DE
:107AC000494B1B78002B0DD100233B70484C237889
:107AD000012B00D013E3FCF73DFC02232370374B4E
:107AE0001A68A2E026222E4DFF32A95C01240A006A
:107AF000324E22403368214200D1C6E0334A137827
:107B0000090700D580E03B493B48096901408142B3
:107B10007AD0002B00D0E4E2147000220125374B0C
:107B2000334C1A80364B1D702378934200D0CFE23D
:107B3000A0230132DB05FF3232489A61FCF7B4FF23
:107B40000AF070FD25709DE6A00500209C05002030
:107B50000C0000201C000020A4050020D71D0020E0
:107B600048050020140000204A0500204905002097
:107B700012000020470500204B0500203CAB010807
:107B8000100000200E0000209F0600209E0600200E
:107B9000281E002017000020C8050020C70500206F
:107BA0004C1E002060EA0000BE050020BC0500203D
:107BB000BA050020B8050020B6050020CC0500203D
:107BC000C2050020C5050020C4050020B205002024
:107BD000B4050020B1050020B0050020AC05002050
:107BE000A8050020A6050020C605002016000020DC
:107BF000D20500200008005000040004241E0020CC
:107C0000DC1D0020204E000000215B00DBB2117063
:107C1000022B00D05AE7C14C2378012B00D06EE232
:107C2000FCF798FB022332682370BD4B1A80BD4BD2
:107C3000BB4A1B6811885B1A9BB2C72B00D821E690
:107C40000024B64BB84D14801C702C70FCF782FBDE
:107C500021005120FCF7F0F8200009F0E3FE20009D
:107C600009F0A6FDB14B20001C702C7004F0D0FE72
:107C700004F004FDAE4B1B78A34202D00220FEF7B5
:107C80003BF80123009A1370FAE593214900695CDF
:107C9000032900D092E008AF38000EF0A7FEA54DF2
:107CA00034682878A4B2052800D90FE7FAF724FE33
:107CB000031A32495A727B78002B02D003232B70AF
:107CC0002BE73B78002B00D100E79B4B14221C8054
:107CD0009A4B1B7859424B415B421A40984B1A8091
:107CE0000123ECE7944B964F1A880193954B398802
:107CF0001B88A21A5B1892B29BB29A4200D2F0E1A2
:107D000000200EF0CBFD00233B80019B1C80022352
:107D10002B7080E77B78884A002B01D01480CDE758
:107D20003B78002B03D1148004332B70CEE61388EC
:107D30008549E31A09889BB2994200D9C6E61480A6
:107D4000CEE77B78002B00D0CBE17B4F7E4A3B888F
:107D50001288E31A9BB29A4202D801200EF09EFDCF
:107D60003C80D4E77A78744B002A01D01C80A5E7C8
:107D70003A78002A01D01C80B2E71B88734AE31AC4
:107D800012889BB29A4200D9A0E602200EF086FD2E
:107D90000523CAE77A78684B002AE7D13E78002E9F
:107DA000E9D11B88E41A6A4BA4B21B88A34200D90C
:107DB0008CE603200EF072FD2E7087E69CB204283C
:107DC00000D983E1FAF7ACFD050033007B00F40035
:107DD000540106A80EF00AFE06AB1B7806AA5278DC
:107DE000002B14D1002A00D170E65A4A13700022E9
:107DF000594B1A70594B14321C80504B1B78594206
:107E00004B415B421A404E4B1A80554B2BE1002AE6
:107E1000EBD093235B00EA5C263BFF3B022A03D1B5
:107E200006AA12795340E0E74A4A1278FAE7494B2A
:107E30001D78444B002D00D14A4B1F88474B0293BD
:107E40001B88E31A9BB20193434B1B78002B11D183
:107E500006A80EF0CBFD9322434B52009B5C002BF7
:107E60001ED1002D19D006ABDB78002B02D00122E9
:107E7000394B1A70324A01991388DB19994200DA9A
:107E80002FE1002301201380029B68401C800EF02C
:107E900005FD0222324B1A70BDE606AB9B78E4E783
:107EA000012BE7D1002D07D1264B019A1B88934265
:107EB000F3D806AB1B78D8E706AB5B78D5E7274E3F
:107EC0003388E31A9BB20193234B1B78002B12D10A
:107ED00006A80EF08BFD93235B00EB5C022B0AD00F
:107EE0001C4B1B78002B15D006ABDB78002B02D087
:107EF0000122194B1A70144B019A1B88934200D926
:107F0000E4E5154B1978002930D0124B1A7801237B
:107F1000534039E006AB9B78E8E7C046D205002025
:107F2000D0050020CC050020DC1D00209F0600208D
:107F300030070020C7050020B4050020441D0020A4
:107F4000C0050020BE050020BA050020B8050020AD
:107F5000B6050020C5050020C4050020C20500208C
:107F6000C8050020BC0500204C1E002006A80EF00D
:107F70003DFD06AB1B7806AA5178002B04D00029E2
:107F800001D000F020FF19000020AC4A107081429F
:107F90000BD001223A70AA4A06A8348013700EF062
:107FA00025FDBAE5A64A1278B2E70322A54B83E580
:107FB000A54E3388E31A9FB2A44B1B88BB4247D916
:107FC00006A80EF013FD06AB1A780121002A00D195
:107FD00059789F4B188843081B189F421BDA0029C9
:107FE00000D173E506AB5978954B002A04D00029DF
:107FF00004D11A70348008E70029FAD19322520084
:10800000A95C263AFF3A022903D106A909794A4018
:10801000EFE71978FBE7002900D157E587490B788E
:10802000002B00D052E501330B7093214900685CAE
:10803000834902280AD1002A08D006A840780028DF
:1080400004D006AA127953400B703FE50A703DE553
:1080500002200EF023FC794A7A4B1178002905D0D2
:1080600000213480117001221A7056E5042223E5A4
:10807000754F06A83E880EF0B9FC06AB1B78002BA6
:1080800004D106AA52780192002A12D093225200FB
:10809000AA5C022A09D1002B07D006AA5278002A2E
:1080A00003D006AB1A7901235340654A3C80137014
:1080B000ABE6684BA61B1B88B6B2B34200D905E5F8
:1080C00003200EF0EBFB5F4B019AF5E45D4BF3E40C
:1080D000022B01D0FFF7FCF85F4B25701A80FFF7E9
:1080E000F7F8012200215D4B1A705D4B19805D4B42
:1080F0001978022900D11A703268574B1A80594BEF
:108100001B78022B01D0FFF7E3F890E5564B1A7865
:10811000002A04D1013202201A70FDF7EDFDFCF7B0
:10812000B7F9524A524B12685249128E9A560B783E
:10813000002B14D0504B1A78501C1870312A02D9D9
:1081400000220A701A704D490B785A1ED2B2FD2ACD
:1081500001D9FFF797FB01330B70FFF793FB43083F
:10816000A03A9B184649474A087800920025525F7A
:10817000454D9CB201951BB2002806D12D78002DEB
:1081800003D1934209DA009A1380009A0025525FC6
:10819000603208DB6122524203E015000132613592
:1081A000F3DA009D2A80009A0025525F1500813580
:1081B00016DB0A3212B2354E354D934213DB354A87
:1081C00013803378FF2B01D00133337000232B70E1
:1081D000984214D13378002B11D001230B700EE09C
:1081E00078225242E7E72B78FF2B01D001332B7026
:1081F00000233370984202D02A789A42EED1264E5C
:10820000264A0F783378264D0292002F77D0002B24
:108210000DD1244A1378FF2B46D10123002233705D
:10822000204B1A700EF014FA3378002B41D0029BC9
:108230001888042800D97AE001207DE0C4050020D8
:10824000C5050020C8050020C2050020B805002093
:10825000BA050020B6050020D0050020DC1D002056
:10826000241E0020D2050020300700203C1D0020E5
:108270001E000020F3050020F2050020F405002078
:10828000F10500201A000020F0050020E80500207C
:10829000E705002018000020E60500201C00002053
:1082A000E2050020E50500200133DBB21370032B4B
:1082B000B3D82C88002C02D120000EF02FFC012313
:1082C00001341C402C80029B01261888042804D904
:1082D0000A210530FAF7B8FB86B207247443019BE4
