:020000040800F2
:1028000000400020352D00081D2D00081F2D000858
:1028100000000000000000000000000000000000B8
:10282000000000000000000000000000212D000852
:102830000000000000000000232D000845C0000833
:10284000852D0008852D0008852D0008852D0008A0
:10285000852D0008852D0008852D0008852D000890
:10286000852D0008852D0008852D00088D4600085F
:10287000852D0008852D0008852D0008852D000870
:10288000852D0008852D0008852D0008852D000860
:10289000852D0008852D0008852D0008852D000850
:1028A000852D0008852D0008852D0008852D000840
:1028B000852D0008852D000800000000B15A010890
:1028C00002B4714649084900095649008E4402BCC9
:1028D0007047C04602B4714649084900095C490086
:1028E0008E4402BC7047C04603B47146490840009C
:1028F0004900095E49008E4403BC704703B4714629
:10290000490840004900095A49008E4403BC7047F9
:10291000002243088B4274D303098B425FD3030A1E
:102920008B4244D3030B8B4228D3030C8B420DD331
:10293000FF22090212BA030C8B4202D312120902BF
:1029400065D0030B8B4219D300E0090AC30B8B42FD
:1029500001D3CB03C01A5241830B8B4201D38B03AB
:10296000C01A5241430B8B4201D34B03C01A524150
:10297000030B8B4201D30B03C01A5241C30A8B4293
:1029800001D3CB02C01A5241830A8B4201D38B027E
:10299000C01A5241430A8B4201D34B02C01A524122
:1029A000030A8B4201D30B02C01A5241CDD2C30994
:1029B0008B4201D3CB01C01A524183098B4201D310
:1029C0008B01C01A524143098B4201D34B01C01AFB
:1029D000524103098B4201D30B01C01A5241C30873
:1029E0008B4201D3CB00C01A524183088B4201D3E2
:1029F0008B00C01A524143088B4201D34B00C01ACE
:102A00005241411A00D20146524110467047FFE739
:102A100001B5002000F0F0F802BDC0460029F7D053
:102A200076E7704703460B437FD4002243088B426E
:102A300074D303098B425FD3030A8B4244D3030B45
:102A40008B4228D3030C8B420DD3FF22090212BA0A
:102A5000030C8B4202D31212090265D0030B8B4286
:102A600019D300E0090AC30B8B4201D3CB03C01A70
:102A70005241830B8B4201D38B03C01A5241430B4B
:102A80008B4201D34B03C01A5241030B8B4201D33B
:102A90000B03C01A5241C30A8B4201D3CB02C01AA6
:102AA0005241830A8B4201D38B02C01A5241430A1E
:102AB0008B4201D34B02C01A5241030A8B4201D30D
:102AC0000B02C01A5241CDD2C3098B4201D3CB01B4
:102AD000C01A524183098B4201D38B01C01A524163
:102AE00043098B4201D34B01C01A524103098B4267
:102AF00001D30B01C01A5241C3088B4201D3CB0052
:102B0000C01A524183088B4201D38B00C01A524134
:102B100043088B4201D34B00C01A5241411A00D2E4
:102B200001465241104670475DE0CA0F00D049424D
:102B3000031000D34042534000229C4603098B42BD
:102B40002DD3030A8B4212D3FC22890112BA030A45
:102B50008B420CD3890192118B4208D389019211C7
:102B60008B4204D389013AD0921100E08909C3094C
:102B70008B4201D3CB01C01A524183098B4201D34E
:102B80008B01C01A524143098B4201D34B01C01A39
:102B9000524103098B4201D30B01C01A5241C308B1
:102BA0008B4201D3CB00C01A524183088B4201D320
:102BB0008B00C01A5241D9D243088B4201D34B003B
:102BC000C01A5241411A00D20146634652415B107D
:102BD000104601D34042002B00D54942704763465E
:102BE0005B1000D3404201B5002000F005F802BDA3
:102BF0000029F8D016E770477047C0461C21012312
:102C00001B04984201D3000C10391B0A984201D3CF
:102C1000000A08391B09984201D30009043902A2AD
:102C2000105C40187047C046040302020101010114
:102C300000000000000000000023C25C0133002AF5
:102C4000FBD1581E704700000448054B10B5834265
:102C500003D0044B002B00D0984710BD5C0100202E
:102C60005C0100200000000006480749091A8B108B
:102C7000C90FC91810B5491003D0044B002B00D060
:102C8000984710BD5C0100205C010020000000009E
:102C900010B5074C2378002B09D1FFF7D5FF054B62
:102CA000002B02D0044800E000BF0123237010BDB8
:102CB000C002002000000000485F0108054B10B56D
:102CC000002B03D00449054800E000BFFFF7CCFF0C
:102CD00010BDC04600000000C4020020485F01088B
:102CE00007B501210B4B0C481A6C0A431A641A6C85
:102CF0000A4080210192019ADA6B49050A43DA639E
:102D0000DB6B0B400093009B00F03EF90DF066FB7F
:102D1000FEE7C04600100240006CDC027047FEE790
:102D200070477047014B024A9A60704700ED00E01F
:102D3000002800080D488546FFF7F4FF0C480D49B0
:102D40000D4A002302E0D458C4500433C4188C4206
:102D5000F9D30A4A0A4C002301E013600432A2426C
:102D6000FBD313F07DF8FFF7BBFFFEE70040002028
:102D7000000000205C010020A07F0108C0020020AC
:102D8000C0320020FEE70000054B064A9B681B0589
:102D90001B0F9B009B581F221340D8407047C04612
:102DA0000010024094600108054B064A9B685B04D2
:102DB0005B0F9B009B581F221340D8407047C046B2
:102DC00000100240746001080A4AD368DB439B0785
:102DD0000BD0536808491B045B0F9B0058580C2309
:102DE000D2681A4203D1400070470448F7E7032332
:102DF0005843F9E7001002405460010800366E01A4
:102E00003821104A10B593680B40102B15D00DD8FF
:102E1000082B15D00720536812685B0B03400A4942
:102E20009B00D20A02405858D04008E00821183BC5
:102E30008B43EFD18020000201E0FFF7C5FF10BDFA
:102E40000248FCE7001002405460010800366E01A1
:102E500010B50400FFF7D4FF2060FFF795FF606016
:102E6000FFF7A2FFA06010BD104B10B5CB5CD4687B
:102E7000C0189368016823431469234354692343AA
:102E800094692343D4692343546A2343084C214063
:102E90000B4303605368C3601368126A836043681E
:102EA0001B0C1B0413434360002010BDD3600108BA
:102EB0000F80FFFF0023036043608360C3600361F2
:102EC00043618361C361036243627047F7B50025C4
:102ED0004B680A6800935F1E1300EB4009D1012F75
:102EE00005D84368C96893434A43134343600020AD
:102EF000FEBD01241300AC40234022422BD01A0017
:102F000003265A435643B446F64301966646046880
:102F1000B443009E564334430460012F06D88C68A6
:102F200087685443019E37403C4384600C69C768FE
:102F30005443019E37403C43C460009C022C0AD19C
:102F40004C69FF2B09D80F26524356436243036A4C
:102F5000B3431A4302620135BAE70F261B0A5B43EB
:102F60005B435E435C43426AB24322434262F2E700
:102F7000044B03600323436000238360C360036149
:102F800043617047FFFF0000014B18607047C04667
:102F9000000000200368020070B501205B0620D409
:102FA0004E680B68486933438E6815683343CE68B2
:102FB0000C6A33430E6933438E6903433343CE694E
:102FC000000C33430B4E234335402B430425136041
:102FD0005368AB431843802350609B019C4205D04B
:102FE0000020D36904490B40D36170BD4B6A9BB28A
:102FF0001361F5E74000FFFFFFF7FFFF00230360C9
:1030000043608360C360036143618361C3610362A2
:1030100007334362704700007FB5C36804000D00AA
:103020009B0402D5012004B070BD4B68C968C2681A
:103030000B4329690B432D490A401343C36043697D
:103040002B4A1340AA69134343610369294A134079
:10305000AA68134303614369274A13406A6913430B
:10306000436101A8FFF7F4FE039B002BDAD0296827
:103070000029D7D0192058438023AA691B019A42FE
:103080001DD14900FFF744FC64210600FFF7C6FC90
:10309000C80032306421FFF73BFC642185B2300068
:1030A000FFF736FC072300012B40C018F8236D0002
:1030B0005B001D40401980B2A0600020B3E789008A
:1030C000FFF726FC64210600FFF7A8FC0801323058
:1030D0006421FFF71DFC642105003000FFF718FC98
:1030E00000012D18ADB2A560E7E7C046F3E9FFFF88
:1030F000FFF7FFFFFFCFFFFFFFFCFFFF96239B01C2
:103100000C2203600023026143608360C36043615B
:103110008361704710B5074B1B78012B05D8082039
:1031200007F040F8082007F03DF80022024B1A7023
:1031300010BDC046761C00208400002037B5202238
:103140000125254B254CD96B1143D963D96B11400F
:1031500001910199996B29439963996B29400091D9
:103160000099D96A1143D962D96A9143D96200237F
:10317000F021A3621A4B89011868FFF7C9FB80236D
:103180000138E06222681748134323608023E26815
:103190005B0013430222E360236893432360124BD6
:1031A0001A68AA431A60C168104A11409C2292030F
:1031B0000A43C26019680E4A11400E4A0A43402170
:1031C0001A600D4ADA600D4A9A605A68120C1204AD
:1031D0000A435A6037BDC046001002400014004048
:1031E000000000200000014080000240FFFFC0FFFF
:1031F0000F80FFFFB02A0000E402002018140050E6
:10320000014B18787047C046E0020020F8B5274D02
:1032100004002B78834211D0002810D10120244AC9
:10322000136883431360234A13688343136001F0D8
:1032300095FD8022204B52009A622C70F8BD1F4BE6
:10324000FF211E5CB6013000FFF762FBFF23002266
:103250009B019E421BD01100194E0B0082424B4134
:10326000184F5B423B4001339700FF330132F3516B
:10327000402AF2D101230E4A11681942DDD10D48CE
:1032800001681943016011680B431360D5E7012100
:10329000074A13688B431360064A13688B43136015
:1032A0008022054B52009A61C7E7C046DC0200202D
:1032B000001400408000024000140050DB60010850
:1032C000E402002000FFFF0010B5054B587DFFF71A
:1032D0009DFF0022034B1A80034B1A7010BDC0469D
:1032E0003F1D0020E2020020E0020020782170B59E
:1032F000184A194B1278194C4A431A80184A194B2C
:103300001278194D1A70194BDB7F002B07D1FFF78C
:10331000DBFF2B78002B01D0FFF7FCFE70BD0122F4
:10332000134B1A702300FF33987D2B78002B0ED09F
:10333000FFF76CFFFFF7EEFE0334E17F00230D4A39
:103340003D2902D00A234B4301331380E6E7FFF700
:103350005DFFF1E790000020DE020020401C00200D
:10336000DC0200209119002084000020431C002072
:10337000E0020020E2020020F8B5802304000826C5
:103380000127114D5B00AB6263B2002B17DB80237A
:103390009B00AB62380001F0E1FC80235B00380049
:1033A000AB6101F0DBFC80235B0038006400AB62A2
:1033B000013E01F0D3FCE4B2002EE5D1F8BD80233C
:1033C0009B00AB61E6E7C04600040050F7B58025DE
:1033D0008026214C214FAD0076000190BD61012077
:1033E000A66201F0BBFC8020019BBD620343180074
:1033F000FFF7C2FF23681A4A01201340236001F03F
:10340000ADFC102300250193012223696D005B0AA6
:1034100013401000ADB2A6611D4301F09FFC0120D6
:10342000A66201F09BFC019B013B0193002BEBD1B9
:1034300022680B4B01201A408023DB0213432360D8
:1034400080239B00BB6101F089FC80239B00280046
:10345000A661A361FEBDC0460004005000140050E8
:10346000FFFFF3FFF8B58023040010260127114D5C
:103470005B00AB6223B2002B17DB80239B00AB62A7
:10348000380001F06BFC80235B003800AB6101F079
:1034900065FC80235B0038006400AB62013E01F0F4
:1034A0005DFCA4B2002EE5D1F8BD80239B00AB618A
:1034B000E6E7C04600040050F7B5802480270F4E91
:1034C0000F4DA4007F0001910090B4610120AF6214
:1034D00001F044FC0098B462FFF74EFF012001F0B8
:1034E0003DFC0198FFF7BEFF012001F037FCB461FD
:1034F000012001F033FCAF61AC61F7BD0014005056
:10350000000400501FB580228021564B92009A6122
:10351000554B4900996180219A6100200902FFF70B
:10352000CBFF00210800FFF7C7FF37204F49FFF707
:10353000C3FF22213620FFF7BFFFC62110208900DC
:10354000FFF7BAFF11204A49FFF7B6FF1220494999
:10355000FFF7B2FF13204849FFF7AEFF8421142084
:103560008900FFF7A9FF49204449FFF7A5FF7B2009
:103570004349FFF7A1FF7D204249FFF79DFF482007
:103580004149FFF799FF40204049FFF795FF10227E
:1035900068463F4912F0A2FC00246B46195D2303E4
:1035A0001943092089B20134FFF786FF102CF4D1AA
:1035B000F8211C20C900FFF77FFF1D203549FFF7C8
:1035C0007BFF1E203449FFF777FF1F203349FFF7A9
:1035D00073FF3E203249FFF76FFF73203149FFF739
:1035E0006BFF77203049FFF767FF19202F49FFF75E
:1035F00063FFB42128200901FFF75EFFAA212920DB
:103600000902FFF759FFCC212A20C901FFF754FF17
:103610002C202749FFF750FF2F202649FFF74CFFAA
:1036200053202549FFF748FF7E202449FFF744FF38
:1036300046202349FFF740FF4A202249FFF73CFF7D
:1036400007202149FFF738FF9021204B204A3320E3
:1036500009021A80FFF730FF00213F20FFF72CFFFF
:103660001FBDC04600140050000400501F9D000004
:103670003A030000DB030000DF030000B22A000071
:10368000DC73000020E90000A833000016350000BC
:10369000E660010855E50000584C00005AC60000DD
:1036A000C694000091460000EF8800004E10000014
:1036B0002218000090980000282000003E300000F2
:1036C0000A60000030540000CE610000E6030020D4
:1036D0000090FFFF10B504007E20FFF777FEC34384
:1036E0009BB2DB0BA3420CD00123C0216340000539
:1036F000DB03000D18438901014389B27E20FFF7E7
:10370000DBFE10BD10B5134904001320FFF7D4FEF3
:1037100012201149FFF7D0FE11201049FFF7CCFE0F
:103720007A211020FFF7C8FE002C0DD000211420B4
:10373000FFF7C2FEC92149014920FFF7BDFE7B20EA
:103740000749FFF7B9FE10BD19211420FFF7B4FE99
:103750000449F1E7BE0300007B0300007B02000088
:1037600020840000382A000010B5094C2388002965
:1037700008D04022C240134399B233202180FFF782
:103780009BFE10BD4121494201411940F5E7C04669
:10379000E603002010B5040051200A49FFF78CFE13
:1037A00007200949FFF788FE21050820090DFFF7CA
:1037B00083FE802321021B02090D08201943FFF715
:1037C0007BFE10BD33A00000D70A00000C4B10B5E3
:1037D000C1184B1E9941040049420A4B890A8902CB
:1037E000C9185120FFF768FE0748084B6043084995
:1037F000C018FFF78DF881B20720FFF75DFE10BDFE
:10380000BFF5FFFF409400009826030050C300005E
:10381000A0860100074B0100400810B5C018FFF753
:1038200077F880218901014389B20720FFF744FE20
:1038300010BDC046D6DF030070B5040031200D0076
:10384000FFF7C4FDA02361051B02490D19430600C3
:103850004620FFF731FEC0216D056D0D490129435A
:103860007920FFF729FE7A200449FFF725FE04217D
:103870003143312089B2FFF71FFE70BD9A28000046
:103880005C2110B5032802D8034B4000C15A4320E5
:10389000FFF712FE10BDC04650670108064A2223FA
:1038A00010B5914200D81A3B802100021843014311
:1038B0003620FFF701FE10BDFF3EAB0110B504003E
:1038C00081B23820FFF7F8FD3920210CFFF7F4FD15
:1038D00010BD000010B50349000201434720FFF767
:1038E000EBFD10BD42600000F0B5CCB285B0200009
:1038F0001E000D0A0291FFF769FD01AFFB88EDB2D2
:10390000AB400100AE4099433143200089B2FFF73C
:10391000D3FD05B0F0BD000010B537200549FFF715
:10392000CBFD00213020FFF7C7FD30200249FFF713
:10393000C3FD10BD1F9F0000F1BF0000F7B51C00C4
:1039400008AB1E78009009AB019170200021150092
:103950001F78FFF7B1FDA021090231434D20FFF789
:10396000ABFDD821C90139434E20FFF7A5FD210247
:1039700029434F20FFF7A0FD009B78201902019BEF
:103980001943FFF799FD0020FFF7A4FFFFF7C4FFDD
:10399000F7BD00000A4B012110B5984202D9002161
:1039A000013007D10420FFF7DFFE00210320FFF7DD
:1039B000DBFE10BD0420FFF7D7FE0121F6E7C0466D
:1039C000FF3EAB0110B53120FFF700FD0223984305
:1039D00081B23120FFF770FD00212B20FFF76CFD35
:1039E00010BD000070B505003120FFF7EFFC0400AA
:1039F000002D06D108239C43A1B23120FFF75CFDC6
:103A000070BDAB1E5A1E9341AD21DB0389011943E2
:103A10002920FFF751FD0120A8428041054940427D
:103A2000800301432820FFF747FD0821214389B285
:103A3000E3E7C046382B000010B53120FFF7C6FC85
:103A40000423984381B23120FFF736FD10BD10B535
:103A500000212420FFF730FD10BD0000DB2110B550
:103A60002120C900FFF728FD24200249FFF724FD8B
:103A700010BDC0467FC1000010B550200149FFF7BE
:103A80001BFD10BD18BB000070B50C00631E9C41EF
:103A90000500FFF7F1FF0320FFF71CFF0D4B61420C
:103AA0001940E0231B02C9187020FFF705FD002113
:103AB0003020FFF701FD30200749FFF7FDFC802390
:103AC00006495B026943C9187120490CFFF7F4FCF1
:103AD00070BDC04600BCFFFF020300001DA614001D
:103AE00010B550200149FFF7E7FC10BD183B00005E
:103AF00010B500213020FFF7DFFCE8213720490115
:103B0000FFF7DAFC10BD000010B500217020FFF7B0
:103B1000D3FC0020FFF7DEFEFFF7E2FF002130209C
:103B2000FFF7CAFC30200249FFF7C6FC10BDC046B3
:103B3000F1BF000010B5C3217020FFF7BDFC72205B
:103B40000A49FFF7B9FCC1215820FFF7B5FC5C20FA
:103B50000749FFF7B1FC8E215D20C901FFF7ACFCDE
:103B60005E200449FFF7A8FC10BDC0466530000088
:103B7000655600000432000010B500213020FFF728
:103B80009BFC10BD10B500213F20FFF795FC68217C
:103B90005920FFF791FC1E2001F0B8F8FFF7ECFF69
:103BA00010BD10B50020FFF795FE7E20FFF70EFC3C
:103BB000382328219843014389B27E20FFF77CFCFB
:103BC00010BD000010B500213620FFF775FC37202E
:103BD0000749FFF771FC52200649FFF76DFC0021F1
:103BE0003020FFF769FC30200349FFF765FC10BD6A
:103BF0001F9D00008F020000FEC1000010B5FFF7FE
:103C0000D0FFFFF76DFFFFF7DDFF10BD10B50021FE
:103C10005120FFF751FC10BD054B10B51B78002B50
:103C200005D001210020FFF79FFDFFF775FE10BDB5
:103C3000E403002010B50400FFF71EFF0020FFF78B
:103C400049FE00217020FFF737FCFFF700FF30200E
:103C50000349FFF731FC002C01D1FFF741FF10BDF4
:103C6000FEC1000010B530200149FFF725FC10BD52
:103C7000FAC30000F8B51D0007000E001400FFF79E
:103C8000FBFE281E05D0A02380220320DB05520066
:103C90009A61FFF71FFEFE232102DB011940013369
:103CA000FF3319437020FFF707FCFFF7DBFF3220DB
:103CB00001F02CF880231249BFB279435B02C91886
:103CC0007120490CFFF7F8FBFFF70AFF300001F005
:103CD0001DF8FFF7D1FE002D07D0A0238022DB05C1
:103CE000520000209A62FFF7F5FD00217020FFF7D7
:103CF000E3FB30200349FFF7DFFBFFF7F1FEF8BDE0
:103D00001DA61400FEC1000010B50400FFF7A6FEBA
:103D1000FFF7B2FE0020844200D00330FFF7DAFD47
:103D200070200349FFF7C8FBFFF79CFF10BDC0469A
:103D3000C3C3000070B590B0040040226846184923
:103D400012F0CCF8392C08D82F2C25D8232C25D0CC
:103D50000EAD2A2C09D010B070BD2300413B373C7A
:103D6000032BF8D8A4006C44250028880D4C0E4E77
:103D700060430E498019FEF7CBFD81B27120FFF739
:103D80009BFB6B8809495C43A019FEF7C1FD81B21A
:103D90007220FFF791FBDEE7303CE3E70FADE4E78D
:103DA000605F01084C930100881300001027000099
:103DB000F0B5002485B01E000AAB1F880BAB1B8832
:103DC0000500019102920393A0421AD105B0F0BD03
:103DD000FFF7B0FFFFF784FE019B002B02D0029893
:103DE000002C06D02B5D30002A2B02D0232B00D0D4
:103DF000380000F08BFFFFF73FFE039800F086FFCE
:103E00000134285D0028E3D1E0E7000070B50D0023
:103E10000400FFF731FEC22170200902FFF74CFBBE
:103E200080230B49ADB269435B02C9187120490C6C
:103E3000FFF742FB0020844200D00330FFF74AFD29
:103E4000FFF710FF322000F061FFFFF749FE70BD61
:103E50001DA6140010B5042808D8FEF73BFD030882
:103E60000A0C0E0006495220FFF726FB10BD05493B
:103E7000F9E70549F7E70549F5E707200449F3E7BE
:103E80008F8200008FA200008FC200008FE200002E
:103E90006F04000010B50020FFF7DCFF512002493D
:103EA000FFF70AFB10BDC0464080000010B504209B
:103EB000FFF7D0FF51200249FFF7FEFA10BDC046C0
:103EC0004090000010B56720FFF780FAC005C00DD4
:103ED00010BD10B5FFF7F6FF4008A03800B210BDC6
:103EE00010B56420FFF772FA10BD000070B506002F
:103EF0000D20FFF76BFA03B2DD430400ED0F002B3A
:103F000007DB0E20FFF762FA034B24041C40044336
:103F10003460280070BDC0460000FF0770B5060081
:103F200069200D00FFF752FA040003040BD46A2045
:103F3000FFF74CFA0C4B24030005000D1C40044312
:103F40000220346070BD6820FFF740FA03000020B3
:103F50001A04F7D40548DB04DB0C58430449FEF788
:103F600061FD28800120EDE700F0FF00EB1200006A
:103F700010270000912110B532208900FFF79CFA2C
:103F800010BD000010B532200149FFF795FA10BDB1
:103F90004502000010B5FFF791FCC02151208900B7
:103FA000FFF78AFAFFF7B8FC10BD10B5FFF7E4FD84
:103FB00010BD10B5FFF7DEFFFFF7DEFD10BD10B539
:103FC0000B20FFF703FA0005000F10BD10B50C2001
:103FD000FFF7FCF9800BC0B210BD10B50C20FFF745
:103FE000F5F90005800F10BD70B504001E2000F02B
:103FF0008DFE80213F200902FFF75EFA5920174904
:10400000FFF75AFA250068215920FFF755FA48357D
:1040100021885F200234FFF74FFAAC42F8D1142018
:1040200000F074FE59200E49FFF746FAC824012516
:104030000C20FFF7CBF9284206D1013C0520E4B261
:1040400000F064FE002CF3D100210220FFF734FAC7
:104050001E2000F05BFEFFF795FD70BD688000003C
:104060006828000010B5FFF78DFD00210220FFF742
:1040700023FA00213F20FFF71FFAFFF74DFCC02174
:104080003F208901FFF718FA59200449FFF714FA75
:1040900059200349FFF710FA10BDC04668400000E0
:1040A0006830000030B58BB02422194901A811F006
:1040B00015FF0020FFF70EFC002501AC6188207879
:1040C0000135FFF7F9F90434092DF7D10024114A1D
:1040D00063005F20D15A0134FFF7EEF9072CF6D1C7
:1040E000142000F013FE0C495920FFF7E5F9B42025
:1040F00000F00CFE68215920FFF7DEF90021702046
:10410000FFF7DAF900215820FFF7D6F90BB030BDE0
:10411000A05F0108586701086808000010B51B4B34
:104120001B78012B2DD1FFF7A7FC0020FFF7D2FB56
:10413000C32170200902FFF7BFF9FFF793FD32207A
:1041400000F0E4FD12497120FFF7B6F9FFF7C8FC53
:10415000502000F0DBFDFFF78FFC0E497120FFF7C8
:10416000ABF9FFF7BDFC502000F0D0FDFFF784FC59
:1041700000217020FFF7A0F930200749FFF79CF9D4
:1041800010BD022BFCD1FFF78DFFF9E7771C002053
:104190001C3E0000D5340000FEC1000070B50500D3
:1041A0000C00FFF75BFCFFF767FC0020854200D0A6
:1041B0000330FFF78FFB07497020FFF77DF9FFF70A
:1041C00051FD322000F0A2FD2000FFF7B3FDFFF704
:1041D00087FC70BDC3C300000222064B99681142E0
:1041E000FCD00122187399681142FCD0D868C0B283
:1041F0007047C0460038004010B50400000CC0B243
:10420000FFF7EAFF200AC0B2FFF7E6FFE0B2FFF7D0
:10421000E3FF10BD70B5A0250826094CED0505206B
:10422000AE62FFF7D9FFFF20FFF7D6FFAE61C007F0
:1042300005D50A20013C00F091FD002CEFD170BDA6
:1042400040420F0070B5A02408250600E405A562D1
:104250000620FFF7C1FFA561FFF7DCFFA562202064
:10426000FFF7BAFF3000FFF7C7FFA561FFF7D2FFE6
:1042700070BD0000F0B585B06B46039002921A7BCA
:104280008023A0255B0001919B1AED05029C9C42B6
:1042900000D91C0008231E00AB620620FFF79CFF1C
:1042A000AE610220AE62FFF797FF0398FFF7A4FF0D
:1042B000019E37190F2C5CD94022012080273049FC
:1042C0007F010B6893430B602E4B1A6882431A6080
:1042D0002D4A1668864316602C4E77601F682C4E58
:1042E00037401F601768374090263E431660294FBD
:1042F000294EDE609F605E68360C360426435E60A1
:10430000019ED66097605668360C36042643566088
:10431000224EB446002667463E701F680236374379
:104320001F601F6807431F60136803431360402228
:104330004B68184348600B6813430B604B681E437F
:104340004E6063461B78002BFBD00823AB61FFF760
:1043500061FF039B1B190393019B1B190193029B94
:104360001B1B02938023029A5B00002A8ED105B0AA
:10437000F0BD30780136FFF72FFFBE42F9D1E4E7F8
:104380000038004044000240580002400000024053
:104390000F80FFFF0C380040E9030020E8030020F5
:1043A000F0B5A027082680210124344BFF058FB0EB
:1043B000BE61DA6BC9010A43DA63DA6B04A80A400A
:1043C0000392039A9A6B002522439A639A6B2240C8
:1043D0000292029A5A6B22435A635B6B2340019309
:1043E000019BFEF7C5FD022304A9059338001B19A4
:1043F00006930996079508940494FEF767FD092330
:1044000004A93800023E04960993FEF75FFD1C4B99
:104410001C4A996880201140A022D2040A433F21FF
:104420009A60DA68C0058A43C2211643164ADE60E4
:10443000890053581B021B0A0343535080231B015E
:10444000136004A8FEF7DAFD82235B000593033BAB
:104450000894FF3B0D4C0793FF33FF33200004A962
:10446000099304950A950B950C95FEF793FD40234F
:104470002268134323600FB0F0BDC0460010024015
:1044800000000140FFFFFFC000E100E000380040F5
:10449000F8B5A023150008220600DB0503209A6268
:1044A0000C00FFF799FE3000FFF7A6FE0F2D08D88D
:1044B0006519AC424FD0FF20FFF78EFE207001340B
:1044C000F7E7402101208027254A7F0113688B43AD
:1044D0001360244B19688143196023490E68864391
:1044E0000E60224E77601F68214E3740B446842606
:1044F00076013E431E6066460F6837401D4E3E43C0
:104500000E601D4EDC609E605C68240C24042C430D
:104510005C601A4CCC608E604C68240C24042C43E4
:104520004C600024164D2C701E68023426431E6019
:104530001E6806431E600B6803430B6040215368EE
:104540001843506013680B43136053681C43546056
:104550002B78002BFCD0A0230822DB059A61F8BD44
:104560000038004044000240580002400000024071
:104570000F80FFFF101000000C380040E9030020FE
:10458000E8030020F0B587B0059380230705040BEE
:104590003F0D5B010190029103922403DB1B039A00
:1045A000002A01D107B0F0BD039D9D4200D91D0036
:1045B000294E3368A34206D08022200027495201A9
:1045C000FFF766FF3460254E2A00BE1931000298BD
:1045D00011F0ACFC002824D00023F25CFF2A2ED17D
:1045E00001339D42F9D100232A003000029904933F
:1045F00011F074FC049B002B2AD02000FFF722FE50
:10460000059B164E002B1CD0EF193A0031002000FC
:10461000FFF730FE80225201FF21D21BF01911F06A
:1046200055FC019B00275B190193029B5B190293C8
:10463000039B5B1B039380235B01E418AFE701231B
:10464000D2E78022310020005201FFF713FEE8E795
:104650002A0002990198F8E704000020EA030020EC
:1046600010B5040B24032000FFF7ECFD054B1B687D
:10467000A34205D18022FF210348520111F026FCFC
:1046800010BDC04604000020EA0300208020144929
:1046900080010B6810B5034221D00224114B1A6827
:1046A00022421CD01A68A2431A60C0220E4B4860F6
:1046B000520199681142FCD1802299681142FCD1C3
:1046C000C022D20099681142FCD102215A688A4363
:1046D0005A605A6801398A435A60044B197010BDF8
:1046E000000002404400024000380040E80300207F
:1046F00070B540262025094C0120A66100F02EFB54
:10470000A561012000F02AFBA662012000F026FB33
:10471000A562012000F022FB70BDC04600140050CD
:1047200070B540252026094C0120A56200F016FB3B
:10473000A662012000F012FBA661012000F00EFB32
:10474000A561012000F00AFB70BDC04600140050B6
:10475000F7B5234C234A23680190134023600823B4
:1047600000252027012600933000A76200F0F6FA0A
:104770003000A76100F0F2FA300000F0EFFA236990
:104780006D00EDB25B0600D535433000A76200F046
:10479000E5FA009B013BDBB20093002BE4D12268D9
:1047A000104B01201A4080235B0113432360A76252
:1047B00000F0D4FA019A4023002A0ED0A3612026EB
:1047C000012000F0CBFAA661012000F0C7FAA66232
:1047D000012000F0C3FA2800FEBDA362EFE7C04647
:1047E00000140050FFCFFFFFF8B52023254C050033
:1047F000A362012000F0B2FA08266BB2002B3BDB6B
:104800004023A3622027012000F0A8FA013E0120E6
:10481000A76100F0A3FA6D000120A762F6B200F0D4
:104820009DFAEDB2002EE8D140252368164E0120F6
:1048300033402360A56100F091FA0120A76100F0E8
:104840008DFAFF232269110029402A4217D0013B2B
:10485000DBB2002BF6D101256D422023A36201209B
:1048600000F07CFA802322685B013240134323600E
:1048700040232800A361F8BD4023A361C2E70D00D7
:10488000EBE7C04600140050FFCFFFFF70B50400F7
:104890000D0000266A1EB2420EDC2B00591E8B4111
:1048A0005B4213400120E41800F058FA0120FFF7A2
:1048B0004FFF2070280070BD012000F04FFA00204B
:1048C000FFF746FFA0550136E4E770B50400451830
:1048D000AC4201D1002070BD2078FFF785FF013484
:1048E0000028F5DA01204042F5E700007823F7B50B
:1048F00000251F4EB36100240823270001930120E7
:1049000000F02CFA3A00F02733693F021F4097422B
:1049100020D10134032C1ED18022802112020902F1
:104920001A400B421ED05A041ED59A041ED5DB0431
:1049300005D4104BAA009B18185D132811D101351E
:10494000052D0DD078230722B361521B773B93408E
:10495000B362D0E70124019B013B0193002BCED130
:104960001320FEBD1400E4E70124E2E70224E0E79F
:1049700000040050666701080222054B9968114245
:10498000FCD00122187399681142FCD0DB68704793
:104990000030014070B51D0004AB00241C5F431AB9
:1049A000601B5843511AFEF73DF8401900B270BD24
:1049B00070B5124CC001241825000C203635260095
:1049C00028701225373635704236357025007A3515
:1049D0002870581A8001511AFEF724F8212538232F
:1049E0002D263830C0B2DAB22900904200D331000F
:1049F000E1540133792BF6D170BDC046EE1300208F
:104A00007047A02340225039DB0510B59A6204009C
:104A1000C8B2FFF7B1FF102023091843FFF7ACFF1E
:104A20000F202040FFF7A8FF10BDF8B51400043098
:104A3000C0B21D00FFF7E5FFA02340222600DB05E2
:104A40009A612F19BE4200D1F8BDE8B2002C00D007
:104A50003078FFF791FF0136F4E7000070B50425C8
:104A6000034CC9B2A562C0B2FFF7DFFFA56170BDFC
:104A700000040050A023402210B5DB059A62FFF726
:104A80007BFF10BDF8B50423124E0400B362402032
:104A9000FFF7F0FF104A002C07D0104B01251F0034
:104AA000072C0AD8621ED201D218802321000020D0
:104AB000FFF7BBFF0423B361F8BD290001353A00BD
:104AC00080230020EDB2FFF7B0FF8037092DF4D12D
:104AD000F0E7C04600040050EE170020EE1300205F
:104AE00010B50820FFF7CEFF10BD10B50130C0B2E1
:104AF000FFF7C8FF10BD10B50020FFF7C3FF10BDC2
:104B0000F7B505000024134BE00180222900C018EE
:104B10000134019311F0DAF9082CF4D104230024B4
:104B20000D4FBB620020E1B2FFF76BFFA0234022D4
:104B30000025DB059A61019BE601F618705D0135E1
:104B4000FFF798FF802DF9D10134082CEAD1042316
:104B5000BB61F7BDEE1300200004005010B5032820
:104B600004D0072809D0074B185C03E0064B1878DF
:104B7000A6231843FFF77EFF10BD044B18781530AD
:104B8000C0B2F7E70A0000201D1C00208E000020A4
:104B9000042370B50024064DAB6220000134E4B25A
:104BA000FFF7DCFF0B2CF8D10423AB6170BDC046CE
:104BB00000040050042370B5074DE220AB62FFF7FC
:104BC00059FF002420000134E4B2FFF7C7FF082C8E
:104BD000F8D10423AB6170BD00040050802170B592
:104BE00001253E4B49011A6C8CB00A431A641A6CB9
:104BF00002A80A400192019A5A6B00242A435A6380
:104C00005B6B02262B400093009BFEF7B1F9032358
:104C1000A020049302A91D33C005029306950396B4
:104C200007940594FEF752F9A020802302A9C0053D
:104C300002930694FEF74AF902A8FEF7DFF98223F1
:104C40005B0003930695FC33254D0793D93BFF3B4F
:104C5000280002A9089302940494059609940A94E2
:104C6000FEF798F940232A68E22013432B600423BF
:104C70001C4DAB62FFF7FEFE782000F047F82000E5
:104C80000134E4B2FFF76AFF082CF8D12B20FFF7BC
:104C9000F1FE012000F03AF82E20FFF7EBFE012094
:104CA00000F034F82F20FFF7E5FE2F20FFF7E2FE9B
:104CB0002F20FFF7DFFE2F20FFF7DCFE282000F07B
:104CC00025F84020FFF7D6FEAF20FFF7D3FE0423E0
:104CD0000020AB61FFF714FF0CB070BD0010024064
:104CE000003001400004005070B50425064C282017
:104CF000A562FFF7BFFE4020FFF7BCFEAE20FFF726
:104D0000B9FEA56170BDC04600040050FA2310B57D
:104D10009B00584300F022F810BD0000C0200B4952
:104D20000B4B0C4A4B60136A00061B021B0A034321
:104D3000136200238B6007330B603021064B196030
:104D4000136A1B021B0A13627047C04610E000E0A2
:104D5000FF52070000ED00E0701800200A4B70B50C
:104D60001B680A4C584300236668A168A2689142F8
:104D7000FCD0B51A914200D95542CB185B19984224
:104D800000D870BD1100F1E77018002010E000E0BD
:104D9000084B1A68283213780133DBB2072B00D98D
:104DA000012313700122044B1A70044A044B127839
:104DB0001A707047341C0020C6190020AD1D002059
:104DC000C40000200122064B1A70064B1A683332C9
:104DD00013780133DBB2032B00D10023137070472B
:104DE000C6190020341C0020012305494A7E5A4080
:104DF0004A76044A1370044A1370044A13707047C9
:104E0000401C0020C5190020CA190020DC19002010
:104E10000123024A11784B4013707047161C002082
:104E20000123044A11784B4013700222024B1A707E
:104E30007047C046011C0020C91900200123044A04
:104E400011784B4013700222024B1A707047C04613
:104E5000001C0020C9190020064910B50B78002B52
:104E600003D0054A054B1278DA7700230B70FEF762
:104E70003DFA10BD9419002092190020431C002017
:104E8000012110B5134C05202378594021704B4265
:104E900059410F2349421940A1231B01C9180CF0A5
:104EA0000CFC002321780C4A994202D11300743380
:104EB0001B78110073310B70753211781B01194387
:104EC000B0231B0219434820FEF7F6FA0122034BD8
:104ED0001A7010BD93190020401C0020DC1900201E
:104EE00010B5244B1B78022B15D006F003FD224B86
:104EF0001B689B7F3133DBB2092B05D81F4A127820
:104F0000002A01D01E4A1370012006F0F1FD022094
:104F100000F044FC10BD00221A4B1A701A4B1B788B
:104F20005BB2934208D0194B1988194B1980194B61
:104F30001A70194B01321A70184BDB7F002B09D104
:104F40000E4A1278002A05D0154A1188154A118098
:104F5000154A1370012006F0CBFD144B144C1B783E
:104F6000002B04D00DF058F803232370D2E7114B27
:104F70001B78FAE766190020301C0020A5190020D4
:104F8000A4190020FC1B0020A2180020FC760108B8
:104F9000D219002087000020A0180020401C00200B
:104FA000EC760108E219002086000020432300204F
:104FB000C4000020AD1D002070B5114B1B78013BD3
:104FC000012B10D900240F4B0F4D1C700F4B1B7879
:104FD000A34209D00CF0DCFC01220D4B2C701A709E
:104FE0000C4B4F321A8070BD0B4A137006F082FCD6
:104FF000012006F07DFD0DF00FF803232B70F2E782
:10500000661900205C1D0020C400002043230020FE
:10501000CA190020B8190020FC1B002010B5134C41
:105020000320236833331978012912D005F09EFC40
:10503000011E11D022682C3211784B424B410020C6
:10504000DBB21370814201D1094A10780021C018E7
:10505000C0B2FEF715FC10BD064B1A682C3213784F
:1050600058424341D8B21070F3E7C046301C0020CC
:10507000181C0020341C00200B4B5A7D002A02D043
:105080009B7D002B0ED10322084B01211A700022B8
:10509000074B1A70074B1970074B1B788B4201D0D6
:1050A000064B1A707047C046401C0020D0190020E3
:1050B0005C1D0020C3190020AD1D0020C40000208D
:1050C000434B70B51B780400002B2DD005F04EFC2F
:1050D000051E0BD103200BF045F83E4B1D703E4BD7
:1050E0001B7859B2002B02D00CF068FD70BD3B4A12
:1050F0003B4B3C4D002C13D00120197010700CF06C
:1051000073FCA87C8007800F0CF088FB050028004A
:105110000CF076FB2200012128000CF073FCE5E77F
:1051200014701C702D8AF2E704F0C0FD041EDDD15E
:10513000284B142218702C4B210018702B4810F0AB
:10514000C5FE06F0D7FB2A4B1B689B7F3133DBB2D1
:10515000092BCBD9002520000BF004F8254E7557FC
:10516000002D1DD0244B1B78C72B02D902F094F9D7
:10517000BCE7224D0621E87F0130FDF739FDE977D4
:1051800008F042FA00212000715602F0B9F801221D
:105190001B4B1A801B4B1C7001221B4B1A70A5E77E
:1051A0001A4B104C1B685A1E9341194A0133137055
:1051B00008F02AFA0121080002F0A2F80121237A5E
:1051C000144A01330B40D554134B1D70E4E7C0461D
:1051D00043230020FC1B00203F2300203E2300200F
:1051E0003D230020401C0020A4180020A51800200A
:1051F000301C0020A2180020AF190020451C002000
:10520000D219002087000020DC1900209C18002003
:105210006E1C0020D7190020F619002010B50120BF
:10522000FFF74EFF10BD000070B5264B1B78002B1A
:105230001DD1254C2378002B19D00125234B1D703F
:1052400012280CD1002A0AD1002908D0204B1D7049
:10525000204B1A70204A1378002B01D1237070BDA7
:105260002D21013BDBB213701C4AD154F7E7112802
:105270001BD0122804D00A281BD00020002303E0F2
:10528000174B18481B780078002A15D10029E6D161
:1052900001250F4C2570002A11D1002900D00300F0
:1052A000114A9B009B589847D9E7104B10481B7830
:1052B000E9E7104B187DE1E70029D0D0E8E70029A5
:1052C000EDD1CCE7AD1D0020BA180020CD1900208B
:1052D00065190020C4000020BB180020BC18002065
:1052E000791C00207A1C0020180000207B1C002064
:1052F0007C1C00203F1D00200022044B1A70044B30
:1053000001321A70034B1A707047C046131C0020FC
:10531000CA190020DC1900200A4910B50A780A4B86
:10532000002A08D1DA7F50424241DA7701230B701C
:10533000FFF7E2FF10BD0133DA7F50424241DA77D6
:105340000023F4E777180020401C00200C4970B5BA
:105350000A780C4C0C4B0D48002A0CD1DD7F2570CF
:105360005C1CE47FDA77047001200133DA7708707F
:10537000FFF7C2FF70BD2278DA7702780020F4E7E9
:105380007618002075180020401C0020741800209A
:105390000E4910B50A780E4B002A0AD10333D87F84
:1053A0000C4A10703D22DA7701230B70FDF79EFF47
:1053B00010BD1900084AFF31897D127803339142EC
:1053C00002D10022DA77F1E73D22FBE794190020B1
:1053D000401C00209219002091190020044A1378E3
:1053E0000133DBB2092B00D9002313707047C0468C
:1053F000A419002070B5224C224A23782249002BA0
:1054000028D013783133DBB2092B05D8507800232C
:105410003130C0B2092803D90120137A0133034087
:10542000482013725B4203407833D3180B609632E6
:1054300013783133DBB2092B01D8FFF7CFFF0020FF
:1054400006F056FB2378002B18D0104B1B88104A0F
:10545000138070BD107A45426841C0B210720028B6
:1054600000D048237833D2180A600A4A1378002BF8
:10547000E5D101331370084A1370E0E7074BE5E705
:10548000A5190020401C0020301C002002770108D4
:10549000F8190020F6190020DC190020FE7601081A
:1054A000F7B5714B714A00931B780192002B3DD1E7
:1054B00013785BB2002B0AD06D4B1B783833DBB20C
:1054C000062B04D86B4B1B78002B2FD0F7BD6A4FEF
:1054D0003B78012B1DD09A1E012A03D8674A127807
:1054E000002A42D1634A01241278654E002A03D073
:1054F000317800293BD000243378624D002B00D056
:10550000A1E0002C00D09EE02B78002B78D12C70ED
:10551000DCE75D4A1278002AE4D05C4A1278002A5F
:10552000E0D10022584B1A70544B1A70012006F03B
:10553000DFFA574B1B689B7F3133DBB2092B03D853
:105540009622544B52001A800122534B1A70019B31
:105550001B785BB2002BB9D0504BDA7F502AB5D8FC
:10556000002A78D101F098FFB0E74D4AD6E7484AC3
:105570001268927F3132D2B2092ABCD9012B27D0CE
:1055800019D9023B012BB6D8464B1A783B4B002A5F
:105590002DD0454A1278012A29D11970434D2B7814
:1055A000002BA8D0FEF719FD441E63425C41002386
:1055B00064002B70A0E73E4BDB7C002B9BD03B4B69
:1055C0001B78002B97D00022384B02241A7093E7E7
:1055D000384A10782C4A002801D01170EFE7117872
:1055E0000029ECD113706422284B1A70E7E71A786F
:1055F000002AD3D101321A70294B63321A70CDE7D9
:105600002B4B5B7F002B82D03B78023B012B00D9D8
:105610007DE7FEF7E2FC012800D078E7244B5B7FB2
:10562000002B00D152E7A0238022DB0552009A62B2
:10563000214BEC3A1A800023009A13700122327039
:105640001E4A137042E700232B70012C00D16DE736
:10565000022CE3D03AE719235343194A138000225E
:10566000184B1A7032E7C04696190020A218002085
:10567000AF190020B41900202B1C0020DA190020DB
:10568000D91900209A190020DB1900209E1900204A
:10569000301C002098190020A3190020441C002071
:1056A0009F190020BF190020BE190020BC1900203E
:1056B000401C0020BD190020E6190020E11900203F
:1056C000D2190020870000201E4B10B51B78002B3C
:1056D00019D01D4A1D4B12781B7852B2002A26D1D0
:1056E0001B4AD27F002A0FD11A490978002905D018
:1056F000194908881949088019490A70032B02D0F2
:10570000032005F05BFA10BD164A1278002AF5D185
:10571000154908881549088015490A7015490A7005
:105720000121154A117001210E4A1170E6E70D4A58
:105730001278002AE2D111490888114908801149DC
:105740000A70F0E7B4190020A218002066190020A2
:10575000401C0020A5190020E8760108E21900206D
:1057600086000020AE19002006770108F8190020F5
:105770008A000020F6190020DC190020F8760108C4
:10578000D219002087000020034B10B51B78002B96
:1057900001D1FFF799FF10BDE4030020F7B5E12226
:1057A000444B454C454D01905201277A1A802B7885
:1057B000002B01D00BF09AFF7A427A410021404B36
:1057C0009954A0238022DB0552009A613D4BFF3A99
:1057D0001A703D4B1B789B0701D5FDF787FD002311
:1057E0003A4EF356002B01D001F01AFE384B1A68DE
:1057F000937F3133DBB2092B18D8364B1B78002B43
:1058000014D0354B354819780B00313BDBB2890099
:10581000095893771069526901601160FA22E355C3
:105820002F4B52001A8000222E4B1A700023F35681
:105830002D4E002B14D1E27F002A11D02B4A118863
:105840002B4A11802B4A1370631CDB7F002B02D183
:105850000122294B1A700022284B1A700123337041
:10586000230073331B78753421781B011943B0234F
:105870001B0219434820FDF71FFE154B1B683333ED
:10588000187806F05DFA019805F098F9019B022B53
:1058900002D02B78002B09D0194B1B78012B02D09A
:1058A00000200AF05FFC01233370F7BD0122154B85
:1058B0001A70F8E7EA190020401C0020432300205A
:1058C000D7190020E1190020211C0020A218002077
:1058D000301C0020A5190020A4190020DC75010847
:1058E000E219002086000020DC190020047701085E
:1058F000F81900208A000020AD190020F6190020B8
:10590000AD1D0020A3190020244B10B518780028E5
:1059100009D1234B1B78002B04D005F04FF901224D
:10592000204B1A7010BD204B1A78204B1B78134364
:1059300059424B411E49DBB20968897F3131C9B2F6
:10594000092906D81B490C88002C02D000230B80A3
:10595000030019490978002905D0012A03D1002044
:10596000164B18700B0016490978002912D01549FA
:10597000097801290ED1023A012A0BD80022124BD4
:105980001A70124B04201B78002B00D00238FFF74E
:1059900005FFC7E7002BF4D1C4E7C046B4190020C7
:1059A00066190020A31900202B1C0020A21800203B
:1059B000301C002098190020BD190020DB190020A0
:1059C000BF190020BE190020DA190020FC1B00209E
:1059D00070B51C00838B16005943026805008818B7
:1059E000190004F0A5FEA04206D8B04203D2A98B4C
:1059F000601A04F09DFE70BD3000FCE7030010B596
:105A000030331C78034AE40013195B68A258FFF78F
:105A1000DFFF10BD0476010810B506F0FBFA012285
:105A2000044B1A70044B1B78002B01D0034B1A70E7
:105A300010BDC046B0190020FC1B0020CA19002070
:105A4000154B10B51B78002B03D1144B1B78002B82
:105A50000AD001F097FE0222114B1A700022114B5E
:105A60001A70114B01321A701048114A037811490B
:105A7000002B03D113780C7823430BD00023137031
:105A8000022203700B70064B1A700B4B013A1A700E
:105A9000054B1A7010BDC046BA180020BB18002074
:105AA00065190020C4000020A3190020EA1300207B
:105AB000E01900205C1D0020DC190020F0B5854BAA
:105AC00004001B780D00160085B0002B00D180E08B
:105AD000002978D0102800D08BE0FDF707FC1024B7
:105AE0007D4B02931B78052B02D1002005F066F850
:105AF0007A4B1A887A4B1A807A4B00937A4B197832
:105B0000002903D01E224A43784B1A70002D00D082
:105B100071E0774F3B78002B02D007F089F93D7098
:105B2000744F3B78002B03D007F0A0F900233B70A3
:105B3000714F3B78002B03D007F04AF900233B70EC
:105B40006E4F3B78002B13D06D4B1A68009B907FF3
:105B5000597A012307F0CEFC00233B7004F0A6F82D
:105B6000002805D1674B1A78002A01D101321A703A
:105B7000654B1A7800239A4207D0644A12789A42F9
:105B800003D1634B1B785A425341564A61490192F3
:105B9000527D09781A43002966D0002A03D0029A60
:105BA0001278012A68D1092C02D90F2C00D0CBE041
:105BB000594B1B78002B00D185E1002D19D0002E08
:105BC00017D1022064E0FDF791FB102C87D013243D
:105BD00086E70D2884D1FDF713FB071E00D07FE771
:105BE0004E4BDB7F002B00D17AE7FDF77FFB4C4B60
:105BF0001F7005B0F0BD09F0CDF9454F102C03D151
:105C0000484B1B78DB0726D53B78012B04D11328A2
:105C100004D01538012801D9FDF768FB0D2C1AD1E5
:105C2000002E18D040480378002B09D01422002100
:105C300010F04CF900223D4B1A703D4B01321A70A6
:105C4000FFF7FEFE3B4B1B78002B01D0FFF748F916
:105C50000022394B1A603B78012B00D088E7374A85
:105C6000374B12781A8083E7002A9CD0029A127868
:105C7000012A98D0102C6AD00D2C0CD1002DB8D050
:105C8000002B00D16BE20120204B1870284B1870BC
:105C900004F088FAADE70F2C0ED1002DA9D0002E0C
:105CA00000D085E7022004F07DFA0422254B1A700B
:105CB00001221F4B1A709CE72300113B012B00D8D7
:105CC00001E10A2C00D047E2002E00D0FBE0002DBD
:105CD000E8D08EE7201C002066190020F476010829
:105CE0008C000020401C0020741C0020DF190020C4
:105CF0007C1800207B180020C01900207A18002092
:105D0000341C0020C91900207119002070190020CE
:105D1000AD1D00201B1C0020D4190020431C0020B6
:105D200065190020211C0020A5180020A4180020BF
:105D3000A3190020FC1B00209C18002016770108E6
:105D4000CE190020CB190020102C00D0BBE0C44A93
:105D50001378002B04D03300002D01D101231570DE
:105D6000C04A1178002908D0102C01D00D2C04D184
:105D7000002101201170BC490870BC490391BC4945
:105D80000091002B0FD1029B1B78012B00D00FE15B
:105D9000B84B1B78002B00D0CFE0102C00D094E043
:105DA000280001F02FFE039B1878002804D004F08F
:105DB000F9F90023039A1370AF4CB04A2378039289
:105DC000002B0AD0AE4AAF4B12781A8002F0AAFE1E
:105DD0000123039A137000232370AB4B01241B880B
:105DE000002B06D0A94B1B78002B02D105F01CF923
:105DF0000400A74F3B78002B0BD0002C09D0002EBD
:105E000000D007E107F032F8002301223B70964BE7
:105E10001A70A04B1A78002A08D0002C06D0002255
:105E20001A70964200D0F9E006F0D2FF9A4B1A7829
:105E3000002A08D0002C06D000221A70964200D00A
:105E4000F0E006F0F5FF954B954F02931B78002B81
:105E500008D0002C00D0E9E0009B1B78FF2B01D17B
:105E6000009B1C7039788F4C002900D14CE18E4D7D
:105E70002B78002B00D144E1002005F03BFB0120F2
:105E8000397805F037FB009B1B78FF2B02D10023EC
:105E9000009A13700123237000233B702B7005F0D0
:105EA00029FD05F04BFD012005F022FE00227F4B6D
:105EB00022701A705A707E4B1B78934200D127E1F2
:105EC000FFF70EF824E17B4A42E7FE27112C06D0AB
:105ED000200001F047FC0700FF2800D163E7002DF8
:105EE0000CD1A0238022DB0552009A62724B28005D
:105EF0001D70FDF79FFEFDF765FD54E7002E00D0F5
:105F000051E7019B6E331B78002B07D0A023802222
:105F1000DB0552009A61684BFF3A1A70FDF752FD9B
:105F2000019B6E331878FE2F03D16449FDF76EFF95
:105F300039E73900FEF732F935E7002E00D004E1E9
:105F4000002D00D12FE7A02280210027D205490093
:105F50009162594A177002229343012B01D106F036
:105F600059F85022434B05201F70554B1A80FEF7FD
:105F7000CDFE012005F0BCFD524B1B78012B01D05A
:105F8000009B1F70019B3833187800280BD104F058
:105F900015FE0123324A102C03D0464A002E00D0B1
:105FA00001E71370FFE60A224243474B1A70F0E7FD
:105FB00023001278113BDBB2002A0BD0012B0BD847
:105FC000404A424B127892009B5829003200200030
:105FD0009847E8E6012B06D93A4B1B78FF2B02D0F5
:105FE0003A4A9B00F0E703F061FE002809D1354BE7
:105FF0001B78042B05D0320029002000FFF714F98C
:10600000D1E6002E00D0CEE6002D00D1CBE6022353
:10601000039AC6E701222E4B1A70F5E601222D4B9A
:106020001A7003E701222C4B1A700CE7002E57D18F
:10603000002D55D1294B01991A68029B497A1B788A
:10604000907F07F057FA03F031FE002804D13B7827
:10605000002B01D101333B700023029A137001E73A
:10606000CC190020EA130020DC190020651900205B
:10607000C4000020D0190020C2190020C11900203E
:1060800016770108CE190020761900207319002018
:10609000C5190020C4190020C7190020C619002006
:1060A000C9190020CA190020C8190020D7190020DA
:1060B000FC1B0020CD190020E1190020D6060000AD
:1060C000B8190020AD1D0020DE190020700000204E
:1060D0007B180020C01900207C180020341C0020F0
:1060E00008F058FF0028A5D1029A1F4B1278511EC4
:1060F0008A411A70009B1B78FF2BADD1009B187052
:10610000AAE7019B587ABCE62378002B00D0C6E6AC
:10611000039B1B78002B08D00023039A1370134AAB
:10612000134B12781A8003F01FF8124C2378002BBF
:1061300003D005F0B7FE00232370009B18780AF007
:1061400011F8FF23009A1370B2E5032B00D02AE662
:10615000002D00D027E6F6E6002D00D149E5002EFF
:1061600000D046E59EE5C0467A1800201677010863
:10617000CE190020C3190020F7B501200AF0E6FF70
:10618000002802D001200BF0A3F8424D2B78012B00
:1061900000D0AAE0404E3378002B39D13F4B1B781A
:1061A000002B35D13E4B1A78002A04D13B4A127895
:1061B000002A00D199E000221A703A4B1A883A4B13
:1061C000002A03D1DA1CD27F3D2A03D1FF33987D08
:1061D000FDF71CF8C8220024344B920034701A805A
:1061E000334B1B78A34208D0324E3378012B00D0BA
:1061F0006EE102333370FEF7DDFCFFF70DFC082083
:1062000003F0D0FF042005F023FE09F09DFF6CE0B1
:10621000294F2A4C3B78012B0FD929492268C97F85
:10622000214B002927D1002A01D0FA2A05D1802349
:10623000244A9B0151694B40536123683A780133EA
:106240002360032A46D11E4AD27F002A20D01E4A4C
:10625000934246D900232360FDF7B4FB0123134C7E
:106260001A0020881E2180B2FDF704FD23886433C4
:106270009BB2238035E0002A04D1FF33987DFCF7E0
:10628000C5FFDAE711498A42D7D1FF33587DF6E7D7
:106290000F4ADDE766190020EC190020F5190020EF
:1062A000F0190020E2020020401C0020880000209D
:1062B000161C0020901900201E1C00208C190020A4
:1062C000431C00200008005010210100983A0000F3
:1062D00098340100AD498B4203D900232360012A81
:1062E000BAD02B78012B00D15CE7A94B1B78002B8F
:1062F00000D0ECE02B78012B03D0A64A9B009B58E2
:106300009847A54E3378002B04D0A44B1B78002B64
:1063100000D0DCE003F0CAFC00280ED1A04B1B78B3
:106320005BB2002B09D09F4B1B78002B05D09E4BF6
:106330001B78002B01D101F03DF89C4CE77F002F2A
:1063400012D19B4B1B78002B0ED09A4B01931B78DC
:10635000002B09D0FFF742F8380005F0C9FB0722EF
:10636000954B1A80019B1F7003F0A0FC00282AD1D6
:10637000E37F002B27D0914B01931B78002B22D079
:10638000874B1B785BB2002B1DD1874B1B78002BF2
:1063900019D12B78052B16D03378002B13D1FFF7AA
:1063A00029F8874F3B78002B05D0864B18780028BA
:1063B00001D109F0D7FE0023834A3B701370834A52
:1063C0001370019A1370824B01931B78002B0BD032
:1063D000804B1B78002B07D004F0C8FA071E03D1AE
:1063E0000BF0C0FD019B1F70637E002B09D07A4B20
:1063F0007A4A1B88002B00D079E01388002B00D14B
:1064000079E0774F3B78002B2ED0674B1B78002B21
:1064100024D1744B1B78002B20D1A31CDB7F002BD5
:106420001CD0714B1B78002B18D15D4B654A1B7833
:106430001278134312D13378002B0FD15C4B1B78A9
:10644000002B00D10AE123783133DBB2092B05D9C7
:1064500063783133DBB2092B00D9FFE0634B1A8834
:10646000634B1A8000233B70624B01931B78002B17
:106470002DD02B78052B2AD15F4F604D3B78002B18
:1064800000D1EFE0FDF7C8FB637E002B05D02300B1
:10649000FE33198AD889FDF7CFF9E37F002B0CD0A2
:1064A0003F4B1B785BB2002B07D14F4B1C78002C65
:1064B00003D1FEF79FFF524B1C7004F063FA514B5F
:1064C0001B882B8000233B700023019A1370F7BDBB
:1064D000022B00D08FE6220021001020FFF7EEFAF9
:1064E0000122314B34701C70474B1A7083E6002137
:1064F000464B118019703378002B00D081E72A7841
:10650000FD33911E194200D17BE7254B1B785BB20E
:10651000002B00D075E73D4B19783D4B18780028CB
:1065200000D183E03B4800291DD03B490988018008
:10653000012A00D065E71C4A1278002A00D060E7E3
:106540001B78002B00D05CE7344F3B78002B10D039
:10655000002004F033FB0122314B1A70314B1A70CA
:1065600000233B704DE7018888B20029E0D1187004
:10657000DEE7FFF751FA2300383319780029E7D016
:106580000A224A43284B1A70E5E7C046E02801007A
:10659000D61900207C6701084323002042230020F5
:1065A000A218002087000020AB190020401C00200A
:1065B000A519002086000020E21900208A00002092
:1065C000AD190020AD1D0020A0180020AE1900203C
:1065D000951900203F230020B8190020B61900208B
:1065E000FA190020AC190020D4190020F476010813
:1065F0008C000020FB190020E40300206819002013
:1066000079180020F2760108CD190020BB1900206E
:10661000BA1900209C190020EE760108B01900205C
:10662000DC190020A3190020DE190020002900D168
:10663000E7E601211970052A01D104F0BFFA2B7891
:10664000012B00D1DDE61F4B1B78002B00D0D8E6D4
:1066500005F028FC01221C4B1A70D2E6052004F03C
:10666000ADFAFFE6E37F194E002B0BD0184B1B78D9
:106670005BB2002B06D1174B1B78002B02D133786D
:10668000002B17D0144B02341B78E27F002B0FD065
:10669000C823534300242B80012334703B70FDF743
:1066A000CBF9FDF725FA21002000FDF75DF80BE797
:1066B0000A23EEE7FEF79EFE084B1B882B80012382
:1066C000337001E7F5190020A31900207918002084
:1066D000A2180020D4190020201C0020F276010806
:1066E000F0B50024B24B87B01C70B24B200002936F
:1066F0001B88029A01339BB213800AF027FDA04247
:1067000002D020000AF0E4FDAB4B1B78002B2DD10A
:10671000AA4F3B78052B03D1A94B1B78002B16D130
:1067200003F0C4FA0124002800D1D5E03B78012B06
:106730000DD1A44B1B78002B09D0029B1A88A24BC9
:106740005343A24A9BB2934201D807F0A5FBA04C49
:10675000A04D23782E78002B00D19EE200232370D9
:1067600009F0F2FC2378002B00D12AE207B0F0BD3B
:1067700000210220FCF7A0FE0220FCF727FE0822E1
:1067800003041B0E05000193134220D0FDF717FCF4
:1067900000F0E8FF0600FF2819D03B78012B16D047
:1067A0008D4B1B78002B12D08C4B18000393FCF7F9
:1067B00043FA04ABD91D320014230870039800F08B
:1067C00037FF874A874B12781A70814B1C70019BE8
:1067D0005B0701D5844B1C70019B234205D0834B82
:1067E0001C70FDF7F3FB824B1870019B9B0702D5D1
:1067F00000227E4B1A70EEB26B0601D57D4B1C70E9
:106800002D0602D500227B4B1A70F3062AD50A22E8
:10681000794B1C70794B1A80794B5A7E002A21D013
:106820003A78052A09D1664A1278002A05D17549B5
:1068300008887549088075490A70DB7F002B11D0E4
:10684000734A744B10781988734B002802D118884A
:10685000884207D2198000231370704A13700122F6
:106860005C4B1A70B30604D50022634B1A70634B5D
:106870001A80730709D56A4B012105201C70FCF7AB
:1068800073FFE122674B52011A8008231E4205D094
:106890000021634B05201970FCF766FF019BDB06A6
:1068A0001AD5614B1D78042D16D1604B1B78012B36
:1068B00012D15F4B1B78002B0ED15E4B5F201E78F0
:1068C000013D721C1A70FCF781FD5B4B76009853FA
:1068D000002DF2D10BF022FD0C20FCF777FD2042B9
:1068E00000D045E722E7514D2B78012B04D02B78BF
:1068F000002B00D1ABE139E74D4B1B78012B00D0C9
:1069000034E70BF0B1FC002801D109F01DFC23781D
:10691000042BECD09BE10A69520503D4474A127854
:10692000002A2CD046480278012A28D11A78013250
:10693000D2B21A70022A03D8404B1B78002B01D028
:1069400002230370FDF7D2FF0400132802D00022B7
:106950003C4B1A803C4E3D4D33789C4200D1E1E0E7
:10696000132B08D0132C06D0394B00211A78394B41
:106970001878FFF7A3F8002334702B80F6E6802206
:106980000869D200104267D12C4C2078002863D1CE
:106990002B480578022D5FD11A780132D2B21A70D5
:1069A000022A02D82378002BCCD00323C9E7C046A3
:1069B000A0190020B2190020D61900206619002065
:1069C000E4030020FF1B0020EFEEFFFF1111000089
:1069D000A3190020DC190020FE1B0020A5180020B0
:1069E00013770108A4180020BC190020BF1900204B
:1069F000BE190020BD190020BB190020B6190020C7
:106A0000401C0020F076010868190020FB190020C6
:106A10008A00002000770108F8190020F6190020EC
:106A2000B4190020EA190020AD1D0020BA2300206F
:106A3000B4230020A61900206C230020F5190020A3
:106A400090190020261C002009000020EC130020D3
:106A5000AC190020080000200969114203D1904AB6
:106A60001278002A22D08F4C2278032A1ED11A785D
:106A70000132D2B21A70022A04D8894B1B78002B3B
:106A800000D15FE7002210201100FFF717F8002265
:106A9000854B1A70854B1B78132B02D0844B013227
:106AA0001A7000232370FEF785F84BE700221A7056
:106AB00048E77D4C0969207800281FD0114203D196
:106AC000774A1278002AF1D01A780132D2B21A70BD
:106AD000022A04D8724B1B78002B00D132E7002227
:106AE00010201100FEF7EAFF002323706F4B1B7884
:106AF000132BD8D001226E4B1A70D4E71142D5D196
:106B0000674A1178CAB20029D0D119780131C9B2C7
:106B10001970022900D815E766491A700A80012108
:106B20002170B6E02888644B01301B8880B2288031
:106B3000834215D15D4D614E132C0AD1287813285C
:106B400004D000213278FEF7B9FF2C700023337097
:106B50000CE60022012120002C70FEF7AFFFF5E7C4
:106B6000574B1E88B04200D200E6132C00D1FDE541
:106B7000B0420AD1102C00D1F8E501214F4B0A0098
:106B800020001970FEF79AFFF0E523000B3BDBB203
:106B9000012B0ED80127494B1F704A4B1988FBF770
:106BA0003DFF89B2002904D13A0039002000FEF7E8
:106BB00085FF2A88444B9A4200D0D7E501362E80C3
:106BC000D4E5002E01D009F051F900200EF0ACF907
:106BD0003E4E3378002B04D03D4B1B78002B00D069
:106BE000C4E50BF0B3FD3B4A1388002B01D0013BF9
:106BF0001380394A1388002B01D0013B13803F7862
:106C0000012F0CD1354B1878002808D00138C0B2BC
:106C10001870002803D103F0D1FF2F70277033784C
:106C2000002B0DD02E4A1388002B09D0013B9BB2BC
:106C30001380002B04D10BF0EFF9032009F092FA36
:106C400003F0CAF9274C2378042B00D14BE68022AD
:106C5000254B26491878D200254B002800D128E77B
:106C60000869104200D056E60D4A0E4812780478A2
:106C7000224300D04FE619780131C9B219700229B8
:106C800000D85FE60B491A700A800121064B01709B
:106C900019701020FEF712FF54E6002E98D092E7EC
:106CA000F519002090190020AB19002008000020E1
:106CB000CD190020261C00200C770108AC190020FB
:106CC000107701080E770108FFFF00004323002022
:106CD00042230020B8190020B6190020DE19002038
:106CE0003A230020AD1D0020161C00200004005097
:106CF000AA1900200022F0B58F4B85B01A708F4A78
:106D00001378002B07D0013BDBB21370002B02D1AC
:106D100001228B4B1A708B4A1378002B1AD0013B3F
:106D2000DBB21370002B15D1874B1B689B7FC72BE1
:106D30000ED8864B1B78013B012B09D801F0BAF91C
:106D4000834B1878022801D103F02CFA06F070F872
:106D5000FEF776FE7F4B1978002914D07E4A127810
:106D6000052A01D0002A0ED10139C9B219700029B3
:106D700009D17A480378002B05D014220FF0A6F829
:106D800001226F4B1A70764B01931B88002B00D0A9
:106D90007DE00023734A02931378002B00D084E037
:106DA000714E3388002B00D088E078236F4F704CF1
:106DB000397822884B436F4D9A4210D12B78002BA3
:106DC0000DD0FDF7E5FE00210620FCF7CDFC0A22E0
:106DD000694BDB7F5343694A138000232B70684B58
:106DE00003931B78012B00D1A0E003F0BFFD002826
:106DF00000D09BE0634B1B78042B00D196E02088E9
:106E0000002800D181E0013880B22080002800D025
:106E10007BE00122594B30801A802A70FCF7F6F98A
:106E2000FDF762FF2B78002B0BD00322564B062078
:106E300019780131114019704B425941C9B2FCF720
:106E400093FC524B1C78002C00D1B9E0FA22504B35
:106E5000D2001D884F4BEB189BB2934200D94E4D88
:106E60004E4C4F4E2100300003F094FBFA23228851
:106E70005B009A4202D83388AB421DD9BFF34F8FD3
:106E8000484B494ADA60BFF34F8FC046FDE7019A8D
:106E9000013B9BB21380002B00D07AE7394B1B7863
:106EA000013B5A425341DBB274E7013B13703F4B45
:106EB0001B78002B00D173E705B0F0BD3C4B1B786D
:106EC000002B00D071E73B4B1B78002B00D06CE708
:106ED0002C4B1B78012B0ED03388013B9BB23380A7
:106EE000002B00D061E7344BDB7F3C2B00D95CE703
:106EF000FCF7EAF959E708F04DF8132800D154E7F8
:106F000008F048F81628E7D14FE723885A1E132ABD
:106F100000D987E73A78002A00D183E700209B0751
:106F200001D1264B987DFCF771F97BE778223B78FD
:106F30005343238076E7C046F4190020CB19002084
:106F4000A3190020E0190020341C00205C1D002043
:106F500065190020A4180020781D0020A518002025
:106F6000CE19002042230020E202002090000020E1
:106F7000DE020020201C0020421C00206819002096
:106F800066190020AD1D002078180020D6190020B9
:106F90008419002024FAFFFF9808000080190020BF
:106FA0008219002000ED00E00400FA0543230020D0
:106FB000AB1D0020D4190020431C00203F1D0020E1
:106FC0005A4D039A2B88127801339BB22B80012AE9
:106FD00012D0DB0710D4564E56493078431C33701C
:106FE000554B4000C01803F0D5FA3378032B00D975
:106FF0003470012003F00CFF2B889B070AD14F4B04
:107000001B78002B03D14E4B1B78002B02D00122A2
:107010004C4B1A704C4B1B78002B5DD14B4B1B78A3
:107020005BB2002B58D102F041FE002854D1484BEE
:107030001B78002B03D0474B1B78002B4CD0464BC2
:107040001878042848D0454B454A1B78002B12D0AD
:1070500044490B78002B0ED0434D2D78002D0AD1DA
:10706000012808D0013BDBB20B70002B03D135495E
:10707000013353750B70029B002B2DD00023019917
:1070800003320B80D37F002B01D1FCF71DF9374D64
:107090002B78002B03D1344B1B78002B02D002201D
:1070A00003F080F800F06EFB0023314A2B70137060
:1070B000284A13702F4A13700122224B1A702E4B4C
:1070C0001A702E4B1B78002B2AD102F0EFFD0028FE
:1070D00002D1200009F046F8294B1B78002B18D16B
:1070E000284B1A78002A14D018780138C0B21870CA
:1070F00000280ED104F0ACFE204B1B78002B08D0EA
:1071000003F034FC002804D10AF086FF032009F0C4
:1071100029F803F02FFF03F021F807F047F8CBE63A
:1071200003F024FC0028D0D10324D2E76E190020FC
:10713000D51900208019002078190020731900202B
:10714000FD1B0020DC190020D4190020A21800200B
:107150003F230020AB1D0020AD1D0020741C00202B
:10716000401C0020DF190020BA1800205C1D002000
:10717000EA130020AA1D0020A319002043230020A9
:10718000AB190020E4190020F0B53D4B3D4DDA7FEE
:1071900085B0531ED9B202292DD8EB18991DC97F8D
:1071A000019119002B3328310E781C78364B02934D
:1071B0001B780393019B002B0CD0344F3B7800933A
:1071C000002B1ED0012B4BD003233B70304B029A77
:1071D0001B68137000212F4B029A595610786B1DB3
:1071E00040180122DB7FC0B204F038F8FF2800D13C
:1071F0000020C4B213E0012601237642340001933B
:10720000D4E7234B03991960731C29D00099B0B2BD
:1072100003F0E0FF002823D0009BF4B23B701A4B30
:107220001C70039BA3420CD0287A02212B181C71DE
:107230002C5404F05FF9012004F05AFC0122164B93
:107240001A700922154B1A80019B002B06D00F4A99
:1072500013780133DBB2032B10D8137005B0F0BDE7
:107260006B1DDA7F631CAFD00021A0B203F0B2FF28
:107270000028A9D00123E4B23B70D0E70023ECE75B
:10728000451C0020401C0020AF190020941800204D
:1072900080180020A2180020A3190020D219002075
:1072A000002170B5104B114C1A68114B25685956C6
:1072B000002A15D00F4B28001B68FEF789FB2860B9
:1072C000206804F009F9206803F0E6FF012004F0CB
:1072D0000FFC0922084B1A80084B083A1A7070BD3F
:1072E0002800FEF78BFBEAE79C180020301C0020EA
:1072F000A218002098180020D2190020A3190020FD
:1073000070B504000D00002807D01B4A1B4BD17F2D
:1073100019700023D3771A4A137004F0EBFA002097
:10732000184B194A19688B7F1370184A1070184A45
:107330001570184DC72B15D8844202D0164A2B6001
:107340001360FFF721FF2A68144B1A60144B1A8848
:10735000144B1A800023144A1370144A1370144AF1
:10736000137070BD002C03D00B680B4A2B601360A8
:10737000FFF796FFE7E7C046411C00208C1800206D
:10738000A1180020301C0020AF1900209418002004
:10739000A2180020881800209018002084180020CF
:1073A000FA760108D219002087000020AE190020CB
:1073B000A018002010B5134B134A1B7812783833ED
:1073C000DBB2032A15D1062B03D9104B1B78002BF7
:1073D00014D10F4B04201B78002B00D00238FEF78D
:1073E000DDF900230B4A13700B4A13700B4A13701C
:1073F00010BD062B02D8FFF753FFF2E7FFF7C4FEDC
:10740000EFE7C046AF190020661900202B1C0020B2
:10741000FC1B0020A0180020AE19002087000020CF
:10742000144BDB7F502B20D913490A78002A0AD14C
:10743000124A503B1288534305225343104A9BB2D1
:10744000138001230B7000220E4B1A700E4A0F4B53
:10745000116819600E4B19688B7FC72B00D90B6818
:10746000136001220B4B1A7070470022044B1A80E4
:10747000E9E7C046441C0020A0180020F676010869
:10748000D2190020870000208818002084180020CE
:10749000301C0020A1180020F8B5224B224C1A788D
:1074A000002A03D0611CCA7700221A7000221F4BE9
:1074B0001A701F4B1F681F4B3D001B78934201D071
:1074C0001D4B1D681D4B1B78C72B1AD8207AEBB2B9
:1074D000221802211371235404F00CF8BD4204D089
:1074E00005F0A6FC0122164B1A7000232E342370DF
:1074F00006F08AF8012004F0FBFA0122114B1A7001
:10750000F8BD114E3068056003F0E6FF306803F007
:10751000C3FEBD42E9D032680123217A907F05F095
:10752000E9FFE2E78C180020401C0020A218002090
:1075300090180020A118002088180020AF19002002
:10754000DC190020A3190020301C0020074B1B78F9
:10755000012B0AD0064B1B78012B06D001220549CE
:107560004B7D53404B75044B1A707047AD1D002086
:1075700066190020401C0020C519002000220E4B77
:107580001A6001230D4A517A4B405372511CC87F37
:10759000002801D0581CC877D17F002901D00133C1
:1075A000D3770123064A1370064A1370064A1370F4
:1075B0000022064B1A7070479C180020401C0020C7
:1075C000C5190020CA1900208A000020C40000202C
:1075D00010B5134CA37F002B16D0124B1B68997F5C
:1075E0000B003133DBB2092B0ED9627AA318C729FD
:1075F0000BD89B78A354012002220B4B002118705A
:107600000A4B1A7000F06AF910BD187900230121A5
:107610001A0003F023FEFF28F6D0637AE054EAE76D
:10762000401C0020341C0020C7190020C91900206C
:1076300070B505000C001600002916D0002814D0E3
:10764000002B12D009785A1E914206DB9A1E411C6B
:107650000EF02AFC2378013B237000222378EE549D
:1076600023780133DBB22370EA5470BD37B5224C66
:10767000236831331B78042B06D1204B1C22FA21BE
:107680001B781F48FCF7F6FA236831331B78023B5E
:10769000012B2CD8194B1B4C1B781B4D002B09D0F0
:1076A000A0238022DB0552009A6101233C202B702D
:1076B000FDF72CFB23006E331878FCF725FB210027
:1076C000230022006C310988683366321B881288D7
:1076D0006A34019121880D4800910021FCF768FB74
:1076E000A0238022DB0552009A6200232B70012028
:1076F000FCF7A0FA37BDC0462C1C0020AE1C0020B1
:10770000AB090000401C0020E1190020921C002061
:1077100003000120232B08D02A3BDBB200201A2BC8
:1077200003D80248D840012318407047C1FF8007A2
:1077300070B5040003786518013BDBB20020FD2B17
:1077400005D970BDFFF7E4FF01340028F9D0AC4241
:1077500006D02078431EDBB2FD2BF3D90023237023
:107760000120EEE7092802D83030C0B2704703008C
:107770000A3BFF20052BF9D8014AD05CF6E7C0464A
:10778000986701080F2210B5002104480EF09EFBF7
:107790000022034B1A70034B1A7010BDBC18002056
:1077A000BB180020BA180020F8B50A4F06003C7834
:1077B000002C0BD1084D0E222D2128000EF086FB47
:1077C000AC73631C3B70044B1E5501E00D2CF8D9C3
:1077D000F8BDC046BB180020BC18002073B5264A6F
:1077E0001378012B0CD0254B1B68313319780429F1
:1077F00040D81523CB40DB073CD50023137073BD65
:107800001F4D002313701F4B1F4C1B88181CC72BC8
:1078100000D8C82023006E331B781C4E80B2002B8A
:1078200006D0A0238022DB0552009A610123337029
:10783000FDF76CFA23006E331878FCF765FA210027
:10784000230022006C310988683366321B88128855
:107850006A3401912188280000910121FCF7A8FADF
:10786000A02380220020DB0552009A623070FCF7D2
:10787000E1F9C4E7064DC4E7A31800202C1C002042
:10788000CB180020A41C0020401C0020E11900207F
:10789000801C00200300F0B50020062B16D8081E1F
:1078A00014D00C4C0020E25C032A0FD80A4D1E01B4
:1078B0007619824203DD8700F7598F4207D198007D
:1078C00080188000295001200132E254F0BD0130BF
:1078D000EFE7C046DA180020E4180020F8B50400ED
:1078E0000F00062807D80025084B0601F618084B9C
:1078F0001B5DAB4200DCF8BDAB00F358002B02D09F
:107900003900200098470135F1E7C046E41800200F
:10791000DA18002010B57022002104480EF0D6FAC3
:107920000722002102480EF0D1FA10BDE418002011
:10793000DA18002010B508490020FFF7ABFF07490F
:107940000020FFF7A7FF06490020FFF7A3FF012053
:107950000449FFF79FFF10BDA7D6000839C00008F3
:10796000E1010108B10D010810B51C4B1B78002B7B
:1079700007D0002924D1002822D00222184B1A70E7
:107980001EE0002918D1174B1B78002819D1164A80
:107990001278002A01D1002B01D0032B10D1012332
:1079A000124A11784B40137003D0114A114B1278D0
:1079B0001A70114B0122E2E7002801D0FFF7C6FD43
:1079C00010BD074A032B02D001231370F8E70B49BF
:1079D00009780029F8D01370094BEBE75C1D0020F3
:1079E00065190020AD1D002043230020EA1300206C
:1079F00012770108E0190020DC1900203F23002045
:107A0000CD190020002370B54A4C2370984203D052
:107A1000494B1B78002B23D0484B1B78012B13D1EB
:107A2000474D2B78002B10D0002003F0C7F800241E
:107A3000444B20001C702C7004F00AFA424B1B7857
:107A4000012B01D0414B1C7070BDFDF7E5FF404B91
:107A500019780029E8D00A224A433E4B1A70E6E71B
:107A600002F024F9384D002807D002F02FF93A4BE4
:107A70001B78002B30D0394B2CE0394B1B785BB294
:107A8000002B02D0FFF708FDF1E7364B1B78002BE7
:107A900005D00AF093F803222C4B1A70E7E72B78F5
:107AA000032B16D0254A1278012A05D1294A1278CB
:107AB000002A01D12270C7E7012B02D00022234BFC
:107AC0001A702949294B09781A78002915D1002AFA
:107AD0001AD1274B01221A700022264B1A702B78DC
:107AE000012B04D0194B1978032900D01A700122F8
:107AF000214B1A70214B1A70A6E7002A04D1204AA4
:107B00001278002A12D01A701B781E490E2B01D849
:107B10000022CA541A4A1C4C137020000E220EF088
:107B2000E6F900230122A373184B1A70FFF72AFE0F
:107B3000CFE7C0465C1D0020F51900206619002023
:107B4000B0190020BA190020AD1D0020C40000208B
:107B5000781C0020DE190020AB190020CC19002071
:107B6000A21800203F230020BA180020BB180020D4
:107B7000C3190020AA190020DC190020A319002035
:107B8000B9180020BC180020CB180020A318002032
:107B9000F7B5BA4C0D00E37D667A002B0CD00228B5
:107BA0002ED10122B64B1A70FFF7E8FC002D27D02A
:107BB0000122B44B1A7023E0B34BB24F1B78012B58
:107BC00002D102233B701BE001233B70122800D935
:107BD000B2E1FAF793FE1300160088008B009300C1
:107BE000A300C500C80024012E01B10141014D01CF
:107BF000B101B101B101B101A5018B01FDF7DCF9C2
:107C0000F7BDA24B19688B7F3833DBB2062B3FD907
:107C100000229F4B1A709F4B01321A70A37F002BDA
:107C2000CFD09D4B1B78002BCBD19C4B1B785BB2EC
:107C3000002B0BD09A4B1B78032BE1D1994B1B786F
:107C4000002BDDD0984B1B88002BD9D0A35DC72B10
:107C5000D6D848237343E3181A00A8321278963313
:107C6000383AD2B2A2551A7003F044FE8F4C206805
:107C700003F032FC206803F00FFB012003F038FF13
:107C800001238B4A13708B4A13708B4A1370B7E72A
:107C90000A0030321378062B07D1096987480D682E
:107CA000854202D8864B0B60AAE70133DBB2137022
:107CB000042B14D1834B1B78002B01D10533137097
:107CC00013780122383BDBB2A355A419A370794B7A
:107CD0001A706B4B92181A707B4B00226AE7062BC6
:107CE000EED90023EBE7664A13705DE7644A137030
:107CF000FFF76EFC002D00D063E781E70020644BA6
:107D000001341870E27F714BE0771A700122614BE9
:107D10001A7001F03BFF6C4B02224BE76A4F0029BF
:107D200003D00CF02FF900234CE7A35DA2193133E7
:107D3000DBB2092B0BD81379C72B00D9937801221A
:107D4000A3555C4B1A704E4B92181A70EBE793795F
:107D500019003131C9B20929F1D9CF239371EEE766
:107D6000FDF716F84CE7002900D02AE701F09EFF46
:107D7000002800D044E7454B1968887FC72823D9DD
:107D80000B69617A1B684A42514148224A43504E6E
:107D9000A218906F4F4A9D194F49504C954202D8F6
:107DA0008519954203D900230B60236009E70A680F
:107DB000206055426A41524213400B60984200D302
:107DC0001EE7086023601BE7454B1A5C002A01D0C0
:107DD0001D5415E70E000A000F002E362F3233789F
:107DE00014785B00A4002D3723433C782343DBB297
:107DF000062B01D80133DDB201242B0023403B7058
:107E00006B082340AD0833701570230022000094E6
:107E100005F006FB1A4B1C70324B1C70F0E601217A
:107E20001A4B1B682A331A784A401A70204B197073
:107E3000E6E600222C4B1100187803F0CBF900285D
:107E400000D157E7284BA2191B7813710122A355C3
:107E5000184B1A700A4B5FE7E27C131C082A00D902
:107E600008230133E3740122054B1A70084B34E7F1
:107E7000E37C002BF6D0013BDBB2F3E7401C002093
:107E8000C919002065190020AD1D0020341C0020F8
:107E9000EA130020DC190020D4190020A2180020C9
:107EA00066190020AE190020D2190020301C0020D5
:107EB000C6190020C7190020A3190020FFE0F5050E
:107EC00000E1F505241C0020C4000020A8190020B2
:107ED000806967FF80AF2A239C1800209818002033
:107EE000FC190020C81900207F1C0020144C2368B6
:107EF0000733D87F02F0E4FBC0B2162806D8256805
:107F00000130C0B202F0D6FB0735E87723689B7FCB
:107F10003833DBB2062BA6D801220A4B1A70A2E72F
:107F2000074C23680733D87F02F0CAFBC0B2002891
:107F3000ECD025680138E4E7034A137096E7C046A1
:107F4000341C0020C6190020DC19002070B50E007A
:107F500011000022324B334C1A70334B1A70637A83
:107F6000E55C324B1B78964202D1904226D170BD1F
:107F7000002BFCD10028FAD000222D4B9A56002A63
:107F800043D12B003133DBB2092B33D92B003833EB
:107F9000DBB2062B1CD8274D2868FDF72FFD040007
:107FA00002F0CAFC00280BDB2B6820001C60FBF7EA
:107FB00085FCFBF7B1FC01221F4B03E0002B03D033
:107FC0001E4B02221A70D2E701221C4B1A70D3E713
:107FD00068181300C0B203F041F9FF28C7D08542EA
:107FE000C5D0637AE21810710122E054144B1A7064
:107FF000144BE6E728000923CF3803F0ABF8637A87
:108000003138C0B2E2189071EEE70020FFF778F93E
:10801000012200210C4B1A800C4B19700C4BD1E73C
:10802000001C0020401C0020011C00205C1D0020C2
:10803000A2180020341C0020C61900206519002059
:10804000C7190020C9190020D2190020870000207C
:10805000CD190020002270B5104D110004006E7A79
:1080600003F0B8F8002807D10D4B1B78012B02D87C
:1080700002220C4B1A7070BD00230221094AE4B29F
:108080001370AA191471084AAC551170074A13707D
:10809000074A1370687A03F02DFAECE7401C0020C1
:1080A000E019002065190020C9190020001C0020DB
:1080B000011C002070B5154B1B689B7FC72B17D880
:1080C00000220A251300124C124E2178D0B28142B0
:1080D0000FD8002B13D103290AD100220121013B23
:1080E00022700D4A98B21170FFF7B4FF04F0A0FEA1
:1080F00070BD6B43B05C01321B189BB2E6E7581EA3
:1081000080B20329E9D0FFF7A5FFF1E7341C002076
:108110005C1D0020661D0020E0190020F0B5B54B65
:108120008BB001931B7805000C001600002B0AD0C1
:10813000102808D00D2806D0002E21D1002C1FD0E9
:108140000222AD4B1BE0AD4F3B78002B1AD0002C28
:1081500000D13BE3002E00D051E32800FFF702FBE3
:10816000FF2800D1DFE2FFF71FFBA54AA54B1278DD
:108170001A700122A44B1E70A44B1A709E4B1A70E9
:108180000BB0F0BD122DD7D82800FAF7B7FB1300BB
:108190001300130013001300130013001300130047
:1081A00013006501BF01D501DD012D02A902AE0258
:1081B00013001300002E16D0002CE1D0944B1B7836
:1081C000002BDDD1934A1178002902D013708E4A1A
:1081D000137000210122904B280019708F4B1A70E8
:1081E000FFF7D6FCCCE7002C02D00122824BC6E779
:1081F000894B1A78002A00D0EAE0894B1B785BB2E1
:10820000002B2BD0052D1ED8864BDD770223864D03
:108210002B7004F0E3F818212B78844A04A808F0A6
:10822000B3FD05F093FD210023007F2204A805F093
:108230005DFBFCF755FCFA204000FCF767FD2100D0
:108240000120FFF74BFB7A4B1B78002B00D0B3E0EB
:10825000784B1B78002B00D0AEE091E7764E2800DB
:10826000737A019305F092FD654B1D78654B02937F
:108270001D70FFF71FFF714F634B39681C708B7FB8
:10828000C72B03D8029BAD081D70DCE71A003832FB
:10829000D2B2062A70D80B695E4C1A68684B9342BA
:1082A0009B415B42063303932378002BCBD0039A88
:1082B000934250D12D09029B1D7005F07FFD24785B
:1082C00002F058FF002102000A20039B1B1BDBB2B7
:1082D0008B4246D164205B4B50431C685A4A556818
