:020000040800F2
:102800000040002029AF01089539000897390008D9
:1028100000000000000000000000000000000000B8
:1028200000000000000000000000000099390008CE
:1028300000000000000000009B390008F5CD0008F2
:1028400079AF010879AF010879AF010879AF0108C4
:1028500079AF010879AF010879AF010879AF0108B4
:1028600079AF010879AF010879AF010891540008E8
:1028700079AF010879AF010879AF010879AF010894
:1028800079AF010879AF010879AF010879AF010884
:1028900079AF010879AF010879AF010879AF010874
:1028A00079AF010879AF010879AF010879AF010864
:1028B00079AF010879AF010800000000B592010866
:1028C00002780B78002A03D0013001319A42F7D008
:1028D000D01A70470023C25C0133002AFBD1581E76
:1028E0007047000002B47146490849000956490082
:1028F0008E4402BC7047C04602B471464908490084
:10290000095C49008E4402BC7047C04603B471465E
:10291000490840004900095E49008E4403BC7047E5
:1029200003B47146490840004900095A49008E44E1
:1029300003BC7047002243088B4274D303098B42C7
:102940005FD3030A8B4244D3030B8B4228D3030C7F
:102950008B420DD3FF22090212BA030C8B4202D321
:102960001212090265D0030B8B4219D300E0090A49
:10297000C30B8B4201D3CB03C01A5241830B8B4252
:1029800001D38B03C01A5241430B8B4201D34B033B
:10299000C01A5241030B8B4201D30B03C01A5241A0
:1029A000C30A8B4201D3CB02C01A5241830A8B4225
:1029B00001D38B02C01A5241430A8B4201D34B020E
:1029C000C01A5241030A8B4201D30B02C01A524172
:1029D000CDD2C3098B4201D3CB01C01A5241830926
:1029E0008B4201D38B01C01A524143098B4201D360
:1029F0004B01C01A524103098B4201D30B01C01A8B
:102A00005241C3088B4201D3CB00C01A5241830804
:102A10008B4201D38B00C01A524143088B4201D331
:102A20004B00C01A5241411A00D201465241104691
:102A30007047FFE701B5002000F0F0F802BDC04686
:102A40000029F7D076E7704703460B437FD4002276
:102A500043088B4274D303098B425FD3030A8B4232
:102A600044D3030B8B4228D3030C8B420DD3FF229C
:102A7000090212BA030C8B4202D31212090265D06A
:102A8000030B8B4219D300E0090AC30B8B4201D31D
:102A9000CB03C01A5241830B8B4201D38B03C01A64
:102AA0005241430B8B4201D34B03C01A5241030BDB
:102AB0008B4201D30B03C01A5241C30A8B4201D38C
:102AC000CB02C01A5241830A8B4201D38B02C01A37
:102AD0005241430A8B4201D34B02C01A5241030AAE
:102AE0008B4201D30B02C01A5241CDD2C3098B4293
:102AF00001D3CB01C01A524183098B4201D38B0110
:102B0000C01A524143098B4201D34B01C01A5241B2
:102B100003098B4201D30B01C01A5241C3088B42F7
:102B200001D3CB00C01A524183088B4201D38B00E2
:102B3000C01A524143088B4201D34B00C01A524184
:102B4000411A00D201465241104670475DE0CA0F5B
:102B500000D04942031000D34042534000229C461B
:102B600003098B422DD3030A8B4212D3FC22890125
:102B700012BA030A8B420CD3890192118B4208D3FB
:102B8000890192118B4204D389013AD0921100E05D
:102B90008909C3098B4201D3CB01C01A5241830971
:102BA0008B4201D38B01C01A524143098B4201D39E
:102BB0004B01C01A524103098B4201D30B01C01AC9
:102BC0005241C3088B4201D3CB00C01A5241830843
:102BD0008B4201D38B00C01A5241D9D243088B4299
:102BE00001D34B00C01A5241411A00D2014663463C
:102BF00052415B10104601D34042002B00D54942A0
:102C0000704763465B1000D3404201B5002000F0DE
:102C100005F802BD0029F8D016E770477047C04696
:102C2000D0400B00D1409C46203AD340184352423A
:102C300063469340184370479140030090409C4680
:102C4000203A9340194352426346D3401943704798
:102C50001C2101231B04984201D3000C10391B0ACC
:102C6000984201D3000A08391B09984201D3000990
:102C7000043902A2105C40187047C04604030202E7
:102C80000101010100000000000000000448054BA4
:102C900010B5834203D0044B002B00D0984710BDE1
:102CA000F8000020F8000020000000000648074956
:102CB000091A8B10C90FC91810B5491003D0044B5D
:102CC000002B00D0984710BDF8000020F80000202D
:102CD0000000000010B5074C2378002B09D1FFF746
:102CE000D5FF054B002B02D0044800E000BF0123B4
:102CF000237010BD6002002000000000D4C2010853
:102D0000054B10B5002B03D00449054800E000BF77
:102D1000FFF7CCFF10BDC046000000006402002099
:102D2000D4C20108054B82B0DA6B0243DA63DB6B75
:102D300018400190019B02B07047C046001002404D
:102D4000054B82B01A6C02431A641B6C1840019048
:102D5000019B02B07047C04600100240802130B590
:102D600080240822454B49009962A40045B2002DF9
:102D700000DA81E09C62C046C046C046C046C046FC
:102D8000C046C046C046C046C046C046C046C04613
:102D9000C046C046C046C046C046C046C046C04603
:102DA000C046C046C046C046C046C046C046C046F3
:102DB000C046C046C046C046C046C046C046C046E3
:102DC000C046C046C0469961C046C046C046C046DF
:102DD000C046C046C046C046C046C046C046C046C3
:102DE000C046C046C046C046C046C046C046C046B3
:102DF000C046C046C046C046C046C046C046C046A3
:102E0000C046C046C046C046C046C046C046C04692
:102E1000C046C046C046C0464000C0B29962C046E7
:102E2000C046C046C046C046C046C046C046C04672
:102E3000C046C046C046C046C046C046C046C04662
:102E4000C046C046C046C046C046C046C046C04652
:102E5000C046C046C046C046C046C046C046C04642
:102E6000C046C046C046C046C046C046C046013AFD
:102E7000002A00D07AE730BD9C617CE70004005056
:102E8000054B82B05A6B02435A635B6B184001904A
:102E9000019B02B07047C046001002400222064B60
:102EA00099681142FCD00122187399681142FCD034
:102EB000D868C0B27047C0460038004010B5040062
:102EC000000CC0B2FFF7EAFF200AC0B2FFF7E6FF2E
:102ED000E0B2FFF7E3FF10BD0B4B5A7E002A02D091
:102EE0009B7E002B0ED10322084B01211A70002279
:102EF000074B1A70074B1970074B1B788B4201D098
:102F0000064B1A707047C0460C220020910A002020
:102F1000DF210020900A0020C32100206100002052
:102F2000084B1A68293213780133DBB2072B00D91A
:102F3000012313700122044B1A80044A044B1278B7
:102F40001A707047E02100208E0A0020C321002063
:102F5000610000200122064B1A80064B1A683432A9
:102F600013780133DBB2032B00D1002313707047B9
:102F70008E0A0020E0210020012305498A7F5A4063
:102F80008A77044A1370044A1370044A1370704716
:102F90000C2200206F0A0020720A0020F12100207C
:102FA0000A4810B502780A4B002A0CD00633D97FA4
:102FB0004C426141D97701235A400270054A13708F
:102FC000054A137010BD0533F1E7C0466E0A0020B4
:102FD0000C220020720A0020F12100200E490F4A25
:102FE0000B7870B5501D0E4D0E4C002B0CD02D786B
:102FF000C57720780632D077012253400B700A4BF8
:103000001A700A4B1A7070BDC67F2E70951DED7F29
:10301000C37725701800EDE76D0A00200C22002010
:103020006C0A00206B0A0020720A0020F1210020A7
:10303000012304490A785A400A70034A1370034A6C
:103040001370704733210020720A0020F121002004
:103050000123044A11784B4013700222024B1A706C
:103060007047C046640A0020630A00200123044A16
:1030700011784B4013700222024B1A707047C04601
:10308000620A0020630A0020044B05481A88504356
:10309000044A801880B21880000A70472800002077
:1030A0000508000019360000F0B5130007270322B9
:1030B0003B405A431B4B85B0D31801930123039126
:1030C0009C46002102900020019B5B5C0093009BCA
:1030D0006246C340134213D0039B1C18A3B23F2B7C
:1030E0000ED86546029B5A18E3B23C40A540D2B2C6
:1030F000ECB2072B0CD80C4BD5189B5C1C432C70E6
:1031000001300528E3D101310329DCD105B0F0BD40
:10311000DB08013BDB01054E9D18AD19F618B35CC9
:10312000ECE7C046DCD10108990A0020251D0020EB
:10313000054B1A78002A06D000221A70034B013280
:103140001A70034B1A707047200A0020EC210020EF
:10315000F121002030B50E4B1B689A8B0D4B18687F
:103160000D4B19680D4B1C6C844207D15C6C8C4272
:1031700004D11C0048342488944207D01C00002548
:103180004A3418645964483325801A8030BDC046DB
:10319000B0200020840A0020C8040020CC040020B5
:1031A0000E4B10B51B68191E13D00D4A1268918B77
:1031B00000290ED083420ED80A4A126882420AD3EE
:1031C000C01AFFF7B7FB084B0021984201D8013025
:1031D00081B2080010BD0021FBE7C046840A002030
:1031E000B0200020C8040020FEFF000010B5094CEC
:1031F0002278531CDBB2172B00D90023064952005A
:103200005052064A23701378172B01D801331370DC
:1032100010BDC046950400209604002094040020B0
:103220000122054B52421A800023044A1360044ACB
:103230001370044A137070470400002090040020AB
:103240008D0400208C04002070B51E4A0300126813
:103250000232D47F221C082C00D208221A491B48B3
:103260000D88083A92B2854206D100200B80844234
:1032700001D0A342404170BD15482E1C854201D9A2
:103280001448068814481036B6B21C1C834201D973
:10329000124804880834A4B29E4202D80120934206
:1032A000E9D2A64202D801209442E4D29D4202D93A
:1032B00000200B80DFE707226A430432D318DB08C3
:1032C000F6E7C046B020002004000020FFFF000009
:1032D000EFFF000018C40108F7FF00001AC401083E
:1032E000002806D0044A13780133DBB2032B01D83F
:1032F000137070470023FBE789040020F8B5104CD9
:103300002368002B02D000232360F8BD0D4B0E4F25
:103310001B681B691D680D4B2560597B4A42514152
:1033200048224A439B1888331E683E60FFF778FFA7
:10333000B54201D926603D60FFF70CFFE5E7C046C6
:10334000840A0020E0210020C80400200C22002074
:10335000074B1B78012B0AD0064B1B78012B06D09C
:10336000012205494B7E53404B76044B1A7070473F
:10337000C3210020EA2100200C2200206F0A002037
:103380000021012210B5124B1960124B587B4240AC
:1033900011485A7304788C4202D001700F480170B2
:1033A000991DC87F002801D0501CC8770533D97FEC
:1033B000002901D00132DA770123094A1370094A42
:1033C0001370094A13700022084B1A7010BDC046D2
:1033D000840A00200C220020DF210020DC210020B4
:1033E0006F0A0020720A00204E00002061000020B9
:1033F000092802D83030C0B2704703000A3BFF20D2
:10340000052BF9D8014AD05CF6E7C0467BCF01080E
:1034100010B50E4A0E48137B59424B410021DBB2D6
:1034200013738B4200D04831883152180260094A28
:103430001378002B03D101331370074A1370002057
:103440000EF0A2FE0A22054B1A8010BD0C220020AD
:10345000B0200020830A0020F12100201C0A002057
:10346000194B10B51B78002B11D0FFF761FE174ADE
:10347000174B12781B7852B2002A1BD1154AD27F03
:10348000002A05D1032B02D003200EF01FFD10BD32
:10349000114A1278002AF5D1642010490880104999
:1034A0000A7010490A7001210F4A117001210A4A5D
:1034B0001170E7E7084A11780029E3D114200B4A7C
:1034C00010800B4AF1E7C0461E0A0020A42100200C
:1034D000EA210020112200202E2100201C0A0020B9
:1034E0004E000020830A0020F12100208A0A0020DB
:1034F0004F000020034B10B51B78002B01D1FFF7C4
:10350000AFFF10BD29210020302210B50021044852
:1035100017F05EFD0022034B1A70034B1A7010BDAA
:1035200096040020950400209404002010B5084B58
:103530001B78012B01D9042B05D1062008F046FC8D
:10354000062008F043FC0022024B1A7010BDC04652
:103550004C22002034000020A023402210B5DB05BF
:103560009A6216F07FF810BD10B5032804D0072822
:1035700009D0074B185C03E0064B1878A6231843C4
:10358000FFF7EAFF10BD044B18781530C0B2F7E71B
:1035900058D20108980A00202A00002070B50C4B70
:1035A0001B6834331C78012C0AD10321094D28787B
:1035B0000130FFF72FFB2970200009F049FB70BD97
:1035C000002CF9D1044D052128780130F1E7C046DF
:1035D000B02000206A0A0020690A002070B508F0B7
:1035E00001FE114B041E00D1104B19680D002D3542
:1035F0002A78343153425341D8B228700B78012BCA
:1036000007D153425A4103205242104016F0CAF8E3
:1036100070BD002CFAD000208242F7D1044B1878FC
:103620000130C0B2F2E7C046B0200020E021002007
:10363000680A002070B5868B006871430818310055
:103640001C00150008F0CAFCA04206D8A84203D20C
:103650003100A01B08F0C2FC70BD2800FCE7000090
:10366000F0B5212585B0FFF775FD164B1E68164B8A
:103670001B785BB20193154B1B680293144B1B68BC
:103680000393144B1F783000039B029A0199FFF7B4
:10369000D1FF013DEDB204003060002D07D0FFF7EF
:1036A0007FFD002803D000230B4ABB4202D120003B
:1036B00005B0F0BD0232911E09888142E3D001338A
:1036C000DBB2F2E7B0200020A4210020840A002011
:1036D000C804002016050020CC04002010B50FF00F
:1036E0009FFA0122044B1A70044B1B78002B01D067
:1036F000034B1A7010BDC046BE0700208C0A002084
:10370000720A002070B50B4D00202B78002B0DD1D4
:10371000094B1C78002C06D00A226243074B1A7012
:1037200000232B7070BDFFF7D9FF20000EF0CEFBF9
:10373000F6E7C046BE07002052220020BD07002049
:103740000F4B70B51B78002B17D00E4D2B78002B2C
:1037500015D0002913D001230B4C0A000100812051
:10376000237015F0A3FB094B2278002A07D0013BF8
:10377000002BF9D123702B7001E012F01FFD70BDFA
:10378000BC070020BB070020BA070020A08601006C
:10379000264B70B51A688023D28BDB009A422ED25A
:1037A00000230A2518002249224E0A78DCB29442EE
:1037B00009D300280DD1042A21D1002301220B7046
:1037C0001D4B1A7007E06843F45C0133001980B2A6
:1037D000ECE7042AF1D000220138184D84B2110020
:1037E00020006E7B08F076FF002809D1124B1B7871
:1037F000012B02D80222124B1A700AF0E7FA70BDB0
:10380000002302210E4A1370321D520054530D4AF8
:10381000760011700C4A745313700C4A1370687B55
:103820000AF0D4F80AF0D2FAE7E7C046E021002017
:10383000DF210020D0030020E42100200C22002002
:10384000DD210020630A0020620A0020640A0020B3
:10385000F8B5264B264C1A78002A03D0A11DCA774A
:1038600000221A700022234B1A70FFF74DFE224BE4
:103870001F68224B3E001B78002B01D0204B1E6896
:103880008022204BD2001B8893421CD2207BB2B2F4
:10389000031D5B00E25202214300E2520AF096F857
:1038A000B74204D00AF092FA0122174B1A70002393
:1038B000383423700AF00AFD01200EF065FC012265
:1038C000124B1A70F8BD124B1D6828002E6009F0CB
:1038D00087F8280008F06CFFB742E8D001232A00DF
:1038E000217BE88B0AF084FCE1E7C04688040020D5
:1038F0000C220020A421002084040020000A0020C3
:10390000080A0020880A0020F1210020EC21002074
:10391000B020002010B5174B174CDB7F002B19D0BF
:10392000164A1378002B03D000231370144A137027
:10393000144A637B11688022C98BD20091420AD25B
:103940005B00E2189288E25201220F4B1A700F4B73
:1039500092181A7010BD04335B00E05A0023012155
:103960001A0008F0F1FE0A4B9842F3D0637B5B002B
:10397000E052E9E7102200200C220020DF21002085
:10398000DC210020E0210020B0070020630A002095
:10399000FFFF00007047FEE770477047014B024A87
:1039A0009A60704700ED00E0002800080E4B1A787E
:1039B00082420DD018700D4B0D4A1B5C0D491380CF
:1039C0000D4A12889B1A9AB21BB2002B01D10B70C0
:1039D00070471811002B03DD53421B115B4218B2D4
:1039E000064B18800123F2E7291B002077D201083B
:1039F000201B0020261B0020241B0020221B00204F
:103A0000922210B5054B5200985CFFF7CFFF0022C1
:103A1000034B1A80034B1A7010BDC0460C220020C5
:103A2000C0210020271B0020F8B5802380267E4F70
:103A30007E4C9B007600BB610500A662C046C04676
:103A4000C046C046C046C046C046C046C046C04646
:103A5000C046C046C046C046C046C046C046C04636
:103A6000C046C046C046C046C046C046C046C04626
:103A7000C046C046C046C046C046C046C046C04616
:103A8000C046C046C046C046C046C0468020BB6255
:103A90002843FFF763F92368654A13402360C04653
:103AA000C046C046C046C046C046C046C046C046E6
:103AB000C046C046C046C046C046C046C046C046D6
:103AC000C046C046C046C046C046C046C046C046C6
:103AD000C046C046C046C046C046C046C046C046B6
:103AE000C046C046C046C046C046C046C046102379
:103AF0000020400080B2844601212069A661400A6E
:103B0000084061460843C046C046C046C046C0465D
:103B1000C046C046C046C046C046C046C046C04675
:103B2000C046C046C046C046C046C046C046C04665
:103B3000C046C046C046C046C046C046C046C04655
:103B4000C046C046C046C046C046C046C046C04645
:103B5000C046C046C046A662C046C046C046C04633
:103B6000C046C046C046C046C046C046C046C04625
:103B7000C046C046C046C046C046C046C046C04615
:103B8000C046C046C046C046C046C046C046C04605
:103B9000C046C046C046C046C046C046C046C046F5
:103BA000C046C046C046C046013B002B00D0A0E73F
:103BB00023681A408023DB021343236080239B0089
:103BC000BB61C046C046C046C046C046C046C046AF
:103BD000C046C046C046C046C046C046C046C046B5
:103BE000C046C046C046C046C046C046C046C046A5
:103BF000C046C046C046C046C046C046C046C04695
:103C0000C046C046C046C046C046C046C046C04684
:103C1000C046A661A361074B302D02D0472D01D1CC
:103C2000054B1880F8BDC046001400500004005039
:103C3000FFFFF3FF320000203000002070B50600C7
:103C400069200D00FFF7F0FE040003040BD46A2086
:103C5000FFF7EAFE0C4B24030005000D1C40044353
:103C60000220346070BD6820FFF7DEFE03000020F4
:103C70001A04F7D40548DB04DB0C58430449FEF76B
:103C8000E3FE28800120EDE700F0FF00EB120000CA
:103C900010270000F7B5694B694A00931B78019221
:103CA000002B26D113785BB2002B0AD0654B664AF5
:103CB0001B889B18062B04D8644B1B78002B18D04C
:103CC000F7BD634B1D786B1E022B27D86149624BF1
:103CD0000A78002A03D0614A1278002A06D01A789E
:103CE000002A1BD05E4A1278002A17D100220A70DF
:103CF0001A7001200EF048FA01225A4B1A70019BEB
:103D00001B785BB2002BDBD0574B1A78502AD7D8E0
:103D1000002A00D089E0FFF79BFDD1E74B4B01243F
:103D20001B78524F002B0AD03B78DAB2002B05D11A
:103D3000A5421AD00ED9AB1EA34229D900243B7844
:103D40004B4E002B69D1002C67D13378002B41D129
:103D50003470B5E7474BDB7D002BEFD0464B19782D
:103D60000029EBD002241A70E9E7444B1978394B4B
:103D7000002906D01A70404B1A78002ADED00022A3
:103D8000F0E71A78002AF6D11D706432334BF1E760
:103D90003B4B1978304B002914D03A490978012956
:103DA00010D11A70344E3378002BC7D00C20FFF797
:103DB0003BFE0405A40F013C63425C410023640008
:103DC0003370BCE71A78002AECD101321A70244B08
:103DD0006332E6E72C4BDB7F002BB9D0023D012D8F
:103DE000B6D80C20FFF720FE0005800F0128AFD1C8
:103DF000254BDB7F002B00D162E7A0238022DB056F
:103E000052009A62214BEC3A1A800023009A1370F8
:103E100001223A701E4A137052E700233370012CBE
:103E200000D166E7022CE3D04AE719235343194A2D
:103E300013800022184B1A7042E7C046150A002072
:103E4000A4210020880A002000FCFFFF1E0A002099
:103E50001B0A0020190A0020160A0020140A00205C
:103E6000130A0020EC21002034220020120A002036
:103E7000100A00200C220020110A00201A0A00203B
:103E8000180A0020170A00200F2200200E0A002026
:103E9000B82000208A0A00204F000020F8B50C004E
:103EA000374B302802D0472805D1364B1A88A2421A
:103EB00000D142E11C8080238026334F334D9B008C
:103EC0007600BB61AE62C046C046C046C046C04632
:103ED000C046C046C046C046C046C046C046C046B2
:103EE000C046C046C046C046C046C046C046C046A2
:103EF000C046C046C046C046C046C046C046C04692
:103F0000C046C046C046C046C046C046C046C04681
:103F1000C046C046C046BB62FEF720FFC046C04652
:103F2000C046C046C046C046C046C046C046C04661
:103F3000C046C046C046C046C046C046C046C04651
:103F4000C046C046C046C046C046C046C046C04641
:103F5000C046C046C046C046C046C046C046C04631
:103F6000C046C046C046C046C046C0461023AE62EA
:103F700022B2002A00DAE1E080229200AA6207E081
:103F800032000020300000200014005000040050D7
:103F9000C046C046C046C046C046C046C046C046F1
:103FA000C046C046C046C046C046C046C046C046E1
:103FB000C046C046C046C046C046C046C046C046D1
:103FC000C046C046C046C046C046C046C046C046C1
:103FD000C046C046C046C046C046C046C046C046B1
:103FE0006400AE61A4B2C046C046C046C046C046EA
:103FF000C046C046C046C046C046C046C046C04691
:10400000C046C046C046C046C046C046C046C04680
:10401000C046C046C046C046C046C046C046C04670
:10402000C046C046C046C046C046C046C046C04660
:10403000C046C046C046AE62C046C046C046C04646
:10404000C046C046C046C046C046C046C046C04640
:10405000C046C046C046C046C046C046C046C04630
:10406000C046C046C046C046C046C046C046C04620
:10407000C046C046C046C046C046C046C046C04610
:10408000C046C046C046C046013B002B00D06FE78B
:10409000C046C046C046C046C046C046C046C046F0
:1040A000C046C046C046C046C046C046C046C046E0
:1040B000C046C046C046C046C046C046C046C046D0
:1040C000C046C046C046C046C046C046C046C046C0
:1040D000C046C046C046C046C046C046C046C046B0
:1040E00080239B00BB61C046C046C046C046C04658
:1040F000C046C046C046C046C046C046C046C04690
:10410000C046C046C046C046C046C046C046C0467F
:10411000C046C046C046C046C046C046C046C0466F
:10412000C046C046C046C046C046C046C046C0465F
:10413000C046C046C046AE61AB61F8BD8022920069
:10414000AA6125E770B590B004004022684618497E
:1041500017F06DF8392C08D82F2C25D8232C25D012
:104160000EAD2A2C09D010B070BD2300413B373C66
:10417000032BF8D8A4006C44250028880D4C0E4E63
:1041800060430E498019FEF7D5FB81B27120FFF71D
:1041900085FE6B8809495C43A019FEF7CBFB81B211
:1041A0007220FFF77BFEDEE7303CE3E70FADE4E78C
:1041B000ECC201084C930100881300001027000096
:1041C000F0B50025E1B00FAC16220021200016F05A
:1041D000FFFEC34B15935F20FFF726FC6B000135F4
:1041E000E0520B2DF7D15920BE49FFF757FE592059
:1041F000BD49FFF753FE00210220FFF74FFE16AB2B
:1042000007CC07C306CC06C3228800211A801CA84D
:104210002E2216F0DDFE00231CAA15AC195B02331A
:10422000080A1070517002321A2BF7D10BAC0E2213
:104230000021200016F0CCFE7022002128A816F0E4
:10424000C7FE7022002144A816F0C2FE0023A74E2C
:1042500000210A001CA8C01801900198875CB05C7E
:1042600047400020002F0AD101320918052AF4D155
:10427000022908D90133082BEAD161B0F0BD7D1EB7
:104280002F400130EEE7AC2149005B180AA95B180A
:1042900001213A0007258C462E00D10859180C3907
:1042A000FF390978964331416046014078200AAED3
:1042B0003618B1540132702AEED100220721693834
:1042C0001300AC2603404B4376009B190AAE150938
:1042D0009B195B1935007826AD19AD5C703B013236
:1042E0001D70702AECD1002201250720E8260AABB8
:1042F0009B1906009B5C96432B40B340D108665C3B
:10430000013233436354702AF0D1A58807F0BEFF11
:10431000200014F089FBA84200D1B5E0072200215B
:1043200044A816F055FE3F22FF21714816F050FEBA
:104330004022FF216F4816F04BFE00226E4B6F4E5D
:104340001A70019207220199019B0A40AC21DB08F7
:1043500049005B180AA95B1819004E3B5539FF3913
:10436000FF3B09781B7811411341012001220024F1
:1043700008401A4007900892029403945E4B1B5D1C
:104380000493FF2B2FD06300220906936308534048
:104390000122134062095340059320230025234046
:1043A00009933F23069A04992A431A40079B0898C9
:1043B0006B405B180599694041405B184D495018A6
:1043C000895C8B420DD20370099B002B09D0012020
:1043D0000021FEF731FC029B03430293039B0B4336
:1043E0000393002D74D00134402CC7D1029BFF20D1
:1043F0003360039B3F4A736000233F491478107079
:10440000CC5401330132402BF8D1019B08360133E3
:104410000193382B96D10A78373BC85C824201D988
:1044200002001F000133402BF7D137240726334BFE
:10443000019301232100E8203B4031408B400AA931
:10444000E2080918895C7D080B430AA909188B54F6
:10445000019AE3009B18186859683A00FEF7E0FBE0
:1044600020234001184005432F00013CE1D2EC21FC
:10447000449A0BAB0B920AAA5218128802319A8006
:104480000AAA521812789A710BACA58807F0FEFEA2
:10449000200014F0C9FA854200D0EEE66178237856
:1044A0006488174A64BAA0B21480164C93702568C9
:1044B0000A246C4354600224FF34D1701481072B0A
:1044C00008D8114A9B009B58002B03D09847D4E68C
:1044D000012566E7FA210020C90007F077FFCCE646
:1044E000555555556880000068300000B4D101086A
:1044F000C109002080090020C0090020C007002059
:10450000540000205C210020BCD1010810B5094CEA
:104510002388002908D04022C240134399B2332097
:104520002180FFF7BBFC10BD4121494201411940E8
:10453000F5E7C046081D002010B5040051200A49C7
:10454000FFF7ACFC07200949FFF7A8FC210508206C
:10455000090DFFF7A3FC802321021B02090D08208F
:104560001943FFF79BFC10BD33A00000D70A0000E1
:104570000C4B10B5C1184B1E9941040049420A4B1F
:10458000890A8902C9185120FFF788FC0748084B9F
:1045900060430849C018FEF7CDF981B20720FFF744
:1045A0007DFC10BDBFF5FFFF40940000982603007E
:1045B00050C30000A086010070B5040031200D003A
:1045C000FFF732FAA02361051B02490D19430600CB
:1045D0004620FFF763FCC0216D056D0D490129439D
:1045E0007920FFF75BFC7A200449FFF757FC042190
:1045F0003143312089B2FFF751FC70BD9A28000089
:1046000010B5040081B23820FFF748FC3920210C96
:10461000FFF744FC10BD000010B503490002014340
:104620004720FFF73BFC10BD4260000010B537206B
:104630000549FFF733FC00213020FFF72FFC302025
:104640000249FFF72BFC10BD1F9F0000F1BF0000C7
:1046500010B53120FFF7E8F90223984381B23120E9
:10466000FFF71CFC00212B20FFF718FC10BD0000F9
:1046700070B505003120FFF7D7F90400002D06D1F1
:1046800008239C43A1B23120FFF708FC70BDAB1E8C
:104690005A1E9341AD21DB03890119432920FFF7FD
:1046A000FDFB0120A84280410549404280030143AF
:1046B0002820FFF7F3FB0821214389B2E3E7C04636
:1046C000382B000010B53120FFF7AEF904239843D2
:1046D00081B23120FFF7E2FB10BD10B5002124208C
:1046E000FFF7DCFB10BD0000DB2110B52120C90065
:1046F000FFF7D4FB24200249FFF7D0FB10BDC046D2
:104700007FC1000010B550200149FFF7C7FB10BD65
:1047100018BB000010B550200149FFF7BFFB10BDCA
:10472000183B000010B500213020FFF7B7FBE8214F
:1047300037204901FFF7B2FB10BD000010B5002182
:104740007020FFF7ABFB0020FFF766FFFFF7E2FFEB
:1047500000213020FFF7A2FB30200249FFF79EFB2B
:1047600010BDC046F1BF000010B5C3217020FFF797
:1047700095FB72200A49FFF791FBC1215820FFF7F2
:104780008DFB5C200749FFF789FB8E215D20C90165
:10479000FFF784FB5E200449FFF780FB10BDC04695
:1047A00065300000655600000432000010B500219D
:1047B0003020FFF773FB10BD054B10B51B78002BA5
:1047C00005D001210020FFF7A1FEFFF72FFF10BD4C
:1047D0002921002010B50400FFF794FF0020FFF707
:1047E0001BFF00217020FFF759FBFFF776FF3020F9
:1047F0000349FFF753FB002C01D1FFF78BFF10BDDE
:10480000FEC1000010B530200149FFF747FB10BD85
:10481000FAC3000010B50400FFF766FFFFF772FF50
:104820000020844200D00330FFF7F6FE70200349D9
:10483000FFF734FBFFF7E6FF10BDC046C3C300001F
:1048400010B56720FFF7F0F8C005C00D10BD0000DF
:1048500010B5064B064A1B7811781B011943B0238B
:104860001B0248201943FFF719FB10BD8E220020C0
:104870009022002010B501240E4B05201A785440D8
:104880001C70614261410F2349421940A1231B0161
:10489000C91811F0A4FD0022074B944202D11A005E
:1048A0008332127882331A70FFF7D2FF0122034B52
:1048B0001A7010BD650A00200C220020F121002092
:1048C00010B5FFF79DFEC02151208900FFF7E6FAE1
:1048D000FFF7ACFE10BD10B500210420FFF716FE57
:1048E00000210320FFF712FE10BD00000B4B10B596
:1048F000984208D801210420FFF708FE0021032078
:10490000FFF704FE03E0013002D1FFF7E4FF10BD22
:1049100000210420FFF7FAFD0121F0E7FF3EAB0183
:1049200070B51D4B1B78013B012B27D900241B4B75
:104930001B4A1C7013781B4DA34220D01A4B1470D5
:104940001C701A4B80221C80A02301265200DB051C
:104950009A62174B1C7011F05BFD164B1B681868B0
:10496000FFF7C4FF144B1E70144B1C7009F0AEFC13
:104970005022134B2C701E70124B1A8070BD124ABD
:10498000137008F03BF801200DF0FEFB12F02CF83C
:1049900003232B70F2E7C046EA210020DF2100202C
:1049A000DE21002061000020A3210020700A0020E9
:1049B000B8200020B0200020F12100204422002057
:1049C000720A0020262100208C0A002070B50F4DAD
:1049D00004002A68002A08D0002318000C49A142CC
:1049E000584191425B41984202D02000FFF77EFF80
:1049F00020002C60FFF704FE00213020FFF74EFA64
:104A0000044B30201988FFF749FA70BD900400204C
:104A1000FF3EAB018A040020A023F7B51600082250
:104A20000500DB059A6203200C00FEF737FA280028
:104A3000FEF744FAC0232E4DDB00AA68110019408E
:104A400001911A420AD10F2E0AD8A619B44249D0B0
:104A5000FF20FEF723FA20700134F7E7EA68ECE75D
:104A600040222B68042093432B6014F003FA0520A6
:104A700014F000FA802284211E4B52015A601E4F0E
:104A80000420490114F0D8F905201C4914F0D4F988
:104A9000FC601B4C31000420BC6014F0DDF9194AA5
:104AA000194B3100D36094600224052014F0D4F92E
:104AB000019B164E042033703B6823433B6014F087
:104AC000E7F9052014F0E4F901236A681343402252
:104AD0006B602B6813432B606B681C436C603378EE
:104AE000002BFCD0A0230822DB059A61F7BDC0464D
:104AF0000038004000000240440002401010000056
:104B00000C380040580002401C1B00201A1B0020DB
:104B10000120024B1B699B0A984370470004005018
:104B200000B503000078002208280ED8FDF7E4FE47
:104B3000050F151D3522272F2F000122552904D0DE
:104B4000AA2901D0002000BD05221A70FAE7AA396F
:104B50004A42514149001970F4E703220029F4D078
:104B600005394A4251418A00EFE7484241411A70F3
:104B7000C8B2E8E700225529E7D10632E5E7032964
:104B800001D10722E1E70429DFD10822DDE712295C
:104B900003D8102901D00248017001201A70D2E711
:104BA0002B0000200022034B1A70034B01321A70B5
:104BB0007047C046190B0020F1210020F7B5A02650
:104BC000402750390430F605C5B20193C8B2B76228
:104BD000140014F047FD10202B09184314F042FD77
:104BE0000F20284014F03EFD019BB761E5182078A6
:104BF000013414F037FDAC42F9D1F7BDF8B5042308
:104C0000124E0400B3624020FEF7A6FC104A002CAE
:104C100007D0104B01251F00072C0AD8621ED201B5
:104C2000D218802321000020FFF7C8FF0423B361BE
:104C3000F8BD290001353A0080230020EDB2FFF7CE
:104C4000BDFF8037082DF4D1F0E7C04600040050C6
:104C5000990A0020251D002010B50820FFF7CEFF7F
:104C600010BD10B50130C0B2FFF7C8FF012012F02F
:104C70004BFF10BD10B50020FFF7C0FF10BD0000B6
:104C8000F7B5041E294E2A4F2BD00024FEF7FCF95D
:104C90007021FDF7D5FEA5192970FEF7F5F903215E
:104CA000FDF7CEFE3D19013101342970202CEDD1E4
:104CB00009F024FE002509F05DFD0024EFB2BB00E1
:104CC000DBB20193725DE100611A5118D219121919
:104CD00009B2D2B2002C16D10198FEF7E5F90134E1
:104CE000F0E735002B783A5D9B18DBB22B70702B08
:104CF00004D9FEF7C9F90F23184028700134013593
:104D0000202CEFD1D4E7032C02D901231A4202D080
:104D10000198FEF7C9F90134082CD3D10135202DB3
:104D2000CBD1FFF7A7FFFFF797FFF7BD420A00209F
:104D3000220A002070B5254B1C78002C3ED0244B55
:104D4000DB7F013B3B2B39D8224D2B78002B35D113
:104D5000214B1B78002B31D1204B1B78012B2DD000
:104D600007F040FA002829D11D4B1B78002B25D1D4
:104D70001C4B1B78002B03D01B4B1B78002B1DD02A
:104D80001A4B1B78002B19D1194B1B78002B01D023
:104D9000032B13D1631E012B11D810F08DFFFFF7E9
:104DA00069FFFFF759FF012300202B70114B18708A
:104DB000114B1870114B187012F0A6FE70BD032C29
:104DC000F1D10120FFF75CFFEDE7C046210A00208A
:104DD00014220020200A0020BA210020EA2100200D
:104DE000A0210020A32100201B210020B7210020AA
:104DF000C32100201F0A0020EC210020F121002007
:104E0000042370B5074DE220AB62FEF7A5FB00243A
:104E100020000134E4B2FEF7A7FB082CF8D10423EC
:104E2000AB6170BD00040050042370B50024064D32
:104E3000AB6220000134E4B2FEF796FB0B2CF8D1F4
:104E40000423AB6170BDC046000400500B4B70B52D
:104E50001B680B4C584300236568A268834200D34B
:104E600070BDA1688A4203D99B185B1A0A00F5E756
:104E70008A42FBD26E1AF318D318F7E72C1B0020D6
:104E800010E000E0324870B50378002B20D0314BA1
:104E9000314A0021595E13885B181BB21380002928
:104EA00017DD2E490024095F994219DD1478002C82
:104EB0001CD12B4A013413680720A343136013F05D
:104EC000D9FF2000FFF7C2FF8022264B52009A62D2
:104ED00070BD0029EAD021490024095F9942E5DB31
:104EE0001E4B1B88138000230370DFE76401FF2142
:104EF0002000FDF71FFDFF2300225B019C421AD01A
:104F00001100194E194D0B0082424B415B42334058
:104F100001339400FF3301322B51202AF3D10124B5
:104F20000F4D2B682342D3D1072013F0B1FF2B681C
:104F30001C432C60CCE70121094A072013688B43EE
:104F4000136013F097FF8022064B52009A61BFE76F
:104F5000261B0020221B0020241B0020201B0020D9
:104F6000001400400014005000FFFF00301B002020
:104F7000782170B51B4A1C4B12781C4C4A431A808E
:104F80001B4A1C4B12781A701B4B1D781B4BDB7F86
:104F9000002B06D1FEF734FD002D01D0FEF7C6FA36
:104FA00070BD0122164B1A702623FF33E05CFEF71A
:104FB000FDFC002D05D0134B1B78002B0CD1FEF708
:104FC000B5FA0834E17F00230F4A3D2902D00A23B5
:104FD0004B4301331380E3E7FFF754FF0B48FFF720
:104FE00035FFE8E760000020BC2100200C220020F3
:104FF000291B0020281B0020340000201422002040
:10500000271B0020261B0020C021002010270000A5
:10501000064910B50B78002B03D0054A054B1278D2
:10502000DA7700230B70FFF7A3FF10BD670A00209B
:10503000660A00201422002080220A4B52024343B9
:105040009B1810B571200C00590CFEF727FFFFF7D5
:1050500061FBFA2080006043FFF7F8FEFFF752FB88
:1050600010BDC0461DA61400F8B51C0005000E00BA
:105070001700FFF747FB201E05D0A0238022032046
:10508000DB0552009A61FFF7C7FA12493F02394324
:1050900089B27020FEF702FFFFF7B4FB0E48FFF75E
:1050A000D5FE31002800FFF7C7FF002C07D0A02352
:1050B0008022DB05520000209A62FFF7ADFA002142
:1050C0007020FEF7EBFE30200449FEF7E7FEFFF705
:1050D00021FBF8BD0080FFFF50C30000FEC10000AF
:1050E00010B500213F20FEF7D9FE68215920FEF7B8
:1050F000D5FE0348FFF7AAFEFFF758FB10BDC046D8
:105100003075000010B5FFF7EBFF00210220FEF71D
:10511000C5FE00213F20FEF7C1FEFFF787FAC02140
:105120003F208901FEF7BAFE59200449FEF7B6FE7A
:1051300059200349FEF7B2FE10BDC046684000008A
:105140006830000070B50D000400FFF7DBFAC221E3
:1051500070200902FEF7A2FE80230B495B0269431F
:10516000C9187120490CFEF799FE0020844200D036
:105170000330FFF751FAFFF745FB0448FFF766FEDF
:10518000FFF7C8FA70BDC0461DA6140050C300004A
:10519000F0B5FA260500002485B003930AAB1F88FA
:1051A0000BAB1B88B6007343019102920093285DFC
:1051B000002801D105B0F0BDFEF7C4FFFFF7AAFA41
:1051C000019B002B02D00298002C06D02B5D039887
:1051D0002A2B02D0232B00D038007043FFF736FE75
:1051E000FFF790FA0098FFF731FE0134DFE7000087
:1051F00070B5A0250826094CED050520AE62FDF727
:105200004DFEFF20FDF74AFEAE61C00705D50A201E
:10521000013CFFF71BFE002CEFD170BD40420F0098
:1052200070B5A02408250600E405A5620620FDF758
:1052300035FEA561FFF7DCFFA5622020FDF72EFEFD
:105240003000FDF73BFEA561FFF7D2FF70BD000007
:1052500010B50400FFF7E4FF054B1B68A34205D11E
:105260008022FF210348520115F0B2FE10BDC04656
:105270002C0000201A0B0020F0B587B06B4604907C
:1052800003921A7C8023A0255B0002919B1AED05F6
:10529000039A01929A4200D9019308231C00AB6241
:1052A0000620FDF7FBFDAC610220AC62FDF7F6FDC8
:1052B0000498FDF703FE029C019AA6180F2A5BD9F9
:1052C0004022314C04202368304E9343236013F076
:1052D000D1FD052013F0CEFD80222D4B52015A60E6
:1052E0000021042013F0A8FD9021052013F0A4FD57
:1052F000284F294B0420F3600199B76013F0ACFDEF
:10530000264B02990520D9609F60019913F0A4FDF6
:10531000234B022705930023059904200B70336863
:105320003B43336013F0B4FD052013F0B1FD0123BE
:1053300062681343402263602368134323606368F9
:105340001F436760059B1B78002BFBD00823AB61D4
:10535000FFF74EFF019A049B944663440493029B1B
:1053600063440293039B9B1A03938023039A5B007D
:10537000002A8DD107B0F0BD20780134FDF78EFDF5
:10538000B442F9D1E2E7C046003800404400024090
:10539000000002400C3800401C1B00205800024056
:1053A0001A1B0020F0B587B0059380230705040B76
:1053B0003F0D5B010190029103922403DE1B039BCE
:1053C000002B03D1FFF714FF07B0F0BDFFF710FF6C
:1053D000039DB54200D935002B4E3368A34206D059
:1053E0008022200029495201FFF716FB3460274E26
:1053F0002A00BE193100029815F096FF002826D029
:105400000023F25CFF2A31D101339D42F9D1002300
:105410002A0030000299049315F009FF049B002B29
:105420002DD02000FFF7FCFEFFF7E2FE059B174E94
:10543000002B1DD0EF193A0031002000FFF71CFFB0
:1054400080225201FF21D21BF01915F0C1FD019BF2
:1054500000275B190193029B5B190293039B5B1B63
:10546000039380235B011E00E418A8E70123CFE724
:105470008022310020005201FFF7FEFEE7E72A00FC
:1054800002990198F8E7C0462C0000201A0B002072
:1054900080201C4980010B6810B5034230D00224E3
:1054A000194B1A6822422BD01A68A2431A6048602E
:1054B0000A20FFF7CBFCC021144A154B490198681C
:1054C000084202D0013A002AF9D180210F4A986897
:1054D000084202D0013A002AF9D1C0210B4AC90082
:1054E0009868084202D0013A002AF9D102215A688C
:1054F0008A435A605A6801398A435A60054B1970C9
:1055000010BDC046000002404400024011270000C8
:10551000003800401A1B002070B540262025094C99
:105520000120A661FFF792FCA5610120FFF78EFC28
:10553000A6620120FFF78AFCA5620120FFF786FC26
:1055400070BDC0460014005070B540252026094C9F
:105550000120A562FFF77AFCA6620120FFF776FC26
:10556000A6610120FFF772FCA5610120FFF76EFC28
:1055700070BDC04600140050F7B5234C234A236881
:105580000190134023600823002520270126009363
:105590003000A762FFF75AFC3000A761FFF756FC06
:1055A0003000FFF753FC23696D00EDB25B0600D5B8
:1055B00035433000A762FFF749FC009B013BDBB29B
:1055C0000093002BE4D12268104B01201A40802365
:1055D0005B0113432360A762FFF738FC019A402365
:1055E000002A0ED0A36120260120FFF72FFCA66120
:1055F0000120FFF72BFCA6620120FFF727FC280003
:10560000FEBDA362EFE7C04600140050FFCFFFFFCE
:10561000F8B52023264C0500A3620120FFF716FCF5
:1056200008266BB2002B3EDB4023A362202701201B
:10563000FFF70CFC013E0120A761FFF707FC6D009E
:105640000120A762F6B2FFF701FCEDB2002EE8D10F
:1056500040252368174E012033402360A561FFF7E2
:10566000F5FBA7610120FFF7F1FBDF3723691A0083
:105670002A402B421AD0013F0120FFB2FFF7E6FB80
:10568000002FF3D101256D422023A3620120FFF7F3
:10569000DDFB802322685B013240134323604023FB
:1056A0002800A361F8BD4023A361BFE71500EBE725
:1056B00000140050FFCFFFFFF8B578238026802725
:1056C0000025164C3602A361FF010A20FFF7BEFB3E
:1056D00023691A003240334212D03B420FD09A0461
:1056E00017D50322DB040BD50135052D13D0782304
:1056F0000722A361521B773B9340A362E5E7012297
:10570000074BA9005B18985C1328EDD07823A361A0
:10571000F8BD0222F4E71320F8E7C0460004005069
:1057200063D2010810B532246320FEF77DF9C0B2C0
:10573000C72806D9013C0120E4B2FFF787FB002C03
:10574000F2D1FFF77DF8FFF77BF810BD70B5FFF7DA
:10575000E9FF1A4A0400031C904201D9184B1B8828
:10576000184A083312689BB20232D17F164A158854
:10577000164A954204D1002901D0994212D970BD30
:10578000134E2A1CB54201D9124A1288103292B225
:105790009A42F4D80A1C082900D20822083A92B288
:1057A0009A42ECD8AF204000FFF750FBFFF7BAFF5A
:1057B000231C844200D2031C98B2E0E7F7FF0000EC
:1057C0001AC40108B020002004000020FFFF0000E0
:1057D000EFFF000018C40108604BF0B51C68604B77
:1057E00085B01B68002B00D1A8E05E4B1B78002B16
:1057F00000D19DE0A31CDB7F002B00D198E030207E
:10580000FEF712F90626584A584B10401880FDF74B
:1058100027FF2060200007F0E3F823691D68544B40
:105820001B68002B06D0534A127852B2002A4ADD78
:105830009D424CD32800FFF7C9F8FFF787FF05000A
:10584000FDF7D4FC2800FDF7FFFC002861D0A18BF8
:105850004B1EF82B28D8FA20236880000293FDF70E
:10586000F3F8502800DD50200026370083B2039360
:1058700023691B680193FDF7F3FE2060200007F009
:10588000AFF8236918683B4B1B785BB2002B21DD16
:10589000019B834223D9029B2000236007F0A0F8DC
:1058A00023691868FFF792F80122334B1A70200021
:1058B00007F096F8200006F07BFF01200CF064FC56
:1058C00009222E4B2EE0002AB4D09D42B2D9FDF71A
:1058D000A7FCAFE7002B02D0019B8342DBD3FFF78D
:1058E00075F8FFF71FFF854209D2050000272368DE
:1058F00002930136039BB6B2B342B9D1CBE78542DE
:10590000F7D9281A0728F4DD0137FFB2022FF0D9A2
:10591000C1E7013EF6B2002E00D078E70122164B17
:105920001E70164B1A800122154B1A7005B0F0BD7F
:10593000114A1370FDF794FE2060B8E70E4A0D4936
:105940001370208E0F4AC000097813185B688258C4
:1059500049B22000FDF76EFEEEE7C046B020002001
:10596000840A002003000020FFFDFFFF8A040020BE
:1059700090040020A42100208D0400208A0A002029
:10598000EC21002084CF0108F0B5D44BD44C1A7818
:1059900095B0531E182B3DD8230080212A331B7845
:1059A000C9000593A38D8B4231D01BB2E58D8D428A
:1059B00036D02DB2CB490191098802910599002971
:1059C0000ED0C9490E780391002E2CD0012E00D1A3
:1059D00040E10323039A1370C44B019A1B88138080
:1059E0000025C04B01221E88C14B5D572300701952
:1059F00029331B78290080B206F0A6FEBD4B0700B4
:105A0000984200D038E1FDF70BFC00271BE0012392
:105A10005B42CBE7012301215B421D000591C9E7F1
:105A200001256D42C6E7B14902980880002B00DAD3
:105A300010E19FB23100380006F04CFE002800D182
:105A400008E1039B1E70019B1F80237B1A1D5B00D6
:105A5000E752A94B52001D68A84BA7521B78EF8351
:105A6000002B00D174E1AB1CDB7F002B00D12EE1B9
:105A70001022380108A9FEF7CFFF089B0193013BD4
:105A8000033300D920E1152008AB1B22C0180021E8
:105A900015F09EFA019B0C930E93099B0293029AB8
:105AA000974B9A4201D9974B0293029B0F24109374
:105AB00008AB9B7A08A91A001B0922400A750B77CC
:105AC0000CA8097A06F064FE08AB597A0EA806F015
:105AD0005FFE08ABDB7A1C400394022C01D9002244
:105AE000039203990CAA11761E092F2B00D90026C8
:105AF000D67508AB9B7B0493172B01D90423049321
:105B0000049B0CAA049993757F4B4900CB5A012141
:105B10000793938208AB1B7BFF2B00D0BBE0517631
:105B20000691039B012B00D1C5E0022B00D1C7E0F9
:105B300008AB5B7BFF2B06D01B075B0F042B00D948
:105B400000230CAA937748226549704C0B7B2000F8
:105B50005343C918883115F06AFB0CAA11002300C1
:105B6000E78381C981C39C46180088C988C0634601
:105B700002990398A1610799A1830499D97721001B
:105B800034310E70611CC8772100507E29310870B5
:105B90002000917E2B3001702000D77E2D300770C1
:105BA0002000177F333007702000069F28300770D1
:105BB000907F2200002901D01A00230022610122D7
:105BC0006361534B21001A702B002F003231087093
:105BD00034331C782D373A78A64201D1002A16D0EA
:105BE0001E7000233B70A64202D0300007F030F850
:105BF0000020012E03D13878002800D0032013F0B4
:105C0000D1FDA64203D00122424B52421A803020DD
:105C1000FDF70AFF404A414B104018800198FEF7FB
:105C2000D5FEFFF793FD0400FDF7E0FA2000FDF735
:105C30000BFB3B4B002877D001221A70284B022126
:105C4000187B07F0C3FE01200CF09EFA0122354BB1
:105C50001A7086E0230029331A78002D00DAB8E69E
:105C6000AFB20021380006F035FD002800D1B0E6C3
:105C700001221D4B1A70E6E6002D05DD864200D894
:105C8000E1E6FDF7CDFADEE6002D00D1DBE6864247
:105C900000D3D8E6F5E71800084090765808084089
:105CA000D076D806400F507658099B0908400B4023
:105CB0001077069335E7019B029A9B180E9337E7FE
:105CC000019B029A9B1AF9E70022114B1A700022DD
:105CD000134B1A70029BBB4243D0AFE73522002022
:105CE0000C220020880A0020890400208004002063
:105CF000A4210020FFFF0000B020002003000020AE
:105D0000FFE0F50540420F006CD101083804002087
:105D10008C04002004000020FFFDFFFF8A04002007
:105D20008D040020EC2100201870019B0F4A2B608D
:105D300012780F4B002A01D09B68AB6001220D4BFB
:105D40001A800D4B1A700598FDF7CAFA15B0F0BD10
:105D5000029BBB4200D071E7084B1B78002B00D0A0
:105D60006CE70922034B1A80EDE7C046630400206C
:105D7000380400208A0A0020EC2100208D04002035
:105D8000F0B585B0041E039107D0324A324BD17F63
:105D900019700023D377314A137006F02FFE06F0F6
:105DA00021FA2F4B01932F4B0293002812D0A023EE
:105DB00080220025DB0552009A622B4B1D702B4B75
:105DC0001D70019B1D70029B1D7006F017FA2800C4
:105DD0000CF07CF80022264B1E68264BF78B1F80A8
:105DE000254B1A70254B039A1A70FDF78DFBFDF7B2
:105DF00017FA8023224DDB009F4221D2214B1878D5
:105E000006F022FC002804D1013006F035FC08F031
:105E1000CFFD002C03D0F38B1B4A2B601360FFF7E0
:105E2000B3FD1A4B2A681A603222194B1A800023DC
:105E3000184A1370019A1370029A137005B0F0BDDE
:105E4000002C03D03368104A2B601360FFF7C4FCAA
:105E5000E7E7C0461222002088040020000A002044
:105E60002E2100202F210020B82000208C0A0020A5
:105E7000B0200020880A002089040020A4210020EE
:105E8000080A00203522002084040020040A002093
:105E90008A0A00204F000020010010B50020FFF703
:105EA0006FFF074B1B680233DA7F1423002A00D0F0
:105EB000133B044A13800022034B1A7010BDC046E6
:105EC000B02000208A0A00204F0000200A4B10B5A5
:105ED0001A68002A01D1094A1A601868084A41184C
:105EE000914206D915F04AF80C2303600120404284
:105EF00010BD1960FCE7C046940A00204035002020
:105F00000040002070B506000D001400FEF74AFEA8
:105F10002A4B1B78002B1DD129490B78002B19D057
:105F20000122284B1A70122E13D1002C11D1002DF2
:105F30000FD0254B1A70254B254A1C701378002B67
:105F400001D10B7005E02D21013BDBB21370214A1A
:105F5000D15470BD112E1DD0122E13D000230A2E45
:105F60001FD0AC42F5D101201B4A174912780870A6
:105F7000002A1DD0182B1BD8184ADA40024217D02D
:105F80000223DEE7164B002C02D048331B78E8E7EB
:105F90004733FBE7124B002C01D04A33F6E7493375
:105FA000F4E79C42DDD024220D4BFF329B5CD8E706
:105FB0000C4A9B009B589847CBE7C046C321002062
:105FC000A221002031210020DD21002061000020DD
:105FD000820A0020730A0020DE2100202CDCF2015E
:105FE0000C220020F4D101080E4910B50A780E4B9E
:105FF000002A0AD10833D87F0C4A10703D22DA7784
:1060000001230B70FEF7B4FF10BD2621084AFF31B3
:10601000595C12780833914202D10022DA77F1E715
:106020003D22FBE7670A00200C220020660A0020C0
:10603000281B0020BFF34F8F034B044ADA60BFF3E5
:106040004F8FC046FDE7C04600ED00E00400FA05B2
:10605000F7B50600FDF76CF8494B1C68002C0AD018
:10606000484B1B78002B06D1B01E434258412100FB
:10607000800012F0EDF8E122434B444F52011A80A8
:106080003B78002B01D010F0C3F9A0238022DB0560
:1060900052009A613E4BFF3A1A703E4B1B789B07A9
:1060A00001D5FEF765FF00223B4B3C4D9A563C4B19
:1060B0000193002A1CD16B1DDB7F002B42D13434AD
:1060C000FEF7C6FB207806F0C3FD30000BF0FEFEA5
:1060D000022E02D03B78002B4DD0324B1B78012B87
:1060E00002D000200FF09AFD0123019A1370F7BD32
:1060F0002835FDF795F82B78502B1FD92A4A1178AF
:10610000002909D1503B1900FA235B004B43274972
:106110009BB20B80012313700022254B1A70254A75
:10612000254B116819608021E38BC9008B4200D395
:10613000236813600122214B1A70C0E700221B4B19
:106140001A80E9E70635E97F4B424B413C205B4230
:10615000FF3003401A48693303801A4B1A70002934
:1061600002D10122184B1A700022184B1A70012319
:10617000019A1370A3E70122154B1A70B4E7C046C9
:10618000B02000201D1D0020E6210020DE2100207F
:10619000B82000200C0A0020A42100200C2200209E
:1061A000F1210020C32100202F2100208A0A002095
:1061B0004F000020080A0020040A0020000A0020E6
:1061C0001C0A00204E00002030210020830A0020FD
:1061D000EC21002010B5174B1B78022B08D006F0DD
:1061E0000DFC01200BF0D0FF0220FFF731FF10BDA6
:1061F0000022114B1A70114B1B785BB2934208D0EE
:10620000FA210F4B490019800E4B1A700E4B0132C8
:106210001A7001200BF0B8FF0C4B0D4C1B78002BB3
:1062200004D010F0E1FB03232370E0E7094B1B7857
:10623000FAE7C046EA2100208C0A0020A4210020B1
:106240008A0A00204F0000202F210020DE2100209C
:1062500061000020C32100201E4B10B51B78D8B26E
:10626000002B09D11C4B1B78002B04D00BF02EFE09
:1062700001221A4B1A7010BD194B1A78194B1B7852
:10628000134359424B411849DBB20978C8B200297F
:1062900005D0012A03D10021144B197003001449C1
:1062A0000978002912D01349097801290ED1023A40
:1062B000012A0BD80022104B1A70104B04201B78B7
:1062C000002B00D00238FFF7C3FED4E7002BF4D137
:1062D000D1E7C0461E0A0020EA210020EC21002060
:1062E0001B0A0020A42100201A0A0020190A0020FD
:1062F000180A0020170A0020160A00208C0A002025
:1063000010B51A491A4B08781A781A4B00280FD082
:10631000032A0FD0184A1278D0B2002A00D1087090
:106320001B88164A9B18062B1DD9FFF72DFB12E080
:10633000032AF5D11B88114A9B18062B03D9104B51
:106340001B78002BF1D10F4B04201B78002B00D0C1
:106350000238FFF77DFE00230B4A13700B4A1370BF
:106360000B4A137010BDFFF737FAF4E78D040020D5
:10637000EA210020880A00201E0A002000FCFFFFFE
:106380001B0A00208C0A00202F2100202E21002033
:106390004F000020F7B5814C0E00657B002902D02C
:1063A00001227F4B1A70237F002B04D0022802D0D9
:1063B000FEF7F8FBF7BD7B4B1B78012B03D1784B25
:1063C00002221A70F6E7122800D90EE2FCF7A8FAAA
:1063D000130016008D0093009900A500DC00DF007B
:1063E0009B01AA010D02C401C4010D020D020D02A0
:1063F0000D02E901E901FEF793FADBE76A4B6B490D
:106400001A68D38B5B18062B43D9FEF7CBFB231DF1
:10641000DB7F002BD3D0664B1B78002BCFD1654B95
:106420001B785BB2002B0BD0634B1B78032BC1D1C5
:10643000624B1B78002BBDD0614B1B88002BB9D061
:106440008023627BDB005100605A9842B2D248231D
:106450005343E3181A008020B8321288C000121883
:1064600092B2A63362521A8006F0C8FA554B1C68E5
:10647000200006F0B5FA200006F09AF901200BF092
:1064800083FE0123504A1380504A1370504A137000
:1064900090E7138E062B07D111694E480E6886428D
:1064A00002D84D4B0B6085E701339BB21386042B5A
:1064B00017D14A4B1B78002B01D105331386138E5D
:1064C0008022D2009B1801229BB26D006353651994
:1064D000AB803E4B1A70424B92181A70414B00220F
:1064E0006FE7062BEBD90023E8E701223C4B1A703B
:1064F000FCF746FF5EE70122394B1A70FDF70AFAF6
:1065000058E7FEF74FFB00200634374BE27FE07779
:106510001A700CF049FD334B52E7002E04D113F0F2
:106520004FF9304B1E7045E705F040FC051E00D0CA
:1065300040E71D4B1C688023E08BDB00984202D3B0
:10654000FCF7DCFE36E705F0F7FF037801007F2B50
:106550000AD97F2213400370E08B05F0DDFF012292
:106560001F4B1A70214B2CE722002E321378013377
:10657000DBB2192B00D92B001370012321001A0064
:10658000E08B12F06DFAEAE7FCF7CAFC12E7184D4F
:106590002B78002B2ED011F0DBF90BE70C2200201A
:1065A000DD210020C3210020E021002000FCFFFFAE
:1065B000BE210020A4210020EA2100202E2100205D
:1065C0008A0A0020B02000208E0A0020B007002098
:1065D000EC210020FFE0F50500E1F5053404002082
:1065E000630A00206100002033040020AF07002070
:1065F0004B210020621DD27F804B1A70A21D804B60
:10660000D27F1A707F4B1A78002A01D101321A709A
:1066100000237D4AA38413707C4A137006F0EEF9C0
:106620007B4A7C4F1378002B04D17B4B397819704F
:10663000012313700126794B30001E700BF0A4FD6E
:10664000774803780193002B07D12200413211785B
:10665000744B06701970019B1370FEF73EF801230E
:1066600002203B70FFF7F4FC00226F4B1A706F4B57
:106670001A702C23FF33E35C5A1F5F2A00D91423BE
:106680006B4A1370C8226B4B92001A8001226A4B2E
:106690001A700023694A1370694A1370694A1370AB
:1066A000694A1370694A137011F024F9684B694AFA
:1066B0001888032343431188994200D01380012096
:1066C00011F0B0F80122644B2A701A7000217F3259
:1066D000624814F07DFC80220021614814F078FCAF
:1066E000802200215F4814F073FC002180225E4864
:1066F00014F06EFC00225D4B1A7010F03BFB022080
:1067000005F064FB56E6002E02D1FFF76DFC51E662
:106710000121574B1B682B331A784A401A70554B8E
:10672000198047E6002E02D1FEF772FC42E62600F1
:1067300000224E361100308805F0CCFF002800D131
:1067400038E632882B1D5B006D00E2526253012255
:10675000494B1A70494B33E6494B1B785BB2002B0F
:106760000BD00B2806D10A3805F086FF08F020F977
:106770003E4BB4E601204042F6E7424AE37D117801
:106780000A2900D113700B2807D1082B01D8013337
:10679000E3750122394B1A70EAE7002BF9D0013B6F
:1067A000F6E7334B384D196800230C000834E27FBC
:1067B000EE5C964203D00133182BF9D10023122846
:1067C00003D1172BD4D0012202E0FF22002BCFD01F
:1067D000D218D2B2AB5C2D4AE377CB8B9B18062B39
:1067E000D7D80122234B1A80D3E7FEF7DBF9002E1E
:1067F00000D1DFE50122264BE3E5C046320400204C
:106800003104002030040020830A00204E000020C4
:106810002F0400208C0A00202E04002030210020AC
:106820002D0400202C0400202B040020DA0300207B
:10683000010000200C000020000000203306002092
:106840003206002034060020D9030020D80300209F
:106850001A0000201000002036060020A51E00208F
:10686000251F0020A51F002025200020190B002037
:10687000E02100208E0A0020B0070020630A0020DB
:10688000A42100200200002063CF010800FCFFFFCC
:10689000DD21002010B514220021024814F098FBDD
:1068A00010BDC046C621002070B5414B04001B78C6
:1068B000A0B0002B40D005F095FC051E0BD10320A5
:1068C0000FF0ACF93B4B1D703B4B1B785EB2002BBD
:1068D00003D00FF085FE20B070BD384A384B394DDB
:1068E000002C25D00121684611708022FE311E70D7
:1068F00014F06EFB3300802269463348FEF752FDE8
:106900006022FF21314814F063FBAB7D304A9B07C6
:106910005B0F9D5A2F4B07201D800FF03FFD2E4B24
:10692000000918802200012128000FF021FED2E783
:1069300014701C70AD8AEDE705F038FA041ECAD158
:106940001C4B1870254B1870FFF7A4FF06F056F883
:10695000200000240FF062F9214B1C57002C16D0A8
:106960008022204BD2001B88934202D3FCF770FF99
:10697000B1E7012005F080FE08F01AF807F0A6FC48
:106980002000FFF789FA0122174B1A70A3E7174B73
:106990001B685A1E9341164A0133137007F096FC88
:1069A00001210800FFF7ECF9124B1C70EBE7C04621
:1069B000DE2100208C0A0020A32100201E210020BF
:1069C0001A2100200C22002028A00000BA2000205C
:1069D000DCD30108B4200020B6200020DB210020F9
:1069E000A4210020880A0020F1210020840A002030
:1069F00044220020830A002010B50120FFF754FF35
:106A000010BD00000F2210B50021044814F0E0FA78
:106A10000022034B1A70034B1A7010BD730A00203A
:106A2000820A0020A2210020114B70B51B78002B98
:106A300003D1104B1B78002B07D0FFF7E3FF002298
:106A40000D4B1A700D4B01321A700D4B0D4C1B780B
:106A50000D4D002B03D123782A78134307D0FEF77E
:106A6000A1F8002301222B702370044B1A7070BD13
:106A7000A2210020820A002061000020EC210020D9
:106A8000190B0020E4210020DF21002010B51D4B50
:106A90001B78002B03D11C4B1B78012B07D100293D
:106AA00021D100281FD00222184B1A701BE00029A8
:106AB00015D1002818D1164A1278002A01D1002BCE
:106AC00001D0032B0FD10123124A11784B401370D0
:106AD00002D01022104B1A70104B0122E5E700285B
:106AE00001D0FCF735FC10BD084A032B02D001236E
:106AF0001370F8E70A4B1B78002BF8D002231370B1
:106B0000084BEAE7DF210020C3210020DD2100201F
:106B1000DE210020190B0020E4210020F1210020BB
:106B2000A3210020312100200022404B70B51A70B3
:106B3000904203D03E4B1B78934212D03D4B1B78C2
:106B4000012B0DD10024FCF7DDFD3B4B20001C7018
:106B500006F02AF9394B1B78012B01D0384B1C70F9
:106B600070BD05F023F9354D002807D00CF0ACFAC4
:106B7000344B1B78002B2ED0334B2AE0334B1B7841
:106B80005BB2002B02D0FCF763FEF1E7304B1B78C1
:106B9000002B05D00FF024FD0322294B1A70E7E7E4
:106BA0002B78032B14D0234A1278012A03D1294AC7
:106BB0001278002AD4D0012B02D00022204B1A7068
:106BC0002549264B09781A78002915D1002A1AD1AF
:106BD000234B01221A700022224B1A702B78012BB2
:106BE00004D0174B1978032900D01A7001221E4BCC
:106BF0001A701E4B1A70B3E7002A04D11C4A12788F
:106C0000002AE5D01A701A780E2A01D90E221A70BD
:106C100000261B78164A174C1749137020000E22C5
:106C2000CE5414F00DFBA673D2E7C046DF2100203E
:106C30003D210020EA21002022210020C321002044
:106C400061000020A0210020B4070020A421002022
:106C5000A3210020BD070020A2210020820A0020DD
:106C6000900A002018050020F1210020EC210020CE
:106C70003504002050230020730A0020F0B5B84FDF
:106C800004003B780D00160085B0132B07D0A342FB
:106C900003D1002D01D113233B7005B0F0BDB14AE3
:106CA0001278002A0FD0002901D110280AD1FCF750
:106CB0003FFAFEF75DF9102C05D00022AA4B3C707C
:106CC0001A70EAE71C00A94F3B78132BDFD1002D87
:106CD00001D100F074FCA64B1B78002B01D100F011
:106CE00058FCFCF725FAFEF743F9102CE5D1A14B2F
:106CF0001A78092A0BD1A04A117A002907D0126804
:106D00001A7001229D4B1A7001E0002DEFD19C4BAF
:106D100001931B78052B02D100200BF0D7F8FA2243
:106D2000984B92001A80984B0093984B1978002941
:106D300003D01E224A43964B1A70002D00D05BE10F
:106D4000944F3B78002B02D007F040F83D70924FF3
:106D50003B78002B03D007F073F800233B708F4F74
:106D60003B78002B03D007F003F800233B708C4FD7
:106D70003B78002B13D08B4B1A68009BD08B597B30
:106D8000012307F035FA00233B7005F00FF80028C7
:106D900005D1854B1A78002A01D101321A700022E0
:106DA000824B1B78934207D0814B1B78934203D1CF
:106DB000804B1A7853425A41734B0093597E131EED
:106DC00001D1002904D0019B1B78013B581E83414F
:106DD00079480778B80700D547E1002B00D17DE15D
:106DE000102C00D043E1754B1F78002F04D03700E2
:106DF000002D01D101271D70714B02931B78002BD0
:106E000005D0102C01D00D2C01D1FDF7CBFE002FA9
:106E100010D1019B1B78012B00D004E2694B1F7835
:106E20000193002F00D0C0E1102C00D06BE12800AE
:106E3000FFF77AFE4C4C2078002803D004F0C6FF00
:106E400000232370604C614A23780092002B09D004
:106E500028225F4B1A800BF043FB0123009A13702A
:106E6000002323705B4C2378002B09D0002E00D028
:106E700052E306F0E5FF002301222370564B1A70FF
:106E8000564B1A78002A06D000221A70964200D07B
:106E900046E306F06DFF524B1A78002A06D0002216
:106EA0001A70964200D03FE306F090FF4D4B3E4FE4
:106EB00002931B884C4C0193002B23D0002E01D150
:106EC000002D0AD009F0E8FA3A4B1B78002801D0CF
:106ED000012B02D0022B00D02AE3324B2A491A6838
:106EE0006B46497B1B79D08B07F082F904F05EFF7B
:106EF0003B78002803D1002B01D101333B700023E4
:106F0000029A13803D78394E002D00D11EE3384B94
:106F100001931B78002B00D114E32900002006F018
:106F200055FD2900012006F051FD2378FF2B01D1EA
:106F300000232370012333700023019A3B701370E8
:106F400005F05CFD01200BF01FF900233370294B85
:106F50001B78002B00D1FDE2FFF73CF9FAE2C046B6
:106F600027000020BA210020DD210020260000207B
:106F7000200A0020DA2100204C210020EC210020F2
:106F8000EA2100204C0000200C2200204A22002090
:106F9000F0210020B9070020B8070020B707002023
:106FA000B6070020E0210020630A002046210020CF
:106FB00042210020C3210020B5070020B407002093
:106FC000190B0020910A0020B3070020B20700200F
:106FD000C42100206F0A0020F1210020B107002009
:106FE000B00700208E0A002061000020720A0020F5
:106FF000AF0700208C0A002009F04EFABC4F102C7D
:1070000003D1BC4B1B78DB0727D53B78012B04D180
:10701000132804D01538012801D9FDF7A9FF0D2C3C
:107020001BD1002E19D0B44B1B78002B07D0FFF7D3
:1070300031FC0022B14B1A70B14B01321A70FFF7CC
:10704000F3FC0122AF4B1A70AF4B1B78002B01D021
:10705000FFF7C0F80022AD4B1A603B78012B00D03F
:107060009DE62822AA4B1A8099E6002B36D00120F3
:107070000D2C0AD1002D08D0002A06D0A54B18707F
:107080009F4B187004F0A2FE07E6074201D00029CA
:1070900005D12300113B012B33D90A2C0FD00F2C23
:1070A00012D1002D00D1F8E5002E1BD1022004F0F2
:1070B0008DFE0422984B1A700122914B00E6002E9F
:1070C0001FD1002DF2D0E8E5002D00D15CE2002EAA
:1070D00000D0E2E50A2C00D1DFE5E7E7092C01D971
:1070E0000F2C0BD18D4B1B78002B0AD0002D00D11B
:1070F000D3E5002E00D0D0E50220C3E7102C00D14C
:1071000071E6874B70E6FE230193112C06D0200018
:10711000FCF76EF90190FF2800D18BE6002D0CD111
:10712000A0238022DB0552009A627E4B28001D704E
:10713000FDF750FBFDF78CFA7CE6002E00D079E6D7
:10714000009B7E331B78002B07D0A0238022DB0519
:1071500052009A61734BFF3A1A70FDF779FA019B5E
:10716000FE2B06D1009B70497E331878FDF7EAFFAD
:1071700060E6009B7E331C78FDF7B6FAFDF7C2FA95
:10718000002C00D003273800FDF746FA674970202D
:10719000FCF784FEFDF736FB6548FDF757FE0198C6
:1071A000FCF7D0FFFDF7B6FA44E6B54200D141E660
:1071B000032F02D0002D00D13CE6A0238022DB0566
:1071C00052009A620022574B1A7002239F43012FEC
:1071D00001D10BF025FD00275022019B55481F705F
:1071E000554B1A80FDF732FE01200AF0CDFF404BCF
:1071F0001B78012B01D0514B1F70009B4633187830
:1072000000280BD10AF062FE01234D4A102C03D056
:10721000434A002E00D00DE613700BE60A224243CB
:10722000484B1A70F0E7484B364A03931B7801929B
:10723000002B1BD12E4B1F78FF2F09D02300113BB1
:10724000012B00D957E1029B1B78002B00D052E1A3
:1072500004F0ACFD002800D055E1042F00D152E12C
:10726000320029002000FEF74DFEE3E5002E00D09D
:10727000E0E5002D00D1DDE5102C34D00127019B85
:107280001F700C2C06D80A2C27D867D00223019A2D
:10729000137028E00D2CF9D1FDF722FF2B4B1B7842
:1072A000012B0FD12A4B1A882A4B9A420AD0009BF5
:1072B0000099587B031D5B00CA524300CA52022149
:1072C00006F084FB05F09AFB01200AF05DFF002028
:1072D0000EF0A4FC0023039A9EE71C4A13787B401F
:1072E00013701D4B1E700122054B1A70A2E5C0469B
:1072F000C32100200C0A0020C6210020DB21002031
:10730000EC210020DD2100208C0A0020840A0020CE
:10731000C421002042210020ED210020BE210020B8
:1073200031210020B8200020D6060000C3C3000091
:1073300050C30000881300002621002061000020B7
:10734000B4070020BD070020B7210020AE070020B1
:1073500024000020FFFF0000AD0700209A4C9B4A4C
:107360009B49200005F010FB23002D331F702300E4
:10737000200029331F7005F01BFA964B38001C6063
:10738000954B1C60954B1C600AF0FEFEFDF7ECF976
:10739000FDF7A6FE924B1B78002B00D09FE0914F8B
:1073A00046220021380013F013FE8F4C8F4B904A79
:1073B00090492380537BA1800221A171463159431A
:1073C000531818008830009101884088218160811D
:1073D0001800A03001884088A181E08118008D301C
:1073E0000078B62120741800953000788C466074BF
:1073F00018008C3000789C44A074180094300078F9
:107400006146E0741800BC30007820751800A83080
:10741000007860751800B0300078A0751800BB3097
:107420000078E0751800B130007820761800B5308B
:107430000078097860761800B3300078A0761800DC
:10744000BA300078E0761800AF3000786077180026
:10745000B4300078A0771800B8300088E077601C5E
:10746000C17718008021BD30A63300781B88F877DB
:10747000C90061488B422BD2190006F081FA4221E3
:1074800038000EF025FE0627A31DD8875B4B202071
:107490000834E3870FF058FC594C277007F0ACFB19
:1074A000FDF7DAFB05F0D4FA10F0D4FF882136207E
:1074B000FCF7F4FC00210120FDF728F805F09EFA06
:1074C00001200AF061FE012323704E4B1F700AE772
:1074D0000099BE318918102213F0A9FECFE70222CD
:1074E000474B1A70484B033A1A800022474B1A70D8
:1074F000FDF708FEF7E6464BBF00320029002000EA
:10750000FB58984796E4002E00D093E4002D00D15C
:1075100090E40223019A7FE601223E4B1A70AAE40E
:1075200001223D4B1A70B6E401223C4B1A70BDE4B7
:1075300001223B4B1A702378FF2B00D0DFE400239D
:107540002370DCE42A4B2900587BECE43378002BD1
:1075500000D0F5E4009B1B78002B07D00023009A95
:10756000137028222F4B1A8008F0A4FF2E4D2B7881
:10757000002B03D00BF078FC00232B7020780EF04A
:107580004DFBFF23237097E50A2C01D0FFF785FB05
:107590008CE50D2C01D0FFF7AAFB244B1F78002FA0
:1075A00001D0FFF7B2FB224BDB7F002B01D1FFF7AD
:1075B000ACFBFDF7DDFC134B1F70FFF76EFB0D2CD2
:1075C00001D0FFF7A4FBE8E71C07002090FE96021D
:1075D00005040000B0200020E0210020AC200020A5
:1075E000AE0700206607002064070020CDABFFFF38
:1075F0000C220020A5BEFFFF86070020BADCFFFF9B
:10760000AD070020DD21002024000020AC07002071
:107610009CD10108B8070020B7070020B907002057
:10762000B6070020C4210020900A0020271B00205C
:107630001422002000221020110010B5FFF71EFBBD
:107640000022064B1A70064B1B78132B02D0054BF9
:1076500001321A70FDF7D4FB10BDC046A0210020F6
:107660006200002031210020F0B51D4B9BB000933B
:107670001B78052B44D11B4B1B78002B40D01A4B99
:1076800002931B780193002B00D1DFE1174C257882
:107690002800E130FF3000030135FDF7D9FDEBB2E2
:1076A0002370072B04D90023029A137010F0C8FC32
:1076B0000F4B1B78052B02D101220E4B1A700E497D
:1076C0000E4A0B78002B00D0E9E200991378097874
:1076D000012900D0EAE21378002B00D0EDE221E38B
:1076E000EA210020292100201D1D00201B1D002053
:1076F000C3210020EC2100201A0700204B2100208C
:1077000004F054FB0028BAD10C20FCF78DF90123BA
:107710001842B4D000210220FCF7C0FB0220FCF785
:1077200083F9082307043F0E04001F4227D00B20D3
:10773000FCF77AF90005000FFBF75AFE0600FF2858
:107740001DD0009B1B78012B19D0C54B1B78002B3B
:1077500015D0C44D2800FBF7BDF80200132804D152
:107760002800C14913F03CFD12220023AE54AD188D
:107770000C226B70BD4B1A70BD4B0B3A1A707B0715
:1077800002D50122BB4B1A7001231F4209D00122EE
:10779000B94B0C201A70FCF747F9B84B800BC0B2FC
:1077A0001870BB0702D50022B34B1A70E5B263060E
:1077B00002D50122B24B1A70240602D50022B04B2A
:1077C0001A70EB062BD50122AE4B1A70AE4B093264
:1077D0001A80AE4B9A7F002A21D0009A1278052A8F
:1077E00008D1AB4A1178002904D11420A94A10808D
:1077F000A94A11700533DB7F002B10D0A74AA84B94
:107800001178002902D11988132908D81421198068
:1078100000231370A34A13700122A34B1A70AB0606
:1078200004D50022974B1A70974B1A806B0709D525
:1078300001229E4B10001A7007F098F8E1229C4B31
:1078400052011A8008231D4204D00020974B187063
:1078500007F08CF820233A001A4001921F420ED004
:10786000944B1B78033B012B09D8934B1B78002BBF
:1078700005D1924B1B78042B01D0FCF7A1FCFB0631
:107880003CD58E4B1C78042C38D18D4B1B78012BAA
:1078900034D18C4B1B78002B30D18B4E5F2033784A
:1078A000013CDAB20133DBB233700292FCF7BCF870
:1078B000029B864D5B00E852002CEED13378232BDF
:1078C0001CD901226A4B0B2034701A70FCF7ACF8FB
:1078D0000600FDF717FCF60609D42A887C4B9A426D
:1078E00005D12B000833DA8F7A4B9A4274D0FDF71A
:1078F000F7FBFDF707FC784810F0EEF930231F4244
:1079000000D101E76C4B1B78002B00D1FCE6734BD8
:107910001B78012B00D0F7E6714F3B78022B02D089
:10792000052B00D0F0E6019B0425674C002B02D00C
:1079300023782035ED1A0026AE4271D12378012339
:107940004B4E33702378232B00D8DDE623780023B9
:107950000B202370FCF768F80400FDF7D3FB25002B
:1079600010231D401C426AD1584C594B22889A4220
:1079700065D123000833DA8F564B9A425FD120201D
:107980000FF0E2F9A31DDB8F4221564801930EF060
:107990009FFB019B834252D1E388A2881B041343BF
:1079A000514A1B021B0A934249D1002228001100B0
:1079B00004F090FE0190002801D101F035FA8023F7
:1079C0000135ADB2DB009D42EFD104233B70033B98
:1079D0003370FDF785FB97E622200FF0B5F94221C1
:1079E00040480EF075FBAB1DDB8F834200D082E771
:1079F0006D880FF079F8838806219C46A3B29C45D8
:107A000000D878E70B0063430268D618D35AAB421C
:107A100004D87388AB4201D901F0A4FA0134EDE730
:107A20005F20FCF701F82378232B06D823785A1C13
:107A3000D2B22270254A5B00985201367CE70523BA
:107A40003B70043B3370FDF793FA5DE6274B1B78E0
:107A5000002B00D133E6082778E0254C83E0C046B0
:107A600010070020C6210020C7210020DB210020B4
:107A7000EC210020110A0020180A0020170A00201B
:107A80001A0A002023210020242100200C2200209B
:107A900029210020B82100202A2100204E000020AA
:107AA0001C0A0020830A0020F12100201E0A002069
:107AB000E62100204D220020B7210020C321002014
:107AC000A820002011070020AC0700206407002038
:107AD000CDAB0000BADC00000E070020AE0700208E
:107AE000AD07002066070020A5BE02000A0700209F
:107AF000FF030000280010F0D7F9002822D0082149
:107B0000C24A2B7B12780B4269D0002A1AD1C04B93
:107B10001B88DA060DD18022D200934209D258097F
:107B2000BC4A41008C5201228240BB490868024392
:107B30000A60BA490A88002A6CD0013A0A80B44A1D
:107B400001331380013FFFB2002F20D08022B44EBA
:107B5000D200338893421AD2B24A1488002C00D142
:107B60007BE7013CA4B201333380F0231B0208AD54
:107B7000E0181480400120222900FCF74DFF280066
:107B800010F0B8F90028B5D08023DB0033808022C4
:107B9000A34BD2001988A44B914202D2019A002A29
:107BA00062D000221A70A14B01321A70A04B1B78D0
:107BB000002B4BD09F4B1878002800D078E59C4BC9
:107BC0001A78002A00D173E59B4B1B88062A55D9E9
:107BD0009A4A1188994200D16AE5138068E5012A22
:107BE00013D19A43002AADD0954B6A681B68013BBC
:107BF0009B1A80229200934289D300228A4B0190E3
:107C00001A708A4B01321A70C1E7022AECD1013A8C
:107C10001A40E7E7864908788C4606280ED8894A34
:107C20000101891808AA70CA70C10D0011880130BD
:107C300029809278AA706246107080E701217D4BFE
:107C40001970794B1A70794B1970A0E7734B1B8828
:107C5000002BAFD0784A10888342ABD20138C01ACB
:107C600080B210F09BFD23E51B78002B00D01FE5B0
:107C70006E4B1B78002B00D11AE59BE70721891A70
:107C800089B2994207D2073BD21890B26B4B188049
:107C900010F00CFD0CE5002B00D109E5F6E7013BE7
:107CA000DBB20B70002B00D015E50EE566490978B4
:107CB000002900D00FE5002B21D0644E644B3178B1
:107CC0001A78022900D003E2002A00D1F8E1614DC0
:107CD0002968002905D060480068091A002900DDDC
:107CE00054E15E4C20780138052800D9E6E1FAF726
:107CF00017FE63006500AF01CB01CB01CE01584BED
:107D00001B785BB2002B0DD104F050F8002809D18C
:107D1000544B1B78002B05D1534C2388002B16D0D5
:107D2000013B2380514B1B78002B00D12EE1504B9F
:107D30001A880123110019401A4200D026E14D4B48
:107D40001B78012B00D1B7E34B4B19701EE14B4B55
:107D50004B48197810F0FCF9029B197810F0F8F9EB
:107D6000484B197810F0F4F9354B196810F0F0F918
:107D7000454B197810F0ECF9444B196810F0E8F90C
:107D8000434B198810F0E4F9424B19880131490836
:107D900010F0DEF9404B197810F0DAF93F4B197802
:107DA00010F0D6F93E4E050033688342BAD010F089
:107DB00097FBC8233560B4E702232370394B1B6857
:107DC000002B00D07EE00020374B384E1B78059604
:107DD0000293374B374E1B7803960493364B1B7830
:107DE0000193364B19780300029FCEB2BE4200D2F7
:107DF0008BE0002804D00021314A1170294A11601B
:107E0000002B00D107E12D4B1E7004E1201D002046
:107E10000407002048060020440600200207002036
:107E200006070020080700200A0700208806002017
:107E3000000700208C0600208A060020221D00205A
:107E40000C1D002090060020200A0020360600208D
:107E5000350600200C0600205C21002008060020CA
:107E6000A4210020A32100201807002012070020D1
:107E700040210020EA210020AA0500209E210020A8
:107E8000C59D1C81181D0020400600203C060020D6
:107E9000380600209C2100201F1D00201E1D0020F0
:107EA0001407002004060020AB050020AF050020C9
:107EB000AE050020BCCF0108AD050020AC050020B8
:107EC00000060020BE4909785B5C002B00D17AE7F0
:107ED000BB4BBC4A1B781268D35C2E2B00D0ABE0A6
:107EE000B94B01201988FDF72DF9B84B1C68B84B28
:107EF00018880A21FAF71EFD80B2001928600322B3
:107F0000B44B1A700EF036FFDCE0059B5B5C1F0083
:107F1000613F192F13D8203BDBB200200090039F54
:107F20000098BC46C0003F5C84449F425DD16346DC
:107F30005B68002B5FD110001300013154E7202B48
:107F4000EBD1049B002BF7D0019B002BF4D1029FB7
:107F50004B1CBB42F0DA002804D0994B019A1A70EE
:107F6000984B1A6001229C4B0A211A70052323703A
:107F7000964B01361C68994B1888994B1B88C01A80
:107F8000FAF762FD974B001928601E70964A974BCE
:107F90001478009225006A1E954101931B78EDB27A
:107FA000002B02D0002201990A70914A1278002A0F
:107FB00000D15FE3002B04D1002C01D0009A137094
:107FC00000258C4B1B78032B00D02AE38A4A1378B8
:107FD0000133DBB2072B00D82CE300201070FCF734
:107FE0004FFE002D00D15BE34BE300980130009081
:107FF000362894D19FE7187800289CD00022704939
:1080000001360A706F490B600121764B1E707B4B65
:108010001970714B1A706B4B1868002806D0FAF76C
:1080200059FC674B1B78834200D251E7062323702B
:10803000664B1C686A4B1CE02D2B00D05FE7624B3F
:1080400001201988FDF77EF8604B1C686C4B4FE7E8
:10805000FCF758FB5A4A13780133DBB21370594AC4
:108060001268D25C594B002A0BD0022222701C6885
:10807000644B18880A21FAF75DFC80B20019286069
:1080800084E704222270D4E7022323707EE70027CE
:10809000277001241F702F603470FCF74FFB022003
:1080A000FDF7D6FF584B38001F70584B1F7004F077
:1080B0007BFE04F0A3FC4D4B1C7023E70023E4E798
:1080C0000EF07AFF524B1B78002B00D05EE729E6BA
:1080D000002A2AD04F4B1A78002A04D1012202200C
:1080E0001A70FDF7B5FFFCF7ABFB4B4A4B4B126820
:1080F0004B49128E9B560A78002A1CD0494B1A789D
:10810000501C1870312A02D900220A701A70464A8F
:108110001378002BD6D0FF2B00D0A5E100231370DD
:10812000424A1370424A1370ECE60EF045FF337872
:10813000022BC7D0CEE74408A03BE4183D4A3E4B93
:108140001178009300201B5E3C48A5B2019024B238
:10815000002906D10078002803D19C4209DA009B4F
:108160001C80009B00201B5E603308DB61235B42A8
:1081700003E0180001336130F3DA00980380009BBC
:1081800000201B5E1800723016DB0A331BB22C482D
:108190009C425BDB2B4B1C800378FF2B01D001330F
:1081A00003700026284B1E70B1425CD10378B342A5
:1081B00059D00123137056E069235B42E7E7C046BC
:1081C00000060020040600200C0000205C21002096
:1081D0001A00002008060020AD0500201400002031
:1081E00012000020AC050020F1210020EC2100202D
:1081F000200A0020210A00201F0A0020AE050020CE
:10820000100000200E000020BE070020BD07002047
:108210004B2100208C0A0020B02000201C000020F0
:1082200031060020300600203406002033060020EE
:10823000320600202F060020180000202E06002005
:108240002606002016000020250600208A4E3378DE
:10825000FF2B01D00133337000230370994202D009
:1082600031789942A6D11778844E854A33780292A4
:10827000002F41D0002B0DD1824A1378FF2B0FD154
:108280000123002233707F4B1A700EF073FD337898
:10829000002B0AD0029B1888042844D8012047E00C
:1082A0000133DBB21370032BEAD8774D2C88002CF6
:1082B00002D120000FF00CFA012301341C402C8065
:1082C000029B01201B88042B04D90A21581DFAF7B0
:1082D000BBFB80B207244443019BA4B21B78002F50
