:020000040800F2
:102800000040002095930108313900083339000851
:1028100000000000000000000000000000000000B8
:102820000000000000000000000000003539000832
:10283000000000000000000037390008EDCB000860
:10284000E5930108E5930108E5930108E593010884
:10285000E5930108E5930108E5930108E593010874
:10286000E5930108E5930108E5930108ED500008A0
:10287000E5930108E5930108E5930108E593010854
:10288000E5930108E5930108E5930108E593010844
:10289000E5930108E5930108E5930108E593010834
:1028A000E5930108E5930108E5930108E593010824
:1028B000E5930108E5930108000000004574010854
:1028C00002780B78002A03D0013001319A42F7D008
:1028D000D01A70470023C25C0133002AFBD1581E76
:1028E0007047000002B47146490849000956490082
:1028F0008E4402BC7047C04602B471464908490084
:10290000095C49008E4402BC7047C04603B471465E
:10291000490840004900095E49008E4403BC7047E5
:1029200003B47146490840004900095A49008E44E1
:1029300003BC7047002243088B4274D303098B42C7
:102940005FD3030A8B4244D3030B8B4228D3030C7F
:102950008B420DD3FF22090212BA030C8B4202D321
:102960001212090265D0030B8B4219D300E0090A49
:10297000C30B8B4201D3CB03C01A5241830B8B4252
:1029800001D38B03C01A5241430B8B4201D34B033B
:10299000C01A5241030B8B4201D30B03C01A5241A0
:1029A000C30A8B4201D3CB02C01A5241830A8B4225
:1029B00001D38B02C01A5241430A8B4201D34B020E
:1029C000C01A5241030A8B4201D30B02C01A524172
:1029D000CDD2C3098B4201D3CB01C01A5241830926
:1029E0008B4201D38B01C01A524143098B4201D360
:1029F0004B01C01A524103098B4201D30B01C01A8B
:102A00005241C3088B4201D3CB00C01A5241830804
:102A10008B4201D38B00C01A524143088B4201D331
:102A20004B00C01A5241411A00D201465241104691
:102A30007047FFE701B5002000F0F0F802BDC04686
:102A40000029F7D076E7704703460B437FD4002276
:102A500043088B4274D303098B425FD3030A8B4232
:102A600044D3030B8B4228D3030C8B420DD3FF229C
:102A7000090212BA030C8B4202D31212090265D06A
:102A8000030B8B4219D300E0090AC30B8B4201D31D
:102A9000CB03C01A5241830B8B4201D38B03C01A64
:102AA0005241430B8B4201D34B03C01A5241030BDB
:102AB0008B4201D30B03C01A5241C30A8B4201D38C
:102AC000CB02C01A5241830A8B4201D38B02C01A37
:102AD0005241430A8B4201D34B02C01A5241030AAE
:102AE0008B4201D30B02C01A5241CDD2C3098B4293
:102AF00001D3CB01C01A524183098B4201D38B0110
:102B0000C01A524143098B4201D34B01C01A5241B2
:102B100003098B4201D30B01C01A5241C3088B42F7
:102B200001D3CB00C01A524183088B4201D38B00E2
:102B3000C01A524143088B4201D34B00C01A524184
:102B4000411A00D201465241104670475DE0CA0F5B
:102B500000D04942031000D34042534000229C461B
:102B600003098B422DD3030A8B4212D3FC22890125
:102B700012BA030A8B420CD3890192118B4208D3FB
:102B8000890192118B4204D389013AD0921100E05D
:102B90008909C3098B4201D3CB01C01A5241830971
:102BA0008B4201D38B01C01A524143098B4201D39E
:102BB0004B01C01A524103098B4201D30B01C01AC9
:102BC0005241C3088B4201D3CB00C01A5241830843
:102BD0008B4201D38B00C01A5241D9D243088B4299
:102BE00001D34B00C01A5241411A00D2014663463C
:102BF00052415B10104601D34042002B00D54942A0
:102C0000704763465B1000D3404201B5002000F0DE
:102C100005F802BD0029F8D016E770477047C04696
:102C20001C2101231B04984201D3000C10391B0AFC
:102C3000984201D3000A08391B09984201D30009C0
:102C4000043902A2105C40187047C0460403020217
:102C50000101010100000000000000000448054BD4
:102C600010B5834203D0044B002B00D0984710BD11
:102C7000EC000020EC00002000000000064807499E
:102C8000091A8B10C90FC91810B5491003D0044B8D
:102C9000002B00D0984710BDEC000020EC00002075
:102CA0000000000010B5074C2378002B09D1FFF776
:102CB000D5FF054B002B02D0044800E000BF0123E4
:102CC000237010BD600200200000000020A1010858
:102CD000054B10B5002B03D00449054800E000BFA8
:102CE000FFF7CCFF10BDC0460000000064020020CA
:102CF00020A10108054B82B0DA6B0243DA63DB6B7B
:102D000018400190019B02B07047C046001002407D
:102D1000054B82B01A6C02431A641B6C1840019078
:102D2000019B02B07047C04600100240802130B5C0
:102D300080240822454B49009962A40045B2002D29
:102D400000DA81E09C62C046C046C046C046C0462C
:102D5000C046C046C046C046C046C046C046C04643
:102D6000C046C046C046C046C046C046C046C04633
:102D7000C046C046C046C046C046C046C046C04623
:102D8000C046C046C046C046C046C046C046C04613
:102D9000C046C046C0469961C046C046C046C0460F
:102DA000C046C046C046C046C046C046C046C046F3
:102DB000C046C046C046C046C046C046C046C046E3
:102DC000C046C046C046C046C046C046C046C046D3
:102DD000C046C046C046C046C046C046C046C046C3
:102DE000C046C046C046C0464000C0B29962C04618
:102DF000C046C046C046C046C046C046C046C046A3
:102E0000C046C046C046C046C046C046C046C04692
:102E1000C046C046C046C046C046C046C046C04682
:102E2000C046C046C046C046C046C046C046C04672
:102E3000C046C046C046C046C046C046C046013A2D
:102E4000002A00D07AE730BD9C617CE70004005086
:102E5000054B82B05A6B02435A635B6B184001907A
:102E6000019B02B07047C046001002400222064B90
:102E700099681142FCD00122187399681142FCD064
:102E8000D868C0B27047C0460038004010B5040092
:102E9000000CC0B2FFF7EAFF200AC0B2FFF7E6FF5E
:102EA000E0B2FFF7E3FF10BD0B4B5A7E002A02D0C1
:102EB0009B7E002B0ED10322084B01211A700022A9
:102EC000074B1A70074B1970074B1B788B4201D0C8
:102ED000064B1A707047C046A81E002095070020B8
:102EE0007B1E0020940700205F1E0020570000205A
:102EF000084B1A68293213780133DBB2072B00D94B
:102F0000012313700122044B1A80044A044B1278E7
:102F10001A7070477C1E0020920700205F1E002060
:102F2000570000200122064B1A80064B1A683432E3
:102F300013780133DBB2032B00D1002313707047E9
:102F4000920700207C1E0020012305498A7F5A40F9
:102F50008A77044A1370044A1370044A1370704746
:102F6000A81E002070070020740700208C1E00207F
:102F70000B4810B502780B4B002A0FD00633D97FCF
:102F80004C426141D977012300215A400270064A20
:102F90001170064A1370064A137010BD0533EEE730
:102FA0006F070020A81E00206E0700207407002075
:102FB0008C1E00201049114A0B7870B5501D104D21
:102FC000104C002B0FD02D78C57720780632D077A3
:102FD000012253400B7000210B4B19700B4B1A70E0
:102FE0000B4B1A7070BDC67F2E70951DED7FC37799
:102FF00025701800EAE7C0466D070020A81E0020D3
:103000006C0700206B0700206E070020740700206B
:103010008C1E0020012306490A785A400A700021BC
:10302000044A1170044A1370044A13707047C04672
:103030001F1E00206E070020740700208C1E002039
:103040000123044A11784B4013700222024B1A707C
:103050007047C04664070020630700200123044A2C
:1030600011784B4013700222024B1A707047C04611
:103070006207002063070020044B05481A8850436C
:10308000044A801880B21880000A70472C00002083
:103090000508000019360000F0B5130007270322C9
:1030A0003B405A431B4B85B0D31801930123039136
:1030B0009C46002102900020019B5B5C0093009BDA
:1030C0006246C340134213D0039B1C18A3B23F2B8C
:1030D0000ED86546029B5A18E3B23C40A540D2B2D6
:1030E000ECB2072B0CD80C4BD5189B5C1C432C70F6
:1030F00001300528E3D101310329DCD105B0F0BD51
:10310000DB08013BDB01054E9D18AD19F618B35CD9
:10311000ECE7C0461CAF01089D070020131A0020F1
:10312000054B1A78002A06D000221A70034B013290
:103130001A70034B1A70704720070020881E002069
:103140008C1E002030B50E4B1B689A8B0D4B1868F7
:103150000D4B19680D4B1C6C844207D15C6C8C4282
:1031600004D11C0048342488944207D01C00002558
:103170004A3418645964483325801A8030BDC046EB
:103180009C1D002088070020780400207C0400207B
:103190000E4B10B51B68191E13D00D4A1268918B87
:1031A00000290ED083420ED80A4A126882420AD3FE
:1031B000C01AFFF7BFFB084B0021984201D801302D
:1031C00081B2080010BD0021FBE7C046880700203F
:1031D0009C1D002078040020FEFF000010B5094C63
:1031E0002278531CDBB2172B00D90023064952006A
:1031F0005052064A23701378172B01D801331370ED
:1032000010BDC046450400204604002044040020B0
:103210000122054B52421A800023044A1360044ADB
:103220001370044A1370704704000020400400200B
:103230003D0400203C04002070B51E4A03001268C3
:103240000232D47F221C082C00D208221A491B48C3
:103250000D88083A92B2854206D100200B80844244
:1032600001D0A342404170BD15482E1C854201D9B2
:103270001448068814481036B6B21C1C834201D983
:10328000124804880834A4B29E4202D80120934216
:10329000E9D2A64202D801209442E4D29D4202D94A
:1032A00000200B80DFE707226A430432D318DB08D3
:1032B000F6E7C0469C1D002004000020FFFF000030
:1032C000EFFF000040A20108F7FF000042A2010842
:1032D000002806D0044A13780133DBB2032B01D84F
:1032E000137070470023FBE739040020F8B5104C39
:1032F0002368002B02D000232360F8BD0D4B0E4F36
:103300001B681B691D680D4B2560597B4A42514162
:1033100048224A439B180833DE6F3E60FFF778FF70
:10332000B54201D926603D60FFF70CFFE5E7C046D6
:10333000880700207C1E002078040020A81E0020A2
:10334000074B1B78012B0AD0064B1B78012B06D0AC
:10335000012205494B7E53404B76044B1A7070474F
:103360005F1E0020861E0020A81E0020700700207F
:103370000021012210B5124B1960124B587B4240BC
:1033800011485A7304788C4202D001700F480170C2
:10339000991DC87F002801D0501CC8770533D97FFC
:1033A000002901D00132DA770123094A1370094A52
:1033B0001370094A13700022084B1A7010BDC046E2
:1033C00088070020A81E00207B1E0020781E0020F9
:1033D00070070020740700205200002057000020D2
:1033E000092802D83030C0B2704703000A3BFF20E2
:1033F000052BF9D8014AD05CF6E7C04662AC01085B
:1034000010B50E4A0E48137B59424B410021DBB2E6
:1034100013738B4200D04831843152180260094A3C
:103420001378002B03D101331370074A1370002067
:103430000EF0A8FB0A22054B1A8010BDA81E002022
:103440009C1D0020850700208C1E00201C070020EA
:10345000194B10B51B78002B11D0FFF761FE174AEE
:10346000174B12781B7852B2002A1BD1154AD27F13
:10347000002A05D1032B02D003200EF049FA10BD1B
:10348000114A1278002AF5D16420104908801049A9
:103490000A7010490A7001210F4A117001210A4A6D
:1034A0001170E7E7084A11780029E3D114200B4A8C
:1034B00010800B4AF1E7C0461E070020411E002085
:1034C000861E0020AD1E00201A1E00201C070020B2
:1034D00052000020850700208C1E00208E0700204F
:1034E00053000020034B10B51B78002B01D1FFF7D0
:1034F000AFFF10BD151E0020302210B5002104487A
:1035000015F09CFF0022034B1A70034B1A7010BD7C
:1035100046040020450400204404002010B5084B58
:103520001B78012B01D9042B05D1062008F04AFC99
:10353000062008F047FC0022024B1A7010BDC0465E
:10354000E81E002038000020A023402210B5DB0533
:103550009A6214F061FB10BD10B5032804D007284F
:1035600009D0074B185C03E0064B1878A6231843D4
:10357000FFF7EAFF10BD044B18781530C0B2F7E72B
:1035800094AF01089C0700202E00002070B50C4B62
:103590001B6834331C78012C0AD10321094D28788B
:1035A0000130FFF737FB2970200009F04DFA70BD9C
:1035B000002CF9D1044D052128780130F1E7C046EF
:1035C0009C1D00206A0700206907002070B508F0E4
:1035D00005FE114B041E00D1104B19680D002D354E
:1035E0002A78343153425341D8B228700B78012BDA
:1035F00007D153425A4103205242104014F01AFBA3
:1036000070BD002CFAD000208242F7D1044B18780C
:103610000130C0B2F2E7C0469C1D00207C1E002095
:103620006807002070B5868B006871430818310068
:103630001C00150008F0CEFCA04206D8A84203D218
:103640003100A01B08F0C6FC70BD2800FCE700009C
:10365000F0B5212585B0FFF775FD164B1E68164B9A
:103660001B785BB20193154B1B680293144B1B68CC
:103670000393144B1F783000039B029A0199FFF7C4
:10368000D1FF013DEDB204003060002D07D0FFF7FF
:103690007FFD002803D000230B4ABB4202D120004B
:1036A00005B0F0BD0232911E09888142E3D001339A
:1036B000DBB2F2E79C1D0020411E0020880700209D
:1036C00078040020C60400207C04002010B50EF011
:1036D00069FF0122044B1A70044B1B78002B01D0A8
:1036E000034B1A7010BDC046FF0600209007002053
:1036F0007407002010B50A4C2378002B05D0002059
:103700000EF006F90023237010BDFFF7DFFF054B15
:1037100019780029F3D00A224A43034B1A70F1E7C3
:10372000FF060020EA1E0020FE060020264B70B592
:103730001A688023D28BDB009A422ED200230A25FE
:1037400018002249224E0A78DCB2944209D300289C
:103750000DD1042A21D1002301220B701D4B1A70B8
:1037600007E06843F45C0133001980B2ECE7042AF7
:10377000F1D000220138184D84B2110020006E7B78
:1037800008F0B4FE002809D1124B1B78012B02D897
:103790000222124B1A700AF0F5F970BD00230221C3
:1037A0000E4A1370321D520054530D4A76001170A8
:1037B0000C4A745313700C4A1370687B09F0E2FFD3
:1037C0000AF0E0F9E7E7C0467C1E00207B1E0020DF
:1037D000D0030020801E0020A81E0020791E00209B
:1037E000630700206207002064070020F8B5264B1D
:1037F000264C1A78002A03D0A11DCA7700221A701D
:103800000022234B1A70FFF777FE224B1F68224BD2
:103810003E001B78002B01D0204B1E688022204BDD
:10382000D2001B8893421CD2207BB2B2031D5B00E6
:10383000E25202214300E25209F0A4FFB74204D051
:103840000AF0A0F90122174B1A70002338342370B4
:103850000AF038FC01200EF095F90122124B1A7083
:10386000F8BD124B1D6828002E6008F0C1FF28002B
:1038700008F0AAFEB742E8D001232A00217BE88B9A
:103880000AF0B2FBE1E7C04638040020A81E002081
:10389000411E0020340400200007002008070020FB
:1038A0008C0700208C1E0020881E00209C1D0020FC
:1038B00010B5174B174CDB7F002B19D0164A137825
:1038C000002B03D000231370144A1370144A637B37
:1038D00011688022C98BD20091420AD25B00E218A3
:1038E0009288E25201220F4B1A700F4B92181A70F5
:1038F00010BD04335B00E05A002301211A0008F0D8
:103900002FFE0A4B9842F3D0637B5B00E052E9E75D
:10391000AC1E0020A81E00207B1E0020781E002068
:103920007C1E0020F406002063070020FFFF00003B
:103930007047FEE770477047014B024A9A60704734
:1039400000ED00E0002800080E4B1A7882420DD0EE
:1039500018700D4B0D4A1B5C0D4913800D4A1288DF
:103960009B1A9AB21BB2002B01D10B707047181131
:10397000002B03DD53421B115B4218B2064B18802B
:103980000123F2E731180020B3AF01082818002006
:103990002E1800202C1800202A180020902210B584
:1039A000054B5200985CFFF7CFFF0022034B1A80B3
:1039B000034B1A7010BDC046A81E00205C1E0020DC
:1039C0002F180020F8B5802380267E4F7E4C9B0068
:1039D0007600BB610500A662C046C046C046C04630
:1039E000C046C046C046C046C046C046C046C046A7
:1039F000C046C046C046C046C046C046C046C04697
:103A0000C046C046C046C046C046C046C046C04686
:103A1000C046C046C046C046C046C046C046C04676
:103A2000C046C046C046C0468020BB622843FFF760
:103A30007DF92368654A13402360C046C046C046EE
:103A4000C046C046C046C046C046C046C046C04646
:103A5000C046C046C046C046C046C046C046C04636
:103A6000C046C046C046C046C046C046C046C04626
:103A7000C046C046C046C046C046C046C046C04616
:103A8000C046C046C046C046C04610230020400085
:103A900080B2844601212069A661400A084061463F
:103AA0000843C046C046C046C046C046C046C046A1
:103AB000C046C046C046C046C046C046C046C046D6
:103AC000C046C046C046C046C046C046C046C046C6
:103AD000C046C046C046C046C046C046C046C046B6
:103AE000C046C046C046C046C046C046C046C046A6
:103AF000C046A662C046C046C046C046C046C04694
:103B0000C046C046C046C046C046C046C046C04685
:103B1000C046C046C046C046C046C046C046C04675
:103B2000C046C046C046C046C046C046C046C04665
:103B3000C046C046C046C046C046C046C046C04655
:103B4000C046C046013B002B00D0A0E723681A40C6
:103B50008023DB021343236080239B00BB61C046AC
:103B6000C046C046C046C046C046C046C046C04625
:103B7000C046C046C046C046C046C046C046C04615
:103B8000C046C046C046C046C046C046C046C04605
:103B9000C046C046C046C046C046C046C046C046F5
:103BA000C046C046C046C046C046C046C046A661E4
:103BB000A361074B302D02D0472D01D1054B188052
:103BC000F8BDC0460014005000040050FFFFF3FF92
:103BD000360000203400002070B5060069200D007A
:103BE000FFF7F0FE040003040BD46A20FFF7EAFE9F
:103BF0000C4B24030005000D1C40044302203460DC
:103C000070BD6820FFF7DEFE030000201A04F7D421
:103C10000548DB04DB0C58430449FEF715FF2880F8
:103C20000120EDE700F0FF00EB120000102700007C
:103C3000F7B5694B694A00931B780192002B26D196
:103C400013785BB2002B0AD0654B664A1B889B1821
:103C5000062B04D8644B1B78002B18D0F7BD634BA0
:103C60001D786B1E022B27D86149624B0A78002A07
:103C700003D0614A1278002A06D01A78002A1BD095
:103C80005E4A1278002A17D100220A701A700120A9
:103C90000DF078FF01225A4B1A70019B1B785BB222
:103CA000002BDBD0574B1A78502AD7D8002A00D0E7
:103CB00089E0FFF79BFDD1E74B4B01241B78524F66
:103CC000002B0AD03B78DAB2002B05D1A5421AD0DE
:103CD0000ED9AB1EA34229D900243B784B4E002BB2
:103CE00069D1002C67D13378002B41D13470B5E70E
:103CF000474BDB7D002BEFD0464B19780029EBD0EA
:103D000002241A70E9E7444B1978394B002906D090
:103D10001A70404B1A78002ADED00022F0E71A7899
:103D2000002AF6D11D706432334BF1E73B4B197812
:103D3000304B002914D03A490978012910D11A7062
:103D4000344E3378002BC7D00C20FFF73BFE040520
:103D5000A40F013C63425C41002364003370BCE764
:103D60001A78002AECD101321A70244B6332E6E74C
:103D70002C4BDB7F002BB9D0023D012DB6D80C2097
:103D8000FFF720FE0005800F0128AFD1254BDB7F18
:103D9000002B00D162E7A0238022DB0552009A624B
:103DA000214BEC3A1A800023009A137001223A70DA
:103DB0001E4A137052E700233370012C00D166E7CE
:103DC000022CE3D04AE719235343194A13800022F7
:103DD000184B1A7042E7C04615070020411E00200C
:103DE0008C07002000FCFFFF1E0700201B0700209F
:103DF00019070020160700201407002013070020D1
:103E0000881E0020D01E002012070020100700206E
:103E1000A81E0020110700201A0700201807002004
:103E200017070020AB1E00200E070020A41D002055
:103E30008E07002053000020F8B50C00374B3028C7
:103E400002D0472805D1364B1A88A24200D142E160
:103E50001C8080238026334F334D9B007600BB614E
:103E6000AE62C046C046C046C046C046C046C04618
:103E7000C046C046C046C046C046C046C046C04612
:103E8000C046C046C046C046C046C046C046C04602
:103E9000C046C046C046C046C046C046C046C046F2
:103EA000C046C046C046C046C046C046C046C046E2
:103EB000C046BB62FEF73AFFC046C046C046C04699
:103EC000C046C046C046C046C046C046C046C046C2
:103ED000C046C046C046C046C046C046C046C046B2
:103EE000C046C046C046C046C046C046C046C046A2
:103EF000C046C046C046C046C046C046C046C04692
:103F0000C046C046C046C0461023AE6222B2002A58
:103F100000DAE1E080229200AA6207E03600002089
:103F2000340000200014005000040050C046C04679
:103F3000C046C046C046C046C046C046C046C04651
:103F4000C046C046C046C046C046C046C046C04641
:103F5000C046C046C046C046C046C046C046C04631
:103F6000C046C046C046C046C046C046C046C04621
:103F7000C046C046C046C046C046C0466400AE61AA
:103F8000A4B2C046C046C046C046C046C046C046B1
:103F9000C046C046C046C046C046C046C046C046F1
:103FA000C046C046C046C046C046C046C046C046E1
:103FB000C046C046C046C046C046C046C046C046D1
:103FC000C046C046C046C046C046C046C046C046C1
:103FD000C046AE62C046C046C046C046C046C046A7
:103FE000C046C046C046C046C046C046C046C046A1
:103FF000C046C046C046C046C046C046C046C04691
:10400000C046C046C046C046C046C046C046C04680
:10401000C046C046C046C046C046C046C046C04670
:10402000C046C046013B002B00D06FE7C046C046EB
:10403000C046C046C046C046C046C046C046C04650
:10404000C046C046C046C046C046C046C046C04640
:10405000C046C046C046C046C046C046C046C04630
:10406000C046C046C046C046C046C046C046C04620
:10407000C046C046C046C046C046C04680239B00DE
:10408000BB61C046C046C046C046C046C046C046EA
:10409000C046C046C046C046C046C046C046C046F0
:1040A000C046C046C046C046C046C046C046C046E0
:1040B000C046C046C046C046C046C046C046C046D0
:1040C000C046C046C046C046C046C046C046C046C0
:1040D000C046AE61AB61F8BD80229200AA6125E7BF
:1040E00070B590B0040040226846184915F0D5FA22
:1040F000392C08D82F2C25D8232C25D00EAD2A2CCE
:1041000009D010B070BD2300413B373C032BF8D8D9
:10411000A4006C44250028880D4C0E4E60430E49C7
:104120008019FEF707FC81B27120FFF785FE6B88CE
:1041300009495C43A019FEF7FDFB81B27220FFF72D
:104140007BFEDEE7303CE3E70FADE4E738A1010892
:104150004C930100881300001027000010B5094C93
:104160002388002908D04022C240134399B233204B
:104170002180FFF761FE10BD4121494201411940F4
:10418000F5E7C046101A002010B5040051200A4976
:10419000FFF752FE07200949FFF74EFE21050820D0
:1041A000090DFFF749FE802321021B02090D08209B
:1041B0001943FFF741FE10BD33A00000D70A0000ED
:1041C0000C4B10B5C1184B1E9941040049420A4BD3
:1041D000890A8902C9185120FFF72EFE0748084BAB
:1041E00060430849C018FEF7A5FB81B20720FFF71E
:1041F00023FE10BDBFF5FFFF40940000982603008A
:1042000050C30000A086010070B5040031200D00ED
:10421000FFF7D8FBA02361051B02490D19430600D7
:104220004620FFF709FEC0216D056D0D49012943A8
:104230007920FFF701FE7A200449FFF7FDFD0421F4
:104240003143312089B2FFF7F7FD70BD9A28000095
:1042500010B5040081B23820FFF7EEFD3920210CA3
:10426000FFF7EAFD10BD000010B50349000201434D
:104270004720FFF7E1FD10BD4260000010B5372078
:104280000549FFF7D9FD00213020FFF7D5FD30208B
:104290000249FFF7D1FD10BD1F9F0000F1BF0000D4
:1042A00010B53120FFF78EFB0223984381B23120F5
:1042B000FFF7C2FD00212B20FFF7BEFD10BD00005F
:1042C00070B505003120FFF77DFB0400002D06D1FD
:1042D00008239C43A1B23120FFF7AEFD70BDAB1E99
:1042E0005A1E9341AD21DB03890119432920FFF7B1
:1042F000A3FD0120A84280410549404280030143BB
:104300002820FFF799FD0821214389B2E3E7C04641
:10431000382B000010B53120FFF754FB04239843DD
:1043200081B23120FFF788FD10BD10B50021242097
:10433000FFF782FD10BD0000DB2110B52120C90070
:10434000FFF77AFD24200249FFF776FD10BDC04635
:104350007FC1000010B550200149FFF76DFD10BD71
:1043600018BB000010B550200149FFF765FD10BDD6
:10437000183B000010B500213020FFF75DFDE8215B
:1043800037204901FFF758FD10BD000010B500218E
:104390007020FFF751FD0020FFF766FFFFF7E2FFF7
:1043A00000213020FFF748FD30200249FFF744FD8F
:1043B00010BDC046F1BF000010B5C3217020FFF74B
:1043C0003BFD72200A49FFF737FDC1215820FFF756
:1043D00033FD5C200749FFF72FFD8E215D20C901C9
:1043E000FFF72AFD5E200449FFF726FD10BDC046F9
:1043F00065300000655600000432000010B5002151
:104400003020FFF719FD10BD054B10B51B78002BB0
:1044100005D001210020FFF7A1FEFFF72FFF10BDFF
:10442000151E002010B50400FFF794FF0020FFF7D1
:104430001BFF00217020FFF7FFFCFFF776FF302005
:104440000349FFF7F9FC002C01D1FFF78BFF10BDEA
:10445000FEC1000010B530200149FFF7EDFC10BD92
:10446000FAC3000010B50400FFF766FFFFF772FF04
:104470000020844200D00330FFF7F6FE702003498D
:10448000FFF7DAFCFFF7E6FF10BDC046C3C300002C
:1044900010B56720FFF796FAC005C00D10BD0000EB
:1044A00010B5064B064A1B7811781B011943B0233F
:1044B0001B0248201943FFF7BFFC10BD261F002038
:1044C000281F002010B501240E4B05201A785440F7
:1044D0001C70614261410F2349421940A1231B0115
:1044E000C91811F09AFC0022074B944202D11A001D
:1044F0007F3212787E331A70FFF7D2FF0122034B0E
:104500001A7010BD65070020A81E00208C1E002018
:1045100010B5FFF79DFEC02151208900FFF78CFCEC
:10452000FFF7ACFE10BD10B500210420FFF716FE0A
:1045300000210320FFF712FE10BD00000B4B10B549
:10454000984208D801210420FFF708FE002103202B
:10455000FFF704FE03E0013002D1FFF7E4FF10BDD6
:1045600000210420FFF7FAFD0121F0E7FF3EAB0137
:1045700070B51D4B1B78013B012B27D900241B4B29
:104580001B4A1C7013781B4DA34220D01A4B147089
:104590001C701A4B80221C80A02301265200DB05D0
:1045A0009A62174B1C7011F051FC164B1B6818686F
:1045B000FFF7C4FF144B1E70144B1C7009F082FDF2
:1045C0005022134B2C701E70124B1A8070BD124A71
:1045D000137008F01BF901200DF0D4FA11F022FF3E
:1045E00003232B70F2E7C046861E00207B1E0020AE
:1045F0007A1E002057000020401E00207207002075
:10460000A41D00209C1D00208C1E0020E01E002008
:1046100074070020121E00209007002070B50F4D77
:1046200004002A68002A08D0002318000C49A1427F
:10463000584191425B41984202D02000FFF77EFF33
:1046400020002C60FFF704FE00213020FFF7F4FB70
:10465000044B30201988FFF7EFFB70BD40040020A9
:10466000FF3EAB013A040020A023F7B51600082254
:104670000500DB059A6203200C00FEF7F7FB28001B
:10468000FEF704FCC0232E4DDB00AA681100194080
:1046900001911A420AD10F2E0AD8A619B44249D064
:1046A000FF20FEF7E3FB20700134F7E7EA68ECE750
:1046B00040222B68042093432B6013F091FA0520CD
:1046C00013F08EFA802284211E4B52015A601E4F35
:1046D0000420490113F020FA05201C4913F01CFAAC
:1046E000FC601B4C31000420BC6013F025FA194A11
:1046F000194B3100D36094600224052013F01CFA9A
:10470000019B164E042033703B6823433B6013F03B
:1047100075FA052013F072FA01236A6813434022E8
:104720006B602B6813432B606B681C436C603378A1
:10473000002BFCD0A0230822DB059A61F7BDC04600
:104740000038004000000240440002401010000009
:104750000C38004058000240241800202018002087
:1047600000B503000078002207280DD8FEF7C4F832
:10477000040E14191E232B2B0122552904D0AA291B
:1047800001D0002000BD04221A70FAE7AA394A427B
:10479000514149001970F4E700229142F4D10332EB
:1047A000F2E7484241411A70C8B2EBE700225529AE
:1047B000EAD10532E8E7032901D10622E4E704291A
:1047C000E2D10722E0E712290BD8102909D0074AC5
:1047D000073811700021064A117041424841054ACC
:1047E0001070002201201A70CCE7C0462F00002074
:1047F0001F0800201E0800200022034B1A70034BE4
:1048000001321A707047C0461D0800208C1E00201F
:10481000F7B5A02640275039F6050430C4B20193FD
:10482000C8B2B762150013F0F7F910202309184336
:1048300013F0F2F90F2020402C0013F0EDF9019B4A
:10484000B7615E19B44200D1F7BD6B461879002DEF
:1048500000D0207813F0E0F90134F3E7F8B5042331
:10486000124E0400B3624020FEF76EFE104A002C88
:1048700007D0104B01251F00072C0AD8621ED20159
:10488000D218802321000020FFF7C2FF0423B36168
:10489000F8BD290001353A0080230020EDB2FFF772
:1048A000B7FF8037082DF4D1F0E7C0460004005070
:1048B0009D070020131A002010B50820FFF7CEFF37
:1048C00010BD10B50130C0B2FFF7C8FF012012F0D3
:1048D000FDFB10BD10B50020FFF7C0FF10BD0000AC
:1048E000F7B5041E294E2A4F2BD00024FEF7C4FB37
:1048F0007021FEF7A5F8A5192970FEF7BDFB03216D
:10490000FEF79EF83D19013101342970202CEDD1BC
:1049100009F0A6FE002509F0DFFD0024EFB2BB0080
:10492000DBB20193725DE100611A5118D2191219BC
:1049300009B2D2B2002C16D10198FEF7ADFB0134BA
:10494000F0E735002B783A5D9B18DBB22B70702BAB
:1049500004D9FEF791FB0F2318402870013401356C
:10496000202CEFD1D4E7032C02D901231A4202D024
:104970000198FEF791FB0134082CD3D10135202D8D
:10498000CBD1FFF7A7FFFFF797FFF7BD4207002046
:104990002207002070B5254B1C78002C3ED0244BFC
:1049A000DB7F013B3B2B39D8224D2B78002B35D1B7
:1049B000214B1B78002B31D1204B1B78012B2DD0A4
:1049C00007F00CFC002829D11D4B1B78002B25D1AA
:1049D0001C4B1B78002B03D01B4B1B78002B1DD0CE
:1049E0001A4B1B78002B19D1194B1B78002B01D0C7
:1049F000032B13D1631E012B11D810F019FDFFF703
:104A000069FFFFF759FF012300202B70114B18702D
:104A1000114B1870114B187012F058FB70BD032C1D
:104A2000F1D10120FFF75CFFEDE7C0462107002030
:104A3000B01E002020070020561E0020861E0020E9
:104A40003C1E0020401E0020071E0020531E002098
:104A50005F1E00201F070020881E00208C1E0020E3
:104A60000422074B10B5E2209A62FEF76DFD002488
:104A700020000134E4B2FEF76FFD082CF8D110BD20
:104A800000040050042370B50024064DAB622000E2
:104A90000134E4B2FEF760FD0B2CF8D10423AB61C6
:104AA00070BDC046000400500B4B70B51B680B4C2A
:104AB000584300236568A268834200D370BDA16893
:104AC0008A4203D99B185B1A0A00F5E78A42FBD297
:104AD0006E1AF318D318F7E73418002010E000E03E
:104AE000324870B50378002B20D0314B314A002179
:104AF000595E13885B181BB21380002917DD2E49FD
:104B00000024095F994219DD1478002C1CD12B4A2E
:104B1000013413680720A343136013F061F82000E9
:104B2000FFF7C2FF8022264B52009A6270BD002917
:104B3000EAD021490024095F9942E5DB1E4B1B881E
:104B4000138000230370DFE76401FF212000FDF7DD
:104B5000F1FEFF2300225B019C421AD01100194E86
:104B6000194D0B0082424B415B42334001339400AC
:104B7000FF3301322B51202AF3D101240F4D2B6832
:104B80002342D3D1072013F039F82B681C432C6043
:104B9000CCE70121094A072013688B43136013F007
:104BA0001FF88022064B52009A61BFE72E180020A2
:104BB0002A1800202C18002028180020001400407B
:104BC0000014005000FFFF0038180020782170B555
:104BD0001B4A1C4B12781C4C4A431A801B4A1C4B24
:104BE00012781A701B4B1D781B4BDB7F002B06D1F4
:104BF000FEF7D4FE002D01D0FEF790FC70BD01221F
:104C0000164B1A702223FF33E05CFEF79DFE002D49
:104C100005D0134B1B78002B0CD1FEF77FFC08341A
:104C2000E17F00230F4A3D2902D00A234B43013381
:104C30001380E3E7FFF754FF0B48FFF735FFE8E782
:104C400056000020581E0020A81E00203118002009
:104C50003018002038000020B01E00202F1800203F
:104C60002E1800205C1E002010270000064910B5F9
:104C70000B78002B03D0054A054B1278DA77002316
:104C80000B70FFF7A3FF10BD670700206607002029
:104C9000B01E002080220A4B520243439B1810B5DD
:104CA00071200C00590CFFF7C7F8FFF75BFBFA20E7
:104CB00080006043FFF7F8FEFFF74CFB10BDC046D5
:104CC0001DA61400F8B51C0005000E001700FFF724
:104CD00041FB201E05D0A02380220320DB055200CB
:104CE0009A61FFF7C1FA12493F02394389B2702035
:104CF000FFF7A2F8FFF7AEFB0E48FFF7D5FE310035
:104D00002800FFF7C7FF002C07D0A0238022DB0577
:104D1000520000209A62FFF7A7FA00217020FFF7E7
:104D20008BF830200449FFF787F8FFF71BFBF8BD2D
:104D30000080FFFF50C30000FEC1000010B500213D
:104D40003F20FFF779F868215920FFF775F80348ED
:104D5000FFF7AAFEFFF752FB10BDC04630750000FA
:104D600010B5FFF7EBFF00210220FFF765F80021E7
:104D70003F20FFF761F8FFF781FAC0213F2089014A
:104D8000FFF75AF859200449FFF756F8592003490C
:104D9000FFF752F810BDC0466840000068300000C0
:104DA00070B50D000400FFF7D5FAC221702009028A
:104DB000FFF742F880230B495B026943C918712051
:104DC000490CFFF739F80020844200D00330FFF788
:104DD0004BFAFFF73FFB0448FFF766FEFFF7C2FA06
:104DE00070BDC0461DA6140050C30000F0B5FA26E1
:104DF0000500002485B003930AAB1F880BAB1B880A
:104E0000B6007343019102920093285D002801D1FE
:104E100005B0F0BDFFF764F9FFF7A4FA019B002B82
:104E200002D00298002C06D02B5D03982A2B02D0CA
:104E3000232B00D038007043FFF736FEFFF78AFAC5
:104E40000098FFF731FE0134DFE7000070B5A025C0
:104E50000826094CED050520AE62FEF707F8FF2095
:104E6000FEF704F8AE61C00705D50A20013CFFF744
:104E70001BFE002CEFD170BD40420F0070B5A02486
:104E800008250600E405A5620620FDF7EFFFA561F1
:104E9000FFF7DCFFA5622020FDF7E8FF3000FDF7FB
:104EA000F5FFA561FFF7D2FF70BD000010B504004B
:104EB000FFF7E4FF054B1B68A34205D18022FF21C9
:104EC0000348520114F0BAFA10BDC0463000002069
:104ED00020080020F0B587B06B46049003921A7C3E
:104EE0008023A0255B0002919B1AED05039A019295
:104EF0009A4200D9019308231C00AB620620FDF7FB
:104F0000B5FFAC610220AC62FDF7B0FF0498FDF77D
:104F1000BDFF029C019AA6180F2A5BD94022314C92
:104F200004202368304E9343236012F059FE05207D
:104F300012F056FE80222D4B52015A6000210420AF
:104F400012F0EAFD9021052012F0E6FD284F294BD2
:104F50000420F3600199B76012F0EEFD264B029930
:104F60000520D9609F60019912F0E6FD234B0227CE
:104F700005930023059904200B7033683B4333608D
:104F800012F03CFE052012F039FE01236268134343
:104F90004022636023681343236063681F43676094
:104FA000059B1B78002BFBD00823AB61FFF74EFF5E
:104FB000019A049B944663440493029B63440293C6
:104FC000039B9B1A03938023039A5B00002A8DD1D5
:104FD00007B0F0BD20780134FDF748FFB442F9D1A5
:104FE000E2E7C046003800404400024000000240B2
:104FF0000C380040241800205800024020180020DF
:10500000F0B587B0059380230705040B3F0D5B01C6
:105010000190029103922403DE1B039B002B03D11A
:10502000FFF714FF07B0F0BDFFF710FF039DB54277
:1050300000D935002B4E3368A34206D080222000D1
:1050400029495201FFF710FB3460274E2A00BE1990
:105050003100029814F068FB002826D00023F25C8F
:10506000FF2A31D101339D42F9D100232A003000BB
:105070000299049314F011FB049B002B2DD0200007
:10508000FFF7FCFEFFF7E2FE059B174E002B1DD03D
:10509000EF193A0031002000FFF71CFF8022520177
:1050A000FF21D21BF01914F0C9F9019B00275B19ED
:1050B0000193029B5B190293039B5B1B0393802369
:1050C0005B011E00E418A8E70123CFE7802231002E
:1050D00020005201FFF7FEFEE7E72A00029901983F
:1050E000F8E7C046300000202008002080201C493E
:1050F00080010B6810B5034230D00224194B1A68A6
:1051000022422BD01A68A2431A6048600A20FFF797
:10511000CBFCC021144A154B49019868084202D0C3
:10512000013A002AF9D180210F4A9868084202D03A
:10513000013A002AF9D1C0210B4AC90098680842F7
:1051400002D0013A002AF9D102215A688A435A60F2
:105150005A6801398A435A60054B197010BDC04620
:1051600000000240440002401127000000380040C7
:105170002018002070B540262025094C0120A6618A
:10518000FFF792FCA5610120FFF78EFCA6620120CB
:10519000FFF78AFCA5620120FFF786FC70BDC046C0
:1051A0000014005070B540252026094C0120A5624E
:1051B000FFF77AFCA6620120FFF776FCA6610120CA
:1051C000FFF772FCA5610120FFF76EFC70BDC046C1
:1051D00000140050F7B5234C234A23680190134074
:1051E0002360082300252027012600933000A762B2
:1051F000FFF75AFC3000A761FFF756FC3000FFF7BD
:1052000053FC23696D00EDB25B0600D535433000D9
:10521000A762FFF749FC009B013BDBB20093002B28
:10522000E4D12268104B01201A4080235B01134314
:105230002360A762FFF738FC019A4023002A0ED0B2
:10524000A36120260120FFF72FFCA6610120FFF7B4
:105250002BFCA6620120FFF727FC2800FEBDA362FD
:10526000EFE7C04600140050FFCFFFFFF8B5202342
:10527000264C0500A3620120FFF716FC08266BB23E
:10528000002B3EDB4023A36220270120FFF70CFC0C
:10529000013E0120A761FFF707FC6D000120A76216
:1052A000F6B2FFF701FCEDB2002EE8D140252368ED
:1052B000174E012033402360A561FFF7F5FBA7617E
:1052C0000120FFF7F1FBDF3723691A002A402B4248
:1052D0001AD0013F0120FFB2FFF7E6FB002FF3D108
:1052E00001256D422023A3620120FFF7DDFB80230F
:1052F00022685B0132401343236040232800A361EE
:10530000F8BD4023A361BFE71500EBE70014005090
:10531000FFCFFFFFF7B52F490B78DAB20192132BBD
:1053200014D02D4C087823780525C0B2002B00D06E
:1053300028352A4A13780133DBB21370AB4204D309
:1053400013230B70002313702370FEBD78230024F9
:10535000234DAB6100260823370000930A20FFF796
:10536000A3FB3A00F0272B693F021F40974212D15E
:10537000012E18D00126009B013B0093002BEDD19C
:105380000134052C0DD078230122AB61713B1B1B2E
:105390009A40AA62DEE70026EDE7320010E0022222
:1053A0000EE0019812E080211A0009020A400B4227
:1053B00006D05A04F1D59A04F1D50322DB04DFD4D8
:1053C000084BA1005B18985C1328D9D07823AB61F7
:1053D000BBE7C0462F0000201E0800201F08002049
:1053E000000400509FAF010810B532246320FEF77F
:1053F000E9FAC0B2C72806D9013C0120E4B2FFF7A0
:1054000053FB002CF2D1FFF743F8FFF741F810BD32
:1054100070B5FFF7E9FF1A4A0400031C904201D956
:10542000184B1B88184A083312689BB20232D17F8E
:10543000164A1588164A954204D1002901D099428E
:1054400012D970BD134E2A1CB54201D9124A1288D6
:10545000103292B29A42F4D80A1C082900D20822CB
:10546000083A92B29A42ECD8AF204000FFF71CFBFA
:10547000FFF7BAFF231C844200D2031C98B2E0E776
:10548000F7FF000042A201089C1D0020040000203C
:10549000FFFF0000EFFF000040A20108604BF0B5E5
:1054A0001C68604B85B01B68002B00D1A8E05E4BE8
:1054B0001B78002B00D19DE0A31CDB7F002B00D1CB
:1054C00098E03020FEF77EFA0626584A584B1040E6
:1054D0001880FEF7BDF82060200007F089F92369E5
:1054E0001D68544B1B68002B06D0534A127852B2E9
:1054F000002A4ADD9D424CD32800FFF78FF8FFF7C2
:1055000087FF0500FDF76AFE2800FDF795FE0028DD
:1055100061D0A18B4B1EF82B28D8FA20236880007D
:105520000293FDF791FA502800DD50200026370045
:1055300083B2039323691B680193FEF789F8206007
:10554000200007F055F9236918683B4B1B785BB2C4
:10555000002B21DD019B834223D9029B2000236085
:1055600007F046F923691868FFF758F80122334B12
:105570001A70200007F03CF9200007F025F8012000
:105580000CF000FB09222E4B2EE0002AB4D09D42E5
:10559000B2D9FDF73DFEAFE7002B02D0019B83425D
:1055A000DBD3FFF73BF8FFF71FFF854209D2050069
:1055B0000027236802930136039BB6B2B342B9D1E8
:1055C000CBE78542F7D9281A0728F4DD0137FFB267
:1055D000022FF0D9C1E7013EF6B2002E00D078E7E5
:1055E0000122164B1E70164B1A800122154B1A70A1
:1055F00005B0F0BD114A1370FEF72AF82060B8E735
:105600000E4A0D491370208E0F4AC00009781318F6
:105610005B68825849B22000FEF704F8EEE7C04606
:105620009C1D00208807002003000020FFFDFFFFD5
:105630003A04002040040020411E00203D040020C8
:105640008E070020881E002068AC0108F0B5D24B00
:10565000D24C1A7895B0531E182B3DD823008021C8
:105660002A331B78C9000593A38D8B4231D01BB21E
:10567000E58D8D4236D02DB2C9490191098802913C
:10568000059900290ED0C7490E780391002E2CD021
:10569000012E00D13DE10323039A1370C24B019AFE
:1056A0001B8813800025BE4B01221E88BF4B5D570F
:1056B0002300701929331B78290080B206F050FFAF
:1056C000BB4B0700984200D035E1FDF7A1FD002754
:1056D0001BE001235B42CBE7012301215B421D005C
:1056E0000591C9E701256D42C6E7AF4902980880D8
:1056F000002B00DA0DE19FB23100380006F0F6FE13
:10570000002800D105E1039B1E70019B1F80237BB5
:105710001A1D5B00E752A74B52001B68A752039368
:10572000DF83A54B1B78002B00D169E1039B02337B
:10573000DB7F002B00D127E11022380108A9FEF7FA
:1057400093FF089B0193013B033300D919E1152016
:1057500008ABC0181B22002113F070FE019B099EAC
:105760000C930E93954B9E4200D9954E109608AB24
:105770009B7A0F241A0008A922401B090A750B778F
:105780000CA8097A06F010FF08AB597A0EA806F0AB
:105790000BFF08ABDB7A1C400294022C01D90022DB
:1057A000029202990CAA11761D092F2B00D900250F
:1057B000D57508AB9B7B0493172B01D90423049365
:1057C000049B0CAA049993757E4B4900CB5A012186
:1057D0000793938208AB1B7BFF2B00D0BAE0517676
:1057E0000691029B012B00D1C4E0022B00D1C5E041
:1057F00008AB5B7BFF2B06D01B075B0F042B00D98C
:1058000000230CAA9377482264496F4C0B7B20003D
:105810005343C918843113F040FF0CAA1100230030
:10582000E78381C981C39C46180088C988C0634644
:1058300007990298A1830499A661D9772100343190
:105840000D70611CC8772100507E2931087020003E
:10585000917E2B3001702000D67E2D300670200006
:10586000167F333006702000069E28300670907F29
:105870002200002901D01A00230022610122210008
:105880006361524B32311A70039B0870039E3433AC
:105890001C782D363278A54201D1002A16D01D7011
:1058A00000233370A54202D0280007F0CDF8002075
:1058B000012D03D13078002800D0032012F0BAF96E
:1058C000A54203D00122424B52421A803020FEF7FB
:1058D00079F8404A404B104018800198FEF79EFE30
:1058E000FFF796FD0400FDF779FC2000FDF7A4FC0E
:1058F0003A4B002876D001221A70284B0221187BDF
:1059000007F040FF01200CF03DF90122344B1A70E2
:105910007FE0230029331A78002D00DABBE6AFB20E
:105920000021380006F0E2FD002800D1B3E6012294
:105930001C4B1A70E9E6002D05DD864200D8E4E62E
:10594000FDF766FCE1E6002D00D1DEE6864200D3DD
:10595000DBE6F5E718000840907658080840D07656
:10596000D806400F507658099B0908400B40107725
:10597000069336E7019B9B190E9339E7019B9B1B0E
:10598000FAE70022114B1A700022144B1A70029B86
:10599000BB423ED0B1E7C046D11E0020A81E002069
:1059A0008C0700203904002030040020411E002014
:1059B000FFFF00009C1D002003000020FFE0F50514
:1059C00040420F00D8AE0108E80300203C0400204C
:1059D00004000020FFFDFFFF3A0400203D040020EA
:1059E000881E00201870019A039B1A6001220B4B3D
:1059F0001A800B4B1A700598FDF76AFC15B0F0BDC4
:105A0000029BBB4200D078E7064B1B78002B00D0EE
:105A100073E70922014B1A80EDE7C0468E0700208C
:105A2000881E00203D040020F0B585B0041E0391BF
:105A300007D0324A324BD17F19700023D377314AD5
:105A4000137006F0E3FE06F0C9FB2F4B01932F4BBA
:105A50000293002812D0A02380220025DB055200EB
:105A60009A622B4B1D702B4B1D70019B1D70029B6E
:105A70001D7006F0BFFB28000BF04AFF0022264BEA
:105A80001E68264BF78B1F80254B1A70254B039AF7
:105A90001A70FDF731FDFDF7BBFB8023224DDB00C3
:105AA0009F4221D2214B187806F0DAFC002804D15D
:105AB000013006F0EDFC08F009FE002C03D0F38B5A
:105AC0001B4A2B601360FFF7C1FD1A4B2A681A604E
:105AD0003222194B1A800023184A1370019A13704E
:105AE000029A137005B0F0BD002C03D03368104A41
:105AF0002B601360FFF7D2FCE7E7C046AE1E002024
:105B000038040020000700201A1E00201B1E002061
:105B1000A41D0020900700209C1D00208C07002061
:105B200039040020411E002008070020D11E00205B
:105B300034040020040700208E07002053000020BA
:105B4000010010B50020FFF76FFF074B1B68023301
:105B5000DA7F1423002A00D0133B044A138000226A
:105B6000034B1A7010BDC0469C1D00208E070020FC
:105B7000530000200A4B10B51A68002A01D1094AC7
:105B80001A601868084A4118914206D913F02CFC93
:105B90000C2303600120404210BD1960FCE7C046A1
:105BA00098070020203100200040002070B506003A
:105BB0000D001400FEF720FE2A4B1B78002B1DD190
:105BC00029490B78002B19D00122284B1A70122E6C
:105BD00013D1002C11D1002D0FD0254B1A70254B5D
:105BE000254A1C701378002B01D10B7005E02D2184
:105BF000013BDBB21370214AD15470BD112E1DD070
:105C0000122E13D000230A2E1FD0AC42F5D1012052
:105C10001B4A174912780870002A1DD0172B1BD871
:105C2000184ADA40024217D00223DEE7164B002C56
:105C300002D044331B78E8E74333FBE7124B002CD8
:105C400001D04633F6E74533F4E79C42DDD020220D
:105C50000D4BFF329B5CD8E70C4A9B009B58984742
:105C6000CBE7C0465F1E00203E1E00201D1E002008
:105C7000791E0020570000208407002075070020AF
:105C80007A1E00202CDCF200A81E002034AF010890
:105C90000E4910B50A780E4B002A0AD10833D87F76
:105CA0000C4A10703D22DA7701230B70FEF78EFF4D
:105CB00010BD2221084AFF31595C12780833914205
:105CC00002D10022DA77F1E73D22FBE767070020E7
:105CD000A81E00206607002030180020BFF34F8F59
:105CE000034B044ADA60BFF34F8FC046FDE7C0465E
:105CF00000ED00E00400FA05F7B50190FDF710FA99
:105D0000E122424B424E52011A803378002B01D0DF
:105D100010F09CF8A0238022DB0552009A613D4BD5
:105D2000FF3A1A703C4B1B789B0701D5FEF74EFFDC
:105D300000223A4B3A4C9A563A4F3B4D002A1DD11D
:105D4000631DDB7F002B44D1FEF7AAFB3B68343395
:105D5000187806F079FE01980BF0DAFD019B022B12
:105D600002D03378002B4CD0304B1B78012B02D063
:105D700000200FF00FFB01232B70F7BD2834FDF737
:105D800047FA2378502B20D9294A1178002909D1C4
:105D9000503B1900FA235B004B4326499BB20B8012
:105DA0000123137000228020234BC0001A70234A65
:105DB000234B116819603968CB8B834200D30B6881
:105DC000136001221F4B1A70BEE70022194B1A8084
:105DD000E8E70634E17F4B424B413C205B42FF3019
:105DE0000340194869330380184B1A70002902D107
:105DF0000122174B1A700022164B1A7001232B70C8
:105E0000A2E70122144B1A70B5E7C046821E00209B
:105E10007A1E0020A41D00200C070020411E002037
:105E2000A81E00209C1D00208C1E00205F1E00204C
:105E30001B1E00208E0700205300002008070020B2
:105E400004070020000700201C070020520000204B
:105E50001C1E002085070020881E002010B5174B4F
:105E60001B78022B08D006F0D1FC01200BF08AFE33
:105E70000220FFF741FF10BD0022114B1A70114B99
:105E80001B785BB2934208D0FA210F4B490019806E
:105E90000E4B1A700E4B01321A7001200BF072FE7D
:105EA0000C4B0D4C1B78002B04D010F0BBFA0323D5
:105EB0002370E0E7094B1B78FAE7C046861E0020F6
:105EC00090070020411E00208E0700205300002074
:105ED0001B1E00207A1E0020570000205F1E00209D
:105EE0001E4B10B51B78D8B2002B09D11C4B1B7868
:105EF000002B04D00BF00CFD01221A4B1A7010BDC0
:105F0000194B1A78194B1B78134359424B411849C6
:105F1000DBB20978C8B2002905D0012A03D10021DB
:105F2000144B1970030014490978002912D0134941
:105F3000097801290ED1023A012A0BD80022104B10
:105F40001A70104B04201B78002B00D00238FFF78A
:105F5000D3FED4E7002BF4D1D1E7C0461E070020C2
:105F6000861E0020881E00201B070020411E0020E6
:105F70001A07002019070020180700201707002023
:105F8000160700209007002010B51A491A4B087810
:105F90001A781A4B00280FD0032A0FD0184A12780B
:105FA000D0B2002A00D108701B88164A9B18062B15
:105FB0001DD9FFF74BFB12E0032AF5D11B88114ACC
:105FC0009B18062B03D9104B1B78002BF1D10F4BDC
:105FD00004201B78002B00D00238FFF78DFE002331
:105FE0000B4A13700B4A13700B4A137010BDFFF766
:105FF00055FAF4E73D040020861E00208C0700209F
:106000001E07002000FCFFFF1B0700209007002058
:106010001B1E00201A1E002053000020F8B5C04CA3
:106020000E00657B002902D00122BE4B1A70237F2F
:10603000002B04D0022802D0FEF7DEFBF8BDBA4BDD
:106040001B78012B03D1B74B02221A70F6E71228F6
:1060500000D93DE2FCF764FC130016008D009300AC
:106060009900A500DC00DF00CA01D9013C02F30160
:10607000F3013C023C023C023C0218021802FEF70B
:1060800077FADBE7A94BAA491A68D38B5B18062B72
:1060900043D9FEF7B1FB231DDB7F002BD3D0A54BEB
:1060A0001B78002BCFD1A44B1B785BB2002B0BD0FD
:1060B000A24B1B78032BC1D1A14B1B78002BBDD069
:1060C000A04B1B88002BB9D08023627BDB005100E2
:1060D000605A9842B2D248235343E3181A008020F2
:1060E000B4321288C000121892B2A23362521A80DF
:1060F00006F08CFB944B1C68200006F079FB200016
:1061000006F062FA01200BF03DFD01238F4A138057
:106110008F4A13708F4A137090E7138E062B07D1A6
:1061200011698D480E68864202D88C4B0B6085E75A
:1061300001339BB21386042B17D1894B1B78002B9C
:1061400001D105331386138E8022D2009B180122C1
:106150009BB26D0063536519AB807D4B1A70814B08
:1061600092181A70804B00226FE7062BEBD90023A0
:10617000E8E701227B4B1A70FDF7FAF85EE701228F
:10618000784B1A70FDF794FB58E7FEF735FB0020BB
:106190000634764BE27FE0771A700CF093FB724B7B
:1061A00052E7002E04D111F053FD6F4B1E7045E7EE
:1061B00005F0F8FD051E00D040E75C4B1C6880230D
:1061C000E08BDB00984202D3FDF790F836E706F04B
:1061D000BFF8037801007F2B0AD97F221340037098
:1061E000E08B06F0A5F801225E4B1A70604B2CE79D
:1061F00022002E3213780133DBB2192B00D92B0089
:106200001370012321001A00E08B11F013FCEAE760
:10621000FCF76EFE12E7574D2B78002B02D010F0E2
:1062200079FE0BE7544A1378002B09D1611DC97F11
:10623000524B1970A11D524BC97F19700123137065
:106240000023504AA38413704F4A137006F0DEFAFD
:106250004E4A4F4E1378002B04D14E4B31781970B3
:106260000123137001274C4B38001F700BF08AFC80
:106270004A490A78002A05D141342078484B0F70EA
:10628000187022700124FEF750F802203470FFF7D6
:1062900033FD00231421434A1370434A1370434AC9
:1062A0001170C821424A89001180424A1470424A42
:1062B0001370424A1370424A1370424A1370424AA2
:1062C000137010F0F9FD414B414A188803234343F2
:1062D0001188994200D01380012010F07BFD01222B
:1062E0003C4B2A701A7000217F323B4813F0A6F80D
:1062F00080220021394813F0A1F88022002138487B
:1063000013F09CF800218022364813F097F8002201
:10631000354B1A7010F04CFA022005F053FD8DE653
:10632000A81E0020791E00205F1E00207C1E002079
:1063300000FCFFFF5A1E0020411E0020861E002088
:106340001A1E00208E0700209C1D002092070020AE
:10635000F4060020881E0020FFE0F50500E1F505A9
:10636000E40300206307002057000020E30300201F
:10637000F3060020371E0020E2030020E103002086
:10638000E00300208507002052000020DF030020EA
:1063900090070020DE0300201C1E0020DD030020EB
:1063A000DC030020470500204B05002001000020F1
:1063B0000C00002000000020DB030020DA03002096
:1063C00056060020D9030020D80300201E0000201C
:1063D0001000002057060020931B0020131C0020F3
:1063E000931C0020131D00201D080020002E02D148
:1063F000FFF74EFC22E60121394B1B682B331A783C
:106400004A401A70374B198018E6002E02D1FEF769
:106410002DFC13E6260000224A361100308806F0D3
:1064200065F8002800D109E632882B1D5B006D005D
:10643000E252625301222C4B1A702C4B04E62C4B77
:106440001B785BB2002B0BD00B2806D10A3806F064
:106450001FF808F03BF9274B85E601204042F6E79C
:10646000254AE37D11780A2900D113700B2807D142
:10647000082B01D80133E37501221C4B1A70EAE79F
:10648000002BF9D0013BF6E7154B1C4D1968002392
:106490000C000834E27FEE5C964203D00133182BE7
:1064A000F9D10023122803D1172BD4D0012202E006
:1064B000FF22002BCFD0D218D2B2AB5C104AE377C8
:1064C000CB8B9B18062BD7D80122064B1A80D3E71B
:1064D000FEF792F9002E00D1B0E50122094BB4E598
:1064E0007C1E002092070020F40600206307002095
:1064F000411E00201D080020020000204AAC0108B7
:1065000000FCFFFF791E002010B514220021024874
:1065100012F094FF10BDC046621E002070B5414BC2
:1065200004001B78A0B0002B40D005F057FE051EDC
:106530000BD103200EF02EFF3B4B1D703B4B1B7805
:106540005EB2002B03D00FF069FD20B070BD384A59
:10655000384B394D002C25D001216846117080221E
:10656000FE311E7012F06AFF330080226946334804
:10657000FEF746FD6022FF21314812F05FFFAB7D40
:10658000304A9B075B0F9D5A2F4B07201D800FF051
:1065900023FC2E4B000918802200012128000FF057
:1065A00005FDD2E714701C70AD8AEDE705F0FAFB2B
:1065B000041ECAD11C4B1870254B1870FFF7A4FF9E
:1065C00006F024F9200000240EF0E4FE214B1C57B5
:1065D000002C16D08022204BD2001B88934202D37D
:1065E000FDF704F9B1E7012005F052FF08F06EF85D
:1065F00007F068FD2000FFF7A3FA0122174B1A707D
:10660000A3E7174B1B685A1E9341164A01331370B8
:1066100007F058FD01210800FFF706FA124B1C7025
:10662000EBE7C0467A1E002090070020401E0020A5
:106630000A1E0020061E0020A81E002028A0000020
:10664000A61D002014B10108A01D0020A21D0020DD
:10665000771E0020411E00208C0700208C1E002089
:1066600088070020E01E00208507002010B50120CB
:10667000FFF754FF10BD00000F2210B500210448A1
:1066800012F0DCFE0022034B1A70034B1A7010BD8F
:1066900075070020840700203E1E0020114B70B5B6
:1066A0001B78002B03D1104B1B78002B07D0FFF772
:1066B000E3FF00220D4B1A700D4B01321A700D4B87
:1066C0000D4C1B780D4D002B03D123782A781343F2
:1066D00007D0FEF791F8002301222B702370044BA2
:1066E0001A7070BD3E1E0020840700205700002055
:1066F000881E00201D080020801E00207B1E002018
:1067000010B51D4B1B78002B03D11C4B1B78012BA4
:1067100007D1002921D100281FD00222184B1A705E
:106720001BE0002915D1002818D1164A1278002A3A
:1067300001D1002B01D0032B0FD10123124A117874
:106740004B40137002D01022104B1A70104B0122D4
:10675000E5E7002801D0FCF7F3FD10BD084A032B44
:1067600002D001231370F8E70A4B1B78002BF8D0F6
:1067700002231370084BEAE77B1E00205F1E0020F7
:10678000791E00207A1E00201D080020801E002097
:106790008C1E0020401E00201D1E00200022404BA9
:1067A00070B51A70904203D03E4B1B78934212D0C2
:1067B0003D4B1B78012B0DD10024FCF79BFF3B4B7D
:1067C00020001C7006F0ECF9394B1B78012B01D02E
:1067D000384B1C7070BD05F0E5FA354D002807D028
:1067E0000CF000F9344B1B78002B2ED0334B2AE0F1
:1067F000334B1B785BB2002B02D0FCF7F7FFF1E7BD
:10680000304B1B78002B05D00FF008FC0322294BDE
:106810001A70E7E72B78032B14D0234A1278012A49
:1068200003D1294A1278002AD4D0012B02D00022A9
:10683000204B1A702549264B09781A78002915D162
:10684000002A1AD1234B01221A700022224B1A70FF
:106850002B78012B04D0174B1978032900D01A701C
:1068600001221E4B1A701E4B1A70B3E7002A04D186
:106870001C4A1278002AE5D01A701A780E2A01D91B
:106880000E221A7000261B78164A174C17491370EF
:1068900020000E22CE5412F009FFA673D2E7C046A4
:1068A0007B1E0020291E0020861E00200E1E0020B8
:1068B0005F1E0020570000203C1E0020F80600202C
:1068C000411E0020401E0020FE0600203E1E00202B
:1068D0008407002094070020C80400208C1E00209C
:1068E000881E0020E5030020E81F00207507002017
:1068F000F0B5B94F04003B780D00160085B0132B9E
:1069000007D0A34203D1002D01D113233B7005B062
:10691000F0BDB24A1278002A0FD0002901D1102808
:106920000AD1FCF7FDFBFEF751F9102C05D000222F
:10693000AB4B3C701A70EAE71C00AA4F3B78132B54
:10694000DFD1002D00D135E1A74B1B78002B00D102
:1069500030E1FCF7E5FBFEF739F9102CE7D1A34B4A
:1069600002931B78052B02D100200AF0D1FFFA22F6
:106970009F4B92001A809F4B01939F4B19780029DF
:1069800003D01E224A439D4B1A70002D00D06DE1AA
:106990009B4F3B78002B02D007F0F4F83D70994FE5
:1069A0003B78002B03D007F027F900233B70964F6C
:1069B0003B78002B03D007F0B7F800233B70934FD0
:1069C0003B78002B13D0924B1A68019BD08B597BDC
:1069D000012307F009FB00233B7005F0E3F90028D1
:1069E00005D18C4B1A78002A01D101321A7000228D
:1069F000894B1B78934207D0884B1B78934203D175
:106A0000874B1A7853425A417A4F7B7E002B01D133
:106A1000002A04D0029B1B78013B591E8B418149FF
:106A20000978002900D05AE1002B00D185E1102C13
:106A300000D056E17C4B1A780192002A05D00196CD
:106A4000002D02D11D7001230193784B03931B7815
:106A5000002B05D0102C01D00D2C01D1FDF7CCFE60
:106A6000019B002B11D1029B1B78012B00D009E266
:106A70006F4B02931B780193002B00D0C2E1102CC6
:106A800000D06FE12800FFF789FE554C20780028E0
:106A900003D005F097F900232370664C664A2378EB
:106AA0000192002B09D02822644B1A800BF0D0F9F8
:106AB0000123019A137000232370614C2378002B6B
:106AC00009D0002E00D058E307F096F800230122E9
:106AD00023705C4B1A705C4B1A78002A06D0002297
:106AE0001A70964200D04CE307F01EF8574B1A7804
:106AF000002A06D000221A70964200D045E307F023
:106B000041F8534B434F03931B88524C0293002B85
:106B100023D0002E01D1002D0AD009F029FA404BD4
:106B20001B78002801D0012B02D0022B00D030E3CB
:106B3000374B30491A686B46497B1B7AD08B07F07C
:106B400053FA05F02FF93B78002803D1002B01D12F
:106B500001333B700023039A13803D783E4E002D95
:106B600000D124E33D4B02931B78002B00D11AE3A4
:106B70002900002006F006FE2900012006F002FE92
:106B80002378FF2B01D100232370012333700023CE
:106B9000029A3B70137005F039FE01200AF0F2FFF3
:106BA000002333702E4B1B78002B00D103E3FFF73B
:106BB00055F900E30D2C00D0D1E62A4B1F78002FA9
:106BC00000D0CCE6284BDB7F002B00D1C7E6FDF7D9
:106BD000FDFF034B1F709AE62B000020561E00207D
:106BE000791E00202A00002020070020861E002099
:106BF00050000020A81E0020E61E00203F1E00209E
:106C0000FD060020FC060020FB060020FA060020FE
:106C10007C1E002063070020321E00202E1E002054
:106C20005F1E0020F9060020F80600201D08002045
:106C300095070020F7060020F6060020601E0020C1
:106C4000700700208C1E0020F5060020F4060020AE
:106C5000920700205700002074070020F306002050
:106C6000900700202F180020B01E002009F080F9A6
:106C7000B64F102C03D1B64B1B78DB0727D53B78DA
:106C8000012B04D1132804D01538012801D9FDF7B0
:106C90009DFF0D2C1BD1002E19D0AE4B1B78002B65
:106CA00007D0FFF731FC0022AB4B1A70AB4B01321F
:106CB0001A70FFF7F3FC0122A94B1A70A94B1B783D
:106CC000002B01D0FFF7CAF80022A74B1A603B78CF
:106CD000012B00D08BE62822A44B1A8087E6002BDC
:106CE0002BD00D2C0DD1002D00D110E6002A00D1A3
:106CF00082E201209E4B1870984B187005F062F8E4
:106D000005E60F2C0DD1002D00D100E6002E18D184
:106D1000022005F057F80422964B1A708F4B033A65
:106D200008E62300113B012B1AD90A2C00D05FE2A0
:106D3000002E15D1002DEBD0E9E5092C01D90F2C3F
:106D40000BD18D4B1B78002B0AD0002D00D1DEE536
:106D5000002E00D0DBE50220D0E7102C00D169E640
:106D6000864B68E6FE230293112C06D02000FCF728
:106D700037FB0290FF2800D187E6002D0CD1A0231D
:106D80008022DB0552009A627D4B28001D70FDF7C2
:106D900049FBFDF785FA78E6002E00D075E63B004A
:106DA0007A331B78002B07D0A0238022DB0552000A
:106DB0009A61734BFF3A1A70FDF772FA029B7A37A9
:106DC000FE2B04D138786F49FDF7EAFF5DE63C7889
:106DD000FDF7B2FAFDF7BEFA002C01D003230193B0
:106DE0000198FDF741FA68497020FDF725F8FDF795
:106DF00031FB6648FDF758FE0298FDF771F9FDF783
:106E0000B1FA42E6B54200D13FE6019B032B02D026
:106E1000002D00D139E6A0238022DB0552009A62C2
:106E20000022574B1A700223019A9A43012A01D17A
:106E30000BF0B8FB00235022029955480B70554BBC
:106E40001A80FDF731FE01200AF09CFE3F4B1B78B3
:106E5000012B02D00022504B1A704237387800289C
:106E60000BD10AF055FD01234C4A102C03D0434AA4
:106E7000002E00D009E6137007E60A224243484B71
:106E80001A70F0E7474B364A02931B780192002BA9
:106E90001BD12E4B1F78FF2F09D02300113B012B54
:106EA00000D959E1039B1B78002B00D054E104F07A
:106EB00079FF002800D057E1042F00D154E13200BF
:106EC00029002000FEF772FEDFE5002E00D0DCE591
:106ED000002D00D1D9E5102C33D00122019B1A706E
:106EE0000C2C06D80A2C25D866D00223019A1370E0
:106EF00027E00D2CF9D1FDF721FF2B4B1B78012B3F
:106F00000DD12A4B2A4A1B88934208D0787B022154
:106F1000021D5200BB524200BB5206F033FC05F08A
:106F200075FC01200AF02EFE00200EF033FA00233B
:106F3000029AA0E701211C4A13784B4013701D4BA5
:106F40001E700122054B1A709FE5C0465F1E00208F
:106F50000C070020621E0020771E0020881E0020E3
:106F6000791E00209007002088070020601E002066
:106F70002E1E0020891E00205A1E00201D1E0020EB
:106F8000A41D0020D6060000C3C3000050C30000AB
:106F900088130000121E002057000020F806002071
:106FA000FE060020531E0020F206002028000020CC
:106FB000FFFF0000F1060020924C93492000934A05
:106FC00005F0EAFB230001222D331A702300200074
:106FD00029331A7005F0F8FA8D4B01201C608D4B97
:106FE0001C608D4B1C600AF0CDFDFDF7E5F9FDF747
:106FF000A5FE8A4B1B78002B00D0A1E0884F4622CB
:107000000021380012F01AFA864C874B8749884ACB
:1070100023804B7BA2800222A27146325A438B18F6
:107020001800843000880192208118008630008882
:10703000608118009C3002884088A281E08118009D
:1070400089300078B222207418009130007894467C
:1070500060741800883000789C44A0741800903048
:1070600000786246E0741800B83000782075180087
:10707000A430007860751800AC300078A075180056
:10708000B7300078E0751800AD3000782076180031
:10709000B1300078127860761800AF300078A076B2
:1070A0001800B6300078E0761800AB3000786077D2
:1070B0001800B0300078A0771800B4300088E0776E
:1070C000601CC27718008022B930A23300781B8878
:1070D000F877D200574893422BD2190006F02CFBC8
:1070E000422138000EF0B0FB0627A31DD887524B73
:1070F00020200834E3870FF045FB504C277007F041
:10710000FBFBFDF7D9FB05F0ABFB10F04DFC882134
:107110003620FCF791FE00210120FDF71FF805F055
:1071200075FB01200AF02EFD01232370444B1F70D4
:1071300007E7019ABA325118102212F0AEFACFE7DF
:1071400002223E4B1A703F4B033A1A8000223E4BFC
:107150001A70FDF705FEF4E63C4BBF003200290033
:107160002000FB58984790E4002E00D08DE4002DBD
:1071700000D18AE40223019A7DE60122344B1A7081
:10718000A4E40122334B1A70B0E40122324B1A708E
:10719000B7E40122314B1A702378FF2B00D0D9E4D9
:1071A00000232370D6E4214B2900587BE6E4337892
:1071B000002B00D0EFE4019B1B78002B07D00023AD
:1071C000019A13702822264B1A8008F0DFFE254D05
:1071D0002B78002B03D00BF0D5FA00232B702078EE
:1071E0000EF0D8F8FF23012223701F4BFFF7A2FBFC
:1071F000002D01D1FFF78BFB002E01D0FFF787FB9D
:1072000086E5C046600600200504000090FE960258
:107210009C1D00207C1E0020981D0020F2060020EE
:10722000AA060020A8060020CDABFFFFA81E002064
:10723000A5BEFFFFCA060020BADCFFFFF106002052
:10724000791E002028000020F006002008AF010869
:10725000FC060020FB060020FD060020FA060020A8
:10726000601E002094070020881E002000221020AD
:10727000110010B5FFF73CFB0022064B1A70064BBD
:107280001B78132B02D0054B01321A70FDF7E8FB77
:1072900010BDC0463C1E0020580000201D1E0020CE
:1072A000F0B5534B9BB002931B780093052B00D095
:1072B000C4E0504B1B78002B00D1BFE04E4B197837
:1072C000002900D090E24D4B1B78002B01D001F03B
:1072D000EFF94B4A4B4B147800932700781E8741F7
:1072E0001B78FFB2002B02D00021009801704649A4
:1072F0000D78002D01D101F0D3FA002B03D1002C21
:1073000000D013700027414B1B78032B01D001F0F4
:107310009AFA3F4A13780133DBB2072B01D801F008
:107320009AFA00201070FDF7DBFA2B00002F01D035
:1073300001F0BEFA002B01D001F0C3FA354D2B78D5
:10734000002B05D0344B1B78002B01D001F000FE40
:10735000324B1B78022B01D001F0B8FA304B1B885E
:107360001B0705D180232F4A9B0151694B40536174
:107370002D4A1388002B01D0013B13802B4A138820
:10738000002B01D0013B1380194B1C78012C0ED12E
:10739000274B187800280AD00138C0B2187000288E
:1073A00005D10AF0B5FA164B1C70009B1C702B78A7
:1073B000002B0DD01F4A1388002B09D0013B9BB234
:1073C0001380002B04D10FF02DF803200DF0E2FF05
:1073D00004F0E8FC002801D101F023FB164E3378BD
:1073E000002B01D101F0F4FA013B337001F019FBDD
:1073F000861E0020151E0020371E00205E0600207D
:107400008C1E0020881E002020070020210700205D
:107410001F0700207A1E00205E1E0020EC040020C2
:107420002C1E002000080050121E0020101E0020FC
:10743000FE06002072070020E804002004F0B2FCE1
:10744000002800D03AE70C20FCF7BCFA01231842D0
:1074500000D133E700210220FCF7EEFC0220FCF70C
:10746000B1FA082307043F0E04001F4226D00B2068
:10747000FCF7A8FA0005000FFBF7B2FF0600FF2893
:107480001CD0009B012B19D0B54B1B78002B15D0BD
:10749000B44D2800FBF71EFA0200132804D128007F
:1074A000B14912F0D3F812220023AE54AD180C22C9
:1074B0006B70AE4B1A70AE4B0B3A1A707B0702D54D
:1074C0000122AC4B1A7001231F4209D00122AA4BA2
:1074D0000C201A70FCF776FAA84B800BC0B218701B
:1074E000BB0702D50022A44B1A70E5B2630602D591
:1074F0000122A34B1A70240602D50022A04B1A7059
:10750000EB062AD501229F4B1A709F4B09321A8035
:107510009E4B9A7F002A20D0009A052A08D19C4AC7
:107520001178002904D114209A4A10809A4A1170C7
:107530000533DB7F002B10D0984A994B1178002936
:1075400002D11988132908D8142119800023137037
:10755000944A13700122944B1A70AB0604D5002292
:10756000884B1A70884B1A806B070AD501228F4B03
:10757000110005201A70FCF7F1FDE1228C4B52013D
:107580001A8008231D4205D00021884B0520197060
:10759000FCF7E4FDFB063CD5864B1C78042C38D167
:1075A000854B1B78012B34D1844B1B78002B30D1B9
:1075B000834E5F203378013CDAB20133DBB23370A3
:1075C0000192FCF7FFF9019B7E4D5B00E852002C15
:1075D000EED13378232B1CD90122654B0B2034705C
:1075E0001A70FCF7EFF90600FDF7BAFBF60609D4AE
:1075F0002A88754B9A4205D12B000833DA8F734BDA
:107600009A4272D0FDF79AFBFDF7AAFB70480FF083
:107610001BFE30231F4200D115E76E4B1B78002B59
:1076200000D110E76C4B1B78012B00D00BE76B4BA4
:1076300001931B78022B02D0052B00D003E7042511
:107640005F4CBF0602D523782035ED1A0026AE42E6
:107650006DD123780123464E33702378232B00D835
:10766000F1E6237800230B202370FCF7ABF905002B
:10767000FDF776FB2C0010231C401D4267D1514DB5
:10768000514B2A889A4262D12B000833DA8F4F4B34
:107690009A425CD120200FF075F8AB1D4221504872
:1076A000DF8F0EF0D1F8874251D1EB88AA881B04F6
:1076B00013434C4A1B021B0A934248D18025ED001C
:1076C00000222000110004F011FF071E01D101F07B
:1076D0009DFC0134A4B2AC42F2D10423019A137090
:1076E000033B3370FDF72AFBADE622200FF04AF88A
:1076F00042213B480EF0A8F8AB1DDB8F834200D03F
:1077000084E76D880EF00EFF8188A3B2994200D8FD
:107710007CE7062363430268D618D35AAB4204D8E9
:107720007388AB4201D901F0ECFC0134EDE75F2036
:10773000FCF748F9224A1378232B06D81378591CF2
:10774000C9B211701F4A5B00985201367FE70523CA
:10775000019A1370043B3370FDF738FA73E6C046A4
:107760005C060020621E0020631E0020771E0020A1
:10777000881E00201107002018070020170700208E
:107780001A0700200F1E0020101E0020A81E002037
:10779000151E0020541E0020161E0020520000203E
:1077A0001C070020850700208C1E00201E070020DB
:1077B000821E00205F1E0020961D00205D06002016
:1077C000F0060020A8060020CDAB0000BADC0000C7
:1077D0005A060020531E0020F2060020F106002069
:1077E000AA060020A5BE0200B64A1378022B01D0DB
:1077F00000F03FFDB44C2378002B67D0013B237091
:10780000B24F3978002900D0B8E1052206A811F05E
:1078100015FEAF4EAF4C33782078002B00D196E2A6
:10782000AD4F3B78034300D091E22622AB4BFF32B1
:107830009D5C2822FF329B5C5A1E312A00D91423FA
:107840003221A7485943FBF775F883B284460320D9
:1078500001005943A34A89B21380A34A1180A34A65
:107860001380A34A009262465043009A4008108059
:10787000A04A118007214B439F4A138005232370A0
:107880009E4B1A689E4B1A8000239E4A3B701370D1
:107890009D4A13709D4A13709D4A13809D4A137030
:1078A0009D4A13709D4A337013609D4A13609D4A30
:1078B00013709D4B9D4A1978002903D01178A94275
:1078C00000D16AE1157001221A7066E1984D28789E
:1078D0000138052800D9D9E0FBF70EF80305BFD71A
:1078E000D7DA02232B70934B1B68002B00D198E052
:1078F000914A12789B5C002B00D192E08E4B8D4A0E
:107900001B781268D35C2E2B00D09CE08B4B01209F
:107910001988FDF745FA8A4B18880A21FBF70AF8FF
:1079200020700322824B1A700EF042FF654B1B78C9
:10793000022B00D164E7834B1B78002B00D0C8E4F6
:10794000C1E4059B9B5C1F00613F192F22D8203B9F
:10795000DBB200200090039F0098BC46C0003F5C53
:1079600084449F4237D163465B68002B39D10800BD
:107970000B000132019FD5B2AF42E2D8002804D0FB
:1079800000216D4A11706B4A1160002B39D06E4B8B
:107990001D7036E0202BDCD1049B002BE8D0002E9C
:1079A000E6D1019F531C9F42E2DD002803D0624BC9
:1079B0001E70604B1E600123029A0A21137005227B
:1079C0005B4B01351A70614B1888FAF7B3FF5E4BB9
:1079D00020701D7014E70098013000903628BAD14D
:1079E000C5E718780028C2D00021534A013511702C
:1079F000504A13600122544B1D70554B1A70554B61
:107A000019704C4B1868002806D0FAF763FF4A4BF0
:107A10001B78834200D271E70622454B1A704E4B09
:107A20002AE000204D4B4E4D1B7805950193484BA5
:107A30004C4D1B7803950493464B1E780293424BA2
:107A40001A78030096E72D2B00D06AE73B4B012004
:107A50001988FDF7A5F9444B5EE7FCF77BFC364A35
:107A600013780133DBB21370324A1268D35C002BF7
:107A700008D002232B703D4B18880A21FAF75AFFD1
:107A80002070BDE604232B70C9E702232B70B7E6F4
:107A90000026267001240D4B14701E702E70FCF70A
:107AA00075FC029B30001E7009F032FF304B300035
:107AB0001E70304B1E7005F073F804F0A7FE2E4BBD
:107AC0001C7031E757060020A5050020DF050020C7
:107AD00017000020BD050020BC050020A81E0020C6
:107AE00060EA0000D2050020D0050020CC0500206F
:107AF000B6050020C6050020BE050020D8050020E0
:107B0000CE050020D4050020BA050020B2050020D3
:107B1000B4050020B1050020B0050020AC05002010
:107B2000A8050020A6050020BB05002016000020A7
:107B3000A4050020A00500209C0500200C000020CA
:107B40001E000020371E00204805002014000020E1
:107B50004A050020490500201200002047050020AA
:107B60004B050020A0AC0108100000200E000020F2
:107B7000FF060020FE060020881E0020C14B08A83A
:107B80001C680EF0E5FF06AB1B7A002B03D106AB99
:107B90005B7A002B3ED00EF01DFFBB4C2378012BEF
:107BA00000D05FE3FCF7D6FB02232370B54B1A68C5
:107BB000B64B1A80B34BB54A1B6811885B1A9BB24F
:107BC000C72B00D8B7E60025AF4BB14C15801D7010
:107BD0002570FCF7BFFB29005120FCF72DF9280088
:107BE00009F0D0FF280009F093FEAA4B28001D7071
:107BF000257004F0D5FF04F009FEA74B1B78AB42BB
:107C000002D00220FEF778F80122A44B1A700EF081
:107C1000CFFD90E6A24EA4B2307801380328BCD83C
:107C2000A04DFAF769FE021445899F4B1B78002B83
:107C30000BD09E4B1A882B88E31A9BB2934200D23A
:107C400001E302232C803370A7E7994BF2E72B88DE
:107C5000984AE31A12889BB29A429ED8964A1378A1
:107C60000133DBB21370954A12789A426CD9012025
:107C7000934A8D4912782C801A41030093430B706C
:107C80003070002201248F4B7F4D1A80804B1C7076
:107C90002B78934200D0CDE2A0230132DB05FF32E6
:107CA00089489A61FCF700FF0AF06CFD2C7042E6EF
:107CB0002B88864AE31A12889BB29A4200D96CE755
:107CC000834A84491388098899420ED8824B1B78CD
:107CD000002B00D15FE72A22804BFF329B5C002BF8
:107CE00000D158E700233B70ADE77D4F0133397871
:107CF000002013800EF084FE0023032279493B709C
:107D0000100058434718085C00280FD1B9786C4B15
:107D10007A781970694B2C801A700122664B327088
:107D200018701000604B88431870AAE701332D2BA0
:107D3000E6D132702C8030E72B886B4AE31A128828
:107D40009BB29A4200D928E703233370F2E7052853
:107D500003D0664B1B78002B02D1002323701CE755
:107D600026235E4EFF33F15C01250B00454F2B406F
:107D70003A68294211D05E4A137809070AD45D494E
:107D80005D4809690140814204D0002B00D05AE2CD
:107D9000157076E700211170FFE693214900715CB0
:107DA000032900D0D3E008AE30000EF0D1FE534DD1
:107DB0003C682878A4B2052800D9EEE6FAF79CFDC5
:107DC000031A2F4656B37378002B02D003232B706F
:107DD00057E73378002B00D1DFE6494B14221C8093
:107DE000484B1B7859424B415B421A40464B1A8024
:107DF0000123ECE7424E2D4B434F32881B883988D4
:107E0000A21A5B1892B29BB29A4200D21BE20020E7
:107E10000EF02CFE00233B80022334800AE07378AE
:107E2000374A002B01D01480D0E73378002B03D1E0
:107E3000148004332B70B0E613881E49E31A0988B6
:107E40009BB2994200D9A8E61480D1E77378002B41
:107E500000D0F8E12A4E174A33881288E31A9BB201
:107E60009A42D9D801200EF001FED5E77278244B52
:107E7000002A01D01C80A9E73278002A46D01C8055
:107E8000B6E7C046D8050020DE050020DC0500204E
:107E90003C1E0020FF06002090070020570600200F
:107EA000D5050020CE050020D4050020D2050020F5
:107EB000D0050020CC050020CA050020C9050020FF
:107EC000C8050020841E0020204E0000C6050020AA
:107ED000C4050020C2050020C1050020A81E002006
:107EE000C005002050AE0108BE050020BB050020E3
:107EF000B20500200008005000040004BC0500206A
:107F0000B4050020A41D0020B80500201B88BD4A30
:107F1000E31A12889BB29A4200D93EE602200EF084
:107F2000A5FD052386E77278B74B002AA2D13678E3
:107F3000002EA4D11B88E41AB44BA4B21B88A34220
:107F400000D92AE603200EF091FD2E7025E695B2A9
:107F5000042800D902E7FAF7E3FC050034007B00AF
:107F6000C900260106A80EF0F3FD06AB1B7806AA91
:107F70005278002B15D1002A00D10EE6A44A1370C6
:107F80000022A44B1A70A44B14321D80A34B1B7803
:107F900059424B415B421A40A14B1A800123237086
:107FA0006FE6002AEAD093235B00F25C263BFF3B9E
:107FB000022A03D106AA12795340DFE7944A1278C5
:107FC000FAE7934B1F78974B002F00D1964B1B88F5
:107FD0000193914B02931B88EB1A9BB200938D4B3C
:107FE0001B78002B10D106A80EF0B2FD93235B0086
:107FF000F35C002B1DD1002F18D006ABDB78002BD3
:1080000002D00122834B1A70854A019913885B18AC
:108010000099994200DA16E1002301201380029BA7
:1080200078401D800EF022FD022397E606AB9B7878
:10803000E5E7012BE8D1002F07D17A4B009A1B8886
:108040009342F3D806AB1B78D9E706AB5B78D6E74B
:10805000714B00931B88EB1A9FB26E4B1B78002B61
:1080600012D106A80EF074FD93235B00F35C022B83
:108070000AD0674B1B78002B14D006ABDB78002BA3
:1080800002D00122634B1A70684B1B88BB4200D997
:1080900083E5604F3A78002A07D05D4B19780123B9
:1080A0004B4010E006AB9B78E9E706A80EF050FDC8
:1080B00006AB1B7806AA5278002B04D0002A01D008
:1080C00000F073FF1A00002139708A420CD0009A28
:1080D00006A81580012222704D4A13700EF038FD5B
:1080E000CFE54B490978DBE7032337E64A4F3B8866
:1080F000EB1A9BB20093434B009A1B88934246D9DC
:1081000006A80EF025FD06AB1A780123002A01D13E
:1081100006AB5B7846490098098881421AD9002B42
:1081200000D13AE506AB5B783949002A04D0002B30
:1081300004D10A703D8031E7002BFAD193235B0014
:10814000F35C0122022B03D106AB1B795A40F0E706
:108150000B78FBE7002B00D11FE52E490B78002B95
:1081600000D01AE501330B7093214900705C284957
:1081700002280AD1002A08D006A84078002804D096
:1081800006AA127953400B7007E50A7005E5022034
:108190000EF06CFC1F4B1A78002A02D000221A70D5
:1081A000C8E70423DAE51C4F06A83B8801930EF0CC
:1081B000CFFC06AB1B78002B04D106AA52780092A4
:1081C000002A11D093225200B25C022A09D1002B5E
:1081D00007D006AA5278002A03D006AB1A790123E9
:1081E00053400B4A1370A5E7019BEF1A074BBFB230
:1081F0001B88BB4200D9D0E403200EF037FC009B63
:10820000ACE5C046C6050020B4050020BE05002030
:10821000D4050020BA050020CE050020A41D0020B2
:10822000B8050020D2050020D0050020CC05002094
:10823000B6050020022B01D0FFF77DFBC34B2C704D
:108240001A80FFF778FB01220021C14B1A70C14B45
:108250001980C14B1978022900D11A70BF4B1A68D6
:10826000BA4B1A80BC4B1B78022B01D0FFF763FB83
:10827000A0E4BB4B1A78002A04D1013202201A7004
:10828000FDF73AFDFCF704F9B64AB74B1268B74957
:10829000128E9A560B78002B14D0B54B1A78501CBE
:1082A0001870312A02D900220A701A70B1490B786D
:1082B0005A1ED2B2FD2A01D9FFF73DFB01330B70E4
:1082C000FFF739FBAC4C4308A03A9B18AB4E207823
:1082D0009AB201921BB20022B75E00280DD0BB42B9
