:020000040800F2
:1028000000400020C9AC010865390008673900089C
:1028100000000000000000000000000000000000B8
:1028200000000000000000000000000069390008FE
:1028300000000000000000006B390008D5D8000837
:1028400019AD010819AD010819AD010819AD01084C
:1028500019AD010819AD010819AD010819AD01083C
:1028600019AD010819AD010819AD01088D52000814
:1028700019AD010819AD010819AD010819AD01081C
:1028800019AD010819AD010819AD010819AD01080C
:1028900019AD010819AD010819AD010819AD0108FC
:1028A00019AD010819AD010819AD010819AD0108EC
:1028B00019AD010819AD01080000000015910108CB
:1028C00002780B78002A03D0013001319A42F7D008
:1028D000D01A70470023C25C0133002AFBD1581E76
:1028E0007047000002B47146490849000956490082
:1028F0008E4402BC7047C04602B471464908490084
:10290000095C49008E4402BC7047C04603B471465E
:10291000490840004900095E49008E4403BC7047E5
:1029200003B47146490840004900095A49008E44E1
:1029300003BC7047002243088B4274D303098B42C7
:102940005FD3030A8B4244D3030B8B4228D3030C7F
:102950008B420DD3FF22090212BA030C8B4202D321
:102960001212090265D0030B8B4219D300E0090A49
:10297000C30B8B4201D3CB03C01A5241830B8B4252
:1029800001D38B03C01A5241430B8B4201D34B033B
:10299000C01A5241030B8B4201D30B03C01A5241A0
:1029A000C30A8B4201D3CB02C01A5241830A8B4225
:1029B00001D38B02C01A5241430A8B4201D34B020E
:1029C000C01A5241030A8B4201D30B02C01A524172
:1029D000CDD2C3098B4201D3CB01C01A5241830926
:1029E0008B4201D38B01C01A524143098B4201D360
:1029F0004B01C01A524103098B4201D30B01C01A8B
:102A00005241C3088B4201D3CB00C01A5241830804
:102A10008B4201D38B00C01A524143088B4201D331
:102A20004B00C01A5241411A00D201465241104691
:102A30007047FFE701B5002000F0F0F802BDC04686
:102A40000029F7D076E7704703460B437FD4002276
:102A500043088B4274D303098B425FD3030A8B4232
:102A600044D3030B8B4228D3030C8B420DD3FF229C
:102A7000090212BA030C8B4202D31212090265D06A
:102A8000030B8B4219D300E0090AC30B8B4201D31D
:102A9000CB03C01A5241830B8B4201D38B03C01A64
:102AA0005241430B8B4201D34B03C01A5241030BDB
:102AB0008B4201D30B03C01A5241C30A8B4201D38C
:102AC000CB02C01A5241830A8B4201D38B02C01A37
:102AD0005241430A8B4201D34B02C01A5241030AAE
:102AE0008B4201D30B02C01A5241CDD2C3098B4293
:102AF00001D3CB01C01A524183098B4201D38B0110
:102B0000C01A524143098B4201D34B01C01A5241B2
:102B100003098B4201D30B01C01A5241C3088B42F7
:102B200001D3CB00C01A524183088B4201D38B00E2
:102B3000C01A524143088B4201D34B00C01A524184
:102B4000411A00D201465241104670475DE0CA0F5B
:102B500000D04942031000D34042534000229C461B
:102B600003098B422DD3030A8B4212D3FC22890125
:102B700012BA030A8B420CD3890192118B4208D3FB
:102B8000890192118B4204D389013AD0921100E05D
:102B90008909C3098B4201D3CB01C01A5241830971
:102BA0008B4201D38B01C01A524143098B4201D39E
:102BB0004B01C01A524103098B4201D30B01C01AC9
:102BC0005241C3088B4201D3CB00C01A5241830843
:102BD0008B4201D38B00C01A5241D9D243088B4299
:102BE00001D34B00C01A5241411A00D2014663463C
:102BF00052415B10104601D34042002B00D54942A0
:102C0000704763465B1000D3404201B5002000F0DE
:102C100005F802BD0029F8D016E770477047C04696
:102C20001C2101231B04984201D3000C10391B0AFC
:102C3000984201D3000A08391B09984201D30009C0
:102C4000043902A2105C40187047C0460403020217
:102C50000101010100000000000000000448054BD4
:102C600010B5834203D0044B002B00D0984710BD11
:102C7000F8000020F8000020000000000648074986
:102C8000091A8B10C90FC91810B5491003D0044B8D
:102C9000002B00D0984710BDF8000020F80000205D
:102CA0000000000010B5074C2378002B09D1FFF776
:102CB000D5FF054B002B02D0044800E000BF0123E4
:102CC000237010BD600200200000000074C00108E5
:102CD000054B10B5002B03D00449054800E000BFA8
:102CE000FFF7CCFF10BDC0460000000064020020CA
:102CF00074C00108054B82B0DA6B0243DA63DB6B08
:102D000018400190019B02B07047C046001002407D
:102D1000054B82B01A6C02431A641B6C1840019078
:102D2000019B02B07047C04600100240802130B5C0
:102D300080240822454B49009962A40045B2002D29
:102D400000DA81E09C62C046C046C046C046C0462C
:102D5000C046C046C046C046C046C046C046C04643
:102D6000C046C046C046C046C046C046C046C04633
:102D7000C046C046C046C046C046C046C046C04623
:102D8000C046C046C046C046C046C046C046C04613
:102D9000C046C046C0469961C046C046C046C0460F
:102DA000C046C046C046C046C046C046C046C046F3
:102DB000C046C046C046C046C046C046C046C046E3
:102DC000C046C046C046C046C046C046C046C046D3
:102DD000C046C046C046C046C046C046C046C046C3
:102DE000C046C046C046C0464000C0B29962C04618
:102DF000C046C046C046C046C046C046C046C046A3
:102E0000C046C046C046C046C046C046C046C04692
:102E1000C046C046C046C046C046C046C046C04682
:102E2000C046C046C046C046C046C046C046C04672
:102E3000C046C046C046C046C046C046C046013A2D
:102E4000002A00D07AE730BD9C617CE70004005086
:102E5000054B82B05A6B02435A635B6B184001907A
:102E6000019B02B07047C046001002400222064B90
:102E700099681142FCD00122187399681142FCD064
:102E8000D868C0B27047C0460038004010B5040092
:102E9000000CC0B2FFF7EAFF200AC0B2FFF7E6FF5E
:102EA000E0B2FFF7E3FF10BD0B4B5A7E002A02D0C1
:102EB0009B7E002B0ED10322084B01211A700022A9
:102EC000074B1A70074B1970074B1B788B4201D0C8
:102ED000064B1A707047C0468C1F00204D0800201A
:102EE0005F1F00204C080020431F00205F000020CF
:102EF000084B1A68293213780133DBB2072B00D94B
:102F0000012313700122044B1A80044A044B1278E7
:102F10001A707047601F00204A080020431F0020DD
:102F20005F0000200122064B1A80064B1A683432DB
:102F300013780133DBB2032B00D1002313707047E9
:102F40004A080020601F0020012305498A7F5A405B
:102F50008A77044A1370044A1370044A1370704746
:102F60008C1F00202B0800202E080020711F00203D
:102F70000A4810B502780A4B002A0CD00633D97FD4
:102F80004C426141D97701235A400270054A1370BF
:102F9000054A137010BD0533F1E7C0462A0800202A
:102FA0008C1F00202E080020711F00200E490F4AA0
:102FB0000B7870B5501D0E4D0E4C002B0CD02D789B
:102FC000C57720780632D077012253400B700A4B28
:102FD0001A700A4B1A7070BDC67F2E70951DED7F5A
:102FE000C37725701800EDE7290800208C1F00200A
:102FF00028080020270800202E080020711F00202C
:10300000012304490A785A400A70034A1370034A9C
:1030100013707047EF1E00202E080020711F002043
:103020000123044A11784B4013700222024B1A709C
:103030007047C046200800201F0800200123044AD2
:1030400011784B4013700222024B1A707047C04631
:103050001E0800201F080020044B05481A88504312
:10306000044A801880B21880000A7047340000209B
:103070000508000019360000F0B5130007270322E9
:103080003B405A431B4B85B0D31801930123039156
:103090009C46002102900020019B5B5C0093009BFA
:1030A0006246C340134213D0039B1C18A3B23F2BAC
:1030B0000ED86546029B5A18E3B23C40A540D2B2F6
:1030C000ECB2072B0CD80C4BD5189B5C1C432C7016
:1030D00001300528E3D101310329DCD105B0F0BD71
:1030E000DB08013BDB01054E9D18AD19F618B35CFA
:1030F000ECE7C04698CF010855080020E11A0020EF
:10310000054B1A78002A06D000221A70034B0132B0
:103110001A70034B1A707047DC0700206C1F0020E8
:10312000711F002030B50E4B1B689A8B0D4B186831
:103130000D4B19680D4B1C6C844207D15C6C8C42A2
:1031400004D11C0048342488944207D01C00002578
:103150004A3418645964483325801A8030BDC0460B
:103160006C1E002040080020C8040020CC04002071
:103170000E4B10B51B68191E13D00D4A1268918BA7
:1031800000290ED083420ED80A4A126882420AD31E
:10319000C01AFFF7CFFB084B0021984201D801303D
:1031A00081B2080010BD0021FBE7C04640080020A6
:1031B0006C1E0020C8040020FEFF000010B5094C62
:1031C0002278531CDBB2172B00D90023064952008A
:1031D0005052064A23701378172B01D8013313700D
:1031E00010BDC046950400209604002094040020E1
:1031F0000122054B52421A800023044A1360044AFC
:103200001370044A137070470400002090040020DB
:103210008D0400208C04002070B51E4A0300126843
:103220000232D47F221C082C00D208221A491B48E3
:103230000D88083A92B2854206D100200B80844264
:1032400001D0A342404170BD15482E1C854201D9D2
:103250001448068814481036B6B21C1C834201D9A3
:10326000124804880834A4B29E4202D80120934236
:10327000E9D2A64202D801209442E4D29D4202D96A
:1032800000200B80DFE707226A430432D318DB08F3
:10329000F6E7C0466C1E002004000020FFFF00007F
:1032A000EFFF0000B8C10108F7FF0000BAC1010834
:1032B000002806D0044A13780133DBB2032B01D86F
:1032C000137070470023FBE789040020F8B5104C09
:1032D0002368002B02D000232360F8BD0D4B0E4F56
:1032E0001B681B691D680D4B2560597B4A42514183
:1032F00048224A439B1888331E683E60FFF778FFD8
:10330000B54201D926603D60FFF70CFFE5E7C046F6
:1033100040080020601F0020C80400208C1F0020EF
:10332000074B1B78012B0AD0064B1B78012B06D0CC
:10333000012205494B7E53404B76044B1A7070476F
:10334000431F00206A1F00208C1F00202B08002034
:103350000021012210B5124B1960124B587B4240DC
:1033600011485A7304788C4202D001700F480170E2
:10337000991DC87F002801D0501CC8770533D97F1C
:10338000002901D00132DA770123094A1370094A72
:103390001370094A13700022084B1A7010BDC04602
:1033A000400800208C1F00205F1F00205C1F0020B1
:1033B0002B0800202E0800205A0000205F0000206B
:1033C000092802D83030C0B2704703000A3BFF2002
:1033D000052BF9D8014AD05CF6E7C04641CD01087B
:1033E00010B50E4A0E48137B59424B410021DBB207
:1033F00013738B4200D04831883152180260094A59
:103400001378002B03D101331370074A1370002087
:1034100009F05EFE0A22054B1A8010BD8C1F0020A9
:103420006C1E00203F080020711F0020D8070020DC
:10343000194B10B51B78002B11D0FFF761FE174A0E
:10344000174B12781B7852B2002A1BD1154AD27F33
:10345000002A05D1032B02D0032009F0E7FB10BDA1
:10346000114A1278002AF5D16420104908801049C9
:103470000A7010490A7001210F4A117001210A4A8D
:103480001170E7E7084A11780029E3D114200B4AAC
:1034900010800B4AF1E7C046DA070020241F002005
:1034A0006A1F0020911F0020EA1E0020D80700207C
:1034B0005A0000203F080020711F0020460800200D
:1034C0005B000020034B10B51B78002B01D1FFF7E8
:1034D000AFFF10BDE51E0020302210B500210448CA
:1034E00017F046FC0022034B1A70034B1A7010BDF4
:1034F00096040020950400209404002010B5084B89
:103500001B78012B01D9042B05D1062008F0DEFA27
:10351000062008F0DBFA0022024B1A7010BDC046EC
:10352000CC1F002040000020A023402210B5DB0566
:103530009A6215F0C7FF10BD10B5032804D0072804
:1035400009D0074B185C03E0064B1878A6231843F4
:10355000FFF7EAFF10BD044B18781530C0B2F7E74B
:1035600014D00108540800203600002070B50C4B20
:103570001B6834331C78012C0AD10321094D2878AB
:103580000130FFF747FB2970200009F0F5FC70BD02
:10359000002CF9D1044D052128780130F1E7C0460F
:1035A0006C1E0020260800202508002070B508F0B9
:1035B00099FC114B041E00D1104B19680D002D35DC
:1035C0002A78343153425341D8B228700B78012BFA
:1035D00007D153425A4103205242104015F0B2FF26
:1035E00070BD002CFAD000208242F7D1044B18782D
:1035F0000130C0B2F2E7C0466C1E0020601F002000
:103600002408002070B5868B0068714308183100CB
:103610001C00150008F062FBA04206D8A84203D2A5
:103620003100A01B08F05AFB70BD2800FCE7000029
:10363000F0B5212585B0FFF775FD164B1E68164BBA
:103640001B785BB20193154B1B680293144B1B68EC
:103650000393144B1F783000039B029A0199FFF7E4
:10366000D1FF013DEDB204003060002D07D0FFF71F
:103670007FFD002803D000230B4ABB4202D120006B
:1036800005B0F0BD0232911E09888142E3D00133BA
:10369000DBB2F2E76C1E0020241F0020400800204F
:1036A000C804002016050020CC04002010B509F045
:1036B00053FF0122044B1A70044B1B78002B01D0DE
:1036C000034B1A7010BDC046BE07002048080020FA
:1036D0002E08002070B50B4D00202B78002B0DD14B
:1036E000094B1C78002C06D00A226243074B1A7043
:1036F00000232B7070BDFFF7D9FF200009F096FA68
:10370000F6E7C046BE070020D21F0020BD070020FC
:103710000F4B70B51B78002B17D00E4D2B78002B5C
:1037200015D0002913D001230B4C0A000100812081
:10373000237015F0EBFA094B2278002A07D0013BE1
:10374000002BF9D123702B7001E011F091FA70BDBC
:10375000BC070020BB070020BA070020A08601009C
:10376000264B70B51A688023D28BDB009A422ED28A
:1037700000230A2518002249224E0A78DCB294421E
:1037800009D300280DD1042A21D1002301220B7076
:103790001D4B1A7007E06843F45C0133001980B2D6
:1037A000ECE7042AF1D000220138184D84B2110050
:1037B00020006E7B08F070FD002809D1124B1B78A9
:1037C000012B02D80222124B1A700BF065F870BD63
:1037D000002302210E4A1370321D520054530D4A29
:1037E000760011700C4A745313700C4A1370687B86
:1037F0000AF052FE0BF050F8E7E7C046601F0020C9
:103800005F1F0020D0030020641F00208C1F0020B9
:103810005D1F00201F0800201E0800202008002037
:10382000F8B5264B264C1A78002A03D0A11DCA777A
:1038300000221A700022234B1A70FFF74DFE224B14
:103840001F68224B3E001B78002B01D0204B1E68C6
:103850008022204BD2001B8893421CD2207BB2B224
:10386000031D5B00E25202214300E2520AF014FE03
:10387000B74204D00BF010F80122174B1A70002346
:10388000383423700BF05AFE012009F021FC01228C
:10389000124B1A70F8BD124B1D6828002E6009F0FB
:1038A000C3F8280008F0ACFFB742E8D001232A0093
:1038B000217BE88B0BF034FAE1E7C0468804002056
:1038C0008C1F0020241F002084040020BF0700203C
:1038D000C407002044080020711F00206C1F002036
:1038E0006C1E002010B5174B174CDB7F002B19D036
:1038F000164A1378002B03D000231370144A137058
:10390000144A637B11688022C98BD20091420AD28B
:103910005B00E2189288E25201220F4B1A700F4BA3
:1039200092181A7010BD04335B00E05A0023012185
:103930001A0008F0EBFC0A4B9842F3D0637B5B0063
:10394000E052E9E7901F00208C1F00205F1F00203D
:103950005C1F0020601F0020B00700201F0800200F
:10396000FFFF00007047FEE770477047014B024AB7
:103970009A60704700ED00E0002800080E4B1A78AE
:1039800082420DD018700D4B0D4A1B5C0D491380FF
:103990000D4A12889B1A9AB21BB2002B01D10B70F0
:1039A00070471811002B03DD53421B115B4218B204
:1039B000064B18800123F2E7E518002033D00108F8
:1039C000DC180020E2180020E0180020DE1800209B
:1039D000922210B5054B5200985CFFF7CFFF0022F2
:1039E000034B1A80034B1A7010BDC0468C1F002079
:1039F000401F0020E3180020F8B5802380267E4F6A
:103A00007E4C9B007600BB610500A662C046C046A6
:103A1000C046C046C046C046C046C046C046C04676
:103A2000C046C046C046C046C046C046C046C04666
:103A3000C046C046C046C046C046C046C046C04656
:103A4000C046C046C046C046C046C046C046C04646
:103A5000C046C046C046C046C046C0468020BB6285
:103A60002843FFF763F92368654A13402360C04683
:103A7000C046C046C046C046C046C046C046C04616
:103A8000C046C046C046C046C046C046C046C04606
:103A9000C046C046C046C046C046C046C046C046F6
:103AA000C046C046C046C046C046C046C046C046E6
:103AB000C046C046C046C046C046C046C0461023A9
:103AC0000020400080B2844601212069A661400A9E
:103AD000084061460843C046C046C046C046C0468E
:103AE000C046C046C046C046C046C046C046C046A6
:103AF000C046C046C046C046C046C046C046C04696
:103B0000C046C046C046C046C046C046C046C04685
:103B1000C046C046C046C046C046C046C046C04675
:103B2000C046C046C046A662C046C046C046C04663
:103B3000C046C046C046C046C046C046C046C04655
:103B4000C046C046C046C046C046C046C046C04645
:103B5000C046C046C046C046C046C046C046C04635
:103B6000C046C046C046C046C046C046C046C04625
:103B7000C046C046C046C046013B002B00D0A0E76F
:103B800023681A408023DB021343236080239B00B9
:103B9000BB61C046C046C046C046C046C046C046DF
:103BA000C046C046C046C046C046C046C046C046E5
:103BB000C046C046C046C046C046C046C046C046D5
:103BC000C046C046C046C046C046C046C046C046C5
:103BD000C046C046C046C046C046C046C046C046B5
:103BE000C046A661A361074B302D02D0472D01D1FD
:103BF000054B1880F8BDC04600140050000400506A
:103C0000FFFFF3FF3E0000203C00002070B50600DF
:103C100069200D00FFF7F0FE040003040BD46A20B6
:103C2000FFF7EAFE0C4B24030005000D1C40044383
:103C30000220346070BD6820FFF7DEFE0300002024
:103C40001A04F7D40548DB04DB0C58430449FEF79B
:103C5000FBFE28800120EDE700F0FF00EB120000E2
:103C600010270000F7B5694B694A00931B78019251
:103C7000002B26D113785BB2002B0AD0654B664A25
:103C80001B889B18062B04D8644B1B78002B18D07C
:103C9000F7BD634B1D786B1E022B27D86149624B21
:103CA0000A78002A03D0614A1278002A06D01A78CE
:103CB000002A1BD05E4A1278002A17D100220A700F
:103CC0001A70012009F004FA01225A4B1A70019B64
:103CD0001B785BB2002BDBD0574B1A78502AD7D811
:103CE000002A00D089E0FFF79BFDD1E74B4B012470
:103CF0001B78524F002B0AD03B78DAB2002B05D14B
:103D0000A5421AD00ED9AB1EA34229D900243B7874
:103D10004B4E002B69D1002C67D13378002B41D159
:103D20003470B5E7474BDB7D002BEFD0464B19785D
:103D30000029EBD002241A70E9E7444B1978394B7B
:103D4000002906D01A70404B1A78002ADED00022D3
:103D5000F0E71A78002AF6D11D706432334BF1E790
:103D60003B4B1978304B002914D03A490978012986
:103D700010D11A70344E3378002BC7D00C20FFF7C7
:103D80003BFE0405A40F013C63425C410023640038
:103D90003370BCE71A78002AECD101321A70244B38
:103DA0006332E6E72C4BDB7F002BB9D0023D012DBF
:103DB000B6D80C20FFF720FE0005800F0128AFD1F8
:103DC000254BDB7F002B00D162E7A0238022DB059F
:103DD00052009A62214BEC3A1A800023009A137029
:103DE00001223A701E4A137052E700233370012CEF
:103DF00000D166E7022CE3D04AE719235343194A5E
:103E000013800022184B1A7042E7C046D1070020E9
:103E1000241F00204408002000FCFFFFDA070020D8
:103E2000D7070020D5070020D2070020D0070020A8
:103E3000CF0700206C1F0020B41F0020CE070020F9
:103E4000CC0700208C1F0020CD070020D6070020C3
:103E5000D4070020D30700208F1F0020CA070020AE
:103E6000741E0020460800205B000020F0B5CBB097
:103E70001A22002104A816F07BFF00245F20FFF720
:103E8000BBFD6A461021630052180134D0520D2C3C
:103E9000F4D10BAD1A220021280016F069FF2A0088
:103EA0000023102069460918C95A0233080A107005
:103EB000517002321A2BF4D10E220021684616F0FE
:103EC00057FF2EAC7022002112A816F051FF70226D
:103ED0000021200016F04CFF0023EA5C552A18D080
:103EE00000242600250027003B4A3C4B11680A228B
:103EF0004A435A6001221D809C70DE701F725A7204
:103F0000002F5ED1FA210020C90008F03FF84BB025
:103F1000F0BD0133072BE0D1EA79072AE0D12A7AF4
:103F2000092ADDD16A7A2A2ADAD1AA7A442AD7D193
:103F3000EA7A6F2AD4D100211A0001200EAD1600B2
:103F4000CB08EB5C8E43334148276E460340F6199D
:103F5000735401317029F2D100220F206939130006
:103F6000942603404B4376009B1915096B445B195B
:103F70006D46E03EAD19AD5C703B01321D70702A9C
:103F8000EDD10022012507200600A35C96432B40BB
:103F9000B3406E46D108765C013233436E467354AB
:103FA000702AF1D16B4668465D889F8813F054FAF9
:103FB0003F1A7B425F416DBA3478ADB27678FFB27A
:103FC00092E7072C9ED8064BA400E358002B99D00B
:103FD0003100280098479AE7081F00202800002099
:103FE00078CF0108F8B50C00374B302802D04728AD
:103FF00005D1364B1A88A24200D142E11C808023B1
:104000008026334F334D9B007600BB61AE62C046C5
:10401000C046C046C046C046C046C046C046C04670
:10402000C046C046C046C046C046C046C046C04660
:10403000C046C046C046C046C046C046C046C04650
:10404000C046C046C046C046C046C046C046C04640
:10405000C046C046C046C046C046C046C046BB6219
:10406000FEF764FEC046C046C046C046C046C046D5
:10407000C046C046C046C046C046C046C046C04610
:10408000C046C046C046C046C046C046C046C04600
:10409000C046C046C046C046C046C046C046C046F0
:1040A000C046C046C046C046C046C046C046C046E0
:1040B000C046C0461023AE6222B2002A00DAE1E018
:1040C00080229200AA6207E03E0000203C0000200F
:1040D0000014005000040050C046C046C046C04610
:1040E000C046C046C046C046C046C046C046C046A0
:1040F000C046C046C046C046C046C046C046C04690
:10410000C046C046C046C046C046C046C046C0467F
:10411000C046C046C046C046C046C046C046C0466F
:10412000C046C046C046C0466400AE61A4B2C046A8
:10413000C046C046C046C046C046C046C046C0464F
:10414000C046C046C046C046C046C046C046C0463F
:10415000C046C046C046C046C046C046C046C0462F
:10416000C046C046C046C046C046C046C046C0461F
:10417000C046C046C046C046C046C046C046AE6205
:10418000C046C046C046C046C046C046C046C046FF
:10419000C046C046C046C046C046C046C046C046EF
:1041A000C046C046C046C046C046C046C046C046DF
:1041B000C046C046C046C046C046C046C046C046CF
:1041C000C046C046C046C046C046C046C046C046BF
:1041D000013B002B00D06FE7C046C046C046C0463A
:1041E000C046C046C046C046C046C046C046C0469F
:1041F000C046C046C046C046C046C046C046C0468F
:10420000C046C046C046C046C046C046C046C0467E
:10421000C046C046C046C046C046C046C046C0466E
:10422000C046C046C046C04680239B00BB61C04616
:10423000C046C046C046C046C046C046C046C0464E
:10424000C046C046C046C046C046C046C046C0463E
:10425000C046C046C046C046C046C046C046C0462E
:10426000C046C046C046C046C046C046C046C0461E
:10427000C046C046C046C046C046C046C046AE6105
:10428000AB61F8BD80229200AA6125E770B590B0BD
:10429000040040226846184916F099FE392C08D8C7
:1042A0002F2C25D8232C25D00EAD2A2C09D010B0C8
:1042B00070BD2300413B373C032BF8D8A4006C446D
:1042C000250028880D4C0E4E60430E498019FEF7DC
:1042D00031FB81B27120FFF785FE6B8809495C4391
:1042E000A019FEF727FB81B27220FFF77BFEDEE705
:1042F000303CE3E70FADE4E78CC001084C930100CC
:10430000881300001027000010B5094C23880029ED
:1043100008D04022C240134399B233202180FFF7D6
:1043200061FE10BD4121494201411940F5E7C046F7
:10433000C41A002010B5040051200A49FFF752FEAC
:1043400007200949FFF74EFE21050820090DFFF758
:1043500049FE802321021B02090D08201943FFF7A3
:1043600041FE10BD33A00000D70A00000C4B10B571
:10437000C1184B1E9941040049420A4B890A89021F
:10438000C9185120FFF72EFE0748084B6043084923
:10439000C018FEF7CFFA81B20720FFF723FE10BD49
:1043A000BFF5FFFF409400009826030050C30000B3
:1043B000A086010070B5040031200D00FFF71CFB42
:1043C000A02361051B02490D194306004620FFF793
:1043D00009FEC0216D056D0D490129437920FFF7C4
:1043E00001FE7A200449FFF7FDFD0421314331200D
:1043F00089B2FFF7F7FD70BD9A28000010B50400E0
:1044000081B23820FFF7EEFD3920210CFFF7EAFDDD
:1044100010BD000010B50349000201434720FFF71B
:10442000E1FD10BD4260000010B537200549FFF7DF
:10443000D9FD00213020FFF7D5FD30200249FFF7DC
:10444000D1FD10BD1F9F0000F1BF000010B531204D
:10445000FFF7D2FA0223984381B23120FFF7C2FD61
:1044600000212B20FFF7BEFD10BD000070B5050038
:104470003120FFF7C1FA0400002D06D108239C4328
:10448000A1B23120FFF7AEFD70BDAB1E5A1E9341A5
:10449000AD21DB03890119432920FFF7A3FD01208A
:1044A000A842804105494042800301432820FFF78C
:1044B00099FD0821214389B2E3E7C046382B00006B
:1044C00010B53120FFF798FA0423984381B23120C8
:1044D000FFF788FD10BD10B500212420FFF782FDF5
:1044E00010BD0000DB2110B52120C900FFF77AFDC7
:1044F00024200249FFF776FD10BDC0467FC10000B1
:1045000010B550200149FFF76DFD10BD18BB00002C
:1045100010B550200149FFF765FD10BD183B0000A4
:1045200010B500213020FFF75DFDE821372049015B
:10453000FFF758FD10BD000010B500217020FFF7F7
:1045400051FD0020FFF766FFFFF7E2FF002130205A
:10455000FFF748FD30200249FFF744FD10BDC0467B
:10456000F1BF000010B5C3217020FFF73BFD7220A2
:104570000A49FFF737FDC1215820FFF733FD5C20C2
:104580000749FFF72FFD8E215D20C901FFF72AFDA6
:104590005E200449FFF726FD10BDC04665300000CF
:1045A000655600000432000010B500213020FFF7EE
:1045B00019FD10BD054B10B51B78002B05D001214E
:1045C0000020FFF7A1FEFFF72FFF10BDE51E002022
:1045D00010B50400FFF794FF0020FFF71BFF002138
:1045E0007020FFF7FFFCFFF776FF30200349FFF74D
:1045F000F9FC002C01D1FFF78BFF10BDFEC10000BC
:1046000010B530200149FFF7EDFC10BDFAC30000E2
:1046100010B50400FFF766FFFFF772FF0020844229
:1046200000D00330FFF7F6FE70200349FFF7DAFCF5
:10463000FFF7E6FF10BDC046C3C3000010B56720FA
:10464000FFF7DAF9C005C00D10BD000010B5064B2C
:10465000064A1B7811781B011943B0231B0248201E
:104660001943FFF7BFFC10BD0E20002010200020D2
:1046700010B501240E4B05201A7854401C7061427D
:1046800061410F2349421940A1231B01C91810F0B1
:1046900000FC0022074B944202D11A0083321278A8
:1046A00082331A70FFF7D2FF0122034B1A7010BD3C
:1046B000210800208C1F0020711F002010B5FFF77B
:1046C0009DFEC02151208900FFF78CFCFFF7ACFE56
:1046D00010BD10B500210420FFF716FE00210320B5
:1046E000FFF712FE10BD00000B4B10B5984208D822
:1046F00001210420FFF708FE00210320FFF704FE3C
:1047000003E0013002D1FFF7E4FF10BD00210420D7
:10471000FFF7FAFD0121F0E7FF3EAB0170B51D4B3D
:104720001B78013B012B27D900241B4B1B4A1C7013
:1047300013781B4DA34220D01A4B14701C701A4BD7
:1047400080221C80A02301265200DB059A62174BB1
:104750001C7010F0B7FB164B1B681868FFF7C4FFFE
:10476000144B1E70144B1C700AF0E8FE5022134BC1
:104770002C701E70124B1A8070BD124A137008F014
:1047800061F9012008F0A4FC10F088FE03232B70CF
:10479000F2E7C0466A1F00205F1F00205E1F002056
:1047A0005F000020231F00202C080020741E002022
:1047B0006C1E0020711F0020C41F00202E08002046
:1047C000E21E00204808002070B50F4D04002A6842
:1047D000002A08D0002318000C49A14258419142F8
:1047E0005B41984202D02000FFF77EFF20002C6042
:1047F000FFF704FE00213020FFF7F4FB044B3020CC
:104800001988FFF7EFFB70BD90040020FF3EAB015D
:104810008A040020A023F7B5160008220500DB0556
:104820009A6203200C00FEF721FB2800FEF72EFB06
:10483000C0232E4DDB00AA681100194001911A42D5
:104840000AD10F2E0AD8A619B44249D0FF20FEF78C
:104850000DFB20700134F7E7EA68ECE740222B6893
:10486000042093432B6014F035FA052014F032FA3B
:10487000802284211E4B52015A601E4F04204901A0
:1048800014F00AFA05201C4914F006FAFC601B4CCF
:1048900031000420BC6014F00FFA194A194B3100A2
:1048A000D36094600224052014F006FA019B164E92
:1048B000042033703B6823433B6014F019FA052051
:1048C00014F016FA01236A68134340226B602B68C8
:1048D00013432B606B681C436C603378002BFCD057
:1048E000A0230822DB059A61F7BDC04600380040CE
:1048F0000000024044000240101000000C3800404C
:1049000058000240D8180020D61800200120024B81
:104910001B699B0A984370470004005000B50300D0
:104920000078002208280ED8FDF7E6FF050F151DB8
:104930003522272F2F000122552904D0AA2901D082
:10494000002000BD05221A70FAE7AA394A425141F7
:1049500049001970F4E703220029F4D005394A42CE
:1049600051418A00EFE7484241411A70C8B2E8E776
:1049700000225529E7D10632E5E7032901D10722B4
:10498000E1E70429DFD10822DDE7122903D8102945
:1049900001D00248017001201A70D2E737000020D0
:1049A0000022034B1A70034B01321A707047C04645
:1049B000D5080020711F0020F7B5A02640275039E8
:1049C0000430F605C5B20193C8B2B762140014F002
:1049D00079FD10202B09184314F074FD0F20284096
:1049E00014F070FD019BB761E5182078013414F0D4
:1049F00069FDAC42F9D1F7BDF8B50423124E0400AD
:104A0000B3624020FEF790FD104A002C07D0104BF7
:104A100001251F00072C0AD8621ED201D21880235C
:104A200021000020FFF7C8FF0423B361F8BD29006F
:104A300001353A0080230020EDB2FFF7BDFF80373B
:104A4000082DF4D1F0E7C0460004005055080020BE
:104A5000E11A002010B50820FFF7CEFF10BD10B5F9
:104A60000130C0B2FFF7C8FF012011F0A7FD10BD53
:104A700010B50020FFF7C0FF10BD0000F7B5041E01
:104A8000294E2A4F2BD00024FEF7E6FA7021FDF7BD
:104A9000D7FFA5192970FEF7DFFA0321FDF7D0FF34
:104AA0003D19013101342970202CEDD10BF0ACF807
:104AB00000250BF09FF80024EFB2BB00DBB201939E
:104AC000725DE100611A5118D219121909B2D2B2FD
:104AD000002C16D10198FEF7CFFA0134F0E735002B
:104AE0002B783A5D9B18DBB22B70702B04D9FEF744
:104AF000B3FA0F231840287001340135202CEFD170
:104B0000D4E7032C02D901231A4202D00198FEF700
:104B1000B3FA0134082CD3D10135202DCBD1FFF7C6
:104B2000A7FFFFF797FFF7BDFE070020DE07002075
:104B300070B5254B1C78002C3ED0244BDB7F013B0D
:104B40003B2B39D8224D2B78002B35D1214B1B78AC
:104B5000002B31D1204B1B78012B2DD007F0C2F94F
:104B6000002829D11D4B1B78002B25D11C4B1B780D
:104B7000002B03D01B4B1B78002B1DD01A4B1B782E
:104B8000002B19D1194B1B78002B01D0032B13D10B
:104B9000631E012B11D80FF039FDFFF769FFFFF7F6
:104BA00059FF012300202B70114B1870114B187006
:104BB000114B187011F002FD70BD032CF1D10120D2
:104BC000FFF75CFFEDE7C046DD070020941F0020E3
:104BD000DC0700203A1F00206A1F0020201F002051
:104BE000231F0020D71E0020371F0020431F002056
:104BF000DB0700206C1F0020711F0020042370B50C
:104C0000074DE220AB62FEF78FFC00242000013448
:104C1000E4B2FEF791FC082CF8D10423AB6170BD1F
:104C200000040050042370B50024064DAB62200040
:104C30000134E4B2FEF780FC0B2CF8D10423AB6105
:104C400070BDC046000400500B4B70B51B680B4C88
:104C5000584300236568A268834200D370BDA168F1
:104C60008A4203D99B185B1A0A00F5E78A42FBD2F5
:104C70006E1AF318D318F7E7E818002010E000E0E8
:104C8000324870B50378002B20D0314B314A0021D7
:104C9000595E13885B181BB21380002917DD2E495B
:104CA0000024095F994219DD1478002C1CD12B4A8D
:104CB000013413680720A343136014F00BF820009D
:104CC000FFF7C2FF8022264B52009A6270BD002976
:104CD000EAD021490024095F9942E5DB1E4B1B887D
:104CE000138000230370DFE76401FF212000FDF73C
:104CF00021FEFF2300225B019C421AD01100194EB5
:104D0000194D0B0082424B415B423340013394000A
:104D1000FF3301322B51202AF3D101240F4D2B6890
:104D20002342D3D1072013F0E3FF2B681C432C60F0
:104D3000CCE70121094A072013688B43136013F065
:104D4000C9FF8022064B52009A61BFE7E21800209B
:104D5000DE180020E0180020DC18002000140040BD
:104D60000014005000FFFF00EC180020782170B5FF
:104D70001B4A1C4B12781C4C4A431A801B4A1C4B82
:104D800012781A701B4B1D781B4BDB7F002B06D152
:104D9000FEF71EFE002D01D0FEF7B0FB70BD012214
:104DA000164B1A702623FF33E05CFEF7E7FD002D5B
:104DB00005D0134B1B78002B0CD1FEF79FFB08345A
:104DC000E17F00230F4A3D2902D00A234B430133E0
:104DD0001380E3E7FFF754FF0B48FFF735FFE8E7E1
:104DE0005E0000203C1F00208C1F0020E5180020E2
:104DF000E418002040000020941F0020E318002049
:104E0000E2180020401F002010270000064910B5BE
:104E10000B78002B03D0054A054B1278DA77002374
:104E20000B70FFF7A3FF10BD23080020220800200D
:104E3000941F002080220A4B520243439B1810B556
:104E400071200C00590CFFF7CDF8FFF761FBFA2039
:104E500080006043FFF7F8FEFFF752FB10BDC0462D
:104E60001DA61400F8B51C0005000E001700FFF782
:104E700047FB201E05D0A02380220320DB05520023
:104E80009A61FFF7C7FA12493F02394389B270208D
:104E9000FFF7A8F8FFF7B4FB0E48FFF7D5FE310087
:104EA0002800FFF7C7FF002C07D0A0238022DB05D6
:104EB000520000209A62FFF7ADFA00217020FFF740
:104EC00091F830200449FFF78DF8FFF721FBF8BD7A
:104ED0000080FFFF50C30000FEC1000010B500219C
:104EE0003F20FFF77FF868215920FFF77BF8034840
:104EF000FFF7AAFEFFF758FB10BDC0463075000053
:104F000010B5FFF7EBFF00210220FFF76BF800213F
:104F10003F20FFF767F8FFF787FAC0213F2089019C
:104F2000FFF760F859200449FFF75CF8592003495E
:104F3000FFF758F810BDC046684000006830000018
:104F400070B50D000400FFF7DBFAC22170200902E2
:104F5000FFF748F880230B495B026943C9187120A9
:104F6000490CFFF73FF80020844200D00330FFF7E0
:104F700051FAFFF745FB0448FFF766FEFFF7C8FA52
:104F800070BDC0461DA6140050C30000F0B5FA263F
:104F90000500002485B003930AAB1F880BAB1B8868
:104FA000B6007343019102920093285D002801D15D
:104FB00005B0F0BDFFF76AF9FFF7AAFA019B002BD5
:104FC00002D00298002C06D02B5D03982A2B02D029
:104FD000232B00D038007043FFF736FEFFF790FA1E
:104FE0000098FFF731FE0134DFE7000070B5A0251F
:104FF0000826094CED050520AE62FDF737FFFF20BE
:10500000FDF734FFAE61C00705D50A20013CFFF76C
:105010001BFE002CEFD170BD40420F0070B5A024E4
:1050200008250600E405A5620620FDF71FFFA5611F
:10503000FFF7DCFFA5622020FDF718FF3000FDF729
:1050400025FFA561FFF7D2FF70BD000010B5040079
:10505000FFF7E4FF054B1B68A34205D18022FF2127
:105060000348520115F084FE10BDC04638000020F0
:10507000D6080020F0B587B06B46049003921A7CE6
:105080008023A0255B0002919B1AED05039A0192F3
:105090009A4200D9019308231C00AB620620FDF759
:1050A000E5FEAC610220AC62FDF7E0FE0498FDF77E
:1050B000EDFE029C019AA6180F2A5BD94022314CC2
:1050C00004202368304E9343236013F003FE052031
:1050D00013F000FE80222D4B52015A600021042063
:1050E00013F0DAFD9021052013F0D6FD284F294B4F
:1050F0000420F3600199B76013F0DEFD264B02999E
:105100000520D9609F60019913F0D6FD234B02273B
:1051100005930023059904200B7033683B433360EB
:1051200013F0E6FD052013F0E3FD0123626813434D
:105130004022636023681343236063681F436760F2
:10514000059B1B78002BFBD00823AB61FFF74EFFBC
:10515000019A049B944663440493029B6344029324
:10516000039B9B1A03938023039A5B00002A8DD133
:1051700007B0F0BD20780134FDF778FEB442F9D1D4
:10518000E2E7C04600380040440002400000024010
:105190000C380040D818002058000240D6180020D3
:1051A000F0B587B0059380230705040B3F0D5B0125
:1051B0000190029103922403DE1B039B002B03D179
:1051C000FFF714FF07B0F0BDFFF710FF039DB542D6
:1051D00000D935002B4E3368A34206D08022200030
:1051E00029495201FFF716FB3460274E2A00BE19E9
:1051F0003100029815F068FF002826D00023F25CE9
:10520000FF2A31D101339D42F9D100232A00300019
:105210000299049315F0DBFE049B002B2DD0200097
:10522000FFF7FCFEFFF7E2FE059B174E002B1DD09B
:10523000EF193A0031002000FFF71CFF80225201D5
:10524000FF21D21BF01915F093FD019B00275B197C
:105250000193029B5B190293039B5B1B03938023C7
:105260005B011E00E418A8E70123CFE7802231008C
:1052700020005201FFF7FEFEE7E72A00029901989D
:10528000F8E7C04638000020D608002080201C49DE
:1052900080010B6810B5034230D00224194B1A6804
:1052A00022422BD01A68A2431A6048600A20FFF7F6
:1052B000CBFCC021144A154B49019868084202D022
:1052C000013A002AF9D180210F4A9868084202D099
:1052D000013A002AF9D1C0210B4AC9009868084256
:1052E00002D0013A002AF9D102215A688A435A6051
:1052F0005A6801398A435A60054B197010BDC0467F
:105300000000024044000240112700000038004025
:10531000D618002070B540262025094C0120A66132
:10532000FFF792FCA5610120FFF78EFCA662012029
:10533000FFF78AFCA5620120FFF786FC70BDC0461E
:105340000014005070B540252026094C0120A562AC
:10535000FFF77AFCA6620120FFF776FCA661012028
:10536000FFF772FCA5610120FFF76EFC70BDC0461F
:1053700000140050F7B5234C234A236801901340D2
:105380002360082300252027012600933000A76210
:10539000FFF75AFC3000A761FFF756FC3000FFF71B
:1053A00053FC23696D00EDB25B0600D53543300038
:1053B000A762FFF749FC009B013BDBB20093002B87
:1053C000E4D12268104B01201A4080235B01134373
:1053D0002360A762FFF738FC019A4023002A0ED011
:1053E000A36120260120FFF72FFCA6610120FFF713
:1053F0002BFCA6620120FFF727FC2800FEBDA3625C
:10540000EFE7C04600140050FFCFFFFFF8B52023A0
:10541000264C0500A3620120FFF716FC08266BB29C
:10542000002B3EDB4023A36220270120FFF70CFC6A
:10543000013E0120A761FFF707FC6D000120A76274
:10544000F6B2FFF701FCEDB2002EE8D1402523684B
:10545000174E012033402360A561FFF7F5FBA761DC
:105460000120FFF7F1FBDF3723691A002A402B42A6
:105470001AD0013F0120FFB2FFF7E6FB002FF3D166
:1054800001256D422023A3620120FFF7DDFB80236D
:1054900022685B0132401343236040232800A3614C
:1054A000F8BD4023A361BFE71500EBE700140050EF
:1054B000FFCFFFFFF8B57823802680270025164C04
:1054C0003602A361FF010A20FFF7BEFB23691A0021
:1054D0003240334212D03B420FD09A0417D50322F8
:1054E000DB040BD50135052D13D078230722A361EA
:1054F000521B773B9340A362E5E70122074BA900CB
:105500005B18985C1328EDD07823A361F8BD0222C4
:10551000F4E71320F8E7C046000400501FD001084C
:1055200010B532246320FEF767FAC0B2C72806D947
:10553000013C0120E4B2FFF787FB002CF2D1FFF71A
:105540007DF8FFF77BF810BD70B5FFF7E9FF1A4A49
:105550000400031C904201D9184B1B88184A0833D9
:1055600012689BB20232D17F164A1588164A9542BC
:1055700004D1002901D0994212D970BD134E2A1CC2
:10558000B54201D9124A1288103292B29A42F4D826
:105590000A1C082900D20822083A92B29A42ECD892
:1055A000AF204000FFF750FBFFF7BAFF231C8442F7
:1055B00000D2031C98B2E0E7F7FF0000BAC101086F
:1055C0006C1E002004000020FFFF0000EFFF000021
:1055D000B8C10108604BF0B51C68604B85B01B6812
:1055E000002B00D1A8E05E4B1B78002B00D19DE082
:1055F000A31CDB7F002B00D198E03020FEF7FCF9E4
:105600000626584A584B10401880FEF711F82060C3
:10561000200007F009FA23691D68544B1B68002B12
:1056200006D0534A127852B2002A4ADD9D424CD32A
:105630002800FFF7C9F8FFF787FF0500FDF7BEFD5B
:105640002800FDF7E9FD002861D0A18B4B1EF82B47
:1056500028D8FA20236880000293FDF7F5F9502836
:1056600000DD50200026370083B2039323691B68B6
:105670000193FDF7DDFF2060200007F0D5F92369D5
:1056800018683B4B1B785BB2002B21DD019B8342EA
:1056900023D9029B2000236007F0C6F9236918680C
:1056A000FFF792F80122334B1A70200007F0BCF983
:1056B000200007F0A5F8012007F00AFD09222E4B73
:1056C0002EE0002AB4D09D42B2D9FDF791FDAFE79C
:1056D000002B02D0019B8342DBD3FFF775F8FFF765
:1056E0001FFF854209D20500002723680293013677
:1056F000039BB6B2B342B9D1CBE78542F7D9281A9A
:105700000728F4DD0137FFB2022FF0D9C1E7013ECF
:10571000F6B2002E00D078E70122164B1E70164B11
:105720001A800122154B1A7005B0F0BD114A137092
:10573000FDF77EFF2060B8E70E4A0D491370208EFA
:105740000F4AC000097813185B68825849B22000DC
:10575000FDF758FFEEE7C0466C1E00204008002011
:1057600003000020FFFDFFFF8A04002090040020BA
:10577000241F00208D040020460800206C1F0020FC
:1057800048CD0108F0B5D44BD44C1A7895B0531ECF
:10579000182B3DD8230080212A331B78C90005939C
:1057A000A38D8B4231D01BB2E58D8D4236D02DB208
:1057B000CB49019109880291059900290ED0C94968
:1057C0000E780391002E2CD0012E00D140E103234E
:1057D000039A1370C44B019A1B8813800025C04B99
:1057E00001221E88C14B5D572300701929331B7895
:1057F000290080B206F08AFDBD4B0700984200D018
:1058000038E1FDF7F5FC00271BE001235B42CBE705
:10581000012301215B421D000591C9E701256D426D
:10582000C6E7B14902980880002B00DA10E19FB268
:105830003100380006F030FD002800D108E1039B5C
:105840001E70019B1F80237B1A1D5B00E752A94B32
:1058500052001D68A84BA7521B78EF83002B00D184
:1058600074E1AB1CDB7F002B00D12EE1102238014C
:1058700008A9FEF7CFFF089B0193013B033300D932
:1058800020E1152008AB1B22C018002115F070FA8A
:10589000019B0C930E93099B0293029A974B9A4299
:1058A00001D9974B0293029B0F24109308AB9B7A6C
:1058B00008A91A001B0922400A750B770CA8097A5F
:1058C00006F08EFF08AB597A0EA806F089FF08ABE8
:1058D000DB7A1C400394022C01D900220392039925
:1058E0000CAA11761E092F2B00D90026D67508ABFD
:1058F0009B7B0493172B01D904230493049B0CAACC
:10590000049993757F4B4900CB5A012107939382E9
:1059100008AB1B7BFF2B00D0BBE051760691039BAD
:10592000012B00D1C5E0022B00D1C7E008AB5B7BA7
:10593000FF2B06D01B075B0F042B00D900230CAAFA
:10594000937748226549704C0B7B20005343C9185C
:10595000883115F03CFB0CAA11002300E78381C9B4
:1059600081C39C46180088C988C063460299039881
:10597000A1610799A1830499D977210034310E7070
:10598000611CC8772100507E293108702000917E6B
:105990002B3001702000D77E2D3007702000177F3C
:1059A000333007702000069F28300770907F220058
:1059B000002901D01A002300226101226361534BA8
:1059C00021001A702B002F003231087034331C78FC
:1059D0002D373A78A64201D1002A16D01E70002336
:1059E0003B70A64202D0300007F0C6FA0020012E1C
:1059F00003D13878002800D0032013F0A3FDA6427D
:105A000003D00122424B52421A803020FDF7F4FFAE
:105A1000404A414B104018800198FEF7D5FEFFF731
:105A200093FD0400FDF7CAFB2000FDF7F5FB3B4B9F
:105A3000002877D001221A70284B0221187B08F029
:105A40002BFD012007F044FB0122354B1A7086E044
:105A5000230029331A78002D00DAB8E6AFB200210E
:105A6000380006F019FC002800D1B0E601221D4BD9
:105A70001A70E6E6002D05DD864200D8E1E6FDF766
:105A8000B7FBDEE6002D00D1DBE6864200D3D8E688
:105A9000F5E718000840907658080840D076D806F8
:105AA000400F507658099B0908400B401077069329
:105AB00035E7019B029A9B180E9337E7019B029AE8
:105AC0009B1AF9E70022114B1A700022134B1A702F
:105AD000029BBB4243D0AFE7B51F00208C1F0020C4
:105AE000440800208904002080040020241F002096
:105AF000FFFF00006C1E002003000020FFE0F50502
:105B000040420F0030CF0108380400208C040020F0
:105B100004000020FFFDFFFF8A0400208D04002008
:105B20006C1F00201870019B0F4A2B6012780F4BDE
:105B3000002A01D09B68AB6001220D4B1A800D4BEF
:105B40001A700598FDF7B4FB15B0F0BD029BBB427F
:105B500000D071E7084B1B78002B00D06CE70922BE
:105B6000034B1A80EDE7C046630400203804002090
:105B7000460800206C1F00208D040020F0B585B081
:105B8000041E039107D0324A324BD17F1970002393
:105B9000D377314A137006F055FF06F0A3F92F4B67
:105BA00001932F4B0293002812D0A02380220025BE
:105BB000DB0552009A622B4B1D702B4B1D70019B15
:105BC0001D70029B1D7006F099F9280007F02EF851
:105BD0000022264B1E68264BF78B1F80254B1A7020
:105BE000254B039A1A70FDF777FCFDF701FB802324
:105BF000224DDB009F4221D2214B187806F006FB94
:105C0000002804D1013006F019FB0AF057F8002CE7
:105C100003D0F38B1B4A2B601360FFF7B3FD1A4BC5
:105C20002A681A603222194B1A800023184A13700E
:105C3000019A1370029A137005B0F0BD002C03D0C6
:105C40003368104A2B601360FFF7C4FCE7E7C046D7
:105C5000921F002088040020BF070020EA1E0020B9
:105C6000EB1E0020741E0020480800206C1E00203F
:105C70004408002089040020241F0020C4070020BD
:105C8000B51F002084040020C00700204608002023
:105C90005B000020010010B50020FFF76FFF074BED
:105CA0001B680233DA7F1423002A00D0133B044A16
:105CB00013800022034B1A7010BDC0466C1E0020DA
:105CC000460800205B0000200A4B10B51A68002A25
:105CD00001D1094A1A601868084A4118914206D948
:105CE00015F01CF80C2303600120404210BD196020
:105CF000FCE7C04650080020E032002000400020B1
:105D000070B506000D001400FEF74AFE2A4B1B7802
:105D1000002B1DD129490B78002B19D00122284BCB
:105D20001A70122E13D1002C11D1002D0FD0254B3B
:105D30001A70254B254A1C701378002B01D10B706B
:105D400005E02D21013BDBB21370214AD15470BD17
:105D5000112E1DD0122E13D000230A2E1FD0AC42BC
:105D6000F5D101201B4A174912780870002A1DD06E
:105D7000182B1BD8184ADA40024217D00223DEE75C
:105D8000164B002C02D048331B78E8E74733FBE77B
:105D9000124B002C01D04A33F6E74933F4E79C421A
:105DA000DDD024220D4BFF329B5CD8E70C4A9B00D0
:105DB0009B589847CBE7C046431F0020221F002076
:105DC000ED1E00205D1F00205F0000203E08002027
:105DD0002F0800205E1F00202CDCF2018C1F002009
:105DE000B0CF01080E4910B50A780E4B002A0AD12F
:105DF0000833D87F0C4A10703D22DA7701230B70EC
:105E0000FEF7B4FF10BD2621084AFF31595C127815
:105E10000833914202D10022DA77F1E73D22FBE715
:105E2000230800208C1F002022080020E4180020F6
:105E3000BFF34F8F034B044ADA60BFF34F8FC04666
:105E4000FDE7C04600ED00E00400FA05F7B50600E6
:105E5000FDF756F9494B1C68002C0AD0484B1B78BB
:105E6000002B06D1B01E434258412100800010F0A3
:105E700049FFE122434B444F52011A803B78002BEB
:105E800001D00FF01FF8A0238022DB0552009A6199
:105E90003E4BFF3A1A703E4B1B789B0701D5FEF72D
:105EA00065FF00223B4B3C4D9A563C4B0193002A28
:105EB0001CD16B1DDB7F002B42D13434FEF7C6FBB7
:105EC000207807F059F8300006F0B0FE022E02D01C
:105ED0003B78002B4DD0324B1B78012B02D0002099
:105EE0000EF046FB0123019A1370F7BD2835FDF72C
:105EF0007FF92B78502B1FD92A4A1178002909D114
:105F0000503B1900FA235B004B4327499BB20B809F
:105F1000012313700022254B1A70254A254B116866
:105F200019608021E38BC9008B4200D32368136082
:105F30000122214B1A70C0E700221B4B1A80E9E7AF
:105F40000635E97F4B424B413C205B42FF3003402A
:105F50001A48693303801A4B1A70002902D10122B2
:105F6000184B1A700022184B1A700123019A1370F3
:105F7000A3E70122154B1A70B4E7C0466C1E00203F
:105F8000D91A0020661F00205E1F0020741E00200A
:105F9000C8070020241F00208C1F0020711F002034
:105FA000431F0020EB1E0020460800205B0000205D
:105FB000C4070020C0070020BF070020D80700202A
:105FC0005A000020EC1E00203F0800206C1F00201B
:105FD00010B5174B1B78022B08D006F033FD0120BB
:105FE00007F076F80220FFF731FF10BD0022114BB9
:105FF0001A70114B1B785BB2934208D0FA210F4BF9
:10600000490019800E4B1A700E4B01321A70012094
:1060100007F05EF80C4B0D4C1B78002B04D00FF0F2
:106020003DFA03232370E0E7094B1B78FAE7C046EB
:106030006A1F002048080020241F00204608002076
:106040005B000020EB1E00205E1F00205F00002090
:10605000431F00201E4B10B51B78D8B2002B09D16E
:106060001C4B1B78002B04D006F0E0FD01221A4BDC
:106070001A7010BD194B1A78194B1B7813435942EB
:106080004B411849DBB20978C8B2002905D0012A72
:1060900003D10021144B1970030014490978002919
:1060A00012D01349097801290ED1023A012A0BD8DE
:1060B0000022104B1A70104B04201B78002B00D0CC
:1060C0000238FFF7C3FED4E7002BF4D1D1E7C04676
:1060D000DA0700206A1F00206C1F0020D70700206D
:1060E000241F0020D6070020D5070020D407002059
:1060F000D3070020D20700204808002010B51A4915
:106100001A4B08781A781A4B00280FD0032A0FD0A0
:10611000184A1278D0B2002A00D108701B88164A9B
:106120009B18062B1DD9FFF72DFB12E0032AF5D192
:106130001B88114A9B18062B03D9104B1B78002B88
:10614000F1D10F4B04201B78002B00D00238FFF751
:106150007DFE00230B4A13700B4A13700B4A137019
:1061600010BDFFF737FAF4E78D0400206A1F002006
:1061700044080020DA07002000FCFFFFD7070020BA
:1061800048080020EB1E0020EA1E00205B000020D3
:10619000F7B5814C0E00657B002902D001227F4BB0
:1061A0001A70237F002B04D0022802D0FEF7F8FBE0
:1061B000F7BD7B4B1B78012B03D1784B02221A7061
:1061C000F6E7122800D90EE2FCF7AAFB130016002E
:1061D0008D0093009900A500DC00DF009B01AA015F
:1061E0000D02C401C4010D020D020D020D02E901F0
:1061F000E901FEF793FADBE76A4B6B491A68D38B28
:106200005B18062B43D9FEF7CBFB231DDB7F002B4E
:10621000D3D0664B1B78002BCFD1654B1B785BB27C
:10622000002B0BD0634B1B78032BC1D1624B1B7827
:10623000002BBDD0614B1B88002BB9D08023627B23
:10624000DB005100605A9842B2D248235343E3180E
:106250001A008020B8321288C000121892B2A633F9
:1062600062521A8006F0EEFB554B1C68200006F0C7
:10627000DBFB200006F0C4FA012006F029FF012311
:10628000504A1380504A1370504A137090E7138E8F
:10629000062B07D111694E480E68864202D84D4B35
:1062A0000B6085E701339BB21386042B17D14A4B51
:1062B0001B78002B01D105331386138E8022D20068
:1062C0009B1801229BB26D0063536519AB803E4B56
:1062D0001A70424B92181A70414B00226FE7062B3E
:1062E000EBD90023E8E701223C4B1A70FDF730F8A8
:1062F0005EE70122394B1A70FDF7F4FA58E7FEF712
:106300004FFB00200634374BE27FE0771A700BF02A
:1063100079FA334B52E7002E04D113F021F9304BB8
:106320001E7045E705F0C2FB051E00D040E71D4B7F
:106330001C688023E08BDB00984202D3FCF7C6FF89
:1063400036E705F0DBFE037801007F2B0AD97F22B8
:1063500013400370E08B05F0C1FE01221F4B1A7041
:10636000214B2CE722002E3213780133DBB2192B9C
:1063700000D92B001370012321001A00E08B11F0CB
:10638000ABF8EAE7FCF7B4FD12E7184D2B78002BC9
:106390002ED010F037F80BE78C1F00205D1F002077
:1063A000431F0020601F002000FCFFFF3E1F002055
:1063B000241F00206A1F0020EA1E0020460800203B
:1063C0006C1E00204A080020B00700206C1F00202F
:1063D000FFE0F50500E1F505340400201F0800206A
:1063E0005F00002033040020AF070020071F0020BB
:1063F000621DD27F804B1A70A21D804BD27F1A7013
:106400007F4B1A78002A01D101321A7000237D4A8D
:10641000A38413707C4A137006F014FB7B4A7C4FF4
:106420001378002B04D17B4B39781970012313703A
:106430000126794B30001E7006F04AFE774803783B
:106440000193002B07D1220041321178744B067062
:106450001970019B1370FEF73EF8012302203B7078
:10646000FFF7F4FC00226F4B1A706F4B1A702C234D
:10647000FF33E35C5A1F5F2A00D914236B4A137061
:10648000C8226B4B92001A8001226A4B1A700023BB
:10649000694A1370694A1370694A1370694A137024
:1064A000694A13700FF080FF684B694A188803230C
:1064B00043431188994200D0138001200FF00CFF54
:1064C0000122644B2A701A7000217F32624814F056
:1064D0004FFC80220021614814F04AFC80220021F8
:1064E0005F4814F045FC002180225E4814F040FC17
:1064F00000225D4B1A700FF097F9022005F0E6FAC2
:1065000056E6002E02D1FFF76DFC51E60121574BF4
:106510001B682B331A784A401A70554B198047E68E
:10652000002E02D1FEF772FC42E6260000224E3613
:106530001100308805F0B0FE002800D138E632881E
:106540002B1D5B006D00E25262530122494B1A7011
:10655000494B33E6494B1B785BB2002B0BD00B2821
:1065600006D10A3805F06AFE09F0A8FB3E4BB4E6F6
:1065700001204042F6E7424AE37D11780A2900D122
:1065800013700B2807D1082B01D80133E3750122C2
:10659000394B1A70EAE7002BF9D0013BF6E7334B91
:1065A000384D196800230C000834E27FEE5C9642F7
:1065B00003D00133182BF9D10023122803D1172B54
:1065C000D4D0012202E0FF22002BCFD0D218D2B2C9
:1065D000AB5C2D4AE377CB8B9B18062BD7D80122D7
:1065E000234B1A80D3E7FEF7DBF9002E00D1DFE55D
:1065F0000122264BE3E5C04632040020310400208E
:10660000300400203F0800205A0000202F04002002
:10661000480800202E040020EC1E00202D0400203D
:106620002C0400202B040020DA03002001000020AD
:106630000C0000200000002033060020320600205D
:1066400034060020D9030020D80300201A000020BF
:106650001000002036060020611C0020E11C0020F4
:10666000611D0020E11D0020D5080020601F0020D2
:106670004A080020B00700201F080020241F002027
:106680000200002029CD010800FCFFFF5D1F002053
:1066900010B514220021024814F06AFB10BDC04658
:1066A000461F002070B5414B04001B78A0B0002BA2
:1066B00040D005F017FC051E0BD103200DF058FF4C
:1066C0003B4B1D703B4B1B785EB2002B03D00EF092
:1066D000E1FC20B070BD384A384B394D002C25D034
:1066E0000121684611708022FE311E7014F040FBBB
:1066F0003300802269463348FEF752FD6022FF21B5
:10670000314814F035FBAB7D304A9B075B0F9D5A37
:106710002F4B07201D800EF09BFB2E4B000918808D
:106720002200012128000EF07DFCD2E714701C70BD
:10673000AD8AEDE705F0BAF9041ECAD11C4B1870FA
:10674000254B1870FFF7A4FF06F07CF92000002409
:106750000DF00EFF214B1C57002C16D08022204B31
:10676000D2001B88934202D3FDF75AF8B1E701200B
:1067700005F064FD09F0A2FA08F0E0FE2000FFF742
:1067800089FA0122174B1A70A3E7174B1B685A1E90
:106790009341164A0133137008F0D0FE012108001E
:1067A000FFF7ECF9124B1C70EBE7C0465E1F0020B0
:1067B00048080020231F0020DA1E0020D61E0020DB
:1067C0008C1F002028A00000761E002098D1010810
:1067D000701E0020721E00205B1F0020241F00205E
:1067E00044080020711F002040080020C41F002022
:1067F0003F08002010B50120FFF754FF10BD000036
:106800000F2210B50021044814F0B2FA0022034B05
:106810001A70034B1A7010BD2F0800203E0800208C
:10682000221F0020114B70B51B78002B03D1104B99
:106830001B78002B07D0FFF7E3FF00220D4B1A70E7
:106840000D4B01321A700D4B0D4C1B780D4D002B6A
:1068500003D123782A78134307D0FEF7A1F8002349
:1068600001222B702370044B1A7070BD221F002070
:106870003E0800205F0000206C1F0020D50800208B
:10688000641F00205F1F002010B51D4B1B78002BDC
:1068900003D11C4B1B78012B07D1002921D10028E3
:1068A0001FD00222184B1A701BE0002915D10028B6
:1068B00018D1164A1278002A01D1002B01D0032BDF
:1068C0000FD10123124A11784B40137002D01022CD
:1068D000104B1A70104B0122E5E7002801D0FCF79D
:1068E0001FFD10BD084A032B02D001231370F8E7E7
:1068F0000A4B1B78002BF8D002231370084BEAE7F1
:106900005F1F0020431F00205D1F00205E1F00202E
:10691000D5080020641F0020711F0020231F0020C5
:10692000ED1E00200022404B70B51A70904203D03B
:106930003E4B1B78934212D03D4B1B78012B0DD15F
:106940000024FCF7C7FE3B4B20001C7006F03EFD08
:10695000394B1B78012B01D0384B1C7070BD05F0F2
:10696000A5F8354D002807D00AF0DCFF344B1B7822
:10697000002B2ED0334B2AE0334B1B785BB2002B1D
:1069800002D0FCF74DFFF1E7304B1B78002B05D010
:106990000EF080FB0322294B1A70E7E72B78032BBC
:1069A00014D0234A1278012A03D1294A1278002AE6
:1069B000D4D0012B02D00022204B1A702549264B3F
:1069C00009781A78002915D1002A1AD1234B0122FF
:1069D0001A700022224B1A702B78012B04D0174B0F
:1069E0001978032900D01A7001221E4B1A701E4B11
:1069F0001A70B3E7002A04D11C4A1278002AE5D0A5
:106A00001A701A780E2A01D90E221A7000261B78E5
:106A1000164A174C1749137020000E22CE5414F05A
:106A2000DFFAA673D2E7C0465F1F0020F91E0020E0
:106A30006A1F0020DE1E0020431F00205F00002090
:106A4000201F0020B4070020241F0020231F002047
:106A5000BD070020221F00203E0800204C08002017
:106A600018050020711F00206C1F00203504002035
:106A7000D02000202F080020F0B5B94B87B002933A
:106A80001B7804000D001600002B10D100290ED039
:106A9000B44A137A002B0AD0B34B1978092906D1CE
:106AA000102804D012681A700122B04B1BE0B04FBE
:106AB0003B78132B06D0A34216D1002D14D11323FB
:106AC0003B7011E0AB4A1278002A10D0002D01D1A2
:106AD000102C0BD1FCF714FBFEF748F9102C06D054
:106AE0000022A54B3C701A7007B0F0BD1C00A34FEC
:106AF0003B78132BDFD1002D00D17DE1A04B1B781B
:106B0000002B00D178E1FCF7FBFAFEF72FF9102CEF
:106B1000E6D19C4B1B78052B02D1002006F086F8AD
:106B2000FA22994B92001A80984B0193984B19784E
:106B3000002903D01E224A43964B1A70002D00D024
:106B40006CE1954F3B78002B02D007F0A5FE3D701D
:106B5000924F3B78002B03D007F002FF00233B70DD
:106B60008F4F3B78002B03D007F068FE00233B706B
:106B70008C4F3B78002B13D08B4B1A68019BD08B2A
:106B8000597B012308F0CCF800233B7004F08EFF02
:106B9000002805D1854B1A78002A01D101321A70DC
:106BA0000022834B1B78934207D0824B1B78934281
:106BB00003D1029B1A7853425A41744B0193597E78
:106BC000131E01D1002904D06E4B1B78013B581EC7
:106BD000834179480778B80700D559E1002B00D1E7
:106BE0008CE1102C00D055E1744B1F78002F04D09D
:106BF0003700002D01D101271D70714B04931B78C4
:106C0000002B05D0102C01D00D2C01D1FDF7C8FEB2
:106C1000002F10D15B4B1B78012B00D013E2694B86
:106C20001F780393002F00D0CFE1102C00D07AE121
:106C30002800FFF777FE504C2078002803D004F09E
:106C400045FF00232370604C604A23780192002B9B
:106C500009D028225E4B1A8008F0D0F80123019A4F
:106C60001370002323705B4C2378002B09D0002E77
:106C700000D061E307F074FE002301222370564B1D
:106C80001A70564B1A78002A06D000221A709642C3
:106C900000D055E307F0D2FD514B1A78002A06D0F8
:106CA00000221A70964200D04EE307F0F5FD4D4BDE
:106CB0003E4F03931B884C4C0293002B23D0002E95
:106CC00001D1002D0AD00DF027FC254B1B780028A0
:106CD00001D0012B02D0022B00D039E3324B2B49DB
:106CE0001A686B46497B1B7AD08B08F019F804F0C0
:106CF000DDFE3B78002803D1002B01D101333B702E
:106D00000023039A13803D78384E002D00D12DE3E7
:106D1000374B02931B78002B00D123E3290000207E
:106D200007F0BAFB2900012007F0B6FB2378FF2B00
:106D300001D100232370012333700023029A3B709A
:106D4000137005F07FFE012006F0C2F900233370B6
:106D5000284B1B78002B00D10CE3FFF739F909E32E
:106D6000431F00200C1F00205A1F00206C1F002012
:106D7000270000203A1F00205D1F00202600002071
:106D8000DC0700206A1F0020580000208C1F002014
:106D9000CA1F0020701F0020B9070020B80700207C
:106DA000B7070020B6070020601F00201F08002042
:106DB000021F0020FE1E0020B5070020B40700209F
:106DC000D50800204D080020B3070020B20700209E
:106DD000441F00202B080020711F0020B107002055
:106DE000B00700204A0800205F0000202E08002085
:106DF000AF070020480800200D2C00D089E6BF4BCB
:106E00001F78002F00D084E6BD4BDB7F002B00D124
:106E10007FE6FDF7ABFFBB4B1F7065E60DF07CFB1B
:106E2000102C03D1B84B1B78DB0728D5029B1B78AD
:106E3000012B04D1132804D01538012801D9FDF7FE
:106E400095FF0D2C1BD1002E19D0B04B1B78002BB9
:106E500007D0FFF71DFC0022AD4B1A70AD4B01327D
:106E60001A70FFF7DFFC0122A64B1A70AA4B1B78A1
:106E7000002B01D0FFF7ACF80022A84B1A60029B50
:106E80001B78012B00D08BE62822A54B1A8087E6C1
:106E9000002B33D001200D2C0AD1002D08D0002A60
:106EA00006D0A04B18709B4B187004F00FFE1BE629
:106EB000074201D0002905D12300113B012B30D915
:106EC0000A2C0CD00F2C0FD1002D00D10CE6002E77
:106ED00018D1022004F0FAFD0422934BE3E5002EC2
:106EE0001FD1002DF5D0FFE5002D00D15DE2002E71
:106EF00000D0F9E50A2C00D1F6E5EAE7092C01D922
:106F00000F2C0BD1894B1B78002B0AD0002D00D100
:106F1000EAE5002E00D0E7E50220C6E7102C00D1FC
:106F200062E6834B61E6FE230293112C06D020001B
:106F3000FCF746FA0290FF2800D17CE6002D0CD128
:106F4000A0238022DB0552009A627A4B28001D7034
:106F5000FDF73EFBFDF77AFA6DE6002E00D06AE6FB
:106F6000019B7E331B78002B07D0A0238022DB05FA
:106F700052009A616F4BFF3A1A70FDF767FA029B55
:106F8000FE2B06D1019B6C497E331878FDF7D8FFA4
:106F900051E6019B7E331C78FDF7A4FAFDF7B0FAA9
:106FA000002C00D003273800FDF734FA6349702025
:106FB000FDF718F8FDF724FB6148FDF745FE029840
:106FC000FDF764F9FDF7A4FA35E6B54200D132E6E3
:106FD000032F02D0002D00D12DE6A0238022DB0557
:106FE00052009A620022534B1A7002239F43012FD2
:106FF00001D106F0B1FA00275022039B51481F70BF
:10700000514B1A80FDF720FE012006F061F8029B2B
:107010001B78012B01D04D4B1F70019B4633187814
:1070200000280BD105F002FE0123494A102C03D0A1
:107030003F4A002E00D0FEE51370FCE50A224243D1
:10704000444B1A70F0E7444B2E4A05931B78039289
:10705000002B1BD1029B1F78FF2F09D02300113B6F
:10706000012B00D957E1049B1B78002B00D052E183
:1070700004F01CFD002800D055E1042F00D152E19E
:10708000320029002000FEF73BFED4E5002E00D0A0
:10709000D1E5002D00D1CEE5102C6BD00127039B4C
:1070A0001F700C2C06D80A2C5ED867D00223039AD6
:1070B00013705FE00D2CF9D1FDF710FF274B1B7803
:1070C000012B0FD1264B1A88264B9A420AD0019BDE
:1070D0000199587B031D5B00CA524300CA5202212A
:1070E00007F0DAF905F0AEFC012005F0F1FF002011
:1070F0000DF03EFA0023059A9EE7C046E3180020F3
:10710000941F00205D1F0020C8070020461F00209C
:107110005B1F00206C1F0020480800204008002052
:10712000441F0020FE1E00206D1F00203E1F002077
:10713000ED1E0020741E0020D6060000C3C3000010
:1071400050C3000088130000E21E00205F000020F2
:10715000B4070020BD070020371F0020AE07002025
:1071600024000020FFFF0000924A13787B40137038
:10717000914B1E700122914B1A705CE5904C914A24
:107180009149200005F024FC23002D331F702300BB
:10719000200029331F7005F033FB8C4B38001C6036
:1071A0008B4B1C608B4B1C6005F092FFFDF7DAF9EE
:1071B000FDF794FE7F4B1B78002B00D09FE0864F9D
:1071C00046220021380013F0D3FD844C844B854ABD
:1071D00085492380537BA1800221A1714631594307
:1071E00053181800883001910188408821816081FE
:1071F0001800A03001884088A181E08118008D30FE
:107200000078B62120741800953000788C466074A0
:1072100018008C3000789C44A074180094300078DA
:107220006146E0741800BC30007820751800A83062
:10723000007860751800B0300078A0751800BB3079
:107240000078E0751800B130007820761800B5306D
:107250000078097860761800B3300078A0761800BE
:10726000BA300078E0761800AF3000786077180008
:10727000B4300078A0771800B8300088E077601C40
:10728000C17718008021BD30A63300781B88F877BD
:10729000C90056488B422BD2190007F0D7F842217B
:1072A00038000DF079FC0627A31DD887504B20200D
:1072B0000834E3870EF0A2FA3F4C277008F022FE54
:1072C000FDF7C8FB05F0E8FB0FF0DCFD8821362058
:1072D000FCF788FE00210120FDF716F805F0B2FB4F
:1072E000012005F0F5FE01232370424B1F7041E79A
:1072F0000199BE318918102213F069FECFE70222EE
:107300002D4B1A703C4B033A1A8000223B4B1A70EB
:10731000FDF7F6FD2EE73A4BBF00320029002000B2
:10732000FB58984787E4002E00D084E4002D00D15C
:1073300081E40223039A7FE60122324B1A709BE418
:107340000122314B1A70A7E40122304B1A70AEE4CF
:1073500001222F4B1A702378FF2B00D0D0E400239A
:107360002370CDE41F4B2900587BDDE43378002BDC
:1073700000D0E6E4019B1B78002B07D00023019A84
:1073800013702822234B1A8004F0E4FF224D2B783F
:10739000002B03D006F040F800232B7020780DF06E
:1073A000E7F8FF232370FFF77FFB0A2C01D0FFF7DC
:1073B0009BFB8EE5AE070020AD0700206C1F002070
:1073C0001C07002090FE9602050400006C1E0020A1
:1073D000601F0020681E0020660700206407002050
:1073E000CDABFFFF8C1F0020A5BEFFFF860700204E
:1073F000BADCFFFF5D1F002024000020AC07002046
:1074000060CF0108B8070020B7070020B9070020A7
:10741000B6070020441F00204C0800200022102046
:10742000110010B5FFF728FB0022064B1A70064B1F
:107430001B78132B02D0054B01321A70FDF7DEFBCF
:1074400010BDC046201F002060000020ED1E00205F
:10745000F0B51D4B9BB000931B78052B44D11B4B03
:107460001B78002B40D01A4B02931B780193002B02
:1074700000D1E6E1174C25782800E130FF30000309
:107480000135FDF7E3FDEBB22370072B04D9002390
:10749000029A13700FF02EFB0F4B1B78052B02D1B5
:1074A00001220E4B1A700E490E4A0B78002B00D0A9
:1074B000F0E2009913780978012900D0F1E21378FD
:1074C000002B00D0F4E228E36A1F0020E51E002014
:1074D000D91A0020D71A0020431F00206C1F00205B
:1074E0001A070020071F002004F0E0FA0028BAD194
:1074F0000C20FCF781FA01231842B4D000210220AD
:10750000FCF770FD0220FCF777FA082307043F0E12
:1075100004001F4227D00B20FCF76EFA0005000F75
:10752000FBF74EFF0600FF281DD0009B1B78012BA8
:1075300019D0C74B1B78002B15D0C64D2800FBF780
:10754000C9F90200132804D12800C34913F018FD1B
:1075500012220023AE54AD180C226B70BF4B1A7070
:10756000BF4B0B3A1A707B0702D50122BD4B1A7034
:1075700001231F4209D00122BB4B0C201A70FCF7DB
:107580003BFABA4B800BC0B21870BB0702D5002281
:10759000B54B1A70E5B2630602D50122B44B1A70DE
:1075A000240602D50022B24B1A70EB062BD501221D
:1075B000B04B1A70B04B09321A80B04B9A7F002A38
:1075C00021D0009A1278052A08D1AD4A11780029F5
:1075D00004D11420AB4A1080AB4A11700533DB7F15
:1075E000002B10D0A94AAA4B1178002902D1198882
:1075F000132908D81421198000231370A54A137089
:107600000122A54B1A70AB0604D50022994B1A70C3
:10761000994B1A806B0709D50122A04B10001A70F4
:1076200008F02AFBE1229E4B52011A8008231D42DA
:1076300004D00020994B187008F01EFB20233A005C
:107640001A4001921F4215D0964B1B78032B11D183
:10765000954B1B78002B0DD1944B1B78042B09D034
:10766000FCF704FC59209249FCF7BCFC59209149D5
:10767000FCF7B8FCFB063CD58C4B1C78042C38D1AD
:107680008D4B1B78012B34D18C4B1B78002B30D1C8
:107690008B4E5F203378013CDAB20133DBB23370BA
:1076A0000292FCF7A9F9029B864D5B00E852002C80
:1076B000EED13378232B1CD90122694B0B20347077
:1076C0001A70FCF799F90600FDF71AFCF60609D4C2
:1076D0002A887D4B9A4205D12B000833DA8F7B4BE9
:1076E0009A4274D0FDF7FAFBFDF70AFC78480FF0D8
:1076F0004DF830231F4200D1FAE66B4B1B78002B6C
:1077000000D1F5E6734B1B78012B00D0F0E6724FE9
:107710003B78022B02D0052B00D0E9E6019B042523
:10772000674C002B02D023782035ED1A0026AE429C
:1077300071D1237801234A4E33702378232B00D84C
:10774000D6E6237800230B202370FCF755F90400BC
:10775000FDF7D6FB250010231D401C426AD1594C71
:10776000594B22889A4265D123000833DA8F574B50
:107770009A425FD120200EF041F8A31DDB8F4221F9
:10778000564801930DF008FA019B834252D1E388D9
:10779000A2881B041343524A1B021B0A934249D17D
:1077A00000222800110004F077FD0190002801D18B
:1077B00001F05AFA80230135ADB2DB009D42EFD1D2
:1077C00004233B70033B3370FDF788FB90E62220D7
:1077D0000EF014F8422141480DF0DEF9AB1DDB8FAD
:1077E000834200D082E76D880DF0D8FE83880621A1
:1077F0009C46A3B29C4500D878E70B00634302681F
:10780000D618D35AAB4204D87388AB4201D901F0E1
:10781000A5FA0134EDE75F20FCF7EEF82378232B7F
:1078200006D823785A1CD2B22270264A5B0098529E
:1078300001367CE705233B70043B3370FDF796FA75
:1078400056E6284B1B78002B00D12CE6082779E060
:1078500010070020461F0020471F00205B1F00204C
:107860006C1F0020CD070020D4070020D307002084
:10787000D6070020DF1E0020E01E00208C1F002005
:10788000E51E0020381F0020E61E00205A000020C0
:10789000D80700203F080020711F0020DA070020D1
:1078A000661F0020CD1F0020371F0020431F00202F
:1078B0006840000068300000641E002011070020AE
:1078C000AC07002064070020CDAB0000BADC00004C
:1078D0000E070020AE070020AD070020660700203D
:1078E000A5BE02000A070020B14C37E028000FF0C7
:1078F00035F8002822D00821AE4A2B7B12780B42A3
:1079000068D0002A1AD1AC4B1B88DA060DD1802230
:10791000D200934209D25809A84A41008C52012250
:107920008240A749086802430A60A6490A88002ADB
:107930006BD0013A0A80A04A01331380013FFFB2A5
:10794000002F1FD08022A04ED2003388934219D23C
:107950009E4A1488002CC7D0013CA4B20133338066
:10796000F0231B0208ADE0181480400120222900FA
:10797000FCF750FF28000FF017F80028B6D080233E
:10798000DB0033808022904BD2001988904B9142CB
:1079900002D2019A002A62D000221A708D4B013265
:1079A0001A708D4B1B78002B4BD08C4B187800280D
:1079B00000D071E5884B1A78002A00D16CE5884B1D
:1079C0001B88062A55D9874A1188994200D163E558
:1079D000138061E5012A13D19A43002AAED0824B6D
:1079E0006A681B68013B9B1A8022920093428AD3EB
:1079F0000022774B01901A70764B01321A70C1E762
:107A0000022AECD1013A1A40E7E7734908788C461C
:107A100006280ED8754A0101891808AA70CA70C1D3
:107A20000D001188013029809278AA70624610708A
:107A300081E70121694B1970654B1A70654B19700C
:107A4000A0E7604B1B88002BAFD0654A10888342AB
:107A5000ABD20138C01A80B20FF0B8FB1CE51B781E
:107A6000002B00D018E55B4B1B78002B00D113E5F1
:107A70009BE70721891A89B2994207D2073BD2189E
:107A800090B2584B18800FF029FB05E5002B00D170
:107A900002E5F6E7013BDBB20B70002B00D00EE5F0
:107AA00007E553490978002900D008E5002B21D0CB
:107AB000504E514B31781A78022900D0F3E1002A58
:107AC00000D1E8E14D4D2968002905D04C480068F7
:107AD000091A002900DD44E14A4C207801380528C4
:107AE00000D9D6E1FAF71CFFB200B4009F01BB0138
:107AF000BB01BE01444B1B785BB2002B0DD103F0E0
:107B0000D5FF002809D1414B1B78002B05D1404CF3
:107B10002388002B16D0013B23803E4B1B78002B83
:107B200000D11EE13C4B1A880123110019401A4272
:107B300000D016E1394B1B78012B00D1AAE3384B5A
:107B400019700EE1374B384819780FF05BF8029B3B
:107B500019780FF057F8354B19780FF053F8224B7E
:107B600019680FF04FF8324B19780FF04BF8314B82
:107B700019680FF047F8304B19880FF043F82F4B76
:107B80001988013149080FF03DF82D4B19780FF095
:107B900039F82C4B19780FF035F82B4E0500336867
:107BA0008342BAD00FF0B4F9C8233560B4E7C046B9
:107BB000FF030000DC1A0020040700204806002014
:107BC00044060020020700200607002008070020C6
:107BD0000A07002088060020000700208C060020ED
:107BE0008A060020DE1A0020C81A00209006002015
:107BF000DC07002036060020350600200C06002099
:107C0000081F002008060020241F0020231F00203A
:107C10001807002012070020FC1E00206A1F002009
:107C2000AA0500201E1F0020C59D1C81D41A00201B
:107C3000400600203C060020380600201C1F0020C3
:107C4000DB1A0020DA1A0020140700200223237018
:107C5000BD4B1B68002B21D10020BC4BBC4E1B78B8
:107C600005960293BB4BBC4E1B7803960493BB4B0B
:107C70001B780193BA4B19780300029FCEB2BE4223
:107C80002ED3002804D00021B64A1170AE4A1160EC
:107C9000002B00D1AAE0B24B1E70A7E0B1490978D1
:107CA0005B5C002BD8D0AF4BA74A1B781268D35C23
:107CB0002E2B00D0ABE0AC4B01201988FDF740F92A
:107CC000AA4B1C68AA4B18880A21FAF733FE80B227
:107CD000001928600322A74B1A700DF0A5FDDCE007
:107CE000059B5B5C1F00613F192F13D8203BDBB263
:107CF00000200090039F0098BC46C0003F5C844475
:107D00009F425DD163465B68002B5FD1100013007A
:107D10000131B2E7202BEBD1049B002BF7D0019B64
:107D2000002BF4D1029F4B1CBB42F0DA002804D098
:107D30008C4B019A1A70844B1A600122874B0A21DE
:107D40001A7005232370894B01361C688A4B1888EA
:107D50008A4B1B88C01AFAF777FE814B00192860FE
:107D60001E70874A874B11781C780F00781E874158
:107D70000093FFB2002C02D0002300980370824DC4
:107D80002E78002E00D147E3804B18780023092875
:107D900000D034E32B703700FCF7E8FF2B78002B82
:107DA00000D139E37A4B1B78032B00D0ABE3794A3F
:107DB00013780133DBB2072B00D929E313702BE3CF
:107DC000009801300090362894D19FE71878002859
:107DD0009CD00022634901360A705B490B60012187
:107DE0005F4B1E705B4B19705C4B1A70564B1868DA
:107DF000002806D0FAF76EFD5A4B1B78834200D25A
:107E000051E706232370594B1C685C4B1CE02D2B5B
:107E100000D05FE7544B01201988FDF791F8534BD0
:107E20001C685D4B4FE7FCF76BFB4E4A1378013340
:107E3000DBB21370444A1268D25C4C4B002A0BD060
:107E4000022222701C68554B18880A21FAF772FD2D
:107E500080B20019286084E704222270D4E702234C
:107E600023707EE70027277001241F702F60347075
:107E7000FCF762FB0220FDF7E9FF494B38001F7059
:107E8000484B1F7005F0A2FA04F0DCFD3D4B1C705E
:107E900023E70023E4E70DF0E9FD434B1B78002BBB
:107EA00000D05EE739E6002A2AD0404B1A78002A33
:107EB00004D1012202201A70FDF7C8FFFCF7BEFBB7
:107EC0003B4A3C4B12683C49128E9B560A78002A6A
:107ED0001CD03A4B1A78501C1870312A02D9002253
:107EE0000A701A70364A1378002BD6D0FF2B00D0B8
:107EF000A6E100231370334A1370334A1370ECE683
:107F00000DF0B4FD3378022BC7D0CEE74408A03B78
:107F1000E4182E4A2E4B1178009300201B5E2D484A
:107F2000A5B2019024B2002906D10078002803D11F
:107F30009C4251DA009B1C80009B00201B5E60333A
:107F400050DB61235B424BE004060020AB050020C0
:107F5000AF050020AE05002080CD0108AD05002052
:107F6000AC050020000600200C000020081F0020A7
:107F70001A00002008060020140000201200002033
:107F8000711F00206C1F0020DC0700205A1F0020FA
:107F9000DD070020DB070020100000200E0000207D
:107FA000BE070020BD070020071F00204808002052
:107FB0006C1E00201C00002031060020300600202E
:107FC0003406002033060020320600202F06002051
:107FD000180000202E060020180001336130ABDAB3
:107FE00000980380009B00201B5E1800723016DB97
:107FF0000A331BB296489C4214DB964B1C800378D4
:10800000FF2B01D0013303700026934B1E70B14249
:1080100015D10378B34212D0012313700FE0692306
:108020005B42E7E78C4E3378FF2B01D0013333708E
:1080300000230370994202D031789942EDD117782C
:10804000864E874A33780292002F41D0002B0DD103
:10805000844A1378FF2B0FD1012300223370814B08
:108060001A700DF0E1FB3378002B0AD0029B1888C0
:10807000042844D8012047E00133DBB21370032BFE
:10808000EAD8794D2C88002C02D120000EF07AF825
:10809000012301341C402C80029B01201B88042BEF
:1080A00004D90A21581DFAF7CFFC80B207244443B3
:1080B000019BA4B21B78002F5FD06C4D002B49D0E0
:1080C0002B886B4A934200D90CE701332B8009E7D8
:1080D000684A002B0FD01378FF2B06D10023614A8A
:1080E00033701370634A1370BBE70133DBB2137054
:1080F000072BBBD9F2E75B4B17701F70C1E70A2152
:108100000530FAF7A1FC80B20121002F05D14018FB
:1081100080B24918032800D94108534A13888B427A
:1081200015D300231380783406DB78352B1CEDB291
:10813000402D00D94023DBB24020002F04D1181C71
:10814000142B00D91420C0B20EF01CF8A4E70133A0
:108150001380A1E7484E494F3378022B05D13B8865
:10816000A34202D346480DF0E1FF0123019A337088
:10817000137000222A803A80B4E63F4D002B36D09F
:108180003A4C2388002B28D0012B23D03D4E317848
:1081900009290AD84000834280414A1C3A4B404298
:1081A000D2B22D30585432709F542A4B009A1B88FB
:1081B000128836499B1A1A1C1BB2282B00DD282274
:1081C000130400D500220B889B18314A0B801378CA
:1081D0000133137020200DF0D5FF0023019A238076
:1081E00013700122254B1A8002232B707AE62B781C
:1081F000022B00D076E6214E1D4A3388934201D8E7
:10820000013333801F4F3B78002B09D003254543B2
:108210003388ADB2AB4203D300200DF0CDFF3580E3
:108220003388A34200D25DE63B78002B04D00120C6
:108230000DF0C2FF348055E611480DF077FFF9E7E5
:108240000133DBB213704F2B00D826E651E6C0464F
:108250002606002016000020250600202406002007
:108260001A00002023060020200600202C060020F3
:10827000FDFF0000220600202A060020280600201C
:1082800049C8010827060020140600201206002015
:1082900010060020FCF73AFB002808D1C54B9B7F55
:1082A000002B04D1C44B1B78002B00D159E5C349E6
:1082B000C34F0B78002B0ED13A00C8202B33013B63
:1082C000DBB210800232002BF9D1BE4A1370BE4BD4
:1082D000188001230B70BD4ABA4D13782C786600C4
