:020000040800F2
:1028000000400020ADA7010895390008973900085D
:1028100000000000000000000000000000000000B8
:1028200000000000000000000000000099390008CE
:1028300000000000000000009B3900081DDC0008BB
:10284000FDA70108FDA70108FDA70108FDA70108D4
:10285000FDA70108FDA70108FDA70108FDA70108C4
:10286000FDA70108FDA70108FDA70108ED54000818
:10287000FDA70108FDA70108FDA70108FDA70108A4
:10288000FDA70108FDA70108FDA70108FDA7010894
:10289000FDA70108FDA70108FDA70108FDA7010884
:1028A000FDA70108FDA70108FDA70108FDA7010874
:1028B000FDA70108FDA7010800000000098B010821
:1028C00002780B78002A03D0013001319A42F7D008
:1028D000D01A70470023C25C0133002AFBD1581E76
:1028E0007047000002B47146490849000956490082
:1028F0008E4402BC7047C04602B471464908490084
:10290000095C49008E4402BC7047C04603B471465E
:10291000490840004900095E49008E4403BC7047E5
:1029200003B47146490840004900095A49008E44E1
:1029300003BC7047002243088B4274D303098B42C7
:102940005FD3030A8B4244D3030B8B4228D3030C7F
:102950008B420DD3FF22090212BA030C8B4202D321
:102960001212090265D0030B8B4219D300E0090A49
:10297000C30B8B4201D3CB03C01A5241830B8B4252
:1029800001D38B03C01A5241430B8B4201D34B033B
:10299000C01A5241030B8B4201D30B03C01A5241A0
:1029A000C30A8B4201D3CB02C01A5241830A8B4225
:1029B00001D38B02C01A5241430A8B4201D34B020E
:1029C000C01A5241030A8B4201D30B02C01A524172
:1029D000CDD2C3098B4201D3CB01C01A5241830926
:1029E0008B4201D38B01C01A524143098B4201D360
:1029F0004B01C01A524103098B4201D30B01C01A8B
:102A00005241C3088B4201D3CB00C01A5241830804
:102A10008B4201D38B00C01A524143088B4201D331
:102A20004B00C01A5241411A00D201465241104691
:102A30007047FFE701B5002000F0F0F802BDC04686
:102A40000029F7D076E7704703460B437FD4002276
:102A500043088B4274D303098B425FD3030A8B4232
:102A600044D3030B8B4228D3030C8B420DD3FF229C
:102A7000090212BA030C8B4202D31212090265D06A
:102A8000030B8B4219D300E0090AC30B8B4201D31D
:102A9000CB03C01A5241830B8B4201D38B03C01A64
:102AA0005241430B8B4201D34B03C01A5241030BDB
:102AB0008B4201D30B03C01A5241C30A8B4201D38C
:102AC000CB02C01A5241830A8B4201D38B02C01A37
:102AD0005241430A8B4201D34B02C01A5241030AAE
:102AE0008B4201D30B02C01A5241CDD2C3098B4293
:102AF00001D3CB01C01A524183098B4201D38B0110
:102B0000C01A524143098B4201D34B01C01A5241B2
:102B100003098B4201D30B01C01A5241C3088B42F7
:102B200001D3CB00C01A524183088B4201D38B00E2
:102B3000C01A524143088B4201D34B00C01A524184
:102B4000411A00D201465241104670475DE0CA0F5B
:102B500000D04942031000D34042534000229C461B
:102B600003098B422DD3030A8B4212D3FC22890125
:102B700012BA030A8B420CD3890192118B4208D3FB
:102B8000890192118B4204D389013AD0921100E05D
:102B90008909C3098B4201D3CB01C01A5241830971
:102BA0008B4201D38B01C01A524143098B4201D39E
:102BB0004B01C01A524103098B4201D30B01C01AC9
:102BC0005241C3088B4201D3CB00C01A5241830843
:102BD0008B4201D38B00C01A5241D9D243088B4299
:102BE00001D34B00C01A5241411A00D2014663463C
:102BF00052415B10104601D34042002B00D54942A0
:102C0000704763465B1000D3404201B5002000F0DE
:102C100005F802BD0029F8D016E770477047C04696
:102C2000D0400B00D1409C46203AD340184352423A
:102C300063469340184370479140030090409C4680
:102C4000203A9340194352426346D3401943704798
:102C50001C2101231B04984201D3000C10391B0ACC
:102C6000984201D3000A08391B09984201D3000990
:102C7000043902A2105C40187047C04604030202E7
:102C80000101010100000000000000000448054BA4
:102C900010B5834203D0044B002B00D0984710BDE1
:102CA000F8000020F8000020000000000648074956
:102CB000091A8B10C90FC91810B5491003D0044B5D
:102CC000002B00D0984710BDF8000020F80000202D
:102CD0000000000010B5074C2378002B09D1FFF746
:102CE000D5FF054B002B02D0044800E000BF0123B4
:102CF000237010BD600200200000000058BB0108D6
:102D0000054B10B5002B03D00449054800E000BF77
:102D1000FFF7CCFF10BDC046000000006402002099
:102D200058BB0108054B82B0DA6B0243DA63DB6BF8
:102D300018400190019B02B07047C046001002404D
:102D4000054B82B01A6C02431A641B6C1840019048
:102D5000019B02B07047C04600100240802130B590
:102D600080240822454B49009962A40045B2002DF9
:102D700000DA81E09C62C046C046C046C046C046FC
:102D8000C046C046C046C046C046C046C046C04613
:102D9000C046C046C046C046C046C046C046C04603
:102DA000C046C046C046C046C046C046C046C046F3
:102DB000C046C046C046C046C046C046C046C046E3
:102DC000C046C046C0469961C046C046C046C046DF
:102DD000C046C046C046C046C046C046C046C046C3
:102DE000C046C046C046C046C046C046C046C046B3
:102DF000C046C046C046C046C046C046C046C046A3
:102E0000C046C046C046C046C046C046C046C04692
:102E1000C046C046C046C0464000C0B29962C046E7
:102E2000C046C046C046C046C046C046C046C04672
:102E3000C046C046C046C046C046C046C046C04662
:102E4000C046C046C046C046C046C046C046C04652
:102E5000C046C046C046C046C046C046C046C04642
:102E6000C046C046C046C046C046C046C046013AFD
:102E7000002A00D07AE730BD9C617CE70004005056
:102E8000054B82B05A6B02435A635B6B184001904A
:102E9000019B02B07047C046001002400222064B60
:102EA00099681142FCD00122187399681142FCD034
:102EB000D868C0B27047C0460038004010B5040062
:102EC000000CC0B2FFF7EAFF200AC0B2FFF7E6FF2E
:102ED000E0B2FFF7E3FF10BD0B4B5A7E002A02D091
:102EE0009B7E002B0ED10322084B01211A70002279
:102EF000074B1A70074B1970074B1B788B4201D098
:102F0000064B1A707047C046D8210020990A00204D
:102F1000AB210020980A00208F21002061000020B2
:102F2000084B1A68293213780133DBB2072B00D91A
:102F3000012313700122044B1A80044A044B1278B7
:102F40001A707047AC210020960A00208F210020C3
:102F5000610000200122064B1A80064B1A683432A9
:102F600013780133DBB2032B00D1002313707047B9
:102F7000960A0020AC210020012305498A7F5A408F
:102F80008A77044A1370044A1370044A1370704716
:102F9000D8210020770A00207A0A0020BD210020D5
:102FA0000A4810B502780A4B002A0CD00633D97FA4
:102FB0004C426141D97701235A400270054A13708F
:102FC000054A137010BD0533F1E7C046760A0020AC
:102FD000D82100207A0A0020BD2100200E490F4A86
:102FE0000B7870B5501D0E4D0E4C002B0CD02D786B
:102FF000C57720780632D077012253400B700A4BF8
:103000001A700A4B1A7070BDC67F2E70951DED7F29
:10301000C37725701800EDE7750A0020D82100203D
:10302000740A0020730A00207A0A0020BD210020C3
:10303000012304490A785A400A70034A1370034A6C
:10304000137070473B2100207A0A0020BD21002028
:103050000123044A11784B4013700222024B1A706C
:103060007047C0466C0A00206B0A00200123044A06
:1030700011784B4013700222024B1A707047C04601
:103080006A0A00206B0A0020044B05481A88504346
:10309000044A801880B21880000A70472800002077
:1030A0000508000019360000F0B5130007270322B9
:1030B0003B405A431B4B85B0D31801930123039126
:1030C0009C46002102900020019B5B5C0093009BCA
:1030D0006246C340134213D0039B1C18A3B23F2B7C
:1030E0000ED86546029B5A18E3B23C40A540D2B2C6
:1030F000ECB2072B0CD80C4BD5189B5C1C432C70E6
:1031000001300528E3D101310329DCD105B0F0BD40
:10311000DB08013BDB01054E9D18AD19F618B35CC9
:10312000ECE7C0465CCA0108A10A00202D1D002062
:10313000054B1A78002A06D000221A70034B013280
:103140001A70034B1A707047280A0020B82100201B
:10315000BD21002030B50E4B1B689A8B0D4B1868B3
:103160000D4B19680D4B1C6C844207D15C6C8C4272
:1031700004D11C0048342488944207D01C00002548
:103180004A3418645964483325801A8030BDC046DB
:10319000B82000208C0A0020D0040020D404002095
:1031A0000E4B10B51B68191E13D00D4A1268918B77
:1031B00000290ED083420ED80A4A126882420AD3EE
:1031C000C01AFFF7B7FB084B0021984201D8013025
:1031D00081B2080010BD0021FBE7C0468C0A002028
:1031E000B8200020D0040020FEFF000010B5094CDC
:1031F0002278531CDBB2172B00D90023064952005A
:103200005052064A23701378172B01D801331370DC
:1032100010BDC0469D0400209E0400209C04002098
:103220000122054B52421A800023044A1360044ACB
:103230001370044A137070470400002098040020A3
:10324000950400209404002070B51E4A0300126803
:103250000232D47F221C082C00D208221A491B48B3
:103260000D88083A92B2854206D100200B80844234
:1032700001D0A342404170BD15482E1C854201D9A2
:103280001448068814481036B6B21C1C834201D973
:10329000124804880834A4B29E4202D80120934206
:1032A000E9D2A64202D801209442E4D29D4202D93A
:1032B00000200B80DFE707226A430432D318DB08C3
:1032C000F6E7C046B820002004000020FFFF000001
:1032D000EFFF000098BC0108F7FF00009ABC01084E
:1032E000002806D0044A13780133DBB2032B01D83F
:1032F000137070470023FBE791040020F8B5104CD1
:103300002368002B02D000232360F8BD0D4B0E4F25
:103310001B681B691D680D4B2560597B4A42514152
:1033200048224A439B1888331E683E60FFF778FFA7
:10333000B54201D926603D60FFF70CFFE5E7C046C6
:103340008C0A0020AC210020D0040020D8210020CD
:10335000074B1B78012B0AD0064B1B78012B06D09C
:10336000012205494B7E53404B76044B1A7070473F
:103370008F210020B6210020D8210020770A0020CC
:103380000021012210B5124B1960124B587B4240AC
:1033900011485A7304788C4202D001700F480170B2
:1033A000991DC87F002801D0501CC8770533D97FEC
:1033B000002901D00132DA770123094A1370094A42
:1033C0001370094A13700022084B1A7010BDC046D2
:1033D0008C0A0020D8210020AB210020A821002049
:1033E000770A00207A0A00204E00002061000020A9
:1033F000092802D83030C0B2704703000A3BFF20D2
:10340000052BF9D8014AD05CF6E7C046FBC7010896
:1034100010B50E4A0E48137B59424B410021DBB2D6
:1034200013738B4200D04831883152180260094A28
:103430001378002B03D101331370074A1370002057
:103440000AF06AF80A22054B1A8010BDD821002024
:10345000B82000208B0A0020BD210020240A002073
:10346000194B10B51B78002B11D0FFF761FE174ADE
:10347000174B12781B7852B2002A1BD1154AD27F03
:10348000002A05D1032B02D0032009F0F3FD10BD63
:10349000114A1278002AF5D1642010490880104999
:1034A0000A7010490A7001210F4A117001210A4A5D
:1034B0001170E7E7084A11780029E3D114200B4A7C
:1034C00010800B4AF1E7C046260A00207021002038
:1034D000B6210020DD21002036210020240A002012
:1034E0004E0000208B0A0020BD210020920A0020FF
:1034F0004F000020034B10B51B78002B01D1FFF7C4
:10350000AFFF10BD31210020302210B5002104484A
:1035100017F0A0F90022034B1A70034B1A7010BD6C
:103520009E0400209D0400209C04002010B5084B40
:103530001B78012B01D9042B05D1062008F05AFC79
:10354000062008F057FC0022024B1A7010BDC0463E
:103550001822002034000020A023402210B5DB05F3
:103560009A6215F0A9FC10BD10B5032804D00728F5
:1035700009D0074B185C03E0064B1878A6231843C4
:10358000FFF7EAFF10BD044B18781530C0B2F7E71B
:10359000D8CA0108A00A00202A00002070B50C4BF0
:1035A0001B6834331C78012C0AD10321094D28787B
:1035B0000130FFF72FFB2970200009F001FF70BDDB
:1035C000002CF9D1044D052128780130F1E7C046DF
:1035D000B8200020720A0020710A002070B508F09F
:1035E00015FE114B041E00D1104B19680D002D352E
:1035F0002A78343153425341D8B228700B78012BCA
:1036000007D153425A4103205242104015F00AFD9F
:1036100070BD002CFAD000208242F7D1044B1878FC
:103620000130C0B2F2E7C046B8200020AC21002033
:10363000700A002070B5868B00687143081831004D
:103640001C00150008F0DEFCA04206D8A84203D2F8
:103650003100A01B08F0D6FC70BD2800FCE700007C
:10366000F0B5212585B0FFF775FD164B1E68164B8A
:103670001B785BB20193154B1B680293144B1B68BC
:103680000393144B1F783000039B029A0199FFF7B4
:10369000D1FF013DEDB204003060002D07D0FFF7EF
:1036A0007FFD002803D000230B4ABB4202D120003B
:1036B00005B0F0BD0232911E09888142E3D001338A
:1036C000DBB2F2E7B8200020702100208C0A002035
:1036D000D00400201E050020D404002010B50AF0FC
:1036E0006BF90122044B1A70044B1B78002B01D09C
:1036F000034B1A7010BDC046C2070020940A002078
:103700007A0A002070B50B4D00202B78002B0DD1CC
:10371000094B1C78002C06D00A226243074B1A7012
:1037200000232B7070BDFFF7D9FF200009F0A2FC29
:10373000F6E7C046C20700201E220020C107002075
:103740000F4B70B51B78002B17D00E4D2B78002B2C
:1037500015D0002913D001230B4C0A000100812051
:10376000237014F0CDFF094B2278002A07D0013BCB
:10377000002BF9D123702B7001E011F0CDFA70BD50
:10378000C0070020BF070020BE070020A086010060
:10379000264B70B51A688023D28BDB009A422ED25A
:1037A00000230A2518002249224E0A78DCB29442EE
:1037B00009D300280DD1042A21D1002301220B7046
:1037C0001D4B1A7007E06843F45C0133001980B2A6
:1037D000ECE7042AF1D000220138184D84B2110020
:1037E00020006E7B08F08AFF002809D1124B1B785D
:1037F000012B02D80222124B1A700BF0FBF970BD9C
:10380000002302210E4A1370321D520054530D4AF8
:10381000760011700C4A745313700C4A1370687B55
:103820000AF0E8FF0BF0E6F9E7E7C046AC2100201C
:10383000AB210020D0030020B0210020D82100209F
:10384000A92100206B0A00206A0A00206C0A0020CF
:10385000F8B5264B264C1A78002A03D0A11DCA774A
:1038600000221A700022234B1A70FFF74DFE224BE4
:103870001F68224B3E001B78002B01D0204B1E6896
:103880008022204BD2001B8893421CD2207BB2B2F4
:10389000031D5B00E25202214300E2520AF0AAFF3C
:1038A000B74204D00BF0A6F90122174B1A7000237F
:1038B000383423700BF0E8FF012009F02DFE0122BF
:1038C000124B1A70F8BD124B1D6828002E6009F0CB
:1038D000E1FA280009F0C6F9B742E8D001232A002E
:1038E000217BE88B0BF0C2FBE1E7C046900400208F
:1038F000D8210020702100208C040020080A00201C
:10390000100A0020900A0020BD210020B8210020CC
:10391000B820002010B5174B174CDB7F002B19D0B7
:10392000164A1378002B03D000231370144A137027
:10393000144A637B11688022C98BD20091420AD25B
:103940005B00E2189288E25201220F4B1A700F4B73
:1039500092181A7010BD04335B00E05A0023012155
:103960001A0008F005FF0A4B9842F3D0637B5B0016
:10397000E052E9E7DC210020D8210020AB21002023
:10398000A8210020AC210020B40700206B0A0020F1
:10399000FFFF00007047FEE770477047014B024A87
:1039A0009A60704700ED00E0002800080E4B1A787E
:1039B00082420DD018700D4B0D4A1B5C0D491380CF
:1039C0000D4A12889B1A9AB21BB2002B01D10B70C0
:1039D00070471811002B03DD53421B115B4218B2D4
:1039E000064B18800123F2E7311B0020F7CA0108BB
:1039F000281B00202E1B00202C1B00202A1B00202F
:103A0000922210B5054B5200985CFFF7CFFF0022C1
:103A1000034B1A80034B1A7010BDC046D8210020FA
:103A20008C2100202F1B0020F8B5802380267E4F9C
:103A30007E4C9B007600BB610500A662C046C04676
:103A4000C046C046C046C046C046C046C046C04646
:103A5000C046C046C046C046C046C046C046C04636
:103A6000C046C046C046C046C046C046C046C04626
:103A7000C046C046C046C046C046C046C046C04616
:103A8000C046C046C046C046C046C0468020BB6255
:103A90002843FFF763F92368654A13402360C04653
:103AA000C046C046C046C046C046C046C046C046E6
:103AB000C046C046C046C046C046C046C046C046D6
:103AC000C046C046C046C046C046C046C046C046C6
:103AD000C046C046C046C046C046C046C046C046B6
:103AE000C046C046C046C046C046C046C046102379
:103AF0000020400080B2844601212069A661400A6E
:103B0000084061460843C046C046C046C046C0465D
:103B1000C046C046C046C046C046C046C046C04675
:103B2000C046C046C046C046C046C046C046C04665
:103B3000C046C046C046C046C046C046C046C04655
:103B4000C046C046C046C046C046C046C046C04645
:103B5000C046C046C046A662C046C046C046C04633
:103B6000C046C046C046C046C046C046C046C04625
:103B7000C046C046C046C046C046C046C046C04615
:103B8000C046C046C046C046C046C046C046C04605
:103B9000C046C046C046C046C046C046C046C046F5
:103BA000C046C046C046C046013B002B00D0A0E73F
:103BB00023681A408023DB021343236080239B0089
:103BC000BB61C046C046C046C046C046C046C046AF
:103BD000C046C046C046C046C046C046C046C046B5
:103BE000C046C046C046C046C046C046C046C046A5
:103BF000C046C046C046C046C046C046C046C04695
:103C0000C046C046C046C046C046C046C046C04684
:103C1000C046A661A361074B302D02D0472D01D1CC
:103C2000054B1880F8BDC046001400500004005039
:103C3000FFFFF3FF320000203000002070B50600C7
:103C400069200D00FFF7F0FE040003040BD46A2086
:103C5000FFF7EAFE0C4B24030005000D1C40044353
:103C60000220346070BD6820FFF7DEFE03000020F4
:103C70001A04F7D40548DB04DB0C58430449FEF76B
:103C8000E3FE28800120EDE700F0FF00EB120000CA
:103C900010270000F7B5694B694A00931B78019221
:103CA000002B26D113785BB2002B0AD0654B664AF5
:103CB0001B889B18062B04D8644B1B78002B18D04C
:103CC000F7BD634B1D786B1E022B27D86149624BF1
:103CD0000A78002A03D0614A1278002A06D01A789E
:103CE000002A1BD05E4A1278002A17D100220A70DF
:103CF0001A70012009F010FC01225A4B1A70019B26
:103D00001B785BB2002BDBD0574B1A78502AD7D8E0
:103D1000002A00D089E0FFF79BFDD1E74B4B01243F
:103D20001B78524F002B0AD03B78DAB2002B05D11A
:103D3000A5421AD00ED9AB1EA34229D900243B7844
:103D40004B4E002B69D1002C67D13378002B41D129
:103D50003470B5E7474BDB7D002BEFD0464B19782D
:103D60000029EBD002241A70E9E7444B1978394B4B
:103D7000002906D01A70404B1A78002ADED00022A3
:103D8000F0E71A78002AF6D11D706432334BF1E760
:103D90003B4B1978304B002914D03A490978012956
:103DA00010D11A70344E3378002BC7D00C20FFF797
:103DB0003BFE0405A40F013C63425C410023640008
:103DC0003370BCE71A78002AECD101321A70244B08
:103DD0006332E6E72C4BDB7F002BB9D0023D012D8F
:103DE000B6D80C20FFF720FE0005800F0128AFD1C8
:103DF000254BDB7F002B00D162E7A0238022DB056F
:103E000052009A62214BEC3A1A800023009A1370F8
:103E100001223A701E4A137052E700233370012CBE
:103E200000D166E7022CE3D04AE719235343194A2D
:103E300013800022184B1A7042E7C0461D0A00206A
:103E400070210020900A002000FCFFFF260A0020BD
:103E5000230A0020210A00201E0A00201C0A00203C
:103E60001B0A0020B8210020002200201A0A00208E
:103E7000180A0020D8210020190A0020220A002058
:103E8000200A00201F0A0020DB210020160A002043
:103E9000C0200020920A00204F000020F8B50C003E
:103EA000374B302802D0472805D1364B1A88A2421A
:103EB00000D142E11C8080238026334F334D9B008C
:103EC0007600BB61AE62C046C046C046C046C04632
:103ED000C046C046C046C046C046C046C046C046B2
:103EE000C046C046C046C046C046C046C046C046A2
:103EF000C046C046C046C046C046C046C046C04692
:103F0000C046C046C046C046C046C046C046C04681
:103F1000C046C046C046BB62FEF720FFC046C04652
:103F2000C046C046C046C046C046C046C046C04661
:103F3000C046C046C046C046C046C046C046C04651
:103F4000C046C046C046C046C046C046C046C04641
:103F5000C046C046C046C046C046C046C046C04631
:103F6000C046C046C046C046C046C0461023AE62EA
:103F700022B2002A00DAE1E080229200AA6207E081
:103F800032000020300000200014005000040050D7
:103F9000C046C046C046C046C046C046C046C046F1
:103FA000C046C046C046C046C046C046C046C046E1
:103FB000C046C046C046C046C046C046C046C046D1
:103FC000C046C046C046C046C046C046C046C046C1
:103FD000C046C046C046C046C046C046C046C046B1
:103FE0006400AE61A4B2C046C046C046C046C046EA
:103FF000C046C046C046C046C046C046C046C04691
:10400000C046C046C046C046C046C046C046C04680
:10401000C046C046C046C046C046C046C046C04670
:10402000C046C046C046C046C046C046C046C04660
:10403000C046C046C046AE62C046C046C046C04646
:10404000C046C046C046C046C046C046C046C04640
:10405000C046C046C046C046C046C046C046C04630
:10406000C046C046C046C046C046C046C046C04620
:10407000C046C046C046C046C046C046C046C04610
:10408000C046C046C046C046013B002B00D06FE78B
:10409000C046C046C046C046C046C046C046C046F0
:1040A000C046C046C046C046C046C046C046C046E0
:1040B000C046C046C046C046C046C046C046C046D0
:1040C000C046C046C046C046C046C046C046C046C0
:1040D000C046C046C046C046C046C046C046C046B0
:1040E00080239B00BB61C046C046C046C046C04658
:1040F000C046C046C046C046C046C046C046C04690
:10410000C046C046C046C046C046C046C046C0467F
:10411000C046C046C046C046C046C046C046C0466F
:10412000C046C046C046C046C046C046C046C0465F
:10413000C046C046C046AE61AB61F8BD8022920069
:10414000AA6125E770B590B004004022684618497E
:1041500016F0AFFC392C08D82F2C25D8232C25D0CD
:104160000EAD2A2C09D010B070BD2300413B373C66
:10417000032BF8D8A4006C44250028880D4C0E4E63
:1041800060430E498019FEF7D5FB81B27120FFF71D
:1041900085FE6B8809495C43A019FEF7CBFB81B211
:1041A0007220FFF77BFEDEE7303CE3E70FADE4E78C
:1041B00070BB01084C930100881300001027000019
:1041C000F0B54E4B0D271B68DFB032331B78062B42
:1041D00000D10A370EAC2E220021200016F03AFB47
:1041E00000265F20FFF720FC350073000136E05207
:1041F000B742F6D159204249FFF750FE59204149B4
:10420000FFF74CFE00210220FFF748FE42AB1A00E8
:1042100000214800205A070A507017700800023227
:104220000131A842F5D172000392002219000192D7
:1042300002920A780027049207220498012610416E
:104240003040019E46403000904007430196FFB247
:10425000013AF2D2029A0F70013202920298039A46
:1042600001318242E5D800221878597800025600C0
:104270000143A1530233110001328D42F4D12E22A9
:1042800000211AA816F0E6FA00221AAB0EAC510073
:10429000095B080A59701870110002330132A942F3
:1042A000F5D10E2200210AA816F0D4FA70220021BE
:1042B00026A816F0CFFA7022002142A816F0CAFAFA
:1042C0000023114D00210A001AA8C4180020A65C82
:1042D000AF5C7740002F0DD101320918052AF5D1C6
:1042E000022913D903995A1C1433994200D22AE1A6
:1042F0001300E7E77E1E37400130EBE7B8200020CF
:10430000684000006830000034CA0108A8213A0063
:104310000724012049005B180AA95B182500D10871
:1043200059180C39FF3909789543294170260AAD8F
:104330000140AD19A9540132B242EFD100220F2041
:1043400007211300A82503404B436D005B190AADFC
:1043500014095B191B192C0070256419A45C703BAF
:1043600001321C70AA42ECD1002201240720E02572
:104370000AAB5B1905009B5C95432340AB40D10819
:104380000AAD6D5C01322B430AAD6B54702AEED13D
:10439000AC8807F08FFF280012F07CFDA04200D10E
:1043A000ADE00722002142A816F054FA3F22FF2177
:1043B0006A4816F04FFA4022FF21694816F04AFA7F
:1043C0000022684B684E1A70019207220199019BE6
:1043D0000A40A821DB0849005B180AA95B181900EC
:1043E0004A3B5139FF39FF3B09781B781141134192
:1043F00001200122002408401A40069007920294EE
:104400000394584B1B5D0493FF2B30D063002209AB
:1044100008936308534001221340620953400593F7
:1044200020230025234009933F23089A04992A4317
:104430001A40069B07986B405B18059969404140FC
:104440005B1847495018895C8B420DD20370099B59
:10445000002B09D001200021FEF7EEFB029B034355
:104460000293039B0B430393002D00D16DE00134B5
:10447000402CC6D1029BFF203360039B384A7360F7
:104480000023384914781070CC5401330132402B8A
:10449000F8D1019B083601330193382B95D10A7866
:1044A000373BC85C824201D902001F000133402B18
:1044B000F7D1372407262C4D01232100E0203B4073
:1044C00031408B400AA9E2080918895C0B430AA90C
:1044D00009188B547B080193E3005B193A001868B4
:1044E0005968FEF79DFB2023019F400118400743B8
:1044F000013CE1D2072242A90AA816F0DAFA0AAB77
:104500009C8807F0D7FE0AA812F0C4FC84421AD196
:104510000AAA54885178154A64BAA0B21480144C7F
:104520000AAB25680A246C43546002241B78FF34CC
:104530009370D1701481072B09D80E4A9B009B58A9
:10454000002B04D098475FB0F0BD01256CE7FA213D
:104550000020C90007F04EFFF5E7C046C90900205A
:1045600088090020C8090020C80700205400002046
:10457000542100203CCA010810B5094C23880029A9
:1045800008D04022C240134399B233202180FFF764
:1045900085FC10BD4121494201411940F5E7C04663
:1045A000101D002010B5040051200A49FFF776FCC9
:1045B00007200949FFF772FC21050820090DFFF7C4
:1045C0006DFC802321021B02090D08201943FFF70F
:1045D00065FC10BD33A00000D70A00000C4B10B5DD
:1045E000C1184B1E9941040049420A4B890A8902AD
:1045F000C9185120FFF752FC0748084B604308498F
:10460000C018FEF797F981B20720FFF747FC10BDED
:10461000BFF5FFFF409400009826030050C3000040
:10462000A086010070B5040031200D00FFF7FCF9F1
:10463000A02361051B02490D194306004620FFF720
:104640002DFCC0216D056D0D490129437920FFF72F
:1046500025FC7A200449FFF721FC04213143312055
:1046600089B2FFF71BFC70BD9A28000010B504004A
:1046700081B23820FFF712FC3920210CFFF70EFC25
:1046800010BD000010B50349000201434720FFF7A9
:1046900005FC10BD4260000010B537200549FFF74A
:1046A000FDFB00213020FFF7F9FB30200249FFF726
:1046B000F5FB10BD1F9F0000F1BF000010B53120B9
:1046C000FFF7B2F90223984381B23120FFF7E6FBEE
:1046D00000212B20FFF7E2FB10BD000070B50500A4
:1046E0003120FFF7A1F90400002D06D108239C43D7
:1046F000A1B23120FFF7D2FB70BDAB1E5A1E934111
:10470000AD21DB03890119432920FFF7C7FB0120F5
:10471000A842804105494042800301432820FFF719
:10472000BDFB0821214389B2E3E7C046382B0000D6
:1047300010B53120FFF778F90423984381B2312076
:10474000FFF7ACFB10BD10B500212420FFF7A6FB3E
:1047500010BD0000DB2110B52120C900FFF79EFB32
:1047600024200249FFF79AFB10BDC0467FC100001C
:1047700010B550200149FFF791FB10BD18BB000098
:1047800010B550200149FFF789FB10BD183B000010
:1047900010B500213020FFF781FBE82137204901C7
:1047A000FFF77CFB10BD000010B500217020FFF763
:1047B00075FB0020FFF766FFFFF7E2FF00213020C6
:1047C000FFF76CFB30200249FFF768FB10BDC046C5
:1047D000F1BF000010B5C3217020FFF75FFB72200E
:1047E0000A49FFF75BFBC1215820FFF757FB5C200C
:1047F0000749FFF753FB8E215D20C901FFF74EFBF0
:104800005E200449FFF74AFB10BDC046653000003A
:10481000655600000432000010B500213020FFF77B
:104820003DFB10BD054B10B51B78002B05D00121B9
:104830000020FFF7A1FEFFF72FFF10BD3121002060
:1048400010B50400FFF794FF0020FFF71BFF0021C5
:104850007020FFF723FBFFF776FF30200349FFF7B7
:104860001DFB002C01D1FFF78BFF10BDFEC1000026
:1048700010B530200149FFF711FB10BDFAC300004D
:1048800010B50400FFF766FFFFF772FF00208442B7
:1048900000D00330FFF7F6FE70200349FFF7FEFA61
:1048A000FFF7E6FF10BDC046C3C3000010B5672088
:1048B000FFF7BAF8C005C00D10BD000010B5064BDB
:1048C000064A1B7811781B011943B0231B024820AC
:1048D0001943FFF7E3FA10BD5A2200205C220020A2
:1048E00010B501240E4B05201A7854401C7061420B
:1048F00061410F2349421940A1231B01C91810F03F
:104900001CFB0022074B944202D11A00833212781A
:1049100082331A70FFF7D2FF0122034B1A7010BDC9
:104920006D0A0020D8210020BD21002010B5FFF71E
:104930009DFEC02151208900FFF7B0FAFFF7ACFEC1
:1049400010BD10B500210420FFF716FE0021032042
:10495000FFF712FE10BD00000B4B10B5984208D8AF
:1049600001210420FFF708FE00210320FFF704FEC9
:1049700003E0013002D1FFF7E4FF10BD0021042065
:10498000FFF7FAFD0121F0E7FF3EAB0170B51D4BCB
:104990001B78013B012B27D900241B4B1B4A1C70A1
:1049A00013781B4DA34220D01A4B14701C701A4B65
:1049B00080221C80A02301265200DB059A62174B3F
:1049C0001C7010F0D3FA164B1B681868FFF7C4FF71
:1049D000144B1E70144B1C700AF056FF5022134BE0
:1049E0002C701E70124B1A8070BD124A137008F0A2
:1049F0005FFA012008F090FD10F0A4FD03232B7056
:104A0000F2E7C046B6210020AB210020AA210020F9
:104A1000610000206F210020780A0020C0200020C3
:104A2000B8200020BD210020102200207A0A00209A
:104A30002E210020940A002070B50F4D04002A6832
:104A4000002A08D0002318000C49A1425841914285
:104A50005B41984202D02000FFF77EFF20002C60CF
:104A6000FFF704FE00213020FFF718FA044B302036
:104A70001988FFF713FA70BD98040020FF3EAB01C0
:104A800092040020A023F7B5160008220500DB05DC
:104A90009A6203200C00FEF701FA2800FEF70EFAD6
:104AA000C0232E4DDB00AA681100194001911A4263
:104AB0000AD10F2E0AD8A619B44249D0FF20FEF71A
:104AC000EDF920700134F7E7EA68ECE740222B6843
:104AD000042093432B6013F0F7FD052013F0F4FD41
:104AE000802284211E4B52015A601E4F042049012E
:104AF00013F0CCFD05201C4913F0C8FDFC601B4CD5
:104B000031000420BC6013F0D1FD194A194B31006B
:104B1000D36094600224052013F0C8FD019B164E5B
:104B2000042033703B6823433B6013F0DBFD05201A
:104B300013F0D8FD01236A68134340226B602B6891
:104B400013432B606B681C436C603378002BFCD0E4
:104B5000A0230822DB059A61F7BDC046003800405B
:104B60000000024044000240101000000C380040D9
:104B700058000240241B0020221B002000B5030027
:104B80000078002208280ED8FDF7B6FE050F151D87
:104B90003522272F2F000122552904D0AA2901D020
:104BA000002000BD05221A70FAE7AA394A42514195
:104BB00049001970F4E703220029F4D005394A426C
:104BC00051418A00EFE7484241411A70C8B2E8E714
:104BD00000225529E7D10632E5E7032901D1072252
:104BE000E1E70429DFD10822DDE7122903D81029E3
:104BF00001D00248017001201A70D2E72B0000207A
:104C00000022034B1A70034B01321A707047C046E2
:104C1000210B0020BD210020F7B5A02640275039E8
:104C20000430F605C5B20193C8B2B762140014F09F
:104C300043F910202B09184314F03EF90F202840A7
:104C400014F03AF9019BB761E5182078013414F0AB
:104C500033F9AC42F9D1F7BDF8B50423124E040084
:104C6000B3624020FEF778FC104A002C07D0104BAE
:104C700001251F00072C0AD8621ED201D2188023FA
:104C800021000020FFF7C8FF0423B361F8BD29000D
:104C900001353A0080230020EDB2FFF7BDFF8037D9
:104CA000082DF4D1F0E7C04600040050A10A00200E
:104CB0002D1D002010B50820FFF7CEFF10BD10B548
:104CC0000130C0B2FFF7C8FF012011F095F910BD07
:104CD00010B50020FFF7C0FF10BD0000F7B5041E9F
:104CE000294E2A4F2BD00024FEF7CEF97021FDF774
:104CF000A7FEA5192970FEF7C7F90321FDF7A0FE4D
:104D00003D19013101342970202CEDD10BF022F92D
:104D100000250BF015F90024EFB2BB00DBB20193C4
:104D2000725DE100611A5118D219121909B2D2B29A
:104D3000002C16D10198FEF7B7F90134F0E73500E1
:104D40002B783A5D9B18DBB22B70702B04D9FEF7E1
:104D50009BF90F231840287001340135202CEFD126
:104D6000D4E7032C02D901231A4202D00198FEF79E
:104D70009BF90134082CD3D10135202DCBD1FFF77D
:104D8000A7FFFFF797FFF7BD4A0A00202A0A002075
:104D900070B5254B1C78002C3ED0244BDB7F013BAB
:104DA0003B2B39D8224D2B78002B35D1214B1B784A
:104DB000002B31D1204B1B78012B2DD007F026FA88
:104DC000002829D11D4B1B78002B25D11C4B1B78AB
:104DD000002B03D01B4B1B78002B1DD01A4B1B78CC
:104DE000002B19D1194B1B78002B01D0032B13D1A9
:104DF000631E012B11D80FF053FCFFF769FFFFF77B
:104E000059FF012300202B70114B1870114B1870A3
:104E1000114B187011F0F0F870BD032CF1D1012086
:104E2000FFF75CFFEDE7C046290A0020E0210020E3
:104E3000280A002086210020B62100206C210020B5
:104E40006F21002023210020832100208F210020BA
:104E5000270A0020B8210020BD210020042370B5BE
:104E6000074DE220AB62FEF777FB002420000134FF
:104E7000E4B2FEF779FB082CF8D10423AB6170BDD6
:104E800000040050042370B50024064DAB622000DE
:104E90000134E4B2FEF768FB0B2CF8D10423AB61BC
:104EA00070BDC046000400500B4B70B51B680B4C26
:104EB000584300236568A268834200D370BDA1688F
:104EC0008A4203D99B185B1A0A00F5E78A42FBD293
:104ED0006E1AF318D318F7E7341B002010E000E037
:104EE000324870B50378002B20D0314B314A002175
:104EF000595E13885B181BB21380002917DD2E49F9
:104F00000024095F994219DD1478002C1CD12B4A2A
:104F1000013413680720A343136013F0D5FB20006E
:104F2000FFF7C2FF8022264B52009A6270BD002913
:104F3000EAD021490024095F9942E5DB1E4B1B881A
:104F4000138000230370DFE76401FF212000FDF7D9
:104F5000F1FCFF2300225B019C421AD01100194E84
:104F6000194D0B0082424B415B42334001339400A8
:104F7000FF3301322B51202AF3D101240F4D2B682E
:104F80002342D3D1072013F0ADFB2B681C432C60C8
:104F9000CCE70121094A072013688B43136013F003
:104FA00093FB8022064B52009A61BFE72E1B002024
:104FB0002A1B00202C1B0020281B0020001400406E
:104FC0000014005000FFFF00381B0020782170B54E
:104FD0001B4A1C4B12781C4C4A431A801B4A1C4B20
:104FE00012781A701B4B1D781B4BDB7F002B06D1F0
:104FF000FEF706FD002D01D0FEF798FA70BD0122E4
:10500000164B1A702623FF33E05CFEF7CFFC002D11
:1050100005D0134B1B78002B0CD1FEF787FA083410
:10502000E17F00230F4A3D2902D00A234B4301337D
:105030001380E3E7FFF754FF0B48FFF735FFE8E77E
:105040006000002088210020D8210020311B002092
:10505000301B002034000020E02100202F1B002006
:105060002E1B00208C21002010270000064910B5BF
:105070000B78002B03D0054A054B1278DA77002312
:105080000B70FFF7A3FF10BD6F0A00206E0A00200F
:10509000E021002080220A4B520243439B1810B5A6
:1050A00071200C00590CFEF7F9FEFFF769FBFA209E
:1050B00080006043FFF7F8FEFFF75AFB10BDC046C3
:1050C0001DA61400F8B51C0005000E001700FFF720
:1050D0004FFB201E05D0A02380220320DB055200B9
:1050E0009A61FFF7CFFA12493F02394389B2702023
:1050F000FEF7D4FEFFF7BCFB0E48FFF7D5FE3100EC
:105100002800FFF7C7FF002C07D0A0238022DB0573
:10511000520000209A62FFF7B5FA00217020FEF7D6
:10512000BDFE30200449FEF7B9FEFFF729FBF8BDAC
:105130000080FFFF50C30000FEC1000010B5002139
:105140003F20FEF7ABFE68215920FEF7A7FE03487B
:10515000FFF7AAFEFFF760FB10BDC04630750000E8
:1051600010B5FFF7EBFF00210220FEF797FE0021AC
:105170003F20FEF793FEFFF78FFAC0213F20890101
:10518000FEF78CFE59200449FEF788FE592003499A
:10519000FEF784FE10BDC046684000006830000085
:1051A00070B50D000400FFF7E3FAC2217020090278
:1051B000FEF774FE80230B495B026943C918712016
:1051C000490CFEF76BFE0020844200D00330FFF74D
:1051D00059FAFFF74DFB0448FFF766FEFFF7D0FAD8
:1051E00070BDC0461DA6140050C30000F0B5FA26DD
:1051F0000500002485B003930AAB1F880BAB1B8806
:10520000B6007343019102920093285D002801D1FA
:1052100005B0F0BDFEF796FFFFF7B2FA019B002B39
:1052200002D00298002C06D02B5D03982A2B02D0C6
:10523000232B00D038007043FFF736FEFFF798FAB3
:105240000098FFF731FE0134DFE7000070B5A025BC
:105250000826094CED050520AE62FDF71FFEFF2074
:10526000FDF71CFEAE61C00705D50A20013CFFF723
:105270001BFE002CEFD170BD40420F0070B5A02482
:1052800008250600E405A5620620FDF707FEA561D6
:10529000FFF7DCFFA5622020FDF700FE3000FDF7E0
:1052A0000DFEA561FFF7D2FF70BD000010B5040030
:1052B000FFF7E4FF054B1B68A34205D18022FF21C5
:1052C0000348520115F0C6FA10BDC0462C0000205C
:1052D000220B0020F0B587B06B46049003921A7C35
:1052E0008023A0255B0002919B1AED05039A019291
:1052F0009A4200D9019308231C00AB620620FDF7F7
:10530000CDFDAC610220AC62FDF7C8FD0498FDF74D
:10531000D5FD029C019AA6180F2A5BD94022314C78
:1053200004202368304E9343236013F0CDF9052009
:1053300013F0CAF980222D4B52015A60002104203B
:1053400013F0A4F99021052013F0A0F9284F294B60
:105350000420F3600199B76013F0A8F9264B029975
:105360000520D9609F60019913F0A0F9234B022713
:1053700005930023059904200B7033683B43336089
:1053800013F0B0F9052013F0ADF90123626813435F
:105390004022636023681343236063681F43676090
:1053A000059B1B78002BFBD00823AB61FFF74EFF5A
:1053B000019A049B944663440493029B63440293C2
:1053C000039B9B1A03938023039A5B00002A8DD1D1
:1053D00007B0F0BD20780134FDF760FDB442F9D18B
:1053E000E2E7C046003800404400024000000240AE
:1053F0000C380040241B002058000240221B0020D3
:10540000F0B587B0059380230705040B3F0D5B01C2
:105410000190029103922403DE1B039B002B03D116
:10542000FFF714FF07B0F0BDFFF710FF039DB54273
:1054300000D935002B4E3368A34206D080222000CD
:1054400029495201FFF71EFB3460274E2A00BE197E
:105450003100029815F0AAFB002826D00023F25C48
:10546000FF2A31D101339D42F9D100232A003000B7
:105470000299049315F01DFB049B002B2DD02000F6
:10548000FFF7FCFEFFF7E2FE059B174E002B1DD039
:10549000EF193A0031002000FFF71CFF8022520173
:1054A000FF21D21BF01915F0D5F9019B00275B19DC
:1054B0000193029B5B190293039B5B1B0393802365
:1054C0005B011E00E418A8E70123CFE7802231002A
:1054D00020005201FFF7FEFEE7E72A00029901983B
:1054E000F8E7C0462C000020220B002080201C4939
:1054F00080010B6810B5034230D00224194B1A68A2
:1055000022422BD01A68A2431A6048600A20FFF793
:10551000CBFCC021144A154B49019868084202D0BF
:10552000013A002AF9D180210F4A9868084202D036
:10553000013A002AF9D1C0210B4AC90098680842F3
:1055400002D0013A002AF9D102215A688A435A60EE
:105550005A6801398A435A60054B197010BDC0461C
:1055600000000240440002401127000000380040C3
:10557000221B002070B540262025094C0120A66181
:10558000FFF792FCA5610120FFF78EFCA6620120C7
:10559000FFF78AFCA5620120FFF786FC70BDC046BC
:1055A0000014005070B540252026094C0120A5624A
:1055B000FFF77AFCA6620120FFF776FCA6610120C6
:1055C000FFF772FCA5610120FFF76EFC70BDC046BD
:1055D00000140050F7B5234C234A23680190134070
:1055E0002360082300252027012600933000A762AE
:1055F000FFF75AFC3000A761FFF756FC3000FFF7B9
:1056000053FC23696D00EDB25B0600D535433000D5
:10561000A762FFF749FC009B013BDBB20093002B24
:10562000E4D12268104B01201A4080235B01134310
:105630002360A762FFF738FC019A4023002A0ED0AE
:10564000A36120260120FFF72FFCA6610120FFF7B0
:105650002BFCA6620120FFF727FC2800FEBDA362F9
:10566000EFE7C04600140050FFCFFFFFF8B520233E
:10567000264C0500A3620120FFF716FC08266BB23A
:10568000002B3EDB4023A36220270120FFF70CFC08
:10569000013E0120A761FFF707FC6D000120A76212
:1056A000F6B2FFF701FCEDB2002EE8D140252368E9
:1056B000174E012033402360A561FFF7F5FBA7617A
:1056C0000120FFF7F1FBDF3723691A002A402B4244
:1056D0001AD0013F0120FFB2FFF7E6FB002FF3D104
:1056E00001256D422023A3620120FFF7DDFB80230B
:1056F00022685B0132401343236040232800A361EA
:10570000F8BD4023A361BFE71500EBE7001400508C
:10571000FFCFFFFFF7B51C4B1A78D1B20191132AC6
:1057200002D01878C0B2FEBD7823802680270025DD
:10573000164C3602A361FF010A20FFF7B5FB23696F
:105740001A003240334212D03B420FD09A0417D590
:105750000322DB040BD50135052D13D07823072256
:10576000A361521B773B9340A362E5E70122084BFC
:10577000A9005B18985C1328EDD07823A361D2E7C9
:105780000222F4E70198F8E72B0000200004005003
:10579000E3CA010810B532246320FEF745F9C0B210
:1057A000C72806D9013C0120E4B2FFF77DFB002C9D
:1057B000F2D1FFF77BF8FFF779F810BD70B5FFF76E
:1057C000E9FF1A4A0400031C904201D9184B1B88B8
:1057D000184A083312689BB20232D17F164A1588E4
:1057E000164A954204D1002901D0994212D970BDC0
:1057F000134E2A1CB54201D9124A1288103292B2B5
:105800009A42F4D80A1C082900D20822083A92B217
:105810009A42ECD8AF204000FFF746FBFFF7BAFFF3
:10582000231C844200D2031C98B2E0E7F7FF00007B
:105830009ABC0108B820002004000020FFFF0000EF
:10584000EFFF000098BC0108604BF0B51C68604B8E
:1058500085B01B68002B00D1A8E05E4B1B78002BA5
:1058600000D19DE0A31CDB7F002B00D198E030200D
:10587000FEF7DAF80626584A584B10401880FDF714
:10588000EFFE2060200007F005FB23691D68544BE4
:105890001B68002B06D0534A127852B2002A4ADD08
:1058A0009D424CD32800FFF7C7F8FFF787FF05009C
:1058B000FDF79CFC2800FDF7C7FC002861D0A18BF8
:1058C0004B1EF82B28D8FA20236880000293FDF79E
:1058D000BBF8502800DD50200026370083B2039328
:1058E00023691B680193FDF7BBFE2060200007F0D1
:1058F000D1FA236918683B4B1B785BB2002B21DD82
:10590000019B834223D9029B2000236007F0C2FA47
:1059100023691868FFF790F80122334B1A702000B2
:1059200007F0B8FA200007F09DF9012007F0F4FD18
:1059300009222E4B2EE0002AB4D09D42B2D9FDF7A9
:105940006FFCAFE7002B02D0019B8342DBD3FFF754
:1059500073F8FFF71FFF854209D20500002723686F
:1059600002930136039BB6B2B342B9D1CBE785426D
:10597000F7D9281A0728F4DD0137FFB2022FF0D932
:10598000C1E7013EF6B2002E00D078E70122164BA7
:105990001E70164B1A800122154B1A7005B0F0BD0F
:1059A000114A1370FDF75CFE2060B8E70E4A0D49FE
:1059B0001370208E0F4AC000097813185B68825854
:1059C00049B22000FDF736FEEEE7C046B8200020C1
:1059D0008C0A002003000020FFFDFFFF920400203E
:1059E000980400207021002095040020920A0020D5
:1059F000B821002004C80108F0B5D44BD44C1A7863
:105A000095B0531E182B3DD8230080212A331B78D4
:105A1000C9000593A38D8B4231D01BB2E58D8D4219
:105A200036D02DB2CB490191098802910599002900
:105A30000ED0C9490E780391002E2CD0012E00D132
:105A400040E10323039A1370C44B019A1B8813800F
:105A50000025C04B01221E88C14B5D5723007019E1
:105A600029331B78290080B206F082FEBD4B070067
:105A7000984200D038E1FDF7D3FB00271BE001235B
:105A80005B42CBE7012301215B421D000591C9E781
:105A900001256D42C6E7B14902980880002B00DA63
:105AA00010E19FB23100380006F028FE002800D136
:105AB00008E1039B1E70019B1F80237B1A1D5B0066
:105AC000E752A94B52001D68A84BA7521B78EF83E1
:105AD000002B00D174E1AB1CDB7F002B00D12EE149
:105AE0001022380108A9FEF7CDFF089B0193013B66
:105AF000033300D920E1152008AB1B22C018002178
:105B000014F0A8FE019B0C930E93099B0293029A3A
:105B1000974B9A4201D9974B0293029B0F24109303
:105B200008AB9B7A08A91A001B0922400A750B775B
:105B30000CA8097A07F086F808AB597A0EA807F086
:105B400081F808ABDB7A1C400394022C01D90022B7
:105B5000039203990CAA11761E092F2B00D9002657
:105B6000D67508AB9B7B0493172B01D904230493B0
:105B7000049B0CAA049993757F4B4900CB5A0121D1
:105B80000793938208AB1B7BFF2B00D0BBE05176C1
:105B90000691039B012B00D1C5E0022B00D1C7E089
:105BA00008AB5B7BFF2B06D01B075B0F072B00D1DD
:105BB00000230CAA937748226549704C0B7B200088
:105BC0005343C918883114F074FF0CAA1100230044
:105BD000E78381C981C39C46180088C988C0634691
:105BE00002990398A1610799A1830499D9772100AB
:105BF00034310E70611CC8772100507E2931087045
:105C00002000917E2B3001702000D77E2D30077050
:105C10002000177F333007702000069F2830077060
:105C2000907F2200002901D01A0023002261012266
:105C30006361534B21001A702B002F003231087022
:105C400034331C782D373A78A64201D1002A16D079
:105C50001E7000233B70A64202D0300007F0B0FB5C
:105C60000020012E03D13878002800D0032013F043
:105C7000D9F9A64203D00122424B52421A80302069
:105C8000FDF7D2FE404A414B104018800198FEF7C4
:105C9000D3FEFFF793FD0400FDF7A8FA2000FDF7FF
:105CA000D3FA3B4B002877D001221A70284B0221EF
:105CB000187B08F09FFD012007F02EFC0122354BD8
:105CC0001A7086E0230029331A78002D00DAB8E62E
:105CD000AFB20021380006F011FD002800D1B0E677
:105CE00001221D4B1A70E6E6002D05DD864200D824
:105CF000E1E6FDF795FADEE6002D00D1DBE686420F
:105D000000D3D8E6F5E71800084090765808084018
:105D1000D076D806400F507658099B0908400B40B2
:105D20001077069335E7019B029A9B180E9337E78D
:105D3000019B029A9B1AF9E70022114B1A7000226C
:105D4000134B1A70029BBB4243D0AFE701220020E5
:105D5000D8210020900A002091040020880400200F
:105D600070210020FFFF0000B82000200300002069
:105D7000FFE0F50540420F00ECC901084004002097
:105D80009404002004000020FFFDFFFF9204002087
:105D900095040020B82100201870019B0F4A2B6049
:105DA00012780F4B002A01D09B68AB6001220D4B8B
:105DB0001A800D4B1A700598FDF792FA15B0F0BDD8
:105DC000029BBB4200D071E7084B1B78002B00D030
:105DD0006CE70922034B1A80EDE7C0466B040020F4
:105DE00040040020920A0020B821002095040020E1
:105DF000F0B585B0041E039107D0324A324BD17FF3
:105E000019700023D377314A137007F051F806F068
:105E1000FDF92F4B01932F4B0293002812D0A023A2
:105E200080220025DB0552009A622B4B1D702B4B04
:105E30001D70019B1D70029B1D7006F0F3F9280078
:105E400007F018F90022264B1E68264BF78B1F809F
:105E5000254B1A70254B039A1A70FDF755FBFDF779
:105E6000DFF98023224DDB009F4221D2214B18789D
:105E700006F0FEFB002804D1013006F011FC0AF008
:105E8000C3F8002C03D0F38B1B4A2B601360FFF781
:105E9000B3FD1A4B2A681A603222194B1A8000236C
:105EA000184A1370019A1370029A137005B0F0BD6E
:105EB000002C03D03368104A2B601360FFF7C4FC3A
:105EC000E7E7C046DE21002090040020080A0020F9
:105ED0003621002037210020C0200020940A002015
:105EE000B8200020900A002091040020702100209A
:105EF000100A0020012200208C0400200C0A00203F
:105F0000920A00204F000020010010B50020FFF78A
:105F10006FFF074B1B680233DA7F1423002A00D07F
:105F2000133B044A13800022034B1A7010BDC04675
:105F3000B8200020920A00204F0000200A4B10B524
:105F40001A68002A01D1094A1A601868084A4118DB
:105F5000914206D914F054FC0C2303600120404206
:105F600010BD1960FCE7C0469C0A0020C834002020
:105F70000040002070B506000D001400FEF740FE42
:105F80002A4B1B78002B1DD129490B78002B19D0E7
:105F90000122284B1A70122E13D1002C11D1002D82
:105FA0000FD0254B1A70254B254A1C701378002BF7
:105FB00001D10B7005E02D21013BDBB21370214AAA
:105FC000D15470BD112E1DD0122E13D000230A2ED5
:105FD0001FD0AC42F5D101201B4A17491278087036
:105FE000002A1DD0182B1BD8184ADA40024217D0BD
:105FF0000223DEE7164B002C02D048331B78E8E77B
:106000004733FBE7124B002C01D04A33F6E7493304
:10601000F4E79C42DDD024220D4BFF329B5CD8E795
:106020000C4A9B009B589847CBE7C0468F21002025
:106030006E21002039210020A921002061000020CC
:106040008A0A00207B0A0020AA2100202CDCF20111
:10605000D821002074CA01080E4910B50A780E4BE9
:10606000002A0AD10833D87F0C4A10703D22DA7713
:1060700001230B70FEF7AAFF10BD2621084AFF314D
:10608000595C12780833914202D10022DA77F1E7A5
:106090003D22FBE76F0A0020D82100206E0A002075
:1060A000301B0020BFF34F8F034B044ADA60BFF36D
:1060B0004F8FC046FDE7C04600ED00E00400FA0542
:1060C000F7B50600FDF734F8494B1C68002C0AD0E0
:1060D000484B1B78002B06D1B01E4342584121008B
:1060E000800010F02DFBE122434B444F52011A80F7
:1060F0003B78002B01D00EF039FFA0238022DB0576
:1061000052009A613E4BFF3A1A703E4B1B789B0738
:1061100001D5FEF75BFF00223B4B3C4D9A563C4BB2
:106120000193002A1CD16B1DDB7F002B42D134343C
:10613000FEF7C4FB207807F043F9300006F09AFF21
:10614000022E02D03B78002B4DD0324B1B78012B16
:1061500002D000200EF056FA0123019A1370F7BD09
:106160002835FDF75DF82B78502B1FD92A4A117876
:10617000002909D1503B1900FA235B004B43274902
:106180009BB20B80012313700022254B1A70254A05
:10619000254B116819608021E38BC9008B4200D325
:1061A000236813600122214B1A70C0E700221B4BA9
:1061B0001A80E9E70635E97F4B424B413C205B42C0
:1061C000FF3003401A48693303801A4B1A700029C4
:1061D00002D10122184B1A700022184B1A700123A9
:1061E000019A1370A3E70122154B1A70B4E7C04659
:1061F000B8200020251D0020B2210020AA21002067
:10620000C0200020140A002070210020D821002086
:10621000BD2100208F21002037210020920A00207C
:106220004F000020100A00200C0A0020080A00205D
:10623000240A00204E000020382100208B0A002074
:10624000B821002010B5174B1B78022B08D006F0A0
:106250002FFE012007F060F90220FFF731FF10BD8B
:106260000022114B1A70114B1B785BB2934208D07D
:10627000FA210F4B490019800E4B1A700E4B013258
:106280001A70012007F048F90C4B0D4C1B78002BBD
:1062900004D00FF057F903232370E0E7094B1B7874
:1062A000FAE7C046B6210020940A002070210020A1
:1062B000920A00204F00002037210020AA21002050
:1062C000610000208F2100201E4B10B51B78D8B232
:1062D000002B09D11C4B1B78002B04D006F0CAFE02
:1062E00001221A4B1A7010BD194B1A78194B1B78E2
:1062F000134359424B411849DBB20978C8B200290F
:1063000005D0012A03D10021144B19700300144950
:106310000978002912D01349097801290ED1023ACF
:10632000012A0BD80022104B1A70104B04201B7846
:10633000002B00D00238FFF7C3FED4E7002BF4D1C6
:10634000D1E7C046260A0020B6210020B82100204F
:10635000230A002070210020220A0020210A0020A8
:10636000200A00201F0A00201E0A0020940A002094
:1063700010B51A491A4B08781A781A4B00280FD012
:10638000032A0FD0184A1278D0B2002A00D1087020
:106390001B88164A9B18062B1DD9FFF72DFB12E010
:1063A000032AF5D11B88114A9B18062B03D9104BE1
:1063B0001B78002BF1D10F4B04201B78002B00D051
:1063C0000238FFF77DFE00230B4A13700B4A13704F
:1063D0000B4A137010BDFFF737FAF4E7950400205D
:1063E000B6210020900A0020260A002000FCFFFFB2
:1063F000230A0020940A00203721002036210020A3
:106400004F000020F7B5814C0E00657B002902D0BB
:1064100001227F4B1A70237F002B04D0022802D068
:10642000FEF7EEFBF7BD7B4B1B78012B03D1784BBE
:1064300002221A70F6E7122800D912E2FCF770FA6D
:10644000130016008D0093009900A500DC00DF000A
:106450009F01AE011102C801C8011102110211020F
:106460001102ED01ED01FEF791FADBE76A4B6B4992
:106470001A68D38B5B18062B43D9FEF7C1FB231D8B
:10648000DB7F002BD3D0664B1B78002BCFD1654B25
:106490001B785BB2002B0BD0634B1B78032BC1D155
:1064A000624B1B78002BBDD0614B1B88002BB9D0F1
:1064B0008023627BDB005100605A9842B2D24823AD
:1064C0005343E3181A008020B8321288C000121813
:1064D00092B2A63362521A8006F0EAFC554B1C6851
:1064E000200006F0D7FC200006F0BCFB012007F0DE
:1064F00013F80123504A1380504A1370504A137006
:1065000090E7138E062B07D111694E480E6886421C
:1065100002D84D4B0B6085E701339BB21386042BE9
:1065200017D14A4B1B78002B01D105331386138EEC
:106530008022D2009B1801229BB26D006353651923
:10654000AB803E4B1A70424B92181A70414B00229E
:106550006FE7062BEBD90023E8E701223C4B1A70CA
:10656000FCF70EFF5EE70122394B1A70FDF7D2F9F6
:1065700058E7FEF745FB00200634374BE27FE07713
:106580001A700BF0B5FA334B52E7002E04D112F01B
:1065900057FD304B1E7045E705F01CFC051E00D072
:1065A00040E71D4B1C688023E08BDB00984202D340
:1065B000FCF7A4FE36E705F0D3FF037801007F2B3C
:1065C0000AD97F2213400370E08B05F0B9FF012246
:1065D0001F4B1A70214B2CE722002E321378013307
:1065E000DBB2192B00D92B001370012321001A00F4
:1065F000E08B10F06BFCEAE7FCF792FC12E7184D19
:106600002B78002B2ED00FF013FC0BE7D8210020A5
:10661000A92100208F210020AC21002000FCFFFFD9
:106620008A21002070210020B62100203621002080
:10663000920A0020B8200020960A0020B40700200B
:10664000B8210020FFE0F50500E1F5053C0400203D
:106650006B0A0020610000203B040020B3070020EB
:1066600053210020621DD27F824B1A70A21D824BE3
:10667000D27F1A70814B1A78002A01D101321A7028
:1066800000237F4AA38413707E4A137006F010FC27
:106690007D4A7E4F1378002B04D17D4B39781970D9
:1066A0000123137001267B4B30001E7006F034FF6F
:1066B000794803780193002B07D1220041321178E9
:1066C000764B06701970019B1370FEF73CF801239E
:1066D00002203B70FFF7F4FC0022714B1A70714BE3
:1066E0001A702C23FF33E35C5A1F5F2A00D914234E
:1066F0006D4A1370C8226D4B92001A8001226C4BB8
:106700001A7000236B4A13706B4A13706B4A137034
:106710006B4A13706B4A13706B4A13606B4A1370A9
:106720000FF058FB6A4B6B4A1888032343431188C8
:10673000994200D0138001200FF0E0FA0122664B4D
:106740002A701A7000217F32644814F083F8802286
:106750000021634814F07EF880220021614814F083
:1067600079F800218022604814F074F800225F4B11
:106770001A700FF0ADF8022005F03CFB52E6002E37
:1067800002D1FFF769FC4DE60121594B1B682B3301
:106790001A784A401A70574B198043E6002E02D1EE
:1067A000FEF764FC3EE6260000224E3611003088DB
:1067B00005F0A4FF002800D134E632882B1D5B00D1
:1067C0006D00E252625301224B4B1A704B4B2FE685
:1067D0004B4B1B785BB2002B0BD00B2806D10A3831
:1067E00005F05EFF09F010FC404BB0E6012040428E
:1067F000F6E7444AE37D11780A2900D113700B288B
:1068000007D1082B01D80133E37501223B4B1A70E5
:10681000EAE7002BF9D0013BF6E7354B3A4D196812
:1068200000230C000834E27FEE5C964203D0013373
:10683000182BF9D10023122803D1172BD4D0012211
:1068400002E0FF22002BCFD0D218D2B2AB5C2F4A8D
:10685000E377CB8B9B18062BD7D80122254B1A80C8
:10686000D3E7FEF7CDF9002E00D1DBE50122284B5E
:10687000DFE5C0463A040020390400203804002037
:106880008B0A00204E00002037040020940A0020CC
:106890003604002038210020350400203404002074
:1068A00033040020E2030020010000200C0000203F
:1068B00000000020370600203606002038060020A1
:1068C000E1030020E0030020DC030020D8030020C7
:1068D0001A000020100000203A060020AD1E002003
:1068E0002D1F0020AD1F00202D200020210B002097
:1068F000AC210020960A0020B40700206B0A00207B
:106900007021002002000020E3C7010800FCFFFF07
:10691000A921002010B514220021024813F09AFF8B
:1069200010BDC0469221002070B5414B04001B7879
:10693000A0B0002B40D005F069FC051E0BD1032050
:106940000DF060FE3B4B1D703B4B1B785EB2002B85
:1069500003D00EF0F3FB20B070BD384A384B394DF0
:10696000002C25D00121684611708022FE311E7056
:1069700013F070FF3300802269463348FEF740FD74
:106980006022FF21314813F065FFAB7D304A9B0741
:106990005B0F9D5A2F4B07201D800EF0ADFA2E4B3A
:1069A000000918802200012128000EF08FFBD2E799
:1069B00014701C70AD8AEDE705F00CFA041ECAD104
:1069C0001C4B1870254B1870FFF7A4FF06F070FAE7
:1069D000200000240DF016FE214B1C57002C16D071
:1069E0008022204BD2001B88934202D3FCF730FF59
:1069F000B1E7012005F054FE09F006FB08F044FF62
:106A00002000FFF781FA0122174B1A70A3E7174BFA
:106A10001B685A1E9341164A0133137008F034FF65
:106A200001210800FFF7E4F9124B1C70EBE7C046A8
:106A3000AA210020940A00206F2100202621002096
:106A400022210020D821002028A00000C220002000
:106A50005CCC0108BC200020BE200020A721002023
:106A600070210020900A0020BD2100208C0A002007
:106A7000102200208B0A002010B50120FFF754FFE0
:106A800010BD00000F2210B50021044813F0E2FEF3
:106A90000022034B1A70034B1A7010BD7B0A0020B2
:106AA0008A0A00206E210020114B70B51B78002B44
:106AB00003D1104B1B78002B07D0FFF7E3FF002218
:106AC0000D4B1A700D4B01321A700D4B0D4C1B788B
:106AD0000D4D002B03D123782A78134307D0FEF7FE
:106AE0008FF8002301222B702370044B1A7070BDA5
:106AF0006E2100208A0A002061000020B8210020B9
:106B0000210B0020B0210020AB21002010B51D4B2F
:106B10001B78002B03D11C4B1B78012B07D10029BC
:106B200021D100281FD00222184B1A701BE0002927
:106B300015D1002818D1164A1278002A01D1002B4D
:106B400001D0032B0FD10123124A11784B4013704F
:106B500002D01022104B1A70104B0122E5E70028DA
:106B600001D0FCF7F5FB10BD084A032B02D001232E
:106B70001370F8E70A4B1B78002BF8D00223137030
:106B8000084BEAE7AB2100208F210020A92100203B
:106B9000AA210020210B0020B0210020BD210020CF
:106BA0006F210020392100200022404B70B51A705F
:106BB000904203D03E4B1B78934212D03D4B1B7842
:106BC000012B0DD10024FCF79DFD3B4B20001C70D8
:106BD00006F02CFE394B1B78012B01D0384B1C7072
:106BE00070BD05F0F7F8354D002807D00BF010F810
:106BF000344B1B78002B2ED0334B2AE0334B1B78C1
:106C00005BB2002B02D0FCF723FEF1E7304B1B7880
:106C1000002B05D00EF092FA0322294B1A70E7E7F9
:106C20002B78032B14D0234A1278012A03D1294A46
:106C30001278002AD4D0012B02D00022204B1A70E7
:106C40002549264B09781A78002915D1002A1AD12E
:106C5000234B01221A700022224B1A702B78012B31
:106C600004D0174B1978032900D01A7001221E4B4B
:106C70001A701E4B1A70B3E7002A04D11C4A12780E
:106C8000002AE5D01A701A780E2A01D90E221A703D
:106C900000261B78164A174C1749137020000E2245
:106CA000CE5413F00FFFA673D2E7C046AB210020ED
:106CB00045210020B62100202A2100208F2100201C
:106CC000610000206C210020B80700207021002006
:106CD0006F210020C10700206E2100208A0A0020B9
:106CE000980A002020050020BD210020B8210020A6
:106CF0003D0400201C2300207B0A0020F0B5B84F83
:106D000004003B780D00160085B0132B07D0A3427A
:106D100003D1002D01D113233B7005B0F0BDB14A62
:106D20001278002A0FD0002901D110280AD1FCF7CF
:106D3000FFF9FEF74BF9102C05D00022AA4B3C704E
:106D40001A70EAE71C00A94F3B78132BDFD1002D06
:106D500001D100F074FCA64B1B78002B01D100F090
:106D600058FCFCF7E5F9FEF731F9102CE5D1A14B01
:106D70001A78092A0BD1A04A117A002907D0126883
:106D80001A7001229D4B1A7001E0002DEFD19C4B2F
:106D900001931B78052B02D1002006F06BF9FA2233
:106DA000984B92001A80984B0093984B19780029C1
:106DB00003D01E224A43964B1A70002D00D05BE18F
:106DC000944F3B78002B02D007F014FF3D70924F98
:106DD0003B78002B03D007F071FF00233B708F4FEF
:106DE0003B78002B03D007F0D7FE00233B708C4F7D
:106DF0003B78002B13D08B4B1A68009BD08B597BB0
:106E0000012308F033F900233B7004F0E3FF00286E
:106E100005D1854B1A78002A01D101321A7000225F
:106E2000824B1B78934207D0814B1B78934203D14E
:106E3000804B1A7853425A41734B0093597E131E6C
:106E400001D1002904D0019B1B78013B581E8341CE
:106E500079480778B80700D547E1002B00D17DE1DC
:106E6000102C00D043E1754B1F78002F04D0370061
:106E7000002D01D101271D70714B02931B78002B4F
:106E800005D0102C01D00D2C01D1FDF7B9FE002F3B
:106E900010D1019B1B78012B00D004E2694B1F78B5
:106EA0000193002F00D0C0E1102C00D06BE128002E
:106EB000FFF77AFE4C4C2078002803D004F09AFFAC
:106EC00000232370604C614A23780092002B09D084
:106ED00028225F4B1A8008F037F90123009A1370BB
:106EE000002323705B4C2378002B09D0002E00D0A8
:106EF00052E307F0E3FE002301222370564B1A7081
:106F0000564B1A78002A06D000221A70964200D0FA
:106F100046E307F041FE524B1A78002A06D00022C1
:106F20001A70964200D03FE307F064FE4D4B3E4F8F
:106F300002931B884C4C0193002B23D0002E01D1CF
:106F4000002D0AD00DF032FB3A4B1B78002801D0FF
:106F5000012B02D0022B00D02AE3324B2A491A68B7
:106F60006B46497B1B79D08B08F080F804F032FF28
:106F70003B78002803D1002B01D101333B70002363
:106F8000029A13803D78394E002D00D11EE3384B14
:106F900001931B78002B00D114E32900002007F097
:106FA00029FC2900012007F025FC2378FF2B01D1C3
:106FB00000232370012333700023019A3B70137068
:106FC00005F076FF012006F0A7FA00233370294B65
:106FD0001B78002B00D1FDE2FFF734F9FAE2C0463E
:106FE0002700002086210020A92100202600002063
:106FF000280A0020A621002058210020B8210020C6
:10700000B62100204C000020D821002016220020AC
:10701000BC210020BD070020BC070020BB070020CA
:10702000BA070020AC2100206B0A00204E2100206E
:107030004A2100208F210020B9070020B807002036
:10704000210B0020990A0020B7070020B607002076
:1070500090210020770A0020BD210020B5070020E4
:10706000B4070020960A0020610000207A0A002060
:10707000B3070020940A00200DF098FABC4F102CA2
:1070800003D1BC4B1B78DB0727D53B78012B04D100
:10709000132804D01538012801D9FDF797FF0D2CCE
:1070A0001BD1002E19D0B44B1B78002B07D0FFF753
:1070B00031FC0022B14B1A70B14B01321A70FFF74C
:1070C000F3FC0122AF4B1A70AF4B1B78002B01D0A1
:1070D000FFF7B8F80022AD4B1A603B78012B00D0C7
:1070E0009DE62822AA4B1A8099E6002B36D0012073
:1070F0000D2C0AD1002D08D0002A06D0A54B1870FF
:107100009F4B187004F076FE07E6074201D0002975
:1071100005D12300113B012B33D90A2C0FD00F2CA2
:1071200012D1002D00D1F8E5002E1BD1022004F071
:1071300061FE0422984B1A700122914B00E6002E4A
:107140001FD1002DF2D0E8E5002D00D15CE2002E29
:1071500000D0E2E50A2C00D1DFE5E7E7092C01D9F0
:107160000F2C0BD18D4B1B78002B0AD0002D00D19A
:10717000D3E5002E00D0D0E50220C3E7102C00D1CB
:1071800071E6874B70E6FE230193112C06D0200098
:10719000FCF72EF90190FF2800D18BE6002D0CD1D1
:1071A000A0238022DB0552009A627E4B28001D70CE
:1071B000FDF746FBFDF782FA7CE6002E00D079E66B
:1071C000009B7E331B78002B07D0A0238022DB0599
:1071D00052009A61734BFF3A1A70FDF76FFA019BE8
:1071E000FE2B06D1009B70497E331878FDF7D8FF3F
:1071F00060E6009B7E331C78FDF7ACFAFDF7B8FA29
:10720000002C00D003273800FDF73CFA67497020B6
:10721000FCF744FEFDF72CFB6548FDF745FE0198A1
:10722000FCF790FFFDF7ACFA44E6B54200D141E629
:10723000032F02D0002D00D13CE6A0238022DB05E5
:1072400052009A620022574B1A7002239F43012F6B
:1072500001D106F0B1FB00275022019B55481F7059
:10726000554B1A80FDF720FE012006F055F9404BE2
:107270001B78012B01D0514B1F70009B46331878AF
:1072800000280BD105F0F6FE01234D4A102C03D047
:10729000434A002E00D00DE613700BE60A2242434B
:1072A000484B1A70F0E7484B364A03931B7801921B
:1072B000002B1BD12E4B1F78FF2F09D02300113B31
:1072C000012B00D957E1029B1B78002B00D052E123
:1072D00004F080FD002800D055E1042F00D152E1D8
:1072E000320029002000FEF745FEE3E5002E00D025
:1072F000E0E5002D00D1DDE5102C34D00127019B05
:107300001F700C2C06D80A2C27D867D00223019AAC
:10731000137028E00D2CF9D1FDF710FF2B4B1B78D3
:10732000012B0FD12A4B1A882A4B9A420AD0009B74
:107330000099587B031D5B00CA524300CA520221C8
:1073400007F058FA05F0B4FD012006F0E5F800203A
:107350000DF058F90023039A9EE71C4A13787B40EE
:1073600013701D4B1E700122054B1A70A2E5C0461A
:107370008F210020140A002092210020A721002044
:10738000B8210020A9210020940A00208C0A0020A6
:10739000902100204A210020B92100208A210020CC
:1073A00039210020C0200020D6060000C3C3000001
:1073B00050C30000881300002E210020610000202F
:1073C000B8070020C107002083210020B207002059
:1073D00024000020FFFF0000B10700209A4C9B4AC8
:1073E0009B49200005F02AFD23002D331F70230048
:1073F000200029331F7005F035FC964B38001C60C7
:10740000954B1C60954B1C6006F086F8FDF7E2F981
:10741000FDF794FE924B1B78002B00D09FE0914F1C
:1074200046220021380013F015FA8F4C8F4B904AFA
:1074300090492380537BA1800221A1714631594399
:10744000531818008830009101884088218160819C
:107450001800A03001884088A181E08118008D309B
:107460000078B62120741800953000788C4660743E
:1074700018008C3000789C44A07418009430007878
:107480006146E0741800BC30007820751800A83000
:10749000007860751800B0300078A0751800BB3017
:1074A0000078E0751800B130007820761800B5300B
:1074B0000078097860761800B3300078A07618005C
:1074C000BA300078E0761800AF30007860771800A6
:1074D000B4300078A0771800B8300088E077601CDE
:1074E000C17718008021BD30A63300781B88F8775B
:1074F000C90061488B422BD2190007F055F942218F
:1075000038000DF093FB0627A31DD8875B4B202086
:107510000834E3870EF0C6F9594C277008F098FE3E
:10752000FDF7C8FB05F0EEFC0FF0CAF98821362004
:10753000FCF7B4FC00210120FDF71EF805F0B8FCB3
:10754000012005F0E9FF012323704E4B1F700AE76D
:107550000099BE318918102213F0ABFACFE702224E
:10756000474B1A70484B033A1A800022474B1A7057
:10757000FDF7F6FDF7E6464BBF003200290020007C
:10758000FB58984796E4002E00D093E4002D00D1DC
:1075900090E40223019A7FE601223E4B1A70AAE48E
:1075A00001223D4B1A70B6E401223C4B1A70BDE437
:1075B00001223B4B1A702378FF2B00D0DFE400231D
:1075C0002370DCE42A4B2900587BECE43378002B51
:1075D00000D0F5E4009B1B78002B07D00023009A15
:1075E000137028222F4B1A8005F0E6F82E4D2B78C9
:1075F000002B03D006F040F900232B7020780DF00B
:1076000001F8FF23237097E50A2C01D0FFF785FBD3
:107610008CE50D2C01D0FFF7AAFB244B1F78002F1F
:1076200001D0FFF7B2FB224BDB7F002B01D1FFF72C
:10763000ACFBFDF7CBFC134B1F70FFF76EFB0D2C63
:1076400001D0FFF7A4FBE8E72007002090FE960298
:1076500005040000B8200020AC210020B420002048
:10766000B20700206A07002068070020CDABFFFFAB
:10767000D8210020A5BEFFFF8A070020BADCFFFF4B
:10768000B1070020A921002024000020B00700201D
:107690001CCA0108BC070020BB070020BD07002052
:1076A000BA07002090210020980A00202F1B0020FC
:1076B000E021002000221020110010B5FFF71EFB72
:1076C0000022064B1A70064B1B78132B02D0054B79
:1076D00001321A70FDF7C2FB10BDC0466C210020BC
:1076E0006200002039210020F0B51D4B9BB00093B3
:1076F0001B78052B44D11B4B1B78002B40D01A4B19
:1077000002931B780193002B00D1E1E1174D2C78F7
:107710002000E130FF3001340003E4B2FDF7C6FD84
:107720002C70072C04D90023029A13700EF000FF6E
:107730000F4B1B78052B02D101220E4B1A700E49FC
:107740000E4A0B78002B00D0EBE2009913780978F1
:10775000012900D0ECE21378002B00D0EFE21EE309
:10776000B621002031210020251D0020231D0020EE
:107770008F210020B82100201E0700205321002067
:1077800004F028FB0028BAD10C20FCF74DF90123A6
:107790001842B4D000210220FCF780FB0220FCF745
:1077A00043F9082307043F0E04001F4227D00B2093
:1077B000FCF73AF90005000FFBF71AFE0600FF2858
:1077C0001DD0009B1B78012B19D0C64B1B78002BBA
:1077D00015D0C54D2800FBF77DF80200132804D111
:1077E0002800C24913F03EF912220023AE54AD180E
:1077F0000C226B70BE4B1A70BE4B0B3A1A707B0793
:1078000002D50122BC4B1A7001231F4209D001226C
:10781000BA4B0C201A70FCF707F9B94B800BC0B2B9
:107820001870BB0702D50022B44B1A70E5B263068C
:1078300002D50122B34B1A70240602D50022B14BA7
:107840001A70EB062BD50122AF4B1A70AF4B0932E1
:107850001A80AF4B9A7F002A21D0009A1278052A0D
:1078600008D1AC4A1178002904D11420AA4A10800A
:10787000AA4A11700533DB7F002B10D0A84AA94B10
:107880001178002902D11988132908D814211980E8
:1078900000231370A44A13700122A44B1A70AB0684
:1078A00004D50022984B1A70984B1A806B0709D5A3
:1078B00001229F4B10001A7008F084FBE1229D4BBF
:1078C00052011A8008231D4204D00020984B1870E2
:1078D00008F078FB20233A001A4001921F4210D092
:1078E000954B1B6832331B78053B012B09D8934B12
:1078F0001B78002B05D1924B1B78042B01D0FCF791
:107900005FFCFB063CD58E4B1C78042C38D18D4B8C
:107910001B78012B34D18C4B1B78002B30D18B4E34
:107920005F203378013CDAB20133DBB2337002926C
:10793000FCF77AF8029B864D5B00E852002CEED1F2
:107940003378232B1CD901226A4B0B2034701A7018
:10795000FCF76AF80600FDF703FCF60609D42A884E
:107960007C4B9A4205D12B000833DA8F7A4B9A422E
:1079700074D0FDF7E3FBFDF7F3FB78480EF024FC31
:1079800030231F4200D1FFE66C4B1B78002B00D147
:10799000FAE6734B1B78012B00D0F5E6714F3B786C
:1079A000022B02D0052B00D0EEE6019B0425674C8C
:1079B000002B02D023782035ED1A0026AE4271D17B
:1079C000237801234B4E33702378232B00D8DBE63A
:1079D000237800230B202370FCF726F80400FDF722
:1079E000BFFB250010231D401C426AD1584C594B47
:1079F00022889A4265D123000833DA8F564B9A4287
:107A00005FD120200DF04EFFA31DDB8F4221564891
:107A100001930DF00BF9019B834252D1E388A288B8
:107A20001B041343514A1B021B0A934249D10022F3
:107A30002800110004F062FE0190002801D101F03D
:107A400043FA80230135ADB2DB009D42EFD1042320
:107A50003B70033B3370FDF771FB95E622200DF080
:107A600021FF422140480DF0E1F8AB1DDB8F83423E
:107A700000D082E76D880DF0E5FD838806219C46E5
:107A8000A3B29C4500D878E70B0063430268D61880
:107A9000D35AAB4204D87388AB4201D901F08EFAB5
:107AA0000134EDE75F20FBF7BFFF2378232B06D8D7
:107AB00023785A1CD2B22270254A5B0098520136B4
:107AC0007CE705233B70043B3370FDF77FFA5BE6F0
:107AD000274B1B78002B00D131E6082778E0254C96
:107AE00083E0C0461407002092210020932100204B
:107AF000A7210020B8210020190A0020200A002018
:107B00001F0A0020220A00202B2100202C21002007
:107B1000D8210020312100208421002032210020A2
:107B20004E000020240A00208B0A0020BD210020E6
:107B3000260A0020B2210020B82000208321002046
:107B40008F210020B020002015070020B007002062
:107B500068070020CDAB0000BADC0000120700204F
:107B6000B2070020B10700206A070020A5BE02006E
:107B70000E070020FF03000028000EF00DFC002877
:107B800022D00821B64A2B7B12780B4269D0002AFA
:107B90001AD1B44B1B88DA060DD18022D200934251
:107BA00009D25809B04A41008C5201228240AF49A3
:107BB000086802430A60AE490A88002A6CD0013A7C
:107BC0000A80A84A01331380013FFFB2002F20D062
:107BD0008022A84ED200338893421AD2A64A148833
:107BE000002C00D17BE7013CA4B201333380F023A9
:107BF0001B0208ADE0181480400120222900FCF788
:107C000041FF28000EF0EEFB0028B5D08023DB00FA
:107C100033808022974BD2001988984B914202D230
:107C2000019A002A62D000221A70954B01321A7014
:107C3000944B1B78002B4BD0934B1878002800D026
:107C400076E5904B1A78002A00D171E58F4B1B889E
:107C5000062A55D98E4A1188994200D168E51380C9
:107C600066E5012A13D19A43002AADD0894B6A6890
:107C70001B68013B9B1A80229200934289D3002209
:107C80007E4B01901A707E4B01321A70C1E7022AB6
:107C9000ECD1013A1A40E7E77A4908788C46062881
:107CA0000ED87D4A0101891808AA70CA70C10D005A
:107CB0001188013029809278AA706246107080E79E
:107CC0000121714B19706D4B1A706D4B1970A0E743
:107CD000674B1B88002BAFD06C4A10888342ABD215
:107CE0000138C01A80B20EF08FFF21E51B78002BFF
:107CF00000D01DE5624B1B78002B00D118E59BE7F7
:107D00000721891A89B2994207D2073BD21890B24B
:107D10005F4B18800EF000FF0AE5002B00D107E54D
:107D2000F6E7013BDBB20B70002B00D013E50CE54E
:107D30005A490978002900D00DE5002B1CD0584A7B
:107D40001378022B00D0EFE1564E3178002900D194
:107D500064E1554B554D1B78002B03D1544B1B78D8
:107D6000002B66D0002353490B7033702B60013316
:107D700013700DF0CFFE09E14F4B1B785BB2002B67
:107D80000DD104F027F8002809D14C4B1B78002BAB
:107D900005D14B4C2388002B16D0013B2380494B47
:107DA0001B78002B00D139E1474B1A8801231100C1
:107DB00019401A4200D031E1444B1B78012B00D10D
:107DC000A0E3434B197029E1424B434819780EF068
:107DD00037FC029B19780EF033FC404B19780EF0FB
:107DE0002FFC2C4B19680EF02BFC3D4B19780EF034
:107DF00027FC3C4B19680EF023FC3B4B19880EF016
:107E00001FFC3A4B1988013149080EF019FC384B18
:107E100019780EF015FC374B19780EF011FC364E20
:107E2000050033688342BAD00EF090FDC823356058
:107E3000B4E72868002805D0304C2468001B0028CF
:107E400000DDEBE01B4C20780138052800D969E102
:107E5000FAF766FD560058004601620162016501AD
:107E6000281D0020080700204C060020480600209E
:107E7000060700200A0700200C0700200E0700203C
:107E80008C06002004070020900600208E060020AB
:107E90002A1D0020141D002094060020280A00201E
:107EA0003A060020390600203C2100201006002060
:107EB000C207002014060020702100206F2100203E
:107EC0001C0700201607002048210020B6210020B2
:107ED000B20500206A210020C59D1C81201D0020C4
:107EE00044060020400600203C06002068210020B7
:107EF000271D0020261D00201807002054210020E7
:107F000002222270C04A1268002A20D10020BF4AF3
:107F1000BF4E127805960292BE4ABF4E1278039663
:107F20000492BE4A12780192BD4A1278029FD6B2DC
:107F3000BE4232D3002804D00021BA4A1170B24A9E
:107F40001160002B00D1AEE0B54B1E70ABE0B54820
:107F50000078125C002AD9D0B24BAB4A1B78126869
:107F6000D35C2E2B00D0AFE0AF4B01201988FDF77A
:107F700017F9AE4B1C68AE4B18880A21FAF7DAFCE9
:107F800080B2001928600322AA4B1A700DF0A0FCE1
:107F9000A94B1B78002B41D101E7059B9B5C1F007F
:107FA000613F192F13D8203BDBB200200090039FC4
:107FB0000098BC46C0003F5C84449F425DD163464C
:107FC0005B68002B5FD108000B000132AEE7202B6D
:107FD000EBD1049B002BF7D0019B002BF4D1029F27
:107FE000531CBB42F0DA002804D08E4B019A1A7061
:107FF000854B1A600122894B0A211A7005232370D0
:108000008A4B01361C688D4B18888D4B1B88C01A13
:10801000FAF71AFD824B001928601E70894A8A4BB4
:108020001478009225006A1E954101931B78EDB2E9
:10803000002B02D0002201990A70844A1278002A8B
:1080400000D13DE3002B04D1002C01D0009A137025
:1080500000257F4B1B78032B00D008E37D4A137863
:108060000133DBB2072B00D80AE300201070FCF7C5
:1080700035FE002D00D139E329E30098013000904E
:10808000362894D19FE7187800289CD000226549B3
:1080900001360A705C490B600121614B1E705D4B1B
:1080A00019705E4B1A70584B1868002806D0FAF702
:1080B00011FC5C4B1B78834200D24DE706232370F2
:1080C0005A4B1C685E4B1CE02D2B00D05BE7564BD7
:1080D00001201988FDF764F8544B1C685E4B4BE790
:1080E000FCF746FB4F4A13780133DBB21370464A64
:1080F0001268D25C4D4B002A0BD0022222701C6801
:10810000564B18880A21FAF715FC80B2001928602E
:1081100084E704222270D4E7022323707EE7002341
:10812000237022E60023F8E74D4B1A78002A04D189
:10813000013202201A70FDF7C3FFFCF7B7FB494A72
:10814000494B12684949128E9B560A78002A17D06B
:10815000474B1A78501C1870312A02D900220A7035
:108160001A70444A1378002B00D111E7FF2B00D07E
:108170009EE100231370404A1370404A137005E7D4
:108180004408A03BE4183E4A3E4B1178009300207F
:108190001B5E3D48A5B2019024B2002906D10078AB
:1081A000002803D19C4209DA009B1C80009B002020
:1081B0001B5E603308DB61235B4203E01800013380
:1081C0006130F3DA00980380009B00201B5E1800EA
:1081D000723016DB0A331BB22C489C425CDB2C4B02
:1081E0001C800378FF2B01D0013303700026294B3C
:1081F0001E70B1425DD10378B3425AD0012313708F
:1082000057E069235B42E7E70C060020B305002036
:10821000B7050020B60500203CC80108B5050020C0
:10822000B4050020080600200C0000205421002086
:108230001A00002014060020532100201400002002
:1082400012000020BD210020B8210020280A0020B3
:10825000290A0020270A0020100000200E0000201C
:10826000940A0020B82000201C00002035060020C1
:10827000340600203806002037060020360600208D
:108280003306002018000020320600202A060020B5
:108290001600002029060020894E3378FF2B01D0DC
:1082A0000133337000230370994202D03178994230
:1082B000A5D11778834E844A33780292002F3ED09E
:1082C000002B0DD1814A1378FF2B0FD101230022FF
:1082D00033707E4B1A700DF0FBFA3378002B0AD006
