:020000040800F2
:1028000000400020352D00081D2D00081F2D000858
:1028100000000000000000000000000000000000B8
:10282000000000000000000000000000212D000852
:102830000000000000000000232D0008A9B00008DF
:10284000852D0008852D0008852D0008852D0008A0
:10285000852D0008852D0008852D0008852D000890
:10286000852D0008852D0008852D000811450008DC
:10287000852D0008852D0008852D0008852D000870
:10288000852D0008852D0008852D0008852D000860
:10289000852D0008852D0008852D0008852D000850
:1028A000852D0008852D0008852D0008852D000840
:1028B000852D0008852D000800000000412F01082B
:1028C00002B4714649084900095649008E4402BCC9
:1028D0007047C04602B4714649084900095C490086
:1028E0008E4402BC7047C04603B47146490840009C
:1028F0004900095E49008E4403BC704703B4714629
:10290000490840004900095A49008E4403BC7047F9
:10291000002243088B4274D303098B425FD3030A1E
:102920008B4244D3030B8B4228D3030C8B420DD331
:10293000FF22090212BA030C8B4202D312120902BF
:1029400065D0030B8B4219D300E0090AC30B8B42FD
:1029500001D3CB03C01A5241830B8B4201D38B03AB
:10296000C01A5241430B8B4201D34B03C01A524150
:10297000030B8B4201D30B03C01A5241C30A8B4293
:1029800001D3CB02C01A5241830A8B4201D38B027E
:10299000C01A5241430A8B4201D34B02C01A524122
:1029A000030A8B4201D30B02C01A5241CDD2C30994
:1029B0008B4201D3CB01C01A524183098B4201D310
:1029C0008B01C01A524143098B4201D34B01C01AFB
:1029D000524103098B4201D30B01C01A5241C30873
:1029E0008B4201D3CB00C01A524183088B4201D3E2
:1029F0008B00C01A524143088B4201D34B00C01ACE
:102A00005241411A00D20146524110467047FFE739
:102A100001B5002000F0F0F802BDC0460029F7D053
:102A200076E7704703460B437FD4002243088B426E
:102A300074D303098B425FD3030A8B4244D3030B45
:102A40008B4228D3030C8B420DD3FF22090212BA0A
:102A5000030C8B4202D31212090265D0030B8B4286
:102A600019D300E0090AC30B8B4201D3CB03C01A70
:102A70005241830B8B4201D38B03C01A5241430B4B
:102A80008B4201D34B03C01A5241030B8B4201D33B
:102A90000B03C01A5241C30A8B4201D3CB02C01AA6
:102AA0005241830A8B4201D38B02C01A5241430A1E
:102AB0008B4201D34B02C01A5241030A8B4201D30D
:102AC0000B02C01A5241CDD2C3098B4201D3CB01B4
:102AD000C01A524183098B4201D38B01C01A524163
:102AE00043098B4201D34B01C01A524103098B4267
:102AF00001D30B01C01A5241C3088B4201D3CB0052
:102B0000C01A524183088B4201D38B00C01A524134
:102B100043088B4201D34B00C01A5241411A00D2E4
:102B200001465241104670475DE0CA0F00D049424D
:102B3000031000D34042534000229C4603098B42BD
:102B40002DD3030A8B4212D3FC22890112BA030A45
:102B50008B420CD3890192118B4208D389019211C7
:102B60008B4204D389013AD0921100E08909C3094C
:102B70008B4201D3CB01C01A524183098B4201D34E
:102B80008B01C01A524143098B4201D34B01C01A39
:102B9000524103098B4201D30B01C01A5241C308B1
:102BA0008B4201D3CB00C01A524183088B4201D320
:102BB0008B00C01A5241D9D243088B4201D34B003B
:102BC000C01A5241411A00D20146634652415B107D
:102BD000104601D34042002B00D54942704763465E
:102BE0005B1000D3404201B5002000F005F802BDA3
:102BF0000029F8D016E770477047C0461C21012312
:102C00001B04984201D3000C10391B0A984201D3CF
:102C1000000A08391B09984201D30009043902A2AD
:102C2000105C40187047C046040302020101010114
:102C300000000000000000000023C25C0133002AF5
:102C4000FBD1581E704700000448054B10B5834265
:102C500003D0044B002B00D0984710BD3801002052
:102C6000380100200000000006480749091A8B10AF
:102C7000C90FC91810B5491003D0044B002B00D060
:102C8000984710BD380100203801002000000000E6
:102C900010B5074C2378002B09D1FFF7D5FF054B62
:102CA000002B02D0044800E000BF0123237010BDB8
:102CB000A002002000000000D4330108054B10B52D
:102CC000002B03D00449054800E000BFFFF7CCFF0C
:102CD00010BDC04600000000A4020020D43301084B
:102CE00007B501210B4B0C481A6C0A431A641A6C85
:102CF0000A4080210192019ADA6B49050A43DA639E
:102D0000DB6B0B400093009B00F03EF90BF01AFDCB
:102D1000FEE7C04600100240006CDC027047FEE790
:102D200070477047014B024A9A60704700ED00E01F
:102D3000002800080D488546FFF7F4FF0C480D49B0
:102D40000D4A002302E0D458C4500433C4188C4206
:102D5000F9D30A4A0A4C002301E013600432A2426C
:102D6000FBD310F0C5FAFFF7BBFFFEE700400020E1
:102D70000000002038010020F0510108A0020020CE
:102D8000202D0020FEE70000054B064A9B681B052E
:102D90001B0F9B009B581F221340D8407047C04612
:102DA0000010024010350108054B064A9B685B0481
:102DB0005B0F9B009B581F221340D8407047C046B2
:102DC00000100240F03401080A4AD368DB439B0735
:102DD0000BD0536808491B045B0F9B0058580C2309
:102DE000D2681A4203D1400070470448F7E7032332
:102DF0005843F9E700100240D034010800366E0154
:102E00003821104A10B593680B40102B15D00DD8FF
:102E1000082B15D00720536812685B0B03400A4942
:102E20009B00D20A02405858D04008E00821183BC5
:102E30008B43EFD18020000201E0FFF7C5FF10BDFA
:102E40000248FCE700100240D034010800366E0151
:102E500010B50400FFF7D4FF2060FFF795FF606016
:102E6000FFF7A2FFA06010BD104B10B5CB5CD4687B
:102E7000C0189368016823431469234354692343AA
:102E800094692343D4692343546A2343084C214063
:102E90000B4303605368C3601368126A836043681E
:102EA0001B0C1B0413434360002010BD4F35010869
:102EB0000F80FFFF0023036043608360C3600361F2
:102EC00043618361C361036243627047F7B50025C4
:102ED0004B680A6800935F1E1300EB4009D1012F75
:102EE00005D84368C96893434A43134343600020AD
:102EF000FEBD01241300AC40234022422BD01A0017
:102F000003265A435643B446F64301966646046880
:102F1000B443009E564334430460012F06D88C68A6
:102F200087685443019E37403C4384600C69C768FE
:102F30005443019E37403C43C460009C022C0AD19C
:102F40004C69FF2B09D80F26524356436243036A4C
:102F5000B3431A4302620135BAE70F261B0A5B43EB
:102F60005B435E435C43426AB24322434262F2E700
:102F7000044B03600323436000238360C360036149
:102F800043617047FFFF0000014B18607047C04667
:102F9000000000200368020070B501205B0620D409
:102FA0004E680B68486933438E6815683343CE68B2
:102FB0000C6A33430E6933438E6903433343CE694E
:102FC000000C33430B4E234335402B430425136041
:102FD0005368AB431843802350609B019C4205D04B
:102FE0000020D36904490B40D36170BD4B6A9BB28A
:102FF0001361F5E74000FFFFFFF7FFFF00230360C9
:1030000043608360C360036143618361C3610362A2
:1030100007334362704700007FB5C36804000D00AA
:103020009B0402D5012004B070BD4B68C968C2681A
:103030000B4329690B432D490A401343C36043697D
:103040002B4A1340AA69134343610369294A134079
:10305000AA68134303614369274A13406A6913430B
:10306000436101A8FFF7F4FE039B002BDAD0296827
:103070000029D7D0192058438023AA691B019A42FE
:103080001DD14900FFF744FC64210600FFF7C6FC90
:10309000C80032306421FFF73BFC642185B2300068
:1030A000FFF736FC072300012B40C018F8236D0002
:1030B0005B001D40401980B2A0600020B3E789008A
:1030C000FFF726FC64210600FFF7A8FC0801323058
:1030D0006421FFF71DFC642105003000FFF718FC98
:1030E00000012D18ADB2A560E7E7C046F3E9FFFF88
:1030F000FFF7FFFFFFCFFFFFFFFCFFFF96239B01C2
:103100000C2203600023026143608360C36043615B
:103110008361704710B5074B1B78012B05D8082039
:1031200006F04AFA082006F047FA0022024B1A700D
:1031300010BDC0462E1B00207800002037B520228D
:103140000125254B254CD96B1143D963D96B11400F
:1031500001910199996B29439963996B29400091D9
:103160000099D96A1143D962D96A9143D96200237F
:10317000F021A3621A4B89011868FFF7C9FB80236D
:103180000138E06222681748134323608023E26815
:103190005B0013430222E360236893432360124BD6
:1031A0001A68AA431A60C168104A11409C2292030F
:1031B0000A43C26019680E4A11400E4A0A43402170
:1031C0001A600D4ADA600D4A9A605A68120C1204AD
:1031D0000A435A6037BDC046001002400014004048
:1031E000000000200000014080000240FFFFC0FFFF
:1031F0000F80FFFFB02A0000C40200201814005006
:10320000014B18787047C046C0020020F8B5274D22
:1032100004002B78834211D0002810D10120244AC9
:10322000136883431360234A13688343136001F0D8
:10323000D3FC8022204B52009A622C70F8BD1F4BA9
:10324000FF211E5CB6013000FFF762FBFF23002266
:103250009B019E421BD01100194E0B0082424B4134
:10326000184F5B423B4001339700FF330132F3516B
:10327000402AF2D101230E4A11681942DDD10D48CE
:1032800001681943016011680B431360D5E7012100
:10329000074A13688B431360064A13688B43136015
:1032A0008022054B52009A61C7E7C046BC0200204D
:1032B00000140040800002400014005057350108FF
:1032C000C402002000FFFF0010B5054B587CFFF73B
:1032D0009DFF0022034B1A80034B1A7010BDC0469D
:1032E000FB1B0020C2020020C0020020782170B524
:1032F000174A184B1278184C4A431A80174A184B31
:103300001278184D1A70A37F002B07D1FFF7DCFF4E
:103310002B78002B01D0FFF7FDFE70BD0122124B70
:103320001A702300FF33987C2B78002B0DD0FFF709
:103330006DFFFFF7EFFEA17F00230C4A3D2902D06D
:103340000A234B4301331380E7E7FFF75FFFF2E700
:1033500084000020BE020020FC1A0020BC020020D5
:103360007918002078000020C0020020C20200204E
:10337000F8B58023040008260127114D5B00AB62DD
:1033800063B2002B17DB80239B00AB62380001F097
:1033900023FC80235B003800AB6101F01DFC80231F
:1033A0005B0038006400AB62013E01F015FCE4B242
:1033B000002EE5D1F8BD80239B00AB61E6E7C04657
:1033C00000040050F7B580258026214C214FAD0028
:1033D00076000190BD610120A66201F0FDFB802016
:1033E000019BBD6203431800FFF7C2FF23681A4A1E
:1033F00001201340236001F0EFFB1023002501930F
:10340000012223696D005B0A13401000ADB2A66172
:103410001D4301F0E1FB0120A66201F0DDFB019BF1
:10342000013B0193002BEBD122680B4B01201A408A
:103430008023DB021343236080239B00BB6101F0E8
:10344000CBFB80239B002800A661A361FEBDC04684
:103450000004005000140050FFFFF3FFF8B5802374
:10346000040010260127114D5B00AB6223B2002B34
:1034700017DB80239B00AB62380001F0ADFB80239B
:103480005B003800AB6101F0A7FB80235B003800D4
:103490006400AB62013E01F09FFBA4B2002EE5D1B7
:1034A000F8BD80239B00AB61E6E7C04600040050F6
:1034B000F7B5802480270F4E0F4DA4007F000191A7
:1034C0000090B4610120AF6201F086FB0098B46205
:1034D000FFF74EFF012001F07FFB0198FFF7BEFFD1
:1034E000012001F079FBB461012001F075FBAF61AF
:1034F000AC61F7BD00140050000400501FB58022DD
:103500008021564B92009A61554B49009961802168
:103510009A6100200902FFF7CBFF00210800FFF7A6
:10352000C7FF37204F49FFF7C3FF22213620FFF79F
:10353000BFFFC62110208900FFF7BAFF11204A49BA
:10354000FFF7B6FF12204949FFF7B2FF13204849A1
:10355000FFF7AEFF842114208900FFF7A9FF49205F
:103560004449FFF7A5FF7B204349FFF7A1FF7D20DA
:103570004249FFF79DFF48204149FFF799FF40204E
:103580004049FFF795FF102268463F490FF0F6FECD
:1035900000246B46195D23031943092089B20134C5
:1035A000FFF786FF102CF4D1F8211C20C900FFF78B
:1035B0007FFF1D203549FFF77BFF1E203449FFF7B1
:1035C00077FF1F203349FFF773FF3E203249FFF793
:1035D0006FFF73203149FFF76BFF77203049FFF70A
:1035E00067FF19202F49FFF763FFB4212820090145
:1035F000FFF75EFFAA2129200902FFF759FFCC211E
:103600002A20C901FFF754FF2C202749FFF750FF5C
:103610002F202649FFF74CFF53202549FFF748FF8D
:103620007E202449FFF744FF46202349FFF740FF4F
:103630004A202249FFF73CFF07202149FFF738FFC6
:103640009021204B204A332009021A80FFF730FFD7
:1036500000213F20FFF72CFF1FBDC0460014005083
:10366000000400501F9D00003A030000DB0300002F
:10367000DF030000B22A0000DC73000020E9000034
:10368000A8330000163500006235010855E500003A
:10369000584C00005AC60000C69400009146000035
:1036A000EF8800004E1000002218000090980000E3
:1036B000282000003E3000000A6000003054000066
:1036C000CE610000C60300200090FFFF10B504008B
:1036D0007E20FFF777FEC3439BB2DB0BA3420CD0E7
:1036E0000123C02163400005DB03000D184389015D
:1036F000014389B27E20FFF7DBFE10BD10B51349F0
:1037000004001320FFF7D4FE12201149FFF7D0FE6A
:1037100011201049FFF7CCFE7A211020FFF7C8FED8
:10372000002C0DD000211420FFF7C2FEC921490151
:103730004920FFF7BDFE7B200749FFF7B9FE10BD0A
:1037400019211420FFF7B4FE0449F1E7BE0300007D
:103750007B0300007B02000020840000382A000068
:1037600010B5094C2388002908D04022C2401343D9
:1037700099B233202180FFF79BFE10BD41214942C1
:1037800001411940F5E7C046C603002010B504000A
:1037900051200A49FFF78CFE07200949FFF788FEF0
:1037A00021050820090DFFF783FE802321021B025B
:1037B000090D08201943FFF77BFE10BD33A0000060
:1037C000D70A00000C4B10B5C1184B1E99410400DC
:1037D00049420A4B890A8902C9185120FFF768FE3D
:1037E0000748084B60430849C018FFF791F881B2B9
:1037F0000720FFF75DFE10BDBFF5FFFF40940000FE
:103800009826030050C30000A0860100074B01006A
:10381000400810B5C018FFF77BF8802189010143EB
:1038200089B20720FFF744FE10BDC046D6DF030073
:103830005C2110B5032802D8034B4000C15A432035
:10384000FFF736FE10BDC046FE3A0108064A2223A5
:1038500010B5914200D81A3B802100021843014361
:103860003620FFF725FE10BDFF3EAB0110B504006A
:1038700081B23820FFF71CFE3920210CFFF718FE1B
:1038800010BD000010B50349000201434720FFF7B7
:103890000FFE10BD42600000F0B5CCB285B0200034
:1038A0001E000D0A0291FFF78DFD01AFFB88EDB2FE
:1038B000AB400100AE4099433143200089B2FFF78D
:1038C000F7FD05B0F0BD000010B537200549FFF742
:1038D000EFFD00213020FFF7EBFD30200249FFF71C
:1038E000E7FD10BD1F9F0000F1BF0000F7B51C00F1
:1038F00008AB1E78009009AB0191702000211500E3
:103900001F78FFF7D5FDA021090231434D20FFF7B5
:10391000CFFDD821C90139434E20FFF7C9FD21024F
:1039200029434F20FFF7C4FD009B78201902019B1B
:103930001943FFF7BDFD0020FFF7A4FFFFF7C4FF09
:10394000F7BD00000A4B012110B5984202D90021B1
:10395000013007D10420FFF703FF00210320FFF708
:10396000FFFE10BD0420FFF7FBFE0121F6E7C04675
:10397000FF3EAB0110B53120FFF724FD0223984331
:1039800081B23120FFF794FD00212B20FFF790FD3D
:1039900010BD000070B505003120FFF713FD0400D5
:1039A000002D06D108239C43A1B23120FFF780FDF2
:1039B00070BDAB1E5A1E9341AD21DB038901194333
:1039C0002920FFF775FD0120A842804105494042AA
:1039D000800301432820FFF76BFD0821214389B2B2
:1039E000E3E7C046382B000010B53120FFF7EAFCB2
:1039F0000423984381B23120FFF75AFD10BD10B562
:103A000000212420FFF754FD10BD0000DB2110B57C
:103A10002120C900FFF74CFD24200249FFF748FD93
:103A200010BDC0467FC1000010B550200149FFF70E
:103A30003FFD10BD18BB000070B50C00631E9C411B
:103A40000500FFF7F1FF0320FFF71CFF0D4B61425C
:103A50001940E0231B02C9187020FFF729FD00213F
:103A60003020FFF725FD30200749FFF721FD802397
:103A700006495B026943C9187120490CFFF718FD1C
:103A800070BDC04600BCFFFF020300001DA614006D
:103A900010B550200149FFF70BFD10BD183B000089
:103AA00010B500213020FFF703FDE8213720490140
:103AB000FFF7FEFC10BD000010B500217020FFF7DD
:103AC000F7FC0020FFF7DEFEFFF7E2FF00213020C9
:103AD000FFF7EEFC30200249FFF7EAFC10BDC046BC
:103AE000F1BF000010B500213020FFF7E1FC10BD50
:103AF00010B50020FFF7C6FE7E20FFF763FC3823D9
:103B000028219843014389B27E20FFF7D1FC10BDE4
:103B100010B500213620FFF7CBFC37200749FFF70F
:103B2000C7FC52200649FFF7C3FC00213020FFF7F5
:103B3000BFFC30200349FFF7BBFC10BD1F9D0000F8
:103B40008F020000FEC1000010B5FFF7D1FFFFF7A4
:103B50009FFFFFF7DDFF10BD10B500215120FFF7DB
:103B6000A7FC10BD054B10B51B78002B05D001211B
:103B70000020FFF7F5FDFFF7A7FE10BDC4030020EE
:103B800010B50400FFF750FF0020FFF77BFE002177
:103B90007020FFF78DFCFFF732FF30200349FFF75D
:103BA00087FC002C01D1FFF773FF10BDFEC10000A0
:103BB00010B530200149FFF77BFC10BDFAC30000AF
:103BC000F8B51D0007000E001400FFF72DFF281E9A
:103BD00005D0A02380220320DB0552009A61FFF765
:103BE00051FEFE232102DB0119400133FF3319434B
:103BF0007020FFF75DFCFFF7DBFF322000F0C4FF11
:103C000080231249BFB279435B02C9187120490C65
:103C1000FFF74EFCFFF73CFF300000F0B5FFFFF769
:103C200003FF002D07D0A0238022DB0552000020D7
:103C30009A62FFF727FE00217020FFF739FC302041
:103C40000349FFF735FCFFF723FFF8BD1DA614005D
:103C5000FEC1000010B50400FFF7D8FEFFF7E4FE38
:103C60000020844200D00330FFF70CFE702003498F
:103C7000FFF71EFCFFF79CFF10BDC046C3C300004A
:103C800070B590B004004022684618490FF076FBEA
:103C9000392C08D82F2C25D8232C25D00EAD2A2C32
:103CA00009D010B070BD2300413B373C032BF8D83E
:103CB000A4006C44250028880D4C0E4E60430E492C
:103CC0008019FEF725FE81B27120FFF7F1FB6B88AA
:103CD00009495C43A019FEF71BFE81B27220FFF771
:103CE000E7FBDEE7303CE3E70FADE4E7EC33010848
:103CF0004C9301008813000010270000F0B5002449
:103D000085B01E000AAB1F880BAB1B880500019114
:103D100002920393A0421AD105B0F0BDFFF7B0FFA5
:103D2000FFF7B6FE019B002B02D00298002C06D0B4
:103D30002B5D30002A2B02D0232B00D0380000F05E
:103D400023FFFFF771FE039800F01EFF0134285D8A
:103D50000028E3D1E0E7000070B50D000400FFF794
:103D600063FEC22170200902FFF7A2FB80230B49EA
:103D7000ADB269435B02C9187120490CFFF798FB8B
:103D80000020844200D00330FFF77CFDFFF710FFD6
:103D9000322000F0F9FEFFF77BFE70BD1DA6140077
:103DA00010B5042808D8FEF795FD03080A0C0E008C
:103DB00006495220FFF77CFB10BD0549F9E705498C
:103DC000F7E70549F5E707200449F3E78F8200008C
:103DD0008FA200008FC200008FE200006F0400007D
:103DE00010B50020FFF7DCFF51200249FFF760FB10
:103DF00010BDC0464080000010B50420FFF7D0FF82
:103E000051200249FFF754FB10BDC046409000000E
:103E100010B56720FFF7D6FAC005C00D10BD10B56C
:103E2000FFF7F6FF4008A03800B210BD70B50600DD
:103E30000D20FFF7C7FA03B2DD430400ED0F002B9E
:103E400007DB0E20FFF7BEFA034B24041C4004439B
:103E50003460280070BDC0460000FF0770B5060042
:103E600069200D00FFF7AEFA040003040BD46A20AA
:103E7000FFF7A8FA0C4B24030005000D1C40044377
:103E80000220346070BD6820FFF79CFA0300002018
:103E90001A04F7D40548DB04DB0C58430449FEF749
:103EA000C1FD28800120EDE700F0FF00EB120000CB
:103EB00010270000912110B532208900FFF7F8FA91
:103EC00010BD000010B532200149FFF7F1FA10BD16
:103ED0004502000010B5FFF7C9FCC0215120890040
:103EE000FFF7E6FAFFF7F0FC10BD10B5FFF7FAFD9B
:103EF00010BD10B5FFF7DEFFFFF7F4FD10BD10B5E4
:103F00000B20FFF75FFA0005000F10BD10B50C2065
:103F1000FFF758FA800BC0B210BD10B50C20FFF7A8
:103F200051FA0005800F10BD30B58BB0242219491D
:103F300001A80FF023FA0020FFF7A4FC002501AC34
:103F4000618820780135FFF7B3FA0434092DF7D1E1
:103F50000024114A63005F20D15A0134FFF7A8FA08
:103F6000072CF6D1142000F00FFE0C495920FFF762
:103F70009FFAB42000F008FE68215920FFF798FA54
:103F800000217020FFF794FA00215820FFF790FAE3
:103F90000BB030BD2C340108063B01086808000056
:103FA00010B51B4B1B78012B2DD1FFF73DFD0020D9
:103FB000FFF768FCC32170200902FFF779FAFFF7C9
:103FC000F7FD322000F0E0FD12497120FFF770FA92
:103FD000FFF75EFD502000F0D7FDFFF725FD0E49ED
:103FE0007120FFF765FAFFF753FD502000F0CCFD7C
:103FF000FFF71AFD00217020FFF75AFA3020074919
:10400000FFF756FA10BD022BFCD1FFF78DFFF9E741
:104010002F1B00201C3E0000D5340000FEC1000014
:1040200070B505000C00FFF7F1FCFFF7FDFC002068
:10403000854200D00330FFF725FC07497020FFF7C9
:1040400037FAFFF7B5FD322000F09EFD2000FFF7A4
:1040500017FEFFF71DFD70BDC3C300000222064B13
:1040600099681142FCD00122187399681142FCD062
:10407000D868C0B27047C0460038004010B5040090
:10408000000CC0B2FFF7EAFF200AC0B2FFF7E6FF5C
:10409000E0B2FFF7E3FF10BD70B5A0250826094C7C
:1040A000ED050520AE62FFF7D9FFFF20FFF7D6FF31
:1040B000AE61C00705D50A20013C00F08DFD002C43
:1040C000EFD170BD40420F0070B5A0240825060056
:1040D000E405A5620620FFF7C1FFA561FFF7DCFF3D
:1040E000A5622020FFF7BAFF3000FFF7C7FFA561E8
:1040F000FFF7D2FF70BD0000F0B585B06B460390AE
:1041000002921A7B8023A0255B0001919B1AED058A
:10411000029C9C4200D91C0008231E00AB620620B2
:10412000FFF79CFFAE610220AE62FFF797FF039896
:10413000FFF7A4FF019E37190F2C5CD94022012004
:10414000802730497F010B6893430B602E4B1A6820
:1041500082431A602D4A1668864316602C4E77609B
:104160001F682C4E37401F601768374090263E432B
:104170001660294F294EDE609F605E68360C36045B
:1041800026435E60019ED66097605668360C360402
:1041900026435660224EB446002667463E701F688E
:1041A000023637431F601F6807431F6013680343CD
:1041B000136040224B68184348600B6813430B6040
:1041C0004B681E434E6063461B78002BFBD00823D0
:1041D000AB61FFF761FF039B1B190393019B1B1945
:1041E0000193029B1B1B02938023029A5B00002A0F
:1041F0008ED105B0F0BD30780136FFF72FFFBE42FB
:10420000F9D1E4E700380040440002405800024081
:10421000000002400F80FFFF0C380040C90300205F
:10422000C8030020F0B5A027082680210124344BC4
:10423000FF058FB0BE61DA6BC9010A43DA63DA6B3E
:1042400004A80A400392039A9A6B002522439A63BA
:104250009A6B22400292029A5A6B22435A635B6B1A
:1042600023400193019BFEF783FE022304A90593DB
:1042700038001B1906930996079508940494FEF7D5
:1042800025FE092304A93800023E04960993FEF78F
:104290001DFE1C4B1C4A996880201140A022D204AC
:1042A0000A433F219A60DA68C0058A43C221164357
:1042B000164ADE60890053581B021B0A0343535001
:1042C00080231B01136004A8FEF798FE82235B0085
:1042D0000593033B0894FF3B0D4C0793FF33FF33DB
:1042E000200004A9099304950A950B950C95FEF7F7
:1042F00051FE40232268134323600FB0F0BDC04637
:104300000010024000000140FFFFFFC000E100E09C
:1043100000380040F8B5A023150008220600DB0590
:1043200003209A620C00FFF799FE3000FFF7A6FE0B
:104330000F2D08D86519AC424FD0FF20FFF78EFE35
:1043400020700134F7E7402101208027254A7F01B2
:1043500013688B431360244B196881431960234908
:104360000E6886430E60224E77601F68214E3740EC
:10437000B446842676013E431E6066460F68374089
:104380001D4E3E430E601D4EDC609E605C68240C3A
:1043900024042C435C601A4CCC608E604C68240C66
:1043A00024042C434C600024164D2C701E680234EB
:1043B00026431E601E6806431E600B6803430B60A5
:1043C000402153681843506013680B4313605368CF
:1043D0001C4354602B78002BFCD0A0230822DB0563
:1043E0009A61F8BD00380040440002405800024085
:1043F000000002400F80FFFF101000000C3800404A
:10440000C9030020C8030020F0B587B005938023BE
:104410000705040B3F0D5B010190029103922403F9
:10442000DB1B039A002A01D107B0F0BD039D9D421A
:1044300000D91D00294E3368A34206D080222000F7
:1044400027495201FFF766FF3460254E2A00BE1946
:10445000310002980EF0AFFF002824D00023F25C58
:10446000FF2A2ED101339D42F9D100232A003000CA
:10447000029904930EF082FF049B002B2AD02000A7
:10448000FFF722FE059B164E002B1CD0EF193A00B9
:1044900031002000FFF730FE80225201FF21D21BA5
:1044A000F0190EF05BFF019B00275B190193029B43
:1044B0005B190293039B5B1B039380235B01E4184E
:1044C000AFE70123D2E78022310020005201FFF73D
:1044D00013FEE8E72A0002990198F8E7040000209B
:1044E000CA03002010B5040B24032000FFF7ECFDE5
:1044F000054B1B68A34205D18022FF2103485201CE
:104500000EF02CFF10BDC04604000020CA0300209E
:104510008020144980010B6810B5034221D0022489
:10452000114B1A6822421CD01A68A2431A60C0229A
:104530000E4B4860520199681142FCD18022996863
:104540001142FCD1C022D20099681142FCD1022153
:104550005A688A435A605A6801398A435A60044B40
:10456000197010BD000002404400024000380040B5
:10457000C803002070B540262025094C0120A66103
:1045800000F02AFBA561012000F026FBA6620120B5
:1045900000F022FBA562012000F01EFB70BDC046AA
:1045A0000014005070B540252026094C0120A5625A
:1045B00000F012FBA662012000F00EFBA6610120B4
:1045C00000F00AFBA561012000F006FB70BDC046AB
:1045D00000140050F7B5234C234A23680190134080
:1045E0002360082300252027012600933000A762BE
:1045F00000F0F2FA3000A76100F0EEFA300000F0AF
:10460000EBFA23696D00EDB25B0600D5354330004F
:10461000A76200F0E1FA009B013BDBB20093002BA4
:10462000E4D12268104B01201A4080235B01134320
:104630002360A76200F0D0FA019A4023002A0ED02E
:10464000A3612026012000F0C7FAA661012000F036
:10465000C3FAA662012000F0BFFA2800FEBDA362E3
:10466000EFE7C04600140050FFCFFFFFF8B520234E
:10467000254C0500A362012000F0AEFA08266BB2BB
:10468000002B3BDB4023A3622027012000F0A4FA8B
:10469000013E0120A76100F09FFA6D000120A76292
:1046A000F6B200F099FAEDB2002EE8D14025236869
:1046B000164E012033402360A56100F08DFA0120E1
:1046C000A76100F089FAFF232269110029402A42DC
:1046D00017D0013BDBB2002BF6D101256D42202320
:1046E000A362012000F078FA802322685B01324047
:1046F0001343236040232800A361F8BD4023A36136
:10470000C2E70D00EBE7C04600140050FFCFFFFFEB
:1047100070B504000D0000266A1EB2420EDC2B00AC
:10472000591E8B415B4213400120E41800F054FAFB
:104730000120FFF74FFF2070280070BD012000F01E
:104740004BFA0020FFF746FFA0550136E4E770B5AD
:1047500004004518AC4201D1002070BD2078FFF75D
:1047600085FF01340028F5DA01204042F5E700001A
:104770007823F7B500251F4EB361002408232700D6
:104780000193012000F028FA3A00F02733693F0234
:104790001F40974220D10134032C1ED1802280215A
:1047A000120209021A400B421ED05A041ED59A0466
:1047B0001ED5DB0405D4104BAA009B18185D1328E6
:1047C00011D10135052D0DD078230722B361521B7D
:1047D000773B9340B362D0E70124019B013B0193F7
:1047E000002BCED11320FEBD1400E4E70124E2E744
:1047F0000224E0E700040050143B01080222054BAC
:1048000099681142FCD00122187399681142FCD0BA
:10481000DB6870470030014070B51D0004AB002418
:104820001C5F431A601B5843511AFEF7FBF84019EE
:1048300000B270BD70B5124CC001241825000C20C8
:1048400036352600287012253736357042363570D9
:1048500025007A352870581A8001511AFEF7E2F8BF
:10486000212538232D263830C0B2DAB229009042F3
:1048700000D33100E1540133792BF6D170BDC0462D
:10488000CE1300207047A02340225039DB0510B51D
:104890009A620400C8B2FFF7B1FF10202309184341
:1048A000FFF7ACFF0F202040FFF7A8FF10BDF8B5C1
:1048B00014000430C0B21D00FFF7E5FFA023402222
:1048C0002600DB059A612F19BE4200D1F8BDE8B27F
:1048D000002C00D03078FFF791FF0136F4E700009C
:1048E00070B50425034CC9B2A562C0B2FFF7DFFF63
:1048F000A56170BD00040050A023402210B5DB0567
:104900009A62FFF77BFF10BDF8B50423124E040036
:10491000B3624020FFF7F0FF104A002C07D0104B85
:1049200001251F00072C0AD8621ED201D21880234D
:1049300021000020FFF7BBFF0423B361F8BD29006D
:1049400001353A0080230020EDB2FFF7B0FF803739
:10495000082DF4D1F0E7C046000400504E170020A7
:10496000CE13002010B50820FFF7CEFF10BD10B504
:104970000130C0B2FFF7C8FF10BD10B50020FFF72F
:10498000C3FF10BDF7B505000024114BE0018022E4
:104990002900C018013401930EF0E0FC082CF4D17A
:1049A000042300240B4FBB6200250020E1B2FFF777
:1049B0006AFF019BE601F618705D0135FFF79CFF69
:1049C000802DF9D10134082CEED10423BB61F7BD51
:1049D000CE1300200004005010B5032804D007288F
:1049E00009D0074B185C03E0064B1878A623184340
:1049F000FFF782FF10BD044B18781530C0B2F7E7FF
:104A00000A000020DD1A002082000020042370B577
:104A10000024064DAB6220000134E4B2FFF7DCFF56
:104A20000B2CF8D10423AB6170BDC04600040050CC
:104A3000042370B5074DE220AB62FFF75DFF002451
:104A400020000134E4B2FFF7C7FF082CF8D104239B
:104A5000AB6170BD00040050802170B501253E4B54
:104A600049011A6C8CB00A431A641A6C02A80A40F5
:104A70000192019A5A6B00242A435A635B6B022607
:104A80002B400093009BFEF773FA0323A0200493AE
:104A900002A91D33C0050293069503960794059459
:104AA000FEF714FAA020802302A9C0050293069401
:104AB000FEF70CFA02A8FEF7A1FA82235B0003932B
:104AC0000695FC33254D0793D93BFF3B280002A9EF
:104AD000089302940494059609940A94FEF75AFAEE
:104AE00040232A68E22013432B6004231C4DAB6251
:104AF000FFF702FF782000F047F820000134E4B20D
:104B0000FFF76AFF082CF8D12B20FFF7F5FE0120F4
:104B100000F03AF82E20FFF7EFFE012000F034F805
:104B20002F20FFF7E9FE2F20FFF7E6FE2F20FFF7EB
:104B3000E3FE2F20FFF7E0FE282000F025F84020BC
:104B4000FFF7DAFEAF20FFF7D7FE04230020AB61AA
:104B5000FFF718FF0CB070BD00100240003001409C
:104B60000004005070B50425064C2820A562FFF70C
:104B7000C3FE4020FFF7C0FEAE20FFF7BDFEA561DB
:104B800070BDC04600040050FA2310B59B00584386
:104B900000F022F810BD0000C0200B490B4B0C4A5E
:104BA0004B60136A00061B021B0A034313620023B7
:104BB0008B6007330B603021064B1960136A1B02B0
:104BC0001B0A13627047C04610E000E0FF52070066
:104BD00000ED00E0D01700200A4B70B51B680A4CAE
:104BE000584300236668A168A2689142FCD0B51AB8
:104BF000914200D95542CB185B19984200D870BD3C
:104C00001100F1E7D017002010E000E0084B1A680F
:104C1000283213780133DBB2072B00D9012313703C
:104C20000122044B1A70044A044B12781A70704720
:104C3000F41A00209F180020651C0020B4000020FA
:104C40000122064B1A70064B1A683332137801336F
:104C5000DBB2032B00D10023137070479F18002094
:104C6000F41A00200123024A11784B401370704758
:104C7000D61A0020064A10B51378002B03D0054938
:104C8000054B0978997700231370FEF72FFB10BDB1
:104C90007C1800207A180020FC1A0020012110B591
:104CA000134C05202378594021704B4259410F2362
:104CB00049421940A1231B01C9180AF0F8FD00233D
:104CC00021780C4A994202D113006F331B781100EE
:104CD0006E310B70703211781B011943B0231B0227
:104CE00019434820FEF7E4FB0122034B1A7010BD64
:104CF0007B180020FC1A0020B618002010B5174BB6
:104D00001B78022B08D005F0C5FE012005F072FFCC
:104D1000022000F0A3FB10BD0022114B1A70114BB2
:104D20001B785BB2934208D00F4B19880F4B198048
:104D30000F4B1A700F4B01321A70012005F05AFF09
:104D40000D4B0E4C1B78002B04D00BF059FA0323AB
:104D50002370E0E70A4B1B78FAE7C0464A180020A8
:104D6000D01A002002180020484A0108AC18002080
:104D70007A00002000180020FB210020B400002051
:104D8000651C002070B5104B1B78013B012B0DD921
:104D900000240E4B0E4D1C700E4B1B78A34206D008
:104DA0000AF0F0FE01220C4B2C701A7070BD0B4AF9
:104DB000137005F06FFE012005F01CFF0BF020FAC8
:104DC00003232B70F2E7C0464A180020141C002071
:104DD000B4000020FB210020A3180020D01A0020DE
:104DE00010B5134C0320236833331978012912D0EE
:104DF00004F0C2FF011E11D022682C3211784B4200
:104E00004B410020DBB21370814201D1094A107876
:104E10000021C018C0B2FEF70BFD10BD064B1A688A
:104E20002C32137858424341D8B21070F3E7C04691
:104E3000F01A0020D81A0020F41A00200B4BDA7C5C
:104E4000002A02D01B7D002B0ED10322084B01212A
:104E50001A700022074B1A70074B1970074B1B780A
:104E60008B4201D0064B1A707047C046FC1A0020D6
:104E7000AA180020141C00209C180020651C00208B
:104E8000B4000020394B70B51B780400002B2DD0E6
:104E900004F072FF051E0BD1032009F02BFB344BED
:104EA0001D70344B1B7859B2002B02D00AF07AFFE8
:104EB00070BD314A314B324D002C13D00120197096
:104EC00010700AF085FE287C8007800F0AF0A0FD94
:104ED000050028000AF08EFD2200012128000AF0BA
:104EE00085FEE5E714701C70ED89F2E704F0E8F840
:104EF000041EDDD100251E4B14221870214B210009
:104F0000187021480EF02AFA05F0C4FD200009F0BF
:104F1000F1FA1E4B5D57002D1AD01D4B1B78C72B85
:104F200002D901F00FFFC3E71A4E0621F07F0130CE
:104F3000FDF75EFE2000F177290001F037FE012227
:104F4000154B1A80154B1C700122154B1A70AFE7D8
:104F50000121080001F02AFE0121094B114A9B7929
:104F600001330B40D554104B1D70EDE7FB210020A1
:104F7000D01A0020F7210020F6210020F521002082
:104F8000FC1A002004180020051800200218002038
:104F90008F180020FD1A0020AC1800207A00002095
:104FA000B6180020B1180020CC18002010B5012040
:104FB000FFF768FF10BD000070B5264B1B78002B73
:104FC0001DD1254C2378002B19D00125234B1D70B2
:104FD00012280CD1002A0AD1002908D0204B1D70BC
:104FE000204B1A70204A1378002B01D1237070BD1A
:104FF0002D21013BDBB213701C4AD154F7E7112875
:105000001BD0122804D00A281BD00020002303E064
:10501000174B18481B780078002A15D10029E6D1D3
:1050200001250F4C2570002A11D1002900D0030062
:10503000114A9B009B589847D9E7104B10481B78A2
:10504000E9E7104B187CE1E70029D0D0E8E7002918
:10505000EDD1CCE7651C00201A180020A61800200E
:1050600049180020B40000201B1800201C18002044
:10507000311B0020321B002018000020331B0020B1
:10508000341B0020FB1B00200022044B1A70044B31
:1050900001321A70034B1A707047C046D31A0020B1
:1050A000A3180020B61800200A4910B50A780A4B48
:1050B000002A08D1DA7E50424241DA7601230B7091
:1050C000FFF7E2FF10BD1A7F504242411A770023DA
:1050D000F5E7C046D7170020FC1A00200B4970B531
:1050E0000B780B4C0B4A0C48002B0AD1D57ED3769B
:1050F0002570147F0470012013770870FFF7C4FF38
:1051000070BD2378D37603780020F5E7D61700200A
:10511000D5170020FC1A0020D41700200D4910B527
:105120000A780D4B002A09D1987F0C4A10703D2255
:105130009A7701230B70FEF7D9F810BD1900084AC1
:10514000FF31897C1278914202D100229A77F2E7EE
:105150003D22FBE77C180020FC1A00207A18002072
:105160007918002010B50F4A0F48937959424B41E6
:105170000021DBB293718B4200D048317431521858
:1051800002600A4A1378002B03D101331370084AD6
:105190001370002005F02EFD064B1A88064B1A806E
:1051A00010BDC046FC1A0020F01A0020CC180020C8
:1051B000B61800204A4A0108CE180020F7B5664B01
:1051C000664A00931B780192002B3DD113785BB2A5
:1051D000002B0AD0624B1B783833DBB2062B04D885
:1051E000604B1B78002B2FD0F7BD5F4F3B78012B16
:1051F0001DD09A1E012A03D85C4A1278002A37D1A2
:10520000584A012412785A4E002A03D03278002AD4
:1052100030D000243378574D002B00D08CE0002C88
:1052200000D089E02B78002B65D12C70DCE7524A46
:105230001278002AE4D0514A1278002AE0D10022E4
:105240004D4B1A70494B1A70012005F0D3FC012216
:105250004B4B1A70019B1B785BB2002BC4D0494B9F
:10526000DA7F502AC0D8002A6DD101F06BFDBBE770
:10527000454AE1E7012B27D019D9023B012BC8D8B9
:10528000424B1978394B00292DD041490978012921
:1052900029D11A703F4D2B78002BBAD0FEF73DFE76
:1052A000441E63425C41002364002B70B2E7354B1F
:1052B0005B7C002BADD0374B1B78002BA9D0002294
:1052C000344B02241A70A5E7334908782A4900288C
:1052D00001D00A70EFE70A78002AECD10B70274B57
:1052E00064321A70E7E71A78002AD3D101321A70B3
:1052F000254B6332CDE7234B5B7E002B95D03B786B
:10530000023B012B91D8FEF708FE01288DD11D4BE1
:105310005B7E002B00D167E7A0238022DB055200D3
:105320009A621E4BEC3A1A800023009A13700122F5
:1053300032701B4A137057E700232B70012C83D067
:10534000022CE4D050E719235343164A138000225D
:10535000154B1A7048E7C0467F180020021800203D
:105360008F18002094180020E81A0020B41800209C
:10537000B318002080180020B518002081180020E4
:1053800086180020FC1A002082180020981800209F
:10539000971800209518002096180020BE180020AD
:1053A000BB180020AC1800207A000020194B10B563
:1053B0001B78002B0FD0184A184B12781B7852B26A
:1053C000002A1CD1164AD27E002A05D1032B02D016
:1053D000032004F0E9FD10BD124A1278002AF5D12D
:1053E000114908881149088011490A7011490A7049
:1053F0000121114A117001210A4A1170E6E7094A98
:105400001278002AE2D10D4908880D4908800D491B
:105410000A70F0E794180020021800204A180020B3
:10542000FC1A00208E1800204E4A0108CE180020D9
:105430007E000020CC180020B6180020444A010845
:10544000AC1800207A000020034B10B51B78002B0D
:1054500001D1FFF7ABFF10BDC4030020F7B5E12277
:10546000354B364C364E01905201A5791A8033786F
:10547000002B01D00AF034FA6A4255410022314B28
:105480005A55A0230132DB05FF329A612E4BFF3AB9
:105490001A702E4B1B789B0701D5FDF727FF0023C1
:1054A0002B4F2C4DFB56002B28D1E37E002B2CD10B
:1054B00023006E331B78703421781B011943B0230D
:1054C0001B0219434820FDF7F3FF234B1B683333BE
:1054D000187805F075FC019804F066FD019B022B1D
:1054E00002D03378002B23D01C4B1B78012B02D029
:1054F000002008F0FFFF01232B70F7BD01F0E6FB51
:105500000023FB56002BD3D1CFE7154B1A88154B40
:105510001A800022144B1A70237F934202D1134B3E
:1055200001321A700022124B1A7001232B70BFE750
:105530000122104B1A70DEE7C0180020FC1A002070
:10554000FB210020B1180020BB180020E11A002028
:1055500002180020B6180020F01A0020651C002058
:105560004C4A0108CE1800207E0000208D18002033
:10557000CC180020861800201D4B10B51878002884
:1055800009D11C4B1B78002B04D004F00DFD012227
:10559000194B1A7010BD194B1A78194B1B7813430D
:1055A00059424B411749DBB20978002905D0012A3D
:1055B00003D10020144B18700B00144909780029FE
:1055C00012D01349097801290ED1023A012A0BD8C9
:1055D0000022104B1A70104B04201B78002B00D0B7
:1055E0000238FFF73BFFD5E7002BF4D1D2E7C046E6
:1055F000941800204A18002086180020E81A00207D
:105600000218002096180020B518002098180020D5
:1056100097180020B4180020D01A002070B51C0084
:10562000838B16005943026805008818190004F09E
:1056300085FAA04206D8B04203D2A98B601A04F0C2
:105640007DFA70BD3000FCE7030010B530331C78E4
:10565000034AE40013195B68A258FFF7DFFF10BD8F
:105660006449010810B505F00DFD0122044B1A70C4
:10567000044B1B78002B01D0034B1A7010BDC046A1
:1056800090180020D01A0020A3180020154B10B548
:105690001B78002B03D1144B1B78002B0AD001F090
:1056A0009BFC0222114B1A700022114B1A70114BF5
:1056B00001321A701048114A03781149002B03D1A6
:1056C00013780C7823430BD000231370022203704D
:1056D0000B70064B1A700B4B013A1A70054B1A707F
:1056E00010BDC0461A1800201B18002049180020C1
:1056F000B400002086180020CA130020BA18002029
:10570000141C0020B6180020F0B5864B85B01B781D
:1057100004000F000092002B00D17FE0002977D019
:10572000102800D08AE0FDF7E1FD10247E4D2B7893
:10573000052B02D1002004F037FC7C4B1A887C4BEF
:105740001A807C4B01937C4B1978002903D01E22D0
:105750004A437A4B1A70002F00D071E0784E3378AC
:10576000002B02D006F0BAF93770764E3378002B52
:1057700003D006F0D1F900233370734E3378002B39
:1057800003D006F07FF900233370704E3378002B7E
:1057900013D06F4B1A68019B907FD979012306F0D3
:1057A000D1FB0023337003F08BFC002805D1694B3B
:1057B0001A78002A01D101321A70674B1A78002337
:1057C0009A4207D0654A12789A4203D1644B1B78FB
:1057D0005A425341574A63490192D27C09781A438D
:1057E000002967D0002A02D02A78012A69D1092C21
:1057F00002D90F2C00D0CDE05B4B1B78002B00D1E1
:1058000081E1002F1AD0009B002B17D1022064E009
:10581000FDF76CFD102C88D0132487E70D2885D167
:10582000FDF7EEFC051E00D080E7424B9B7F002B6E
:1058300000D17BE7FDF75AFD4C4B1D7005B0F0BD64
:1058400007F084FE464E102C03D1494B1B78DB0732
:1058500027D53378012B04D1132804D0153801281B
:1058600001D9FDF743FD0D2C1BD1009B002B18D057
:1058700040480378002B09D0142200210DF06EFD62
:1058800000223D4B1A703D4B01321A70FFF7FEFEAD
:105890003B4B1B78002B01D0FFF730FA0022394B2D
:1058A0001A603378012B00D087E7374A374B1278DC
:1058B0001A8082E7002A9AD02A78012A97D0102CE1
:1058C0006BD00D2C0CD1002FB8D0002B00D147E2AB
:1058D0000120224B1870294B187003F06DFEADE7C4
:1058E0000F2C0FD1002FA9D0009B002B00D083E7F5
:1058F000022003F061FE0422254B1A7001221F4B87
:105900001A709BE72300113B012B00D8FBE00A2C07
:1059100000D022E2009B002B00D0F4E0002FE7D063
:105920008CE7C046E01A00204A180020404A0108CF
:1059300080000020FC1A00202C1B0020B918002039
:10594000DC170020DB17002099180020DA17002050
:10595000F41A0020A218002053180020521800202A
:10596000651C0020DB1A0020AE180020491800201A
:10597000E11A0020051800200418002086180020D5
:10598000D01A0020FC1700205E4A0108A818002049
:10599000A4180020102C00D0B5E0CD4A1378002BBD
:1059A00004D0009B002F01D101231770C94A117840
:1059B000002908D0102C01D00D2C04D10021012089
:1059C0001170C5490870C549C54E0291002B0FD111
:1059D0002B78012B00D00BE1C24B03931B78002BDB
:1059E00000D0CBE0102C00D08FE0380001F0CAFBD3
:1059F0003078002803D003F0DFFD00233370BA4C69
:105A0000BA4E2378002B09D0B94ABA4B12781A80C3
:105A100002F030FB0123337000232370B64C23784F
:105A2000002B0AD0009B002B00D010E106F074F888
:105A3000002301222370A84B1A70B04B1A78002A59
:105A400007D000221A70009B934200D003E106F0B9
:105A500019F8AB4B1A78002A07D000221A70009B65
:105A6000934200D0FBE006F039F8A64DA64C2B7807
:105A7000002B19D0009B002B00D0F4E0002F00D0A9
:105A8000F1E0A24B01991A68C9792B78907F06F052
:105A900059FA03F015FB002804D12378002B01D11B
:105AA0000133237000232B702178994D002900D1F8
:105AB000EEE0984F3B78002B00D1E6E0002004F0A8
:105AC00021FE0120217804F01DFE029B1B78FF2B94
:105AD00002D10023029A137001232B70002323703C
:105AE0003B7004F0D7FF012005F084F800228A4BB8
:105AF0002A701A705A70894B1B78934200D1CBE000
:105B0000FFF7FCF8C8E0864A48E7FE25112C06D0CE
:105B1000200001F051FA0500FF2800D168E7002FAE
:105B20000CD1A0238022DB0552009A627D4B380005
:105B30001F70FEF725F8FDF71DFF59E7009B002BAE
:105B400000D055E7019B6A331B78002B07D0A023B8
:105B50008022DB0552009A61724BFF3A1A70FDF702
:105B600009FF019B6A331878FE2D03D16E49FEF7B9
:105B7000F3F83DE72900FEF753FA39E7009A002AC7
:105B800000D0E3E0002F00D132E7A02280210025E1
:105B9000D20549009162634A157002229343012B9A
:105BA00001D105F06FFA039B05201D70FEF7ECFF95
:105BB000012005F01FF85D4B1B78012B01D0029BE3
:105BC0001D70019B3433187800280CD104F0ECF9D7
:105BD00001233F4A102C04D0009A002A00D007E786
:105BE0004F4A137004E70A224243514B1A70EFE701
:105BF00023001278113BDBB2002A0BD0012B0BD80B
:105C00004A4A4C4B127892009B5839002000009A67
:105C10009847EDE6012B06D9444B1B78FF2B02D0A9
:105C2000444A9B00F0E703F04BFA002805D1390005
:105C30002000009AFFF7C0F9DAE6009B002B00D0A5
:105C4000D6E6002F00D1D3E602333370D0E601222E
:105C5000394B1A70ECE60122384B1A70F9E6012232
:105C6000374B1A7001E707F071FC002800D008E7F5
:105C70002A78344B511E8A411A70029B1B78FF2BE5
:105C800000D00FE7029B18700CE7019BD8791AE748
:105C90002B78002B00D024E73378002B07D000238B
:105CA000134A33701278134B1A8002F0A3FC264C6F
:105CB0002378002B03D005F031F900232370029BD9
:105CC000187808F017FCFF23029A137016E6C046F6
:105CD000A5180020CA130020B6180020B400002028
:105CE00049180020AA1800209B1800209A180020AC
:105CF0005E4A0108A81800209E1800209D18002068
:105D0000A01800209F180020A2180020F41A0020DC
:105D1000A3180020A1180020B1180020D01A0020DC
:105D2000A6180020BB180020D6060000651C002025
:105D3000B818002068000020DB1700209918002008
:105D4000DC170020DA1700209C180020032B00D05D
:105D50004EE6002F00D04BE617E7002F00D16DE58F
:105D6000009B002B00D069E5C2E5C046F7B50120D5
:105D700009F0FAFA002802D0012009F0B7FBAA4C7A
:105D80002378012B00D087E0A84E3378002B37D141
:105D9000A74B1B78002B33D1A64B1A78002A03D1CE
:105DA000A34A1278002A77D000221A70A24B1A88D0
:105DB000A24B002A02D19A7F3D2A03D1FF33987C5F
:105DC000FDF724FAC82200259D4B920035701A80F9
:105DD0009C4B1B78AB4208D09B4E3378012B00D0F4
:105DE0000EE102333370FEF723FEFFF73BFC082081
:105DF00003F0E2FB042005F06BF808F06DFB4BE0CC
:105E0000924F934D3B78012B0ED98C4B2A68997F8A
:105E1000002927D1002A01D0FA2A05D180238D4AF2
:105E20009B0151694B4053612B683A7801332B60D9
:105E3000032A26D1814A927F002A20D0864A9342A3
:105E400026D900232B60FDF795FD01237C4D1A0018
:105E500028881E2180B2FDF7B3FE2B8864339BB2E5
:105E60002B8015E0002A04D1FF33987CFDF7CEF992
:105E7000DAE77A498A42D7D1FF33587CF6E7784A85
:105E8000DDE778498B4203D900232B60012ADAD061
:105E90002378012B00D17FE7734B1B78002B00D0B8
:105EA000ADE02378012B03D0704A9B009B589847A4
:105EB0006F4E3378002B04D06E4B1B78002B00D034
:105EC0009DE003F0FDF800280ED16B4B1B785BB210
:105ED000002B09D0694B1B78002B05D0684B1B7831
:105EE000002B01D100F0BCFE03F0EAF8002829D114
:105EF000524BDB7E002B25D0624D2B78002B21D01E
:105F00005D4B1B785BB2002B1CD15D4B1B78002BCB
:105F100018D12378052B15D03378002B12D1FFF739
:105F200021F9594F3B78002B05D0584B18780028A1
:105F300001D108F0DFFA0023554A3B701370554A2F
:105F40002B701370544F3B78002B0AD0534B1B78A7
:105F5000002B06D003F010FF051E02D10AF0F6F860
:105F60003D704F4D2B78002B1ED0454B1B78002BDE
:105F700014D14C4B1B78002B10D1304B5B7F002B86
:105F80000CD0494B1B78002B08D13B4B3F4A1B7868
:105F90001278134302D13378002B40D0434B1A8838
:105FA000434B1A8000232B70424B01931B78002B2C
:105FB00025D02378052B22D13F4E204F33783F4CFC
:105FC000002B00D182E0FDF7CDFDFB7E002B0CD035
:105FD000294B1B785BB2002B07D1334B1D78002D6A
:105FE00003D1FFF7BFF8364B1D7003F0D1FE354BE0
:105FF0001B882380002333700023019A1370F7BDA0
:10600000022B00D0EFE62A0029001020FFF77CFBCE
:1060100001221B4B35701D702B4B1A70E3E60520D7
:1060200003F0C2FFBEE7C0464A180020C218002095
:10603000CB180020C6180020C2020020FC1A002045
:106040007C000020D61A002078180020DE1A0020DC
:10605000741800200008005010210100983A000038
:1060600098340100E0280100B0180020283B010806
:10607000FB210020FA210020021800207A000020D5
:106080008B1800207E0000208D180020651C002049
:10609000001800208E1800207E180020F721002014
:1060A000D01800208C180020AE180020404A0108AB
:1060B00080000020D1180020C40300204C180020CC
:1060C000D91700203E4A0108A6180020FB7E174D74
:1060D000002B0BD0164B1B785BB2002B06D1154B57
:1060E0001B78002B02D12B78002B16D0124B7A7F15
:1060F0001B78002B0FD0C823534323800123002497
:1061000033702C70FDF770FCFDF7CAFC21002000F5
:10611000FDF726FB70E70A23EEE7FFF723F8074BAE
:106120001B88238001232B7066E7C046D917002007
:1061300002180020AE180020E01A00203E4A010894
:10614000F7B50024B24BB34A1C701388200001330A
:106150009BB2138009F008F9A04202D0200009F098
:10616000C5F9AD4B1B78002B17D1AC4B00931B78B6
:10617000052B13D1AA4B1B78002B0FD0A94CAA4E8C
:1061800023783578002B00D176E00023237008F0C7
:10619000A3F92378002B00D16EE0F7BD02F090FF49
:1061A00001240028EAD10C20FDF70CF92042E5D0AB
:1061B00000210220FDF77CF90220FDF703F90823F6
:1061C0000604360E05001E4225D0FDF798FE00F0AD
:1061D000F3FE0190FF281ED0009B1B78012B1AD0E4
:1061E000924B1B78002B16D0914F3800FCF724FD02
:1061F0000200132804D138008E490DF09DF81222B8
:10620000019BBB540023BF188B4A7B7012788B4BC9
:106210001A70844B1C70730701D5894B1C70264281
:1062200005D0884B1C70FDF771FE874B1870B607C0
:1062300002D50022834B1A70EEB26B0601D5834B58
:106240001C702D0602D50022804B1A70730709D5E9
:106250007F4B012105201C70FDF782FAE1227D4B66
:1062600052011A8008231E429DD00021784B052040
:106270001970FDF775FA96E7002D01D007F0E6FFDB
:10628000754D2B78002B04D0744B1B78002B00D05D
:1062900083E7009B1F78012F0CD1714B18780028E1
:1062A00008D00138C0B21870002803D103F07CFE7A
:1062B000377027702B78002B0DD06A4A1388002B7B
:1062C00009D0013B9BB21380002B04D109F098FF49
:1062D000032008F00FF903F089F88022624B63492C
:1062E0001878D200624B002800D1D5E0086910422E
:1062F00016D1604A604812780478224310D1197888
:106300000131C9B21970022921D95C491A700A7089
:1063100001215B4B017019701020FFF7F5F916E0B1
:106320000A69520503D4534A1278002A2CD05248E5
:106330000278012A28D11A780132D2B21A70022AC0
:1063400003D84C4B1B78002B01D002230370FEF7BF
:106350000FFA0400132802D00022484B1A70494E4D
:10636000494D33789C4200D1CFE0132B08D0132C39
:1063700006D0464B00211A78454B1878FFF7C4F930
:10638000002334702B8008E780220869D200104275
:1063900012D1384C207800280ED137480578022DCC
:1063A0000AD11A780132D2B21A70022A02D823789E
:1063B000002BCCD00323C9E70969114203D12D4A30
:1063C0001278002A21D02C4C2278032A1DD11A7869
:1063D0000132D2B21A70022A03D8264B1B78002B46
:1063E000B5D0002210201100FFF78EF90022244BB7
:1063F0001A70274B1B78132B02D0264B01321A70D0
:1064000000232370FEF714FBA1E700221A709EE719
:106410008318002092180020B01800204A1800208D
:10642000C403002086180020B6180020D21A0020CD
:1064300005180020061800205B4A010804180020F7
:106440009518002098180020971800209618002012
:1064500094180020C0180020FB210020FA21002001
:10646000B8180020F2210020D61A002000040050A5
:106470008A180020CB180020781800207D180020F2
:106480008B18002009000020CC1300208C1800205D
:1064900008000020A6180020434C09692078002835
:1064A0001FD0114203D1414A1278002AADD01A7888
:1064B0000132D2B21A70022A04D83C4B1B78002B4E
:1064C00000D144E7002210201100FFF71DF900233E
:1064D0002370374B1B78132B94D00122354B1A7045
:1064E00090E7114291D1314A1178CAB200298CD17A
:1064F00019780131C9B21970022900D827E72E494D
:106500001A700A700121217006E728882B4B013090
:106510001B8880B22880834215D1254D284E132C2C
:106520000AD12878132804D000213278FFF7ECF83C
:106530002C700023337030E60022012120002C70E3
:10654000FFF7E2F8F5E71F4B1E88B04200D224E6C1
:10655000132C00D121E6B0420AD1102C00D11CE648
:106560000121174B0A0020001970FFF7CDF814E63F
:1065700023000B3BDBB2012B0ED80127104B1F7001
:10658000114B1988FCF74AFA89B2002904D13A0064
:1065900039002000FFF7B8F82A880C4B9A4200D047
:1065A000FBE501362E80F8E58B180020CB18002083
:1065B00008000020A61800207D180020544A010879
:1065C0008C180020584A0108564A0108FFFF0000B5
:1065D0000022F0B5874B85B01A70874A1378002BDC
:1065E00007D0013BDBB21370002B02D10122834B99
:1065F0001A70834A1378002B1AD0013BDBB2137058
:10660000002B15D17F4B1B689B7FC72B0ED87E4B71
:106610001B78013B012B09D801F0BAF87B4B1878A5
:10662000022801D102F0C8FF05F058FAFFF72EF852
:10663000774B1978002914D0764A1278052A01D0B0
:10664000002A0ED10139C9B21970002909D1724846
:106650000378002B05D014220CF080FE0122674B3A
:106660001A706E4B01931B88002B6FD100236C4A6C
:1066700002931378002B76D16A4E3388002B00D01A
:106680007AE07823684F694C397822884B43684D0B
:106690009A4210D12B78002B0DD0FEF7B7F90021CC
:1066A0000620FDF75DF80A22624B5B7F5343624A86
:1066B000138000232B70614B03931B78012B00D1B7
:1066C00092E003F059FB002800D08DE020880028DC
:1066D00000D178E0013880B22080002800D072E03C
:1066E0000122554B30801A802A70FCF78FFDFEF78F
:1066F00039FA2B78002B0BD00322514B0620197846
:106700000131114019704B425941C9B2FDF728F8C7
:106710004C4B1C78002C00D1AAE04B4C4B4D210077
:10672000280003F03DF9FA2322885B009A4204D83E
:10673000474BDA882B889A421CD2BFF34F8F454BC8
:10674000454ADA60BFF34F8FC046FDE7019A013B2F
:106750009BB21380002B89D1404B1B78013B5A42DE
:106760005341DBB283E7013B13703D4B1B78002B99
:1067700000D181E705B0F0BD3A4B1B78002B00D06B
:106780007FE7394B1B78002B00D07AE7334B1B781F
:10679000012B0ED03388013B9BB23380002B00D0FD
:1067A0006FE7244B9B7F3C2B00D96AE7FCF78CFDFD
:1067B00067E706F0CBFE132800D162E706F0C6FEBD
:1067C0001628E7D15DE723885A1E132A00D990E7DF
:1067D0003A78002A00D18CE700209B0701D1234B97
:1067E000987CFCF713FD84E778223B7853432380A1
:1067F0007FE7C046CA180020A41800208618002091
:10680000BA180020F41A0020141C00204918002097
:1068100004180020301C002005180020A8180020B3
:10682000FA210020C202002084000020BE020020C5
:10683000E01A0020FC1A00204C1800204A18002002
:10684000D8170020B018002062180020641800201B
:106850006618002000ED00E00400FA05651C002029
:10686000FB210020631C0020AE180020FB1B002031
:10687000594D039A2B88127801339BB22B80012A41
:1068800012D0DB0710D4554E55493078431C337075
:10689000544B4000C01803F083F83378032B00D921
:1068A0003470012003F026FC2B889B070AD14E4B45
:1068B0001B78002B03D14D4B1B78002B02D00122FB
:1068C0004B4B1A704B4B1B78002B5AD14A4B1B7801
:1068D0005BB2002B55D102F0F3FB002851D1474B9E
:1068E0001B78002B03D0464B1B78002B49D0454B1F
:1068F000454A1B78002B14D044490B78002B10D04C
:106900004348007800280CD142480078012808D07C
:10691000013BDBB20B70002B03D135490133D3743B
:106920000B70029B002B2CD0002301990B80937FCE
:10693000002B01D1FCF7C8FC374D2B78002B03D17D
:10694000334B1B78002B02D0022002F035FE00F002
:1069500043FB0023314A2B701370294A1370304ACD
:1069600013700122224B1A702E4B1A702E4B1B787B
:10697000002B2AD102F0A4FB002802D1200007F04E
:10698000B9FD2A4B1B78002B18D1294B1A78002A05
:1069900014D018780138C0B2187000280ED104F055
:1069A00097FA214B1B78002B08D003F0E5F900285B
:1069B00004D109F025FC032007F09CFD03F044FC02
:1069C00002F0D6FD05F030FFD4E603F0D5F900283B
:1069D000D0D10324D2E7C04650180020AF180020C1
:1069E000621800205A18002055180020D11A0020E3
:1069F000B6180020AE18002002180020F721002051
:106A0000631C00202C1B0020FC1A0020B918002059
:106A10001A180020651C0020141C0020CA13002036
:106A2000621C002086180020FB2100208B1800200B
:106A3000BC180020F0B53D4B3D4DDA7F85B0531EAC
:106A4000D9B202292CD8EB18991CC97F0191591D84
:106A50000833CE7FDC7F374B02931B780393019B77
:106A6000002B0CD0344F3B780093002B1ED0012B11
:106A70004BD003233B70314B029A1B6813700021EB
:106A80002F4B029A595610786B1C40180122DB7F5D
:106A9000C0B203F0EBFCFF2800D10020C4B213E029
:106AA00001260123764234000193D4E7234B039956
:106AB0001960731C29D00099B0B203F093FC002830
:106AC00023D0009BF4B23B701A4B1C70039BA34273
:106AD0000CD0A87902212B181C712C5403F012FE43
:106AE000012004F087F80122164B1A700922164B78
:106AF0001A80019B002B06D00F4A13780133DBB2BA
:106B0000032B10D8137005B0F0BD6B1CDA7F631C2B
:106B1000AFD00021A0B203F065FC0028A9D001236A
:106B2000E4B23B70D0E70023ECE7C046FD1A00203A
:106B3000FC1A00208F180020F4170020E017002016
:106B40000218002086180020AC180020002170B523
:106B5000104B114C1A68114B25685956002A15D054
:106B60000F4B28001B68FEF759FD2860206803F0D2
:106B7000BBFD206803F098FC012004F03BF80922DB
:106B8000084B1A80084B083A1A7070BD2800FEF7AF
:106B90005BFDEAE7FC170020F01A00200218002035
:106BA000F8170020AC1800208618002070B50400EB
:106BB0000D00002807D01B4A1B4B117F19700023C2
:106BC00013771A4A137003F065FF0020184B194A17
:106BD00019688B7F1370184A1070184A1570184D79
:106BE000C72B15D8844202D0164A2B601360FFF7DA
:106BF00021FF2A68144B1A60144B1A88144B1A8010
:106C00000023144A1370144A1370144A137070BD91
:106C1000002C03D00B680B4A2B601360FFF796FF24
:106C2000E7E7C046FC1A0020EC17002001180020FE
:106C3000F01A00208F180020F417002002180020FE
:106C4000E8170020F0170020E4170020464A01084A
:106C5000AC1800207A0000208E18002000180020B8
:106C600010B5134B134A1B7812783833DBB2032A62
:106C700015D1062B03D9104B1B78002B14D10F4BC9
:106C800004201B78002B00D00238FEF7E7FB00231E
:106C90000B4A13700B4A13700B4A137010BD062B6E
:106CA00002D8FFF753FFF2E7FFF7C4FEEFE7C04655
:106CB0008F1800204A180020E81A0020D01A00205F
:106CC000001800208E1800207A000020144BDB7F73
:106CD000502B20D913490A78002A0AD1124A503B76
:106CE0001288534305225343104A9BB21380012359
:106CF0000B7000220E4B1A700E4A0F4B1168196070
:106D00000E4B19688B7FC72B00D90B6813600122CB
:106D10000B4B1A7070470022044B1A80E9E7C046FB
:106D2000FC1A002000180020424A0108AC1800207C
:106D30007A000020E8170020E4170020F01A002055
:106D40000118002070B5204B1A78002A03D01F4983
:106D50000A7700221A7000221D4B1A701D4B1E6804
:106D60001D4B34001B78934201D01C4B1C681C4BFC
:106D70001B78C72B16D8154BE2B2987919180A71EF
:106D800002211A5403F0BEFCB44204D004F0A6FE63
:106D90000122144B1A70012003F02CFF0122124B28
:106DA0001A7070BD114D2868046003F09DFC2868BE
:106DB00003F07AFBB442EED02A68044B907F9979B5
:106DC000012305F0BFF8E6E7EC170020FC1A0020CD
:106DD00002180020F017002001180020E8170020FA
:106DE0008F180020B618002086180020F01A002006
:106DF000074B1B78012B0AD0064B1B78012B06D0C2
:106E000001220549CB7C5340CB74044B1A70704768
:106E1000651C00204A180020FC1A00209E18002043
:106E200000220E4B1A6001230D4AD1794B40117F8D
:106E3000D371002901D0591C1177D17E002901D0CE
:106E40000133D3760123074A1370074A1370074AA8
:106E500013700022064B1A707047C046FC170020C2
:106E6000FC1A00209E180020A31800207E0000209D
:106E7000B400002010B50F4CA37E002B0ED00E4B9B
:106E8000E2791B68997FA318C72908D89B78A35477
:106E900001220A4B1A700A4B92181A7010BD187909
:106EA000002301211A0003F0E1FAFF28F6D0E3796C
:106EB000E054EDE7FC1A0020F41A0020A01800208E
:106EC000A218002037B5224C236831331B78042BDD
:106ED00006D1204B1C22FA211B781F48FCF770FEBC
:106EE000236831331B78023B012B2CD8194B1B4CE8
:106EF0001B781B4D002B09D0A0238022DB055200FC
:106F00009A6101233C202B70FDF73EFE23006A337B
:106F10001878FCF79FFE21002300220068310988C1
:106F2000643362321B8812886634019121880D48CF
:106F300000910021FCF7E2FEA0238022DB05520035
:106F40009A6200232B700120FCF71AFE37BDC04661
:106F5000EC1A0020661B0020AB090000FC1A002080
:106F6000BB1800204A1B002030B502780300013A0C
:106F7000D2B20020FD2A0CD801240E4D59188B42A4
:106F800006D01A78501EC0B2FD2803D900221A700C
:106F9000012030BD232A09D02A3AD2B21A2A07D8B2
:106FA0002800D040020020402242F2D00133E6E720
:106FB0000020EEE7C1FF8007092802D83030C0B2B8
:106FC000704703000A3BFF20052BF9D8014AD05C2B
:106FD000F6E7C046443B01080F2210B500210448E3
:106FE0000CF0BCF90022034B1A70034B1A7010BD51
:106FF0001C1800201B1800201A180020F8B50A4F92
:1070000006003C78002C0BD1084D0E222D212800C3
:107010000CF0A4F9AC73631C3B70044B1E5501E0EB
:107020000D2CF8D9F8BDC0461B1800201C180020F4
:1070300073B5264A1378012B0CD0254B1B683133CE
:107040001978042940D81523CB40DB073CD5002311
:10705000137073BD1F4D002313701F4B1F4C1B88F3
:10706000181CC72B00D8C82023006A331B781C4E7D
:1070700080B2002B06D0A0238022DB0552009A614B
:1070800001233370FDF780FD23006A331878FCF785
:10709000E1FD210023002200683109886433623257
:1070A0001B881288663401912188280000910121F3
:1070B000FCF724FEA02380220020DB0552009A6208
:1070C0003070FCF75DFDC4E7064DC4E703180020EF
:1070D000EC1A00202B1800205C1B0020FC1A00205A
:1070E000BB180020381B002010B51C4B1B78002B50
:1070F00007D0002924D1002822D00222184B1A7070
:107100001EE0002918D1174B1B78002819D1164A08
:107110001278002A01D1002B01D0032B10D10123BA
:10712000124A11784B40137003D0114A114B127858
:107130001A70114B0122E2E7002801D0FFF758FE38
:1071400010BD074A032B02D001231370F8E70B4947
:1071500009780029F8D01370094BEBE7141C0020C4
:1071600049180020651C0020FB210020CA130020C4
:107170005A4A0108BA180020B6180020F72100204A
:10718000A6180020002370B5494C2370984203D004
:10719000484B1B78002B21D0474B1B78012B11D17A
:1071A000464D2B78002B0ED0002002F0FDFE00246F
:1071B00020002C7003F08CFE414B1B78012B01D07A
:1071C000404B1C7070BDFEF74DFA3F4B19780029FB
:1071D000EAD00A224A433D4B1A70E8E701F070FFFB
:1071E000374D002807D001F07BFF394B1B78002B6F
:1071F00030D0384B2CE0384B1B785BB2002B02D0E0
:10720000FFF7A0FDF1E7354B1B78002B05D008F008
:10721000C9FD03222B4B1A70E7E72B78032B16D0FE
:10722000254A1278012A05D1284A1278002A01D16C
:107230002270C7E7012B02D00022224B1A70284986
:10724000284B09781A78002915D1002A1AD1264B23
:1072500001221A700022254B1A702B78012B04D0C2
:10726000184B1978032900D01A700122204B1A708C
:10727000204B1A70A6E7002A04D11F4A1278002A70
:1072800012D01A701B781D490E2B01D80022CA5447
:10729000194A1B4C137020000E220CF078F80023C2
:1072A0000122A373174B1A70FFF796FECFE7C04673
:1072B000141C0020CB1800204A1800209018002031
:1072C000651C0020B4000020301B0020B8180020EE
:1072D0008B180020A518002002180020F72100209C
:1072E0001A1800201B1800209C1800208A18002063
:1072F000B618002086180020191800201C1800203D
:107300002B18002003180020F0B5BC4BBC4CBD4A24
:107310001B7885B0E6790D000392012B03D102237F
:10732000039A13701CE00127039B1F70122800D9D9
:1073300061E1FBF7E3FA13001700880092009A005E
:10734000AA00080115000B01150160012801340194
:10735000600160016001600154013A01FDF712FD16
:1073600005B0F0BDA84B19688B7F3833DBB2062B14
:107370003ED90022A54B1A70A54B01321A70A37E8C
:10738000002BCCD0A34B1B78002BC8D1A24B1B7871
:107390005BB2002B0BD0A14B1B78032BE0D1A04B91
:1073A0001B78002BDCD09F4B1B88002BD8D0A35D13
:1073B000C72BD5D848237343E3181A00A432127898
:1073C0009233383AD2B2A2551A7003F063FB964C4E
:1073D000206803F089F9206803F066F8012003F0C3
:1073E00009FC0123914A1370914A1370914A98E75E
:1073F0000A0030321378062B07D109698E480D68D0
:10740000854202D88D4B0B60AAE70133DBB21370C3
:10741000042B14D18A4B1B78002B01D10533137038
:1074200013780122383BDBB2A355A419A370804B1B
:107430001A70844B92181A70834B002223E0062B9B
:10744000EED90023EBE77F4B1F70FFF7E9FC002D1F
:1074500000D185E7039B1F7082E77A4B1F70FFF70F
:1074600009FD002D00D05AE77AE70020674B18701D
:10747000227F764B20771A700122654B1A7001F03B
:107480009FFD714B02221A706AE7002902D00AF0B0
:10749000EBF9D1E701F014FE002800D060E75A4B69
:1074A0001968887FC72823D90B69E1791B684A428C
:1074B000514148224A43664EA218506F654A9D19B1
:1074C0006549664C954202D88519954203D9002337
:1074D0000B60236023E70A68206055426A415242EC
:1074E00013400B60984200D33AE70860236037E707
:1074F0005B4B1A5C002A01D01D5431E70E000A00D4
:107500000F002E362F32337814785B00A4002D370D
:1075100023433C782343DBB2062B01D80133DDB291
:1075200001242B0023403B706B082340AD083370CF
:10753000157023002200009404F0A2FC414B1C7043
:10754000484B1C700CE7FDF761FB09E701212E4B4E
:107550001B682A331A784A401A70344B1970FFE6B8
:10756000270000223B371100387802F03BFF00284B
:1075700000D176E73B78A21913710122A3552C4B59
:107580001A70304B7EE7627C131C082A00D908234E
:107590000133637401222B4B1A701C4B4DE7637C43
:1075A000002BF6D0013BDBB2F3E7174C236807331F
:1075B000D87F02F08BFAC0B2162806D825680130B1
:1075C000C0B202F07DFA0735E87723689B7F383335
:1075D000DBB2062BDED80122144B1A70DAE70A4C14
:1075E00023680733D87F02F071FAC0B20028ECD0CC
:1075F00025680138E4E7064B1F70CEE7651C0020C4
:10760000FC1A002049180020F41A0020CA13002098
:10761000B6180020AE180020021800204A180020DA
:107620008E180020AC180020F01A00209F180020AF
:10763000A018002086180020FFE0F50500E1F50500
:10764000E41A0020A2180020B400002088180020AE
:10765000806967FF80AF2A23FC170020F8170020FD
:10766000D2180020A118002070B52A4C0E00E37932
:107670001100E55C284B1B78002E02D1002821D197
:1076800070BD002BFCD10028FAD00022234B9A5663
:10769000002A33D12B003833DBB2062B1CD8204D07
:1076A0002868FDF7D1FF040002F04CFB00280BDB3B
:1076B0002B6820001C60FCF7D9F8FCF705F90122C3
:1076C000184B03E0002B03D0174B02221A70D7E7A8
:1076D0000122154B1A70D8E768181300C0B202F0E7
:1076E000C5FEFF28CCD08542CAD0E379E2181071DC
:1076F0000122E0540D4B1A700D4BE6E70020FFF716
:1077000055FA012200210B4B1A800B4B19700B4BC1
:10771000DCE7C046FC1A0020141C002002180020E0
:10772000F41A00209F18002049180020A0180020FB
:10773000A2180020AC1800207A000020A618002013
:10774000002270B50E4D11000400EE7902F04AFEE1
:10775000002807D10B4B1B78012B02D802220A4BC1
:107760001A7070BD00220221074BE4B21A70AB19E7
:107770001C71064BAC551970E87902F0C3FFF0E7B5
:10778000FC1A0020BA18002049180020A218002076
:1077900070B5154B1B689B7FC72B17D800220A2595
:1077A0001300124C124E2178D0B281420FD8002B18
:1077B00013D103290AD100220121013B22700D4A75
:1077C00098B21170FFF7BCFF04F088F970BD6B43ED
:1077D000B05C01321B189BB2E6E7581E80B2032949
:1077E000E9D0FFF7ADFFF1E7F41A0020141C0020E8
:1077F0001E1C0020BA180020F0B5B84B85B00193CC
:107800001B7805000C001600002B0AD0102808D0A9
:107810000D2806D0002E21D1002C1FD00222B04B03
:107820001BE0B04F3B78002B1AD0002C00D170E247
:10783000002E00D054E22800FFF7BEFBFF2800D145
:1078400035E2FFF7DBFBA84AA84B12781A70012239
:10785000A74B1E70A74B1A70A14B1A7005B0F0BD54
:10786000122DD7D82800FBF749F813001300130096
:107870001300130013001300130013001300DB00A8
:10788000310176017E01CE0107020C0213001300C4
:10789000002E16D0002CE1D0974B1B78002BDDD1A9
:1078A000964A1178002902D01370914A1370002172
:1078B0000122934B1970934B1A702800FFF724FD97
:1078C000CCE7002C01D0864B88E08D4B1A78002A3B
:1078D00000D096E08C4B1B785BB2002B04D0052DBA
:1078E000BCD88A4BDD77B9E7894E2800F37901933C
:1078F00004F03CFE7C4B7D4F1D783D70FFF748FF48
:107900007B4B1C70834C2268937FC72B02D8AD0839
:107910003D70A3E73833DBB2062B00D97EE713694D
:107920001A687D4B93429B415B4206330293734B33
:1079300003931B78002B00D190E7029A93424FD11A
:107940002D093D7004F02AFE039B1D7802F01EFDF8
:10795000002102000A20029B5B1BDBB28B4245D157
:1079600064206E4B50431D686D4A5768A8420AD385
:10797000B8423FD36B4A1568A8423BD2EB195B086B
:10798000984200D23D00280002F0AEF82368303360
:107990001A7882420DD0C0B21870019B3838C0B23C
:1079A000F054F318987004F099F80221019802F04D
:1079B000A9FE23682800998B02F0C0F8B8420AD3C8
:1079C000584B1B68984206D2DA195208904216D2D8
:1079D0002368988B381A23681860534B01223CE7C0
:1079E00028000321FAF794FFC5B2AAE70131424308
:1079F000C9B2B3E75D6B8542C5D90500C3E718007E
:107A0000E9E701211C703F4B1970082D02D1FDF7E9
:107A100085FB23E7092D00D04FE7FDF72BF91DE784
:107A2000002C21D0002E00D14DE7374B1B785BB2E4
:107A3000002B2ED002F0A0F9002804D13B4B1B886C
:107A4000092B00D80AE7334B394A1B68997F012379
:107A50005354384A1370384A1370384A384B1268F6
:107A60001A60FFF7FDF8F9E6002E00D0F6E63B7845
:107A7000002B00D0F2E6214B1A781E70002A00D0AD
:107A80009DE0214B1B785BB2002B1AD0FFF75AF90F
:107A9000E4E61B4A1370184B1B78002B00D0DDE680
:107AA00016490878002802D00B7011490B7000238A
:107AB00001211370134B0A000A201970FDF77CFA9C
:107AC000CCE601221F4B1A70094BC6E60C4B1B7803
:107AD000002B39D000210C20F0E6C046FB2100200D
:107AE000491800201A1800205A4A0108BA18002024
:107AF000B4000020A6180020651C0020141C0020E3
:107B0000CA130020B618002002180020FD1A002019
:107B1000FC1A0020F41A0020FFE0F5056449010872
:107B2000A44901089C4901089F180020AC180020B6
:107B3000D2180020A2180020A1180020E41700206D
:107B4000E81700209A18002001225242310020003C
:107B5000FFF78AFD82E67B4B01221B78002BF5D0D4
:107B600000210B20AAE6002E34D1002C00D175E6AE
:107B70007549764B0A68002A07D000220A607449CA
:107B80000A6001321A70734B67E601221A70019B7A
:107B90001B78002B1BD1704A127852B2002A11D1E7
:107BA0006E4A1378002B00D158E60A21013BDBB264
:107BB00013706B4AD1546B4A6B4B12781A700022C7
:107BC0006A4B4AE66A4A1370FFF7BCF8F7E7FDF71D
:107BD000D9F843E6002C00D140E6604D654A2B7889
:107BE00011780B4303D13B78002B00D136E60024FB
:107BF0006148147021000F223C700BF0AFFB5B4B0F
:107C00002C701C705FE65D4B1B78012B00D125E6C4
:107C1000524B1B78002B00D0FCE5002E09D0494BBD
:107C20001878002831D1002C00D117E6FDF72AF989
:107C300049E6002C00D011E6424B1B78002B27D1DF
:107C40000022454B9A56414B002A2DD13E4A1268DC
:107C5000002A29D101250E32494847491D700BF0F1
:107C60008DFB444B3F4A1C7012783F4B3D701A709D
:107C70003E4B1C70374BB1E631002000FFF734FA61
:107C8000ECE52000FFF77EFAE8E5002C00D0E5E502
:107C900000212C4B3B4A1970107F3B4B1177187019
:107CA000012001F08DF9314B02221A70E2E7122D0A
:107CB00000D9B3E52800FAF717FE04FE04FE04FE1F
:107CC00004FE04FE04FE04FE04FE04FE04FE06FEA2
:107CD00009FF4EFF58FFA6FFDFFFE4FF04FE04FE8E
:107CE000122D00D9BAE52800FAF7FEFDD4FDD4FD27
:107CF000D4FDD4FDD4FDD4FDD4FDD4FDD4FDD4FDFC
:107D00009CFEF0FE35FF77FF8DFFC6FFCBFFD4FD55
:107D1000D4FD122D00D97DE52800FAF7E5FDB9FD67
:107D2000B9FDB9FDB9FDB9FDB9FDB9FDB9FDB9FDA3
:107D3000B9FDA5FED7FE1CFF24FF74FFADFFB2FF07
:107D4000B9FDB9FDCA130020FC1700204918002016
:107D5000F8170020B618002002180020141C00207C
:107D60001E1C00205A4A0108BA180020B400002046
:107D7000011800201B1800202B1800204A18002092
:107D80001C180020FC1A00208818002010B50120C3
:107D900001F016F90123034A1370034A1370034AD2
:107DA000137010BDB6180020AE180020B4000020DB
:107DB0000022044B1A70044B01321A70034B1A70E4
:107DC0007047C046AE18002086180020B618002064
:107DD000002300B50B6048285FD8FAF77BFD252902
:107DE0003137393739335E3D5A5A5A4444445C4638
:107DF0005E2B5C252D5C5A353B5A5A5A5A2F485EE9
:107E00005C44464141415E5E485A4A5A48335E33BB
:107E1000335A2F5A56585A5C5C5E5A5A5A5A5A5A12
:107E20004E5252525252480009230020136000BDA6
:107E30001723FAE73D23F8E701230B600A23F4E751
:107E40000723F2E70223F0E76823EEE7D023ECE70D
:107E50003223EAE72823E8E705230B60AE33E4E7A3
:107E600001235B420B60C723DFE70523DDE7042323
:107E7000DBE703230B606033D7E7094B0B60094B4B
:107E8000D3E7094B1B78013BCFE77823CDE70623E7
:107E9000CBE70123C9E70323C7E701204042C6E738
:107EA000DC050000AC0D00009B4A0108F0B587B06E
:107EB000140006000F0005F049FB02000F2832D124
:107EC0005D4B1B78002B2ED05C4B1D68002D2ADBF0
:107ED000002E26D0092D24DC594902A80BF04EFAB9
:107EE0006A465848E4B2435DD61DE318DBB2190078
:107EF00000222039C9B25E2903D91F2B0AD87E235C
:107F00000BE00132B75C9F4202D11B19DBB2EEE7F6
:107F10000F2AF0D17E2B00D92023012243554A4B52
:107F20001A7007B0F0BD002F30D1002EF9D0012219
:107F3000464B1A70464B1F7001F0C2F8061EF0D176
:107F40003D4B414F1D78002D23D1424B424E1B78B3
:107F50002A00013B3078614202F008FA01223F4BCF
:107F600030701A703A7005F0F1FA1328D9D005F084
:107F7000EDFA1528D5D005F0E9FA1628D1D0384BFE
:107F80009B7F002BCDD1FBF79FF9CAE7002ED3D101
:107F9000C7E705F0DBFA082814D1324B324D1B68D5
:107FA0002868998B314B4C432018984203DC0028F9
:107FB00002DA2F4800E0300001F0C0FD2860012304
:107FC0003B70AEE705F0C2FA0F2829DC0D2824DC4F
:107FD00005F0BCFA02AAC0B201A9FFF7F9FE002819
:107FE000EDD1214D019A29681000029B914203DBDB
:107FF00018008B4200DD0800210002F0B7F9DDE730
:108000000223194E2A00306821000019C0B202F084
:108010002DFAFF28D3D03060D1E700252B00F0E700
:1080200023380428D4D8FAF74BFCF8D303EB050027
:108030000123E6E70323E4E7611C0020341C002051
:1080400073350108381C0020B400002049180020B6
:10805000141C002089180020601C00209A180020A1
:10806000FC1A0020F41A00205C1C0020F5E0F50545
:10807000F6E0F50530B5AE4C8BB0256805F066FA34
:1080800004AAC0B203A9FFF7A3FE002809D1A94B97
:10809000039A1968914201DA1A6002E0049A914247
:1080A000FADC05F053FA482800D9C5E0FAF726FCB7
:1080B00049005000600068007F0066007D008D0070
:1080C0009200160197009C005102A100C901B30063
:1080D0002001CB00C400D100EF00D900E400F30080
:1080E0000F011B0125012E0164016A017001770156
:1080F0007B01C400830189018D01C400C400C40058
:10810000C400C4009E0191019701A501BC01C001FA
:10811000C400A301C401D701DF01F8012202240237
:108120002A0233023502C40037023D023F024102F7
:108130004F02430203020F020F020F020F020F024F
:108140000A027C4A7C4B12685A747C4B012286E0FE
:10815000784B256818680735C0B201F0B1FC236878
:10816000E8779B7F3833DBB2062B65D8744B4FE042
:10817000704A2368126828331A70F7E725680835B3
:108180006C4B1A68002A04D12B79012B54D0AA8099
:10819000ECE7D3B2682A04DC0222013B2A716B713E
:1081A000E4E70322693B2A71F9E725680835614B4A
:1081B0001B68002B04D12A79012A3DD1AB80D5E779
:1081C000013B6B7101232B71D0E75A4A2368126877
:1081D000DA77CBE7574A236812689A61C6E72368C3
:1081E000544A2C331268C7E72368524A3233126864
:1081F000C2E7504B1A682368D2B29A774E4BD979AE
:108200005B181A7102224E4B1A704C4B1A704D4B70
:1082100001221A7010E04C4B092219002024587AD0
:108220000500A5430AD05F2808D0FF2806D0414B9F
:108230001868C0B203F002FE0BB030BD5C72013BA7
:10824000013AECD2F3E73B4A3B4B12685A773F4B7B
:10825000DEE7384A384B12689A7700223C4B1A7096
:10826000F5E7344B3B4A1B68917C537401339942C8
:1082700000DA19009174EAE72E4B364A1B68517CEC
:108280009374013B994200DD19005174DFE7324BD2
:10829000284A1268E3E7274B27481C680123C27964
:1082A00023400132D2B25343DBB20021C376A4078C
:1082B00000D5111C294A01771370294B294A1970DE
:1082C00001231370284A1370284A1370BFE7194A14
:1082D000194B1268511E8A41DA75B8E7154A164BD8
