:020000040800F2
:1028000000400020492D0008312D0008332D00081C
:1028100000000000000000000000000000000000B8
:10282000000000000000000000000000352D00083E
:102830000000000000000000372D000805D400084B
:10284000992D0008992D0008992D0008992D000850
:10285000992D0008992D0008992D0008992D000840
:10286000992D0008992D0008992D0008E14B0008CA
:10287000992D0008992D0008992D0008992D000820
:10288000992D0008992D0008992D0008992D000810
:10289000992D0008992D0008992D0008992D000800
:1028A000992D0008992D0008992D0008992D0008F0
:1028B000992D0008992D0008000000001DA00108B6
:1028C00002B4714649084900095649008E4402BCC9
:1028D0007047C04602B4714649084900095C490086
:1028E0008E4402BC7047C04603B47146490840009C
:1028F0004900095E49008E4403BC704703B4714629
:10290000490840004900095A49008E4403BC7047F9
:10291000002243088B4274D303098B425FD3030A1E
:102920008B4244D3030B8B4228D3030C8B420DD331
:10293000FF22090212BA030C8B4202D312120902BF
:1029400065D0030B8B4219D300E0090AC30B8B42FD
:1029500001D3CB03C01A5241830B8B4201D38B03AB
:10296000C01A5241430B8B4201D34B03C01A524150
:10297000030B8B4201D30B03C01A5241C30A8B4293
:1029800001D3CB02C01A5241830A8B4201D38B027E
:10299000C01A5241430A8B4201D34B02C01A524122
:1029A000030A8B4201D30B02C01A5241CDD2C30994
:1029B0008B4201D3CB01C01A524183098B4201D310
:1029C0008B01C01A524143098B4201D34B01C01AFB
:1029D000524103098B4201D30B01C01A5241C30873
:1029E0008B4201D3CB00C01A524183088B4201D3E2
:1029F0008B00C01A524143088B4201D34B00C01ACE
:102A00005241411A00D20146524110467047FFE739
:102A100001B5002000F0F0F802BDC0460029F7D053
:102A200076E7704703460B437FD4002243088B426E
:102A300074D303098B425FD3030A8B4244D3030B45
:102A40008B4228D3030C8B420DD3FF22090212BA0A
:102A5000030C8B4202D31212090265D0030B8B4286
:102A600019D300E0090AC30B8B4201D3CB03C01A70
:102A70005241830B8B4201D38B03C01A5241430B4B
:102A80008B4201D34B03C01A5241030B8B4201D33B
:102A90000B03C01A5241C30A8B4201D3CB02C01AA6
:102AA0005241830A8B4201D38B02C01A5241430A1E
:102AB0008B4201D34B02C01A5241030A8B4201D30D
:102AC0000B02C01A5241CDD2C3098B4201D3CB01B4
:102AD000C01A524183098B4201D38B01C01A524163
:102AE00043098B4201D34B01C01A524103098B4267
:102AF00001D30B01C01A5241C3088B4201D3CB0052
:102B0000C01A524183088B4201D38B00C01A524134
:102B100043088B4201D34B00C01A5241411A00D2E4
:102B200001465241104670475DE0CA0F00D049424D
:102B3000031000D34042534000229C4603098B42BD
:102B40002DD3030A8B4212D3FC22890112BA030A45
:102B50008B420CD3890192118B4208D389019211C7
:102B60008B4204D389013AD0921100E08909C3094C
:102B70008B4201D3CB01C01A524183098B4201D34E
:102B80008B01C01A524143098B4201D34B01C01A39
:102B9000524103098B4201D30B01C01A5241C308B1
:102BA0008B4201D3CB00C01A524183088B4201D320
:102BB0008B00C01A5241D9D243088B4201D34B003B
:102BC000C01A5241411A00D20146634652415B107D
:102BD000104601D34042002B00D54942704763465E
:102BE0005B1000D3404201B5002000F005F802BDA3
:102BF0000029F8D016E770477047C0461C21012312
:102C00001B04984201D3000C10391B0A984201D3CF
:102C1000000A08391B09984201D30009043902A2AD
:102C2000105C40187047C046040302020101010114
:102C3000000000000000000002780B78002A03D09A
:102C4000013001319A42F7D0D01A70470023C25C9C
:102C50000133002AFBD1581E704700000448054B81
:102C600010B5834203D0044B002B00D0984710BD11
:102C7000E4010020E40100200000000006480749AC
:102C8000091A8B10C90FC91810B5491003D0044B8D
:102C9000002B00D0984710BDE4010020E401002083
:102CA0000000000010B5074C2378002B09D1FFF776
:102CB000D5FF054B002B02D0044800E000BF0123E4
:102CC000237010BD6003002000000000A8B00108C0
:102CD000054B10B5002B03D00449054800E000BFA8
:102CE000FFF7CCFF10BDC0460000000064030020C9
:102CF000A8B0010807B501210B4B0C481A6C0A4318
:102D00001A641A6C0A4080210192019ADA6B490513
:102D10000A43DA63DB6B0B400093009B00F03EF943
:102D20000FF006FBFEE7C04600100240006CDC021C
:102D30007047FEE770477047014B024A9A60704740
:102D400000ED00E0002800080D488546FFF7F4FF7D
:102D50000C480D490D4A002302E0D458C4500433F6
:102D6000C4188C42F9D30A4A0A4C002301E01360CC
:102D70000432A242FBD317F001FBFFF7BBFFFEE7D3
:102D80000040002000000020E4010020ACD9010830
:102D900060030020E4320020FEE70000054B064AF5
:102DA0009B681B051B0F9B009B581F221340D8409C
:102DB0007047C0460010024000B20108054B064AA9
:102DC0009B685B045B0F9B009B581F221340D840FD
:102DD0007047C04600100240E0B101080A4AD368BB
:102DE000DB439B070BD0536808491B045B0F9B0018
:102DF00058580C23D2681A4203D140007047044847
:102E0000F7E703235843F9E700100240C0B1010877
:102E100000366E013821104A10B593680B40102B14
:102E200015D00DD8082B15D00720536812685B0BFE
:102E300003400A499B00D20A02405858D04008E09B
:102E40000821183B8B43EFD18020000201E0FFF7FF
:102E5000C5FF10BD0248FCE700100240C0B10108E8
:102E600000366E0110B50400FFF7D4FF2060FFF7B5
:102E700095FF6060FFF7A2FFA06010BD104B10B57A
:102E8000CB5CD468C018936801682343146923435A
:102E90005469234394692343D4692343546A2343E5
:102EA000084C21400B4303605368C3601368126AE7
:102EB000836043681B0C1B0413434360002010BD58
:102EC0003FB201080F80FFFF00230360436083606F
:102ED000C360036143618361C361036243627047FE
:102EE000F7B500254B680A6800935F1E1300EB409E
:102EF00009D1012F05D84368C96893434A43134356
:102F000043600020FEBD01241300AC402340224258
:102F10002BD01A0003265A435643B446F643019673
:102F200066460468B443009E564334430460012F50
:102F300006D88C6887685443019E37403C438460C0
:102F40000C69C7685443019E37403C43C460009CF1
:102F5000022C0AD14C69FF2B09D80F265243564345
:102F60006243036AB3431A4302620135BAE70F268C
:102F70001B0A5B435B435E435C43426AB2432243AA
:102F80004262F2E7044B0360032343600023836043
:102F9000C360036143617047FFFF0000014B18608D
:102FA0007047C046000000200368020070B5012091
:102FB0005B0620D44E680B68486933438E681568F9
:102FC0003343CE680C6A33430E6933438E6903433F
:102FD0003343CE69000C33430B4E234335402B4320
:102FE000042513605368AB431843802350609B0152
:102FF0009C4205D00020D36904490B40D36170BDC9
:103000004B6A9BB21361F5E74000FFFFFFF7FFFF3C
:103010000023036043608360C36003614361836195
:10302000C361036207334362704700007FB5C36822
:1030300004000D009B0402D5012004B070BD4B6854
:10304000C968C2680B4329690B432D490A401343E1
:10305000C36043692B4A1340AA6913434361036960
:10306000294A1340AA68134303614369274A13405E
:103070006A691343436101A8FFF7F4FE039B002B29
:10308000DAD029680029D7D0192058438023AA69AB
:103090001B019A421DD14900FFF73AFC642106004A
:1030A000FFF7BCFCC80032306421FFF731FC64211B
:1030B00085B23000FFF72CFC072300012B40C0181D
:1030C000F8236D005B001D40401980B2A060002015
:1030D000B3E78900FFF71CFC64210600FFF79EFCA4
:1030E000080132306421FFF713FC64210500300031
:1030F000FFF70EFC00012D18ADB2A560E7E7C04652
:10310000F3E9FFFFFFF7FFFFFFCFFFFFFFFCFFFF2C
:1031100096239B010C2203600023026143608360BD
:10312000C36043618361704710B5084B1B78012B66
:1031300001D9042B05D1062008F0F0F9062008F08B
:10314000EDF90022024B1A7010BDC0464C1C002045
:103150009C00002073B520240125244BFA21DA6B52
:10316000234E2243DA63DA6B490222400192019A2C
:103170009A6B2A439A639A6B2A400092009ADA6A01
:103180002243DA62DA6AA243DA620023B362194B9D
:103190001868FFF7BDFB80230138F06232681648DB
:1031A000134333608023F2685B0013430222F36011
:1031B000336893433360114B1A68AA431A60C1689D
:1031C0000F4A11409C2292030A43C26019680D4ABB
:1031D00011400D4A0A431A600C4ADA600C4A9A60A0
:1031E0005A68120C120414435C6073BD0010024054
:1031F0000014004000000020000001408000024058
:10320000FFFFC0FF0F80FFFFB02A00008C030020EB
:1032100018140050014B18787047C04685030020F1
:10322000334870B50378002B20D0324B324A00214E
:10323000595E13885B181BB21380002917DD2F49D4
:103240000024095F994219DD1478002C1CD101205B
:103250002B4A1368834313602A4A1368834313601D
:1032600002F0ACF88022284B52009A6270BD00290F
:10327000EAD022490024095F9942E5DB1F4B1B88F5
:10328000138000230370DFE76401FF212000FFF7B4
:103290003FFBFF2300225B019C421BD011001B4E11
:1032A0001B4D0B0082424B415B4233400133940083
:1032B000FF3301322B51202AF3D10123104A116828
:1032C0001942D3D10F4801681943016011680B43BB
:1032D0001360CBE701210A4A13688B431360094A44
:1032E00013688B4313608022074B52009A61BDE73D
:1032F000860300207E03002082030020800300203C
:1033000000140040800002400014005000FFFF0045
:103310008C03002010B5054B1B78002B00D110BD8D
:10332000FFF77EFF0A2002F011F8F4E78603002081
:103330000E4B1A7882420DD018700D4B0D4A1B5C53
:103340000D4913800D4A12889B1A9AB21BB2002BAA
:1033500001D10B7070471811002B03DD53421B1174
:103360005B4218B2064B18800123F2E78403002069
:1033700047B201088003002086030020820300205A
:103380007E030020902210B5054B5200985CFFF799
:10339000CFFF0022034B1A80034B1A7010BDC046AA
:1033A0000C1C00208803002085030020782170B5C4
:1033B000184A194B1278194C4A431A80184A194B6B
:1033C0001278194D1A70194BDB7F002B07D1FFF7CC
:1033D000D9FF2B78002B01D0FFF7A6FE70BD01228C
:1033E000134B1A702223FF33E05CFFF7A1FF2B7809
:1033F000002B03D0FFF78EFFFFF796FE0834E17F26
:1034000000230C4A3D2902D00A234B430133138089
:10341000E4E7C046B00000207C0300200C1C002024
:1034200084030020A91A00209C000020141C002006
:103430008503002088030020802130B580240822E5
:10344000454B49009962A40045B2002D00DA81E0A5
:103450009C62C046C046C046C046C046C046C04644
:10346000C046C046C046C046C046C046C046C0462C
:10347000C046C046C046C046C046C046C046C0461C
:10348000C046C046C046C046C046C046C046C0460C
:10349000C046C046C046C046C046C046C046C046FC
:1034A000C0469961C046C046C046C046C046C046F8
:1034B000C046C046C046C046C046C046C046C046DC
:1034C000C046C046C046C046C046C046C046C046CC
:1034D000C046C046C046C046C046C046C046C046BC
:1034E000C046C046C046C046C046C046C046C046AC
:1034F000C046C0464000C0B29962C046C046C04601
:10350000C046C046C046C046C046C046C046C0468B
:10351000C046C046C046C046C046C046C046C0467B
:10352000C046C046C046C046C046C046C046C0466B
:10353000C046C046C046C046C046C046C046C0465B
:10354000C046C046C046C046C046013A002A00D028
:103550007AE730BD9C617CE700040050F8B5802319
:1035600080267E4F7E4C9B007600BB610500A662E4
:10357000C046C046C046C046C046C046C046C0461B
:10358000C046C046C046C046C046C046C046C0460B
:10359000C046C046C046C046C046C046C046C046FB
:1035A000C046C046C046C046C046C046C046C046EB
:1035B000C046C046C046C046C046C046C046C046DB
:1035C0008020BB622843FFF737FF2368654A13401A
:1035D0002360C046C046C046C046C046C046C0463E
:1035E000C046C046C046C046C046C046C046C046AB
:1035F000C046C046C046C046C046C046C046C0469B
:10360000C046C046C046C046C046C046C046C0468A
:10361000C046C046C046C046C046C046C046C0467A
:10362000C04610230020400080B28446012120695A
:10363000A661400A084061460843C046C046C046ED
:10364000C046C046C046C046C046C046C046C0464A
:10365000C046C046C046C046C046C046C046C0463A
:10366000C046C046C046C046C046C046C046C0462A
:10367000C046C046C046C046C046C046C046C0461A
:10368000C046C046C046C046C046A662C046C04608
:10369000C046C046C046C046C046C046C046C046FA
:1036A000C046C046C046C046C046C046C046C046EA
:1036B000C046C046C046C046C046C046C046C046DA
:1036C000C046C046C046C046C046C046C046C046CA
:1036D000C046C046C046C046C046C046013B002B5F
:1036E00000D0A0E723681A408023DB021343236045
:1036F00080239B00BB61C046C046C046C046C04652
:10370000C046C046C046C046C046C046C046C04689
:10371000C046C046C046C046C046C046C046C04679
:10372000C046C046C046C046C046C046C046C04669
:10373000C046C046C046C046C046C046C046C04659
:10374000C046C046C046A661A361074B302D02D0DB
:10375000472D01D1054B1880F8BDC046001400501C
:1037600000040050FFFFF3FF0600002004000020CB
:10377000802130B580241022454B49009962A40075
:1037800005B2002D00DA81E09C62C046C046C0460A
:10379000C046C046C046C046C046C046C046C046F9
:1037A000C046C046C046C046C046C046C046C046E9
:1037B000C046C046C046C046C046C046C046C046D9
:1037C000C046C046C046C046C046C046C046C046C9
:1037D000C046C046C046C046C0464000996180B25F
:1037E000C046C046C046C046C046C046C046C046A9
:1037F000C046C046C046C046C046C046C046C04699
:10380000C046C046C046C046C046C046C046C04688
:10381000C046C046C046C046C046C046C046C04678
:10382000C046C046C046C046C046C046C046C04668
:103830009962C046C046C046C046C046C046C04663
:10384000C046C046C046C046C046C046C046C04648
:10385000C046C046C046C046C046C046C046C04638
:10386000C046C046C046C046C046C046C046C04628
:10387000C046C046C046C046C046C046C046C04618
:10388000C046013A002A00D07AE730BD9C617CE74F
:1038900000040050F8B50C005F4B302802D04728D8
:1038A00005D15E4B1A88A24200D1B3E01C8080256E
:1038B00080235B4F5B4EAD005B00BD61B362C046D1
:1038C000C046C046C046C046C046C046C046C046C8
:1038D000C046C046C046C046C046C046C046C046B8
:1038E000C046C046C046C046C046C046C046C046A8
:1038F000C046C046C046C046C046C046C046C04698
:10390000C046C046C046C046C046C046C046BD626E
:10391000FFF792FDC046C046C046C046C046C046FE
:10392000C046C046C046C046C046C046C046C04667
:10393000C046C046C046C046C046C046C046C04657
:10394000C046C046C046C046C046C046C046C04647
:10395000C046C046C046C046C046C046C046C04637
:10396000C046C0462000FFF703FFC046C046C04621
:10397000C046C046C046C046C046C046C046C04617
:10398000C046C046C046C046C046C046C046C04607
:10399000C046C046C046C046C046C046C046C046F7
:1039A000C046C046C046C046C046C046C046C046E7
:1039B000C046C046C046C046C046BD61C046C046BF
:1039C000C046C046C046C046C046C046C046C046C7
:1039D000C046C046C046C046C046C046C046C046B7
:1039E000C046C046C046C046C046C046C046C046A7
:1039F000C046C046C046C046C046C046C046C04697
:103A0000C046C046C046C046C046C04680235B0094
:103A1000B361B561F8BDC046060000200400002077
:103A200000140050000400501FB580228021564B26
:103A300092009A61554B4900996180219A6100205A
:103A40000902FFF727FF00210800FFF723FF3720B7
:103A50004F49FFF71FFF22213620FFF71BFFC6212A
:103A600010208900FFF716FF11204A49FFF712FFC7
:103A700012204949FFF70EFF13204849FFF70AFFBC
:103A8000842114208900FFF705FF49204449FFF7EE
:103A900001FF7B204349FFF7FDFE7D204249FFF7F0
:103AA000F9FE48204149FFF7F5FE40204049FFF765
:103AB000F1FE102268463F4916F0B3FC00246B4625
:103AC000195D23031943092089B20134FFF7E2FE8F
:103AD000102CF4D1F8211C20C900FFF7DBFE1D20BB
:103AE0003549FFF7D7FE1E203449FFF7D3FE1F20CC
:103AF0003349FFF7CFFE3E203249FFF7CBFE73205C
:103B00003149FFF7C7FE77203049FFF7C3FE192080
:103B10002F49FFF7BFFEB42128200901FFF7BAFEA5
:103B2000AA2129200902FFF7B5FECC212A20C901CC
:103B3000FFF7B0FE2C202749FFF7ACFE2F202649C7
:103B4000FFF7A8FE53202549FFF7A4FE7E20244955
:103B5000FFF7A0FE46202349FFF79CFE4A2022499A
:103B6000FFF798FE07202149FFF794FE9021204B94
:103B7000204A332009021A80FFF78CFE00213F20E3
:103B8000FFF788FE1FBDC04600140050000400501F
:103B90001F9D00003A030000DB030000DF0300006C
:103BA000B22A0000DC73000020E90000A833000006
:103BB0001635000052B2010855E50000584C0000CF
:103BC0005AC60000C694000091460000EF8800002D
:103BD00041100000221800009098000028200000EA
:103BE0003E3000000A60000030540000CE6100004A
:103BF0000E0400200090FFFF10B504007E20FFF7A8
:103C0000ADFCC3439BB2DB0BA3420CD00123C0210C
:103C100063400005DB03000D18438901014389B2AD
:103C20007E20FFF737FE10BDC62110B51020890099
:103C3000FFF730FE11200C49FFF72CFE12200B4934
:103C4000FFF728FE13200A49FFF724FE84211420E1
:103C50008900FFF71FFE49200649FFF71BFE7B2066
:103C60000549FFF717FE10BD3A030000DB03000013
:103C7000DF030000B22A0000DC73000010B5094C1D
:103C80002388002908D04022C240134399B2332030
:103C90002180FFF7FFFD10BD41214942014119403C
:103CA000F5E7C0460E04002010B5040051200A4973
:103CB000FFF7F0FD07200949FFF7ECFD210508207B
:103CC000090DFFF7E7FD802321021B02090D0820E3
:103CD0001943FFF7DFFD10BD33A00000D70A000035
:103CE0000C4B10B5C1184B1E9941040049420A4BB8
:103CF000890A8902C9185120FFF7CCFD0748084BF3
:103D000060430849C018FEF703FE81B20720FFF7A1
:103D1000C1FD10BDBFF5FFFF4094000098260300D1
:103D200050C30000A0860100074B0100400810B5F9
:103D3000C018FEF7EDFD80218901014389B20720FB
:103D4000FFF7A8FD10BDC046D6DF030070B5040024
:103D500031200D00FFF702FCA02361051B02490D75
:103D6000194306004620FFF795FDC0216D056D0D36
:103D7000490129437920FFF78DFD7A200449FFF797
:103D800089FD04213143312089B2FFF783FD70BDE5
:103D90009A2800005C2110B5032802D8034B40008C
:103DA000C15A4320FFF776FD10BDC0460EBC010886
:103DB000064A222310B5914200D81A3B8021000206
:103DC000184301433620FFF765FD10BDFF3EAB01F0
:103DD00010B5040081B23820FFF75CFD3920210CBA
:103DE000FFF758FD10BD000010B503490002014364
:103DF0004720FFF74FFD10BD42600000F0B5CCB288
:103E000085B020001E000D0A0291FFF7A7FB01AF4D
:103E1000FB88EDB2AB400100AE4099433143200036
:103E200089B2FFF737FD05B0F0BD000010B53720AF
:103E30000549FFF72FFD00213020FFF72BFD302033
:103E40000249FFF727FD10BD1F9F0000F1BF0000D2
:103E5000F7B51C0008AB1E78009009AB01917020EB
:103E6000002115001F78FFF715FDA021090231433D
:103E70004D20FFF70FFDDE21C90139434E20FFF72A
:103E800009FD210229434F20FFF704FD009B782004
:103E90001902019B1943FFF7FDFC0020FFF7A4FF67
:103EA000FFF7C4FFF7BD00000A4B012110B598428F
:103EB00002D90021013007D10420FFF7DFFE0021E5
:103EC0000320FFF7DBFE10BD0420FFF7D7FE012122
:103ED000F6E7C046FF3EAB0110B53120FFF73EFBD1
:103EE0000223984381B23120FFF7D4FC00212B201C
:103EF000FFF7D0FC10BD000070B505003120FFF7C2
:103F00002DFB0400002D06D108239C43A1B23120D3
:103F1000FFF7C0FC70BDAB1E5A1E9341AD21DB0301
:103F2000890119432920FFF7B5FC0120A8428041EF
:103F300005494042800301432820FFF7ABFC0821DC
:103F4000214389B2E3E7C046382B000010B5312089
:103F5000FFF704FB0423984381B23120FFF79AFC5A
:103F600010BD10B500212420FFF794FC10BD000007
:103F7000DB2110B52120C900FFF78CFC2420024969
:103F8000FFF788FC10BDC0467FC1000010B550206F
:103F90000149FFF77FFC10BD18BB000010B50400FD
:103FA000631E9C41FFF7F2FF0320FFF71DFF094B43
:103FB00061421940E0231B02C9187020FFF76AFC18
:103FC00000213020FFF766FC30200349FFF762FC38
:103FD00010BDC04600BCFFFF0203000010B550201A
:103FE0000149FFF757FC10BD183B0000802210B5B7
:103FF0000C00084B80B2434352029B18590C7120AD
:10400000FFF748FCFFF7EAFF200001F09FF9FFF7F8
:10401000BDFF10BD1DA6140010B500213020FFF714
:1040200039FCE82137204901FFF734FC10BD0000BE
:1040300010B500217020FFF72DFC0020FFF7D4FE03
:10404000FFF7CCFF00213020FFF724FC302002498D
:10405000FFF720FC10BDC046F1BF000010B5C32122
:104060007020FFF717FC72200A49FFF713FCC121EB
:104070005820FFF70FFC5C200749FFF70BFC8E214F
:104080005D20C901FFF706FC5E200449FFF702FC32
:1040900010BDC046653000006556000004320000C7
:1040A00010B500213020FFF7F5FB10BD10B5002141
:1040B0003F20FFF7EFFB68215920FFF7EBFB1E20A5
:1040C00001F044F9FFF7ECFF10BD10B50020FFF739
:1040D0008BFE7E20FFF742FA3823282198430143C4
:1040E00089B27E20FFF7D6FB10BD000010B500217D
:1040F0003620FFF7CFFB37200749FFF7CBFB5220D5
:104100000649FFF7C7FB00213020FFF7C3FB302033
:104110000349FFF7BFFB10BD1F9D00008F02000089
:10412000FEC1000010B5FFF7D0FFFFF757FFFFF704
:10413000DDFF10BD10B500215120FFF7ABFB10BD16
:10414000054B10B51B78002B05D001210020FFF78F
:1041500095FDFFF76BFE10BD0C04002010B50400A8
:10416000FFF714FF0020FFF73FFE00217020FFF74C
:1041700091FBFFF7F6FE30200349FFF78BFB002C85
:1041800001D1FFF72BFF10BDFEC1000010B530209C
:104190000149FFF77FFB10BDFAC30000F8B51D0011
:1041A00006000F001400FFF7F1FE281E05D0A02323
:1041B00080220320DB0552009A61FFF715FEFE23E3
:1041C0002102DB0119400133FF3319437020FFF74F
:1041D00061FBFFF7DBFF322001F0B8F83900300057
:1041E000FFF704FF002D07D0A0238022DB0552003B
:1041F00000209A62FFF7F8FD00217020FFF74AFBCC
:1042000030200349FFF746FBFFF7E8FEF8BDC04644
:10421000FEC1000010B50400FFF7AAFEFFF7B6FECE
:104220000020844200D00330FFF7DEFD70200349F8
:10423000FFF730FBFFF7AAFF10BDC046C3C3000065
:1042400070B590B0040040226846184916F0E9F8AD
:10425000392C08D82F2C25D8232C25D00EAD2A2C6C
:1042600009D010B070BD2300413B373C032BF8D878
:10427000A4006C44250028880D4C0E4E60430E4966
:104280008019FEF745FB81B27120FFF703FB6B88B5
:1042900009495C43A019FEF73BFB81B27220FFF78E
:1042A000F9FADEE7303CE3E70FADE4E7C0B0010820
:1042B0004C9301008813000010270000F0B5002483
:1042C00085B01E000AAB1F880BAB1B88050001914F
:1042D00002920393A0421AD105B0F0BDFFF7B0FFE0
:1042E000FFF77CFE019B002B02D00298002C06D029
:1042F0002B5D30002A2B02D0232B00D0380001F098
:1043000025F8FFF743FE039801F020F80134285DFB
:104310000028E3D1E0E7000070B50D000400FFF7CE
:1043200035FEC22170200902FFF7B4FA80230B4941
:10433000ADB269435B02C9187120490CFFF7AAFAB4
:104340000020844200D00330FFF74EFDFFF71EFF30
:10435000322000F0FBFFFFF741FE70BD1DA61400E8
:1043600010B5032807D8064940030143522089B2FB
:10437000FFF790FA10BD0428FCD102490330F7E79B
:104380008F0200006F04000010B50020FFF7E8FF67
:1043900051200249FFF77EFA10BDC0464080000060
:1043A00010B507200349FFF775FA51200249FFF7BE
:1043B00071FA10BD6F0400004090000010B5672036
:1043C000FFF7CCF8C005C00D10BD10B5FFF7F6FF24
:1043D0004008A03800B210BD10B56320FFF7BEF84A
:1043E000C0B210BD10B56420FFF7B8F810BD0000D2
:1043F00010B5064B064A1B7811781B011943B023F0
:104400001B0248201943FFF745FA10BD8A1C002003
:104410008C1C002070B506000D20FFF79FF803B23A
:10442000DD430400ED0F002B07DB0E20FFF796F8AD
:10443000034B24041C4004433460280070BDC04674
:104440000000FF0770B5060069200D00FFF786F831
:10445000040003040BD46A20FFF780F80C4B2403FC
:104460000005000D1C4004430220346070BD68202C
:10447000FFF774F8030000201A04F7D40548DB04A2
:10448000DB0C58430449FEF7CDFA28800120EDE704
:1044900000F0FF00EB12000010270000912310B580
:1044A0009B00C1183220FFF7F5F910BD10B5FFF7DA
:1044B0008FFCC02151208900FFF7ECF9FFF7B6FC13
:1044C00010BD10B5FFF7ECFD10BD10B50020FFF7D3
:1044D000E5FFFFF7E5FD10BD10B50B20FFF73EF837
:1044E0000005000F10BD10B50C20FFF737F8800B4A
:1044F000C0B210BD10B50C20FFF730F80005800FDA
:1045000010BD000070B504001E2000F01FFF8021C8
:104510003F200902FFF7BEF959201749FFF7BAF902
:10452000250068215920FFF7B5F9483521885F201B
:104530000234FFF7AFF9AC42F8D1142000F006FFC7
:1045400059200E49FFF7A6F9C82401250C20FFF7D2
:1045500005F8284206D1013C0520E4B200F0F6FE41
:10456000002CF3D100210220FFF794F91E2000F067
:10457000EDFEFFF79BFD70BD68800000682800001D
:1045800010B5FFF793FD00210220FFF783F900210A
:104590003F20FFF77FF9FFF749FCC0213F20890149
:1045A000FFF778F959200449FFF774F959200349B6
:1045B000FFF770F910BDC046684000006830000089
:1045C00030B58BB02422194901A815F02AFF00202C
:1045D000FFF70AFC002501AC618820780135FFF760
:1045E00059F90434092DF7D10024114A63005F20E2
:1045F000D15A0134FFF74EF9072CF6D1142000F000
:10460000A5FE0C495920FFF745F9B42000F09EFEA5
:1046100068215920FFF73EF900217020FFF73AF991
:1046200000215820FFF736F90BB030BD00B101086A
:1046300016BC01086808000070B5204B05001E7804
:10464000012E36D1FFF7A2FC0020FFF7CDFB43245B
:10465000002D04D131003000FFF79CFB233C1849AA
:104660007120FFF717F9FFF791FD322000F06EFE81
:10467000802321021B0219437020FFF70BF9FFF77B
:10468000ADFC502000F062FEFFF780FC50210D4889
:10469000FFF7ACFC00217020FFF7FCF8002D03D1E0
:1046A00001212800FFF776FB30200749FFF7F2F8D9
:1046B00070BD022EFCD1FFF783FFF9E74D1C0020EF
:1046C0001C3E00001E050000FEC1000070B5050084
:1046D0000C00FFF74DFCFFF759FC0020854200D08D
:1046E0000330FFF781FB07497020FFF7D3F8FFF78E
:1046F0004DFD322000F02AFE2000FFF7A1FDFFF75C
:104700006DFC70BDC3C300000222064B99681142C4
:10471000FCD00122187399681142FCD0D868C0B24D
:104720007047C0460038004010B50400000CC0B20D
:10473000FFF7EAFF200AC0B2FFF7E6FFE0B2FFF79B
:10474000E3FF10BD70B5A0250826094CED05052036
:10475000AE62FFF7D9FFFF20FFF7D6FFAE61C007BB
:1047600005D50A20013C00F029FE002CEFD170BDD8
:1047700040420F0070B5A02408250600E405A5629C
:104780000620FFF7C1FFA561FFF7DCFFA56220202F
:10479000FFF7BAFF3000FFF7C7FFA561FFF7D2FFB1
:1047A00070BD0000F0B585B06B46039002921A7B95
:1047B0008023A0255B0001919B1AED05029C9C4281
:1047C00000D91C0008231E00AB620620FFF79CFFE7
:1047D000AE610220AE62FFF797FF0398FFF7A4FFD8
:1047E000019E37190F2C5CD94022012080273049C7
:1047F0007F010B6893430B602E4B1A6882431A604B
:104800002D4A1668864316602C4E77601F682C4E22
:1048100037401F601768374090263E431660294F87
:10482000294EDE609F605E68360C360426435E606B
:10483000019ED66097605668360C36042643566053
:10484000224EB446002667463E701F680236374344
:104850001F601F6807431F601368034313604022F3
:104860004B68184348600B6813430B604B681E434A
:104870004E6063461B78002BFBD00823AB61FFF72B
:1048800061FF039B1B190393019B1B190193029B5F
:104890001B1B02938023029A5B00002A8ED105B075
:1048A000F0BD30780136FFF72FFFBE42F9D1E4E7C3
:1048B000003800404400024058000240000002401E
:1048C0000F80FFFF0C38004014040020100400206B
:1048D000F0B5A027082680210124344BFF058FB0B6
:1048E000BE61DA6BC9010A43DA63DA6B04A80A40D5
:1048F0000392039A9A6B002522439A639A6B224093
:104900000292029A5A6B22435A635B6B23400193D3
:10491000019BFEF737FB022304A9059338001B19FE
:1049200006930996079508940494FEF7D9FA09238B
:1049300004A93800023E04960993FEF7D1FA1C4BF5
:104940001C4A996880201140A022D2040A433F21CA
:104950009A60DA68C0058A43C2211643164ADE60AF
:10496000890053581B021B0A0343535080231B0129
:10497000136004A8FEF74CFB82235B000593033B06
:104980000894FF3B0D4C0793FF33FF33200004A92D
:10499000099304950A950B950C95FEF705FB4023AA
:1049A0002268134323600FB0F0BDC04600100240E0
:1049B00000000140FFFFFFC000E100E000380040C0
:1049C000A023F7B5150008220600DB059A62032034
:1049D0000C00FFF799FE3000FFF7A6FEC023314917
:1049E000DB008A681000184001901A420AD10F2D8E
:1049F0000AD86519AC4250D0FF20FFF785FE207021
:104A00000134F7E7CA68ECE74022012080270B68F1
:104A10007F0193430B60244B1A6882431A60234A38
:104A2000166886431660224E77601F68214E374015
:104A3000B446842676013E431E60664617683740BA
:104A40001D4E3E4316601D4EDC609E605C68240C6B
:104A500024042C435C601A4CD46096605468240C87
:104A600024042C435460174D019C2C7002241E68B2
:104A700026431E601E6806431E60136803431360CE
:104A800040224B68184348600B6813430B604B6827
:104A90001C434C602B78002BFCD0A0230822DB05A4
:104AA0009A61F7BD003800404400024058000240BF
:104AB000000002400F80FFFF101000000C38004083
:104AC0001404002010040020F0B587B00593802363
:104AD0000705040B3F0D5B01019002910392240333
:104AE000DE1B039B002B03D1FFF72CFE07B0F0BDAC
:104AF000FFF728FE039DB54200D935002B4E3368E1
:104B0000A34206D08022200029495201FFF758FF16
:104B10003460274E2A00BE193100029815F0CAFCF5
:104B2000002826D00023F25CFF2A31D101339D42B8
:104B3000F9D100232A0030000299049315F071FC8A
:104B4000049B002B2DD02000FFF714FEFFF7FAFD89
:104B5000059B174E002B1DD0EF193A0031002000A5
:104B6000FFF720FE80225201FF21D21BF01915F021
:104B70003BFC019B00275B190193029B5B1902938D
:104B8000039B5B1B039380235B011E00E418A8E7D3
:104B90000123CFE78022310020005201FFF702FEFF
:104BA000E7E72A0002990198F8E7C04608000020CC
:104BB0001804002010B5040B24032000FFF7DAFDD1
:104BC000054B1B68A34205D18022FF2103485201F7
:104BD00015F00AFC10BDC046080000201804002093
:104BE00080201C4980010B6810B5034230D002249C
:104BF000194B1A6822422BD01A68A2431A604860E7
:104C00000A2000F0DBFBC021144A154B49019868CB
:104C1000084202D0013A002AF9D180210F4A98684F
:104C2000084202D0013A002AF9D1C0210B4AC9003A
:104C30009868084202D0013A002AF9D102215A6844
:104C40008A435A605A6801398A435A60054B197081
:104C500010BDC04600000240440002401127000081
:104C6000003800401004002070B540262025094C73
:104C70000120A66100F0A2FBA561012000F09EFBCF
:104C8000A662012000F09AFBA562012000F096FBCD
:104C900070BDC0460014005070B540252026094C58
:104CA0000120A56200F08AFBA662012000F086FBCD
:104CB000A661012000F082FBA561012000F07EFBCF
:104CC00070BDC04600140050F7B5234C234A23683A
:104CD000019013402360082300252027012600931C
:104CE0003000A76200F06AFB3000A76100F066FBAD
:104CF000300000F063FB23696D00EDB25B0600D568
:104D000035433000A76200F059FB009B013BDBB24A
:104D10000093002BE4D12268104B01201A4080231D
:104D20005B0113432360A76200F048FB019A402314
:104D3000002A0ED0A3612026012000F03FFBA661CF
:104D4000012000F03BFBA662012000F037FB2800A9
:104D5000FEBDA362EFE7C04600140050FFCFFFFF87
:104D6000F8B52023264C0500A362012000F026FBA5
:104D700008266BB2002B3EDB4023A36220270120D4
:104D800000F01CFB013E0120A76100F017FB6D0045
:104D90000120A762F6B200F011FBEDB2002EE8D1BF
:104DA00040252368174E012033402360A56100F0A1
:104DB00005FBA761012000F001FBDF3723691A0022
:104DC0002A402B421AD0013F0120FFB200F0F6FA30
:104DD000002FF3D101256D422023A362012000F0B2
:104DE000EDFA802322685B013240134323604023A5
:104DF0002800A361F8BD4023A361BFE71500EBE7DE
:104E000000140050FFCFFFFF70B504000D00002616
:104E10006A1EB2420EDC2B00591E8B415B421340CE
:104E20000120E41800F0CAFA0120FFF74DFF2070BE
:104E3000280070BD012000F0C1FA0020FFF744FFF8
:104E4000A0550136E4E770B504004518AC4201D125
:104E5000002070BD2078FFF783FF01340028F5DAC9
:104E600001204042F5E7000000B503000078002271
:104E7000072817D8FDF72EFD040C12181D222A2A28
:104E8000012255290ED00422AA290BD0002000BDF2
:104E9000AA394A42514149001970F7E7002291426C
:104EA00000D103321A70F1E7484241411A70C8B28A
:104EB000EDE700225529F5D10532F3E7032901D1A9
:104EC0000622EFE70429EDD10722EBE712290BD8E0
:104ED000102909D0064A073811700021054A1170BF
:104EE00041424841044A1070002201201A70CEE766
:104EF0000C0000201914002018140020F7B52F49C9
:104F00000B78DAB20192132B14D02D4C0878237849
:104F10000525C0B2002B00D028352A4A137801336A
:104F2000DBB21370AB4204D313230B700023137056
:104F30002370FEBD78230024234DAB610026082397
:104F4000370000930A2000F039FA3A00F0272B6965
:104F50003F021F40974212D1012E18D00126009B1C
:104F6000013B0093002BEDD10134052C0DD07823AB
:104F70000122AB61713B1B1B9A40AA62DEE700264F
:104F8000EDE7320010E002220EE0019812E08021ED
:104F90001A0009020A400B4206D05A04F1D59A04BD
:104FA000F1D50322DB04DFD4084BA1005B18985C29
:104FB0001328D9D07823AB61BBE7C0460C00002092
:104FC00018140020191400200004005024BC01080B
:104FD00010B5FFF793FF132804D1034B1B695B0542
:104FE00000D4033810BDC046000400500022034B1B
:104FF0001A70034B01321A707047C0461A14002011
:10500000F41A00200222054B99681142FCD00122BB
:10501000187399681142FCD0DB687047003001407A
:1050200070B5124CC001241825000C20363526001E
:1050300028701225373635704236357025007A359E
:105040002870581A8001511AFDF7ECFC21253823ED
:105050002D263830C0B2DAB22900904200D3310098
:10506000E1540133792BF6D170BDC0461E140020E7
:105070007047A02340225039DB0510B59A62040026
:10508000C8B2FFF7BFFF102023091843FFF7BAFF8C
:105090000F202040FFF7B6FF10BDF8B51400043014
:1050A000C0B21D00FFF7E5FFA02340222600DB056C
:1050B0009A612F19BE4200D1F8BDE8B2002C00D091
:1050C0003078FFF79FFF0136F4E7000070B5042544
:1050D000034CC9B2A562C0B2FFF7DFFFA56170BD86
:1050E00000040050042370B505000024064EB3628E
:1050F0000022E1B22B0010000134FFF7CEFF082C94
:10510000F6D10423B36170BD00040050A0234022F7
:1051100010B5DB059A62FFF775FF10BDF8B50423E3
:10512000124E0400B3624020FFF7F0FF104A002C3B
:1051300007D0104B01251F00072C0AD8621ED20190
:10514000D218802321000020FFF7A7FF0423B361BA
:10515000F8BD290001353A0080230020EDB2FFF7A9
:105160009CFF8037082DF4D1F0E7C04600040050C2
:105170009E1700201E14002010B50820FFF7CEFF58
:1051800010BD10B50130C0B2FFF7C8FF012013F009
:105190005FFF10BD10B50020FFF7C0FF10BD00007D
:1051A00010B5032804D0072809D0074B185C03E08A
:1051B000064B1878A6231843FFF7A8FF10BD044B31
:1051C00018781530C0B2F7E70F000020EA1B002066
:1051D000AD000020042370B50024064DAB62200012
:1051E0000134E4B2FFF7DCFF0B2CF8D10423AB61F0
:1051F00070BDC046000400500422074B10B5E220E9
:105200009A62FFF783FF002420000134E4B2FFF725
:10521000C7FF082CF8D110BD00040050802170B5E4
:1052200001253E4B49011A6C8CB00A431A641A6C72
:1052300002A80A400192019A5A6B00242A435A6339
:105240005B6B02262B400093009BFDF79BFE032324
:10525000A020049302A91D33C0050293069503966E
:1052600007940594FDF73CFEA020802302A9C00509
:1052700002930694FDF734FE02A8FDF7C9FE8223CF
:105280005B0003930695FC33254D0793D93BFF3B09
:10529000280002A9089302940494059609940A949C
:1052A000FDF782FE40232A68E22013432B6004238B
:1052B0001C4DAB62FFF72AFF782000F047F8200072
:1052C0000134E4B2FFF76CFF082CF8D12B20FFF774
:1052D0001DFF012000F03AF82E20FFF717FF0120F4
:1052E00000F034F82F20FFF711FF2F20FFF70EFFFB
:1052F0002F20FFF70BFF2F20FFF708FF282000F0DB
:1053000025F84020FFF702FFAF20FFF7FFFE042340
:105310000020AB61FFF7E6FE0CB070BD001002404C
:10532000003001400004005070B50425064C2820D0
:10533000A562FFF7EBFE4020FFF7E8FEAE20FFF787
:10534000E5FEA56170BDC04600040050FA2310B50B
:105350009B00584300F032F810BD0000124B70B5AE
:105360001D6864212800FDF7D3FA802301380F4C13
:105370005B0498420CD2C0210D4A09065060236A92
:105380001B021B0A0B432362002393600733136045
:1053900028000849FDF7BCFA074E3060236A1B025B
:1053A0001B0A236270BDC0460000002000ED00E033
:1053B00010E000E040420F00201800200B4B70B5B9
:1053C0001B680B4C584300236568A268834200D3D6
:1053D00070BDA1688A4203D99B185B1A0A00F5E7E1
:1053E0008A42FBD26E1AF318D318F7E72018002070
:1053F00010E000E00A4A0300116810B5002901D14D
:105400000849116010680849C3188B4206D914F086
:10541000AFFF0C2303600120404210BD1360FCE786
:1054200024180020E83200200040002010B50800B9
:10543000FFF7E0FF10BD0000084B1A68293213780F
:105440000133DBB2072B00D9012313700122044B77
:105450001A80044A044B12781A707047001C00200E
:10546000DC1A0020091F0020E40000200122064B66
:105470001A80064B1A68343213780133DBB2032BDF
:1054800000D1002313707047DC1A0020001C00209C
:10549000012305498A7F5A408A77044A1370044AD7
:1054A0001370044A137070470C1C0020DB1A002094
:1054B000E11A0020F41A002070B50C4B1B6834333D
:1054C0001C78012C0AD10321094D28780130FDF701
:1054D0008FFB2970200007F0A7FC70BD002CF9D1CC
:1054E000044D052128780130F1E7C046FC1B00205F
:1054F000E41B0020E51B002070B506F0E9FB114B12
:10550000021E00D1104B186804002D3421784B4244
:105510004B41DBB2237007342478012C05D107F00E
:10552000F7FB2100FEF736FC70BD002A06D00023F1
:10553000994203D1054B1B780133DBB200211800DF
:10554000F0E7C046FC1B0020001C0020E31B0020ED
:10555000064910B50B78002B03D0054A054B12788D
:10556000DA7700230B70FDF721FF10BDAC1A002085
:10557000AA1A0020141C0020012110B50F4C052090
:105580002378594021704B4259410F234942194019
:10559000A1231B01C9180EF050F800222178084BF6
:1055A000914202D11A007F3212787E331A70FEF7D0
:1055B0001FFF0122034B1A7010BDC046AB1A00201A
:1055C0000C1C0020F41A002010B5174B1B78022B7E
:1055D00008D007F073FB012007F0CCFC022000F09C
:1055E000E3FC10BD0022114B1A70114B1B785BB20B
:1055F000934208D00F4B19880F4B19800F4B1A702C
:105600000F4B01321A70012007F0B4FC0D4B0E4C09
:105610001B78002B04D00EF0C7FC03232370E0E7B7
:105620000A4B1B78FAE7C046171A0020C41B00205B
:105630006E190020C0CB0108EA1A00209E0000204D
:105640006C190020A7240020E4000020091F00207E
:1056500070B5114B1B78013B012B10D900240F4B67
:105660000F4D1C700F4B1B78A34209D00EF062F94E
:1056700001220D4B2C701A700C4B4F321A8070BDEA
:105680000B4A137007F01AFB012007F073FC0EF0B1
:105690008BFC03232B70F2E7171A0020481D002013
:1056A000E4000020A7240020E11A0020CE1A0020E8
:1056B000C41B00200B4B5A7E002A02D09B7E002B7D
:1056C0000ED10322084B01211A700022074B1A70D9
:1056D000074B1970074B1B788B4201D0064B1A7091
:1056E0007047C0460C1C0020E81A0020481D00200E
:1056F000D91A0020091F0020E40000203B4B70B5A0
:105700001B780400002B2DD006F0E2FA051E0BD109
:1057100003200CF03DFC364B1D70364B1B7859B204
:10572000002B02D00EF0ACF970BD334A334B344D30
:10573000002C13D00120197010700EF027F9A87DED
:105740008007800F0EF02AF8050028000EF018F8E8
:105750002200012128000EF049F9E5E714701C70C1
:10576000AD8AF2E705F0D2FB041EDDD1204B1870A4
:10577000244B187003F076F907F0A0FA20000024FB
:105780000CF006FC204D2C57002C17D080221F4B0C
:10579000D2001B88934202D302F0E8FFC4E7012045
:1057A00006F000FF09F0F8FC08F076FE002028560D
:1057B00002F036FF0122164B1A70B5E7154B104D5B
:1057C0001B685A1E9341144A0133137008F064FE9B
:1057D0000121080002F098FE01212B7B0F4A0133C2
:1057E0000B40D4540E4B1C70E4E7C046A7240020A5
:1057F000C41B0020A3240020A2240020A1240020F8
:105800000C1C0020701900206E190020C41A002002
:10581000F41A002068190020441C0020EF1A002010
:105820000C1B002010B50120FFF768FF10BD000021
:1058300070B506000D001400FFF7D8FB2A4B1B784B
:10584000002B1DD129490B78002B19D00122284BA0
:105850001A70122E13D1002C11D1002D0FD0254B10
:105860001A70254B254A1C701378002B01D10B7040
:1058700005E02D21013BDBB21370214AD15470BDEC
:10588000112E1DD0122E13D000230A2E1FD0AC4291
:10589000F5D101201B4A174912780870002A1DD043
:1058A000172B1BD8184ADA40024217D00223DEE732
:1058B000164B002C02D044331B78E8E74333FBE758
:1058C000124B002C01D04633F6E74533F4E79C42F7
:1058D000DDD020220D4BFF329B5CD8E70C4A9B00A9
:1058E0009B589847CBE7C046091F00208619002027
:1058F000E51A0020161A0020E40000208719002075
:1059000088190020A72400202CDCF2000C1C0020A9
:105910001C0000200022044B1A70044B01321A7044
:10592000034B1A707047C046DD1B0020E11A0020AF
:10593000F41A0020094910B50878094B00280AD04C
:105940000633DA7F54426241DA77012343400B7019
:10595000FFF7E0FF10BD0533F3E7C0462B1800202A
:105960000C1C00200D490E4B0A7870B5581D0D4DCA
:105970000D4C002A0AD02D78C57720780633D877C9
:10598000012353400B70FFF7C5FF70BDC67F2E701B
:105990009D1DED7FC27725701000EFE72A180020CB
:1059A0000C1C00202918002028180020012310B505
:1059B000034A11784B401370FFF7ACFF10BDC0468F
:1059C000E01B00200E4910B50A780E4B002A0AD1C0
:1059D0000833D87F0C4A10703D22DA7701230B7010
:1059E000FDF7E4FC10BD2221084AFF31595C127812
:1059F0000833914202D10022DA77F1E73D22FBE73A
:105A0000AC1A00200C1C0020AA1A0020A91A0020A1
:105A100001230278534002220370014B1A70704731
:105A2000E01A002010B50248FFF7F2FF10BDC04693
:105A3000C91B002010B50248FFF7EAFF10BDC046A1
:105A4000C81B0020044B05481A885043044A80189C
:105A500080B21880000A70479200002005080000FC
:105A60001936000010B50F4A0F48137B59424B41BD
:105A70000021DBB213738B4200D0483184315218BD
:105A800002600A4A1378002B03D101331370084ACD
:105A90001370002007F06EFA064B1A88064B1A8026
:105AA00010BDC0460C1C0020FC1B00200C1B00205D
:105AB000F41A0020C2CB01080E1B0020F7B5674B7B
:105AC000674A00931B780192002B26D113785BB2B2
:105AD000002B0AD0634B644A1B889B18062B04D802
:105AE000624B1B78002B18D0F7BD614F3B785A1ED4
:105AF000022A27D85F49604A0878002803D05F4807
:105B00000078002806D0107800281BD05C48007868
:105B1000002817D100230B701370012007F02AFA18
:105B20000122584B1A70019B1B785BB2002BDBD013
:105B3000554B1A78502AD7D8002A00D085E002F0B9
:105B400015FED1E7494A01241278504E002A04D0AC
:105B50003178CAB200290BD0002433784C4D002B89
:105B60006BD1002C69D12B78002B45D12C70BBE771
:105B7000012B25D019D9023B012BEDD8454B1978C3
:105B80003D4B002930D04449097801292CD11A70A5
:105B9000424D2B78002BDFD0FEF7ACFC441E634255
:105BA0005C41002364002B70D7E73D4BDB7D002B6D
:105BB000D2D03A4B19780029CED002241A70CCE703
:105BC000384908782B49002806D00A70334B1A78D8
:105BD000002AC1D00022F0E70A78002AF6D10B7023
:105BE000264B64321A70F1E71A78002AD0D10132BC
:105BF0001A70234B6332CAE72B4BDB7F002BB5D0E7
:105C00003B78023B012BB1D8FEF774FC0128ADD1E3
:105C1000254BDB7F002B00D166E7A0238022DB052C
:105C200052009A62214BEC3A1A800023009A1370BA
:105C3000012232701E4A137056E700232B70012C8C
:105C400000D16AE7022CE3D04EE719235343194AE7
:105C500013800022184B1A7046E7C046AF1A002086
:105C60006E190020C41A002000FCFFFFCA1A002091
:105C7000F41B0020F31A0020F21A0020B41A0020AE
:105C8000B51A0020B91A0020341C0020F11A002097
:105C9000B01A0020D51A0020D41A0020D21A0020F1
:105CA0000C1C0020D31A00200F1C0020FC1A00201E
:105CB000F91A0020EA1A00209E000020054B1A78ED
:105CC000002A06D000221A70034B01321A70034BCF
:105CD0001A7070476F180020B91A0020F41A0020BB
:105CE0001C4B10B51B78002B11D0FFF7E7FF0022EB
:105CF000194B9A56194B1978002A1FD1184AD27F8E
:105D0000002A05D1032902D0032006F0EDF810BDCA
:105D1000144A1278002AF5D11349088813490880DB
:105D200013490A7013490A700121134A11700121A5
:105D30000C4A1B781170032BE9D0E5E7094A127869
:105D4000002ADFD10D4908880D4908800D490A70E5
:105D5000EDE7C046CA1A00206E190020171A00206D
:105D6000111C0020C21A0020C8CB01080E1B002005
:105D7000A20000200C1B0020F41A0020BCCB01085C
:105D8000EA1A00209E000020034B10B51B78002B60
:105D900001D1FFF7A5FF10BD0C040020F0B51300E2
:105DA000072703223B405A431B4B85B0D31801936E
:105DB000012303919C46002102900020019B5B5C23
:105DC0000093009B6246C340134213D0039B1C18F0
:105DD000A3B23F2B0ED86546029B5A18E3B23C4053
:105DE000A540D2B2ECB2072B0CD80C4BD5189B5C5B
:105DF0001C432C7001300528E3D101310329DCD18B
:105E000005B0F0BDDB08013BDB01054E9D18AD1967
:105E1000F618B35CECE7C04638BC01089E170020BA
:105E20001E140020F7B5041E294E2A4F2BD0002443
:105E3000FFF708FE7021FCF7F1FDA5192970FFF7A7
:105E400001FE0321FCF7EAFD3D19013101342970FF
:105E5000202CEDD109F08AF8002509F067F800241C
:105E6000EFB2BB00DBB20193725DE100611A511821
:105E7000D219121909B2D2B2002C16D10198FFF72B
:105E80008DFF0134F0E735002B783A5D9B18DBB2CB
:105E90002B70702B04D9FFF7D5FD0F231840287005
:105EA00001340135202CEFD1D4E7032C02D9012392
:105EB0001A4202D00198FFF771FF0134082CD3D1A8
:105EC0000135202DCBD1FFF765F9FFF755F9F7BD67
:105ED0004E1800202E18002070B5234D2B78002B73
:105EE0003BD0224BDB7F013B3B2B36D8204C237829
:105EF000002B32D11F4B1B78002B2ED11E4B1B7851
:105F0000012B2AD005F0E4FE002826D11B4B1B787C
:105F1000002B22D11A4B1B78002B03D0194B1B7876
:105F2000002B1AD0184B1B78002B16D1174B1B785F
:105F3000002B01D0032B10D12B785A1E012A0DD82B
:105F40000CF072F8012300202370114B1870114BD4
:105F50001870114B187013F07BF870BD032BF1D142
:105F60000120FFF75FFFEDE7E21B0020141C00207B
:105F70006F180020ED1B0020171A0020BF1A002008
:105F8000A3240020A024002000300020091F0020AE
:105F90006E180020B91A0020F41A0020014B18785E
:105FA0007047C0466F180020F7B5344C0190257B30
:105FB000FFF784FEE122324B324E52011A803378D1
:105FC000002B01D00DF052FB6A42554100222E4BAE
:105FD0005A55A0230132DB05FF329A612B4BFF3A61
:105FE0001A702B4B1B789B0701D5FDF7DFF90023B7
:105FF000284F294DFB56002B1ED1631DDB7F002B44
:1060000021D1FEF7F5F9254B1B683433187806F0DB
:106010000BFF019805F068FF019B022B02D033783B
:10602000002B27D01E4B1B78012B02D000200BF039
:10603000AFFF01232B70F7BD02F058FB0023FB5686
:10604000002BDED1D9E70634164BE27F1B88002AED
:1060500000D09B0814490B800021144B19708A4210
:1060600002D10122124B1A700022124B1A70012326
:106070002B70C6E70122104B1A70DAE70C1C0020C7
:10608000001B0020A7240020EF1A0020F91A00208E
:10609000EE1B00206E190020F41A0020FC1B0020CB
:1060A000091F0020C6CB01080E1B0020A200002003
:1060B000C11A00200C1B0020B91A00201E4B10B57D
:1060C0001B78D8B2002B09D11C4B1B78002B04D0B5
:1060D00005F00AFF01221A4B1A7010BD194B1A78ED
:1060E000194B1B78134359424B411849DBB20978CD
:1060F000C8B2002905D0012A03D10021144B197020
:10610000030014490978002912D01349097801299C
:106110000ED1023A012A0BD80022104B1A70104BF4
:1061200004201B78002B00D00238FFF73DFFD4E796
:10613000002BF4D1D1E7C046CA1A0020171A00205C
:10614000B91A0020F41B00206E190020D31A002079
:10615000F31A0020D51A0020D41A0020F21A0020C9
:10616000C41B002070B51C00838B160059430268C5
:1061700005008818190005F0A5FCA04206D8B04219
:1061800003D2A98B601A05F09DFC70BD3000FCE7BE
:1061900010B5048E034AE40013195B68A258FFF798
:1061A000E1FF10BDD4CA010810B507F0E1F80122E3
:1061B000044B1A70044B1B78002B01D0034B1A7050
:1061C00010BDC046C61A0020C41B0020E11A0020E2
:1061D00010B50A4C2378002B05D0002005F084FE72
:1061E0000023237010BDFFF7DFFF054B197800294E
:1061F000F3D00A224A43034B1A70F1E7C61A002073
:106200004E1C0020F61A0020114B70B51B78002B95
:1062100003D1104B1B78002B07D002F02DFC00227D
:106220000D4B1A700D4B01321A700D4B0D4C1B7833
:106230000D4D002B03D123782A78134307D0FEF7A6
:10624000D5FE002301222B702370044B1A7070BD01
:106250008619002087190020E4000020B91A0020C8
:106260001A140020F81A0020481D0020F0B5B44F81
:1062700004003B780D00160087B0132B07D0A34213
:1062800003D1002D01D113233B7007B0F0BDAD4AFF
:106290001278002A0FD0002901D110280AD1FFF767
:1062A0000DFDFDF783F8102C05D00022A64B3C70A5
:1062B0001A70EAE71C00A54F3B78132BDFD1002DA5
:1062C00000D12BE1A24B1B78002B00D126E1FFF778
:1062D000F5FCFDF76BF8102CE7D19E4B03931B7870
:1062E000052B02D1002005F0FFFD9B4B1A889B4B2C
:1062F0001A809B4B01939B4B1978002903D01E22D7
:106300004A43994B1A70002D00D067E1974F3B78B4
:10631000002B02D007F012FF3D70954F3B78002B09
:1063200003D008F015F900233B70924F3B78002B07
:1063300003D007F0D5FE00233B708F4F3B78002B36
:1063400013D08E4B1A68019BD08B597B012307F029
:10635000BDFF00233B7004F0D9FD002805D1884B18
:106360001A78002A01D101321A700022854B1B785D
:10637000934207D0844B1B78934203D1834B1A7806
:1063800053425A41764B01935B7E002B01D1002A88
:1063900004D0039B1B78013B591E8B417C49097833
:1063A000002900D054E1002B00D17FE1102C00D057
:1063B00050E1784B1F78002F04D03700002D01D119
:1063C00001271D70744B05931B78002B05D0102CF2
:1063D00001D00D2C01D1FEF709FE5B4B04936F4BEE
:1063E0000293002F0FD1039B1B78012B00D0E7E114
:1063F0006B4B1B78002B00D0A5E1102C00D06AE17C
:10640000280002F011FC049B1878002804D005F045
:1064100085F80023049A1370624C634A2378039230
:10642000002B0AD0614A624B12781A8003F046FBB7
:106430000123039A1370002323705E4C2378002BF2
:1064400009D0002E00D0EFE108F082F800230122ED
:106450002370594B1A70594B1A78002A06D0002223
:106460001A70964200D0E3E107F03AFE544B1A78D6
:10647000002A06D000221A70964200D0DCE107F014
:106480005DFE504F3E4C3B88002B18D0002E00D0B4
:10649000D6E1002D00D0D3E1384B01991A68497B31
:1064A0003B78D08B07F012FF04F030FD002804D1B8
:1064B0002378002B01D10133237000233B80217806
:1064C000414D002900D1D9E1404E3378002B00D155
:1064D000D1E1002006F022FA0120217806F01EFA10
:1064E000029B1B78FF2B02D10023029A1370012319
:1064F0002B7000232370337006F0E0FB012006F0C0
:1065000039FD0022324B2A701A705A70314B1B78B9
:10651000934200D1B6E1FFF757F8B3E10D2C00D05C
:10652000DBE6FCF777FE071E00D0D6E62A4BDB7FC2
:10653000002B00D1D1E6FCF739FF034B1F70A4E616
:1065400094000020ED1B0020161A0020900000206F
:106550006F180020171A0020B8CB0108A4000020F3
:106560000C1C00204A1C0020F71A00207218002082
:1065700071180020D61A002070180020001C00207E
:10658000E01A00201F1A00201E1A0020091F0020F8
:10659000E81B0020E41A00201A140020E400002068
:1065A000E81A0020D81A0020D71A0020D8CB0108FA
:1065B000E61A0020DB1A0020F41A0020DA1A002064
:1065C000DE1A0020DC1A0020E11A0020DF1A002069
:1065D000EF1A0020C41B0020141C00200AF0BCFA93
:1065E000BB4F102C03D1BB4B1B78DB0727D53B7867
:1065F000012B04D1132804D01538012801D9FCF748
:10660000D5FE0D2C1BD1002E19D0B34B1B78002BBF
:1066100007D002F027FA0022B04B1A70B04B0132BB
:106620001A70FFF7F1FD0122AE4B1A70AE4B1B78CA
:10663000002B01D0FEF7C8FF0022AC4B1A603B785C
:10664000012B00D091E6AA4AAA4B12781A808CE658
:10665000002B2BD00D2C0DD1002D00D115E6002ADA
:1066600000D131E10120A44B18709D4B187004F04B
:1066700055FF0AE60F2C0DD1002D00D105E6002EA6
:1066800018D1022004F04AFF04229C4B1A70944B4C
:10669000033A0DE62300113B012B1AD90A2C00D036
:1066A0000FE1002E15D1002DEBD0EEE5092C01D91C
:1066B0000F2C0BD1924B1B78002B0AD0002D00D150
:1066C000E3E5002E00D0E0E50220D0E7102C00D159
:1066D0006FE68C4B6EE6FE27112C06D0200002F0F0
:1066E000B1F90700FF2800D18DE6002D0CD1A023C1
:1066F0008022DB0552009A62834B28001D70FDF753
:106700002DFDFDF7E9FB7EE6002E00D07BE6019B28
:106710007A331B78002B07D0A0238022DB055200A0
:106720009A61794BFF3A1A70FDF7D6FB019B7A33D9
:106730001878FE2F03D17549FDF7EEFD63E63900A9
:10674000FDF7C4FF5FE6B54200D15CE6032B02D043
:10675000002D00D157E6A02280210027D205490054
:106760009162694A177002229343012B01D106F00E
:10677000FFFD5022664B05201F70664B1A80FEF706
:10678000E5FD012006F0F6FB514B1B78012B01D0F3
:10679000029B1F70019B4233187800280BD105F033
:1067A000A3FB01235C4A102C03D0564A002E00D0D4
:1067B00029E6137027E60A224243584B1A70F0E785
:1067C000574B1B78002B18D1414F3B78FF2B07D03C
:1067D0002200113A012A16D8059A1278002A12D1FD
:1067E00004F094FB002816D13B78042B13D0320020
:1067F00029002000FFF71CF805E6320029002000E0
:1068000012F0F8FCFFE5474A9B009B582900320034
:1068100020009847F7E5002E00D0F4E5002D00D1C8
:10682000F1E50223049AC4E701223F4B1A700DE6FA
:1068300001223E4B1A7019E601223D4B1A7020E6E8
:106840000AF08AF9224B002803D01A78012A00D1D5
:1068500022E61B783A88022B00D11DE6511E8A41A0
:10686000344B1A70029B1B78FF2B00D025E60023C7
:10687000029A137021E6019B587B2FE62B78002BA0
:1068800000D039E6039B1B78002B08D00023039A25
:106890001370174A174B12781A8003F033FC264CFA
:1068A0002378002B03D006F0A5FC00232370029B65
:1068B00018780BF06DFBFF23029A13700122084B2E
:1068C000F6E4002D00D1E0E4002E00D0DDE4D8E6AF
:1068D000091F0020EE1B00207119002070190020F4
:1068E000B91A0020161A0020C41B002068190020C5
:1068F000D8CB0108E61A00201E1A0020E21A002058
:10690000EC1A0020E51A0020F91A0020D606000033
:10691000E81A0020CE1A0020E41A0020F61A0020FF
:10692000003000207C00002071180020D61A0020C2
:106930007218002070180020D91A0020F7B512F044
:1069400069FB01200CF056FB002802D001200CF05E
:1069500037FC444D2B78012B00D0AEE0424E33780B
:10696000002B3BD1414B1B78002B37D1404B1A7881
:10697000002A04D13D4A1278002A00D19DE000226D
:106980001A703C4B1A883C4B002A04D11A0008327A
:10699000D27F3D2A04D12222FF32985CFCF7C8FC4A
:1069A000C8220024354B920034701A80344B1B7877
:1069B000A34208D0334E3378012B00D056E1023386
:1069C0003370FEF719FCFFF7EFFB062004F0A6FD7D
:1069D000042006F0E5FB0BF0CDFA6EE02A4F2B4CBD
:1069E0003B78012B0FD92A492368C97F224A002905
:1069F00027D1002B01D0FA2B05D18023254A9B01FA
:106A000051694B40536123683A7801332360032A6C
:106A100048D11F4AD27F002A21D01F4A934248D929
:106A200000232360FDF758FA0123144C1A00208834
:106A30001E2180B2FDF7B2FB238864339BB2238012
:106A400037E0002B05D12223FF33D05CFCF770FC2C
:106A5000D9E712498B42D6D190235B00F5E7104A63
:106A6000DCE7C046171A0020021B00200B1B002089
:106A7000061B0020880300200C1C0020A000002022
:106A8000E01B0020A81A0020EB1B0020A41A002005
:106A9000141C00200008005010210100983A00004A
:106AA00098340100A4498B4203D900232360012AB2
:106AB000B8D02B78012B00D158E7A04B1B78002BC6
:106AC00000D0D2E02B78012B03D09D4A9B009B582D
:106AD00098479C4E3378002B04D09B4B1B78002B9F
:106AE00000D0C2E004F012FA00280ED1974B1B78B8
:106AF0005BB2002B09D0964B1B78002B05D0954B31
:106B00001B78002B01D101F0A7FD04F0FFF9924C96
:106B1000002830D1631DDB7F002B2CD08F4B0193DD
:106B20001B78002B27D0894B1B785BB2002B22D11E
:106B3000884B1B78002B1ED12B78052B1BD0884B44
:106B40001B78002B17D13378002B14D1FEF78AFF66
:106B5000844F3B78002B06D0834B1B78002B02D14F
:106B600000200BF015FA0023804A3B701370804A16
:106B70001370019A13707F4B01931B78002B0BD07D
:106B80007D4B1B78002B07D005F0A2F8071E03D120
:106B90000DF0B8F9019B1F70A37F002B09D0774B34
:106BA000774A1B88002B00D06FE01388002B00D1A0
:106BB0006FE0744F3B78002B1FD0664B1B78002B87
:106BC00015D1714B1B78002B11D1E31DDB7F002BFE
:106BD0000DD06E4B1B78002B09D15C4B624A1B78A1
:106BE0001278134303D13378002B00D19FE0684B18
:106BF0001A88684B1A8000233B70674B01931B78FF
:106C0000002B32D02B78052B2FD1644E3378002BFC
:106C100000D1DBE0FDF794FAA37F002B05D0230021
:106C2000FE33998B588BFDF791F80534E37F002BE9
:106C300010D0464B1B785BB2002B0BD1534B1B780B
:106C4000002B07D1464B1C78002C03D1FEF70AFF1E
:106C5000534B1C7005F048F8524B1A88524B1A805F
:106C6000002333700023019A1370F7BD022B00D06C
:106C7000A7E6220021001020FFF7F8FA0122354B89
:106C800034701C70494B1A709BE60021484B1180F0
:106C900019703378002B00D08BE72F78FD33BA1EA4
:106CA0001A4200D185E7294B1B785BB2002B00D03C
:106CB0007FE7404B3E4A187800281FD011783E4AA3
:106CC000002915D03D4909881180012F00D070E7B7
:106CD000204A1278002A00D06BE71B78002B00D0E6
:106CE00067E7FFF775FA364B1F70364B1F7060E78A
:106CF000128891B2002AE8D11970E6E71278002ACA
:106D000000D156E701221A70052F01D105F0ECF8E9
:106D10002B78012B00D14CE72B4B1B78002B00D09C
:106D200047E706F067FA0122264B1A7041E7052073
:106D300005F0DAF85FE7C046E0280100EE1A00200F
:106D400050BC0108A7240020A62400206E190020B2
:106D50009E000020BF1A00200C1C0020A200002072
:106D600000300020C11A0020091F00206C190020EB
:106D7000C21A0020AE1A0020A3240020CE1A002040
:106D8000CC1A0020101B0020C01A0020EC1A002092
:106D9000B8CB0108A4000020111B00200C04002027
:106DA0002D180020B6CB0108181A0020E51A002083
:106DB000D11A0020D01A0020B21A0020B2CB01084C
:106DC000F41A0020B91A00200B1B00201A4B1B7864
:106DD000002B00D046E7631DDB7F184D184F002BBA
:106DE0000BD0184B1B785BB2002B06D1164B1B78CF
:106DF000002B02D12B78002B16D0144B07341978B6
:106E0000E27F0A23002900D0BE33534300243B8095
:106E100001232C703370FDF799F8FDF7FDF8210080
:106E20002000FCF72BFF1DE7FEF71CFE084B1B881C
:106E30003B8001232B7015E7003000202D18002027
:106E4000181A00206E190020EC1A0020ED1B0020FB
:106E5000B6CB010800221020110010B5FFF706FA8A
:106E60000022064B1A70064B1B78132B02D0054BE1
:106E700001321A70FEF7C0F910BDC046BF1A0020DB
:106E80000D000020E51A0020F8B56A4B1B78042B92
:106E900003D1694B1B78002B42D1684B0020197835
:106EA000674BC9B21B695B0501D448424841654B39
:106EB0001A78654B002A50D0644C022522781600BF
:106EC000AE4300282DD1012E2DD118780130C0B24B
:106ED000187002282CD8002907D0002A05D00022DB
:106EE0001A70FFF7B7FF00232370FEF707F80400BE
:106EF000132802D00022564B1A70564E564D337846
:106F0000A3424BD0132B08D0132C06D0534B002197
:106F10001A78534B1878FFF7A9F9002334702B80A7
:106F2000F8BD002ED1D00029CFD100221A70DCE7A5
:106F300000201870824209D10121454B21701A703E
:106F4000484B10301970FFF791F9CEE7032AC8D0EB
:106F50000029C6D101322270C7E7424C2278002AAC
:106F60000DD00028E1D11A780132D2B2022A01D81C
:106F70000029DBD000221A70FFF76CFFB5E700286C
:106F8000D3D019780131C9B219700229ADD930496D
:106F900010200A7001211A702170D4E72888324B22
:106FA00001301B8880B22880834215D12B4E2C4D96
:106FB000132C0AD12878132804D000213278FFF747
:106FC00055F92C7000233370AAE70022012120001C
:106FD0002C70FFF74BF9F5E7244B1E88B0429FD386
:106FE000132C9DD0B04209D1102C99D001211B4BFC
:106FF0000A0020001970FFF739F991E723000B3BD5
:10700000DBB2012B0ED80127144B1F70184B1988C7
:10701000FBF704FD89B2002904D13A0039002000B1
:10702000FFF724F92A88134B9A4200D078E70136FB
:107030002E8075E7091F00205A2500200B1B002019
:1070400000040050E01B0020BE1A0020A81A0020F7
:10705000AD1A00200E0000201C140020C01A0020D1
:107060000D000020BF1A0020CECB0108D2CB0108B2
:10707000D0CB0108FFFF0000F0B500245B4B85B0CA
:107080001C7007F067F8FCF7CBF8594B200002930F
:107090001B88029A01339BB213800BF0ABFFA04216
:1070A00002D020000CF08CF8524B1B78002B00D043
:1070B0009AE0514B01931B78052B00D0BEE04F4B5B
:1070C0001B78002B00D1B9E010F080FB11F0DEF846
:1070D000002809D14A4B1B78002B05D0029B1B8846
:1070E000DB0701D408F062F8464A474914780B7868
:1070F0002500681E8541EDB2002B01D000200870EC
:1071000042490E78002E00D1BFE1002B03D1002CA4
:1071100000D0137000253E4B1B78032B00D089E173
:107120003C4A13780133DBB2072B00D88AE10020F8
:107130001070FEF777FE3300002D00D0ACE1002B7D
:1071400000D0ABE1344C2378002B03D0334B1B78B9
:10715000002B49D10DF058FB314A1388002B01D088
:10716000013B13802F4A1388002B01D0013B138071
:10717000019B1D78012D0ED12B4B187800280AD0C9
:107180000138C0B21870002805D104F0ADFE1D4BC7
:107190001D701D4B1D702378002B0DD0234A1388C2
:1071A000002B09D0013B9BB21380002B04D10CF0C3
:1071B000FBFE03200AF0ECFE04F070F801F08EF8FC
:1071C0001B4B1B78042B0DD11A4B1B78012B09D1BB
:1071D000194B1B78002B05D00DF05CF8002801D16D
:1071E0000AF0C8FEFFF750FE05B0F0BDB61A002049
:1071F000C81A0020EE1A0020171A00200C040020E4
:10720000C71B0020F41A0020B91A00206F180020B4
:10721000E21B00206E180020A7240020A6240020D6
:10722000CE1A0020CC1A0020F61A00209E2400203E
:10723000091F00205A2500205425002003F066FE77
:107240000125002800D03FE70C20FCF787F92842F1
:1072500000D139E700210220FCF71CFB0220FCF7DB
:107260007DF908230404240E06001C4226D0FDF7F5
:1072700033F901F0E7FB0390FF281FD0019B1B7837
:10728000012B1BD0874B1B78002B17D0864F380063
:10729000FBF7DCFC0200132804D13800834913F00B
:1072A00091F81222039BBB540023BF18804A7B70C5
:1072B0001278804B1A7001227F4B1A70630701D538
:1072C0007E4B1D702C4205D07D4B1D70FDF70BF9D8
:1072D0007C4B1870A30702D50022794B1A70F7B2C5
:1072E000730601D5784B1D70360602D50022764B09
:1072F0001A70FB062CD50A22744B1D70744B1A8031
:10730000744B9A7F002A23D0019A1278052A09D15A
:10731000714A1278002A05D170490888704908809E
:1073200070490A700533DB7F002B11D06E4A6F4B1A
:10733000107819886E4B002802D11888884207D22D
:107340001980002313706B4A137001226A4B1A7064
:10735000BB0604D500225D4B1A705D4B1A807B077B
:1073600009D5664B012105201D70FCF787FCE12241
:10737000634B52011A8008231F4205D000215F4B46
:1073800005201970FCF77AFCE3061CD55D4B1E78CE
:10739000042E18D15C4B1B78012B14D15B4B1B784E
:1073A000002B10D15A4A5F201378013EDFB201331F
:1073B000DBB21370FCF7D2F8564B7F00D853002E87
:1073C000F0D10CF0EFFF30231C4200D13CE7524BD0
:1073D0001B78002B00D137E7504B1B78012B00D0D6
:1073E00032E74F4B1B78022B02D0052B00D02BE746
:1073F0000427474EA40602D533782037FF1A00240D
:10740000BC4208D13278474B1A7001222A4B1A70BD
:1074100012F02CF818E75F20FCF7A0F83378232B44
:1074200006D833785A1CD2B232703A4A5B0098526E
:107430000134E5E7022B06D13B4A13780133DBB276
:107440000F2B02D81370002675E60023374C1370FB
:10745000277820007F22364912F0B4FF7F34354B65
:107460002770354C02932000611C7F22277812F090
:10747000A9FF23007F331F70029B80349C42F2D10E
:10748000FDF788FEFDF778FE55E6002B00D153E6A8
:107490000AF070FD002C01D00AF0CCFB002011F0A6
:1074A000D7FD4FE6C61B002071190020721900207D
:1074B000D5CB010870190020B91A0020D21A00207B
:1074C000D51A0020D41A0020D31A0020D11A002087
:1074D000CC1A00200C1C00200C040020B4CB0108A6
:1074E000181A0020111B0020A2000020C4CB0108A4
:1074F0000E1B00200C1B0020F41A0020CA1A0020CA
:10750000001B0020091F00205A25002054250020C0
:10751000BA1A00200C250020003000200330002083
:1075200002300020013000206E1800209E1700203D
:107530009F1700209E1700201E1400200022F0B587
:10754000A64B85B01A70A64A1378002B07D0013BD2
:10755000DBB21370002B02D10122A24B1A70A24B96
:107560001B78002B0CD0A14C2378012B00D0D3E04A
:107570009F4B01221B889BB2134201D09D4B1A7076
:107580009D4A1378002B21D0013BDBB21370002BF6
:107590001CD19A4B1A688023D28BDB009A4210D2FE
:1075A000974B1B78013B022B0BD8964B1B78002B7B
:1075B00007D101F0F1FD944B1878022801D103F0B6
:1075C000ADFFFEF721FE0022904B1A70904A13780F
:1075D000002B13D08F490978072901D000290DD13C
:1075E000013BDBB21370002B08D18B4B1B78002BB7
:1075F00004D001F037FA01227A4B1A70874B0093BE
:107600001B88002B00D092E00023854A0293137858
:10761000002B00D099E009F09FFA824F3B88002BA5
:1076200000D09BE0804B814D1978019378234B4328
:107630002A887F4E9A4217D13378002B14D0FDF759
:10764000C9FDFEF73BFB00210620FCF717FB0A22D1
:10765000784BDB7F5343784A138000230122337039
:10766000604B1A70634B1A70604B03931B78012BAD
:1076700000D1ACE004F02CFB002800D0A7E06F4B59
:107680001B78042B00D1A2E06D4B1B78002B00D09F
:107690009DE02C88002C00D185E0013CA4B22C8018
:1076A000002C00D07FE00122634B32701A803C80B6
:1076B000FEF704FB2000FBF73BFEFDF735FE3378B9
:1076C000002B0BD003225F4B0620197801311140AB
:1076D00019704B425941C9B2FCF7D0FA5A4B1C7889
:1076E000002C00D1C6E0594C594D2100280004F06F
:1076F000E3F8FA2322885B009A4204D8554BDA88D3
:107700002B889A4228D2BFF34F8F534B534ADA60EB
:10771000BFF34F8FC046FDE704F0DAFA002800D12E
:107720002EE72378012B00D122E74D4B21E7009A69
:10773000013B9BB21380002B00D065E73F4B1B78C9
:10774000013B5A425341DBB25FE7013B13702D4BC3
:107750001B78002B00D15EE705B0F0BD414A1278DE
:10776000002A00D05EE7404A1278002A00D059E78C
:10777000324A1278012A06D1132800D152E715386F
:10778000012800D84EE7013B9BB23B80002B00D084
:1077900048E7364BDB7F3C2B00D943E7FBF7F2FD94
:1077A000FEF79AFB3EE72B885A1E132A00D986E77C
:1077B000019A1278002A00D181E700209B0703D1AB
:1077C00022222B4BFF32985CFBF7B2FD77E7782241
:1077D000019B1B7853432B8071E7C0460A1B002096
:1077E000E21A0020B91A0020E11B0020171A00201D
:1077F000081B0020F41A0020F81A0020001C0020AA
:10780000481D0020A7240020161A0020E31A00209B
:1078100070190020D31E002071190020E61A0020E4
:10782000A624002088030020B00000207C03002054
:10783000ED1B0020131C0020181A0020091F002037
:10784000003000202C180020EE1A00202E1A0020F4
:10785000301A0020321A002000ED00E00400FA0582
:10786000001B0020071F0020EC1A0020141C002021
:107870000C1C0020654D039A2B88127801339BB2B3
:107880002B80012A12D0DB0710D4614E6149307879
:10789000431C3370604B4000C01804F00DF833787F
:1078A000032B00D93470012004F0A0FB2B889B0728
:1078B0000AD15A4B1B78002B03D1594B1B78002B54
:1078C00002D00122574B1A70574D2B78002B67D1ED
:1078D000564B1B785BB2002B62D103F017FB0028DC
:1078E0005ED1534B1B78002B03D0524B1B78002BDF
:1078F00056D0514B1878042852D0504B1B78002B8F
:107900004ED14F4B4F4A1B78002B12D04E490B786B
:10791000002B0ED04D4E3678002E0AD1012808D00B
:10792000013BDBB20B70002B03D1013353763D4A90
:107930001370029B002B33D00023009A138009F0B0
:107940000BF93D4B1B78012B06D1132802D01538BB
:10795000012801D8FBF72AFD3D4E3378002B03D1D7
:107960003A4B1B78002B02D0022003F0D7FD01F028
:1079700083F8FDF73BFB00232E4A33701370354A22
:1079800013700122344B1A70344B1B78002B04D037
:1079900004F09EF9002800D1032420000AF0F8FA30
:1079A0002F4B1B78002B18D12E4B1A78002A14D09D
:1079B00018780138C0B2187000280ED105F0F0FB1D
:1079C000264B1B78002B08D004F082F9002804D144
:1079D0000CF0EAFA03200AF0DBFA3B88002B0DD109
:1079E000214BDB7F013B3B2B08D8124B1B78002B34
:1079F00004D12B78002B01D1FEF76EFA04F09CFB2A
:107A000003F058FD07F0B2FDA6E6C0461C1A0020A0
:107A1000ED1A00202E1A0020261A0020211A00201C
:107A2000C51B0020F41A0020EC1A00206E1900205B
:107A3000A3240020071F0020091F00200030002081
:107A40004A1C00200C1C0020F71A00208619002078
:107A5000481D0020061F0020B91A0020A72400207E
:107A6000BF1A0020FA1A0020141C002030B50E4B5B
:107A70001B689A8B0D4B18680D4B19680D4B1C6CCD
:107A8000844207D15C6C8C4204D11C0048342488A9
:107A9000944207D01C0000254A34186459644833C6
:107AA00025801A8030BDC046FC1B002068190020CC
:107AB00064190020141900200E4B10B51B68191E04
:107AC00013D00D4A1268918B00290ED083420ED834
:107AD0000A4A126882420AD3C01AFAF719FF084B01
:107AE0000021984201D8013081B2080010BD002168
:107AF000FBE7C04668190020FC1B00206419002029
:107B0000FEFF000010B5094C2278531CDBB2172B86
:107B100000D90023064952005052064A23701378B8
:107B2000172B01D80133137010BDC0467718002001
:107B300078180020761800200122054B52421A8046
:107B40000023044A1360044A1370044A13707047F8
:107B500096000020F8180020F4180020A818002033
:107B600070B51E4A030012680232D47F221C082C12
:107B700000D208221A491B480D88083A92B2854261
:107B800006D100200B80844201D0A342404170BD49
:107B900015482E1C854201D9144806881448103611
:107BA000B6B21C1C834201D9124804880834A4B21E
:107BB0009E4202D801209342E9D2A64202D8012077
:107BC0009442E4D29D4202D900200B80DFE70722D5
:107BD0006A430432D318DB08F6E7C046FC1B0020DA
:107BE00096000020FFFF0000EFFF00006CBC0108C2
:107BF000F7FF00006EBC0108302210B500210448D8
:107C000012F0F2FB0022034B1A70034B1A7010BDE6
:107C100078180020771800207618002070B50F4DD6
:107C200004002A68002A08D0002318000C49A14249
:107C3000584191425B41984202D02000FCF734F950
:107C400020002C60FCF7C4F800213020FBF722FE56
:107C5000044B30201988FBF71DFE70BDF81800207A
:107C6000FF3EAB01FC18002010B53224FCF7B4FB3A
:107C7000C72806D9013C0120E4B2FDF79FFB002C88
:107C8000F4D1FCF79BFBFCF799FB10BD70B5FFF737
:107C9000EDFE21251249134E134B144A09781B6837
:107CA0001268306849B2FEF75DFA013D3368EDB203
:107CB00004001860002D09D0FFF7FEFE002805D053
:107CC0000B4B0C4A197800238B4201D1200070BD68
:107CD0000232961E36888642DCD00133DBB2F3E7EF
:107CE0006E190020FC1B0020641900206819002078
:107CF0005E19002014190020002806D0044A1378C9
:107D00000133DBB2032B01D8137070470023FBE76C
:107D10001019002070B5FFF7A7FF1A4A0400031CD2
:107D2000904201D9184B1B88184A083312689BB23D
:107D30000232D17F164A1588164A954204D100298D
:107D400001D0994212D970BD134E2A1CB54201D9F7
:107D5000124A1288103292B29A42F4D80A1C0829A8
:107D600000D20822083A92B29A42ECD8AF204000E2
:107D7000FDF724FBFFF778FF231C844200D2031C8D
:107D800098B2E0E7F7FF00006EBC0108FC1B002082
:107D900096000020FFFF0000EFFF00006CBC010810
:107DA000F0B59C4B9C4D1A788DB0531E182B3AD8C9
:107DB0002B002A331B7800938023AC8DDB009C4280
:107DC0002ED024B2EE8D9E4233D036B2934B019327
:107DD0001B880393009B002B0DD0914B1F780293BF
:107DE000002F29D0012F62D00323029A13708D4BEC
:107DF000019A1B881380894B00211E882B008A4F13
:107E0000293379561B787018012280B204F032FCB5
:107E1000864B040098425AD1FFF78EFE002419E0E9
:107E200001246442CEE7012401236442260000932A
:107E3000CCE701267642C9E77A4B03991980002CDA
:107E400035DBA4B23900200004F0DAFB00282ED084
:107E5000029B1F70019B1C802B7B1A1D52005B0034
:107E6000AC52EC52724A734B12781B68DC83002AC6
:107E700005D00233DB7F704E002B36D13370674B59
:107E8000039A1B88934203D16B4B1B78002B0AD0BB
:107E9000614B0221187B04F041FD012005F06AF8D6
:107EA0000122664B1A700922654B1A80ADE02B0047
:107EB00029331A78002E97DBB4B20021200004F099
:107EC0009FFB002890D00122554B1A70C2E7002377
:107ED000FB56002B04DD8642BCD9FFF72DFEB9E727
:107EE000002BB7D08642B5D2F7E704AF39002000A7
:107EF00006F04CF8002803D1524B30701870BEE7E2
:107F000048222B7B504E5343E9188431300012F045
:107F100088FA33003A00F48303CA03C3190011CA74
:107F200011C13A69B261BA8AB283BA7DDA77320096
:107F3000FC7D34321470397E721CD1773200797E28
:107F4000293211703200B97E2B3211703200F87E66
:107F50002D3210703200387F333210703200787F4B
:107F600028321070B87F3200002901D01A00330087
:107F70003261012273612F4D324B31001A702B6830
:107F800032311A000870343216782D33049F197874
:107F9000B44201D1002915D0147000221A70B442E5
:107FA00002D0200004F040FF012C23D1286804F007
:107FB000AFFE2100FBF7EEFEB44203D00122234BBB
:107FC00052421A803020FBF7C9FA214A214B104057
:107FD00018803800FFF722FEFFF79CFE0400FFF731
:107FE00091FD2000FFF7BCFD134B002805D00122B6
:107FF0001A7044E700210800DCE7012218702B68A2
:108000001F600F4B1A800D4B1A700098FFF774FE1B
:108010000DB0F0BD351C00200C1C0020C41A00203F
:1080200010190020741800206E190020FFFF0000B6
:10803000AF000020FC1B0020F4180020B91A00201B
:10804000EA1A0020A8180020AC1800209600002092
:10805000FFFDFFFFFC180020F0B5634B634E1B686B
:10806000346885B0002B00D1B5E0614B1B78002B44
:1080700000D1AAE0A31CDB7F002B00D1A5E03020BB
:10808000FBF76CFA06255B4A5B4B1040188034689E
:10809000FFF7FCFD2060306804F032FC33681B6998
:1080A0001C68564B1B68002B06D0554A127852B2FA
:1080B000002A51DD9C4253D32000FFF7AFFDFFF7AC
:1080C00029FE0400FFF71EFD2000FFF749FD0028F0
:1080D0006CD03368998B4A1EF82A2DD8FA201B6879
:1080E00080000293FAF79EFC502800DD502083B2F6
:1080F000039300231E0000933C4D2F683B691B68CF
:108100000193FFF7C3FD3860286804F0F9FB2B6882
:108110001B6918683A4B1B785BB2002B23DD019B6F
:10812000834225D92868029B036004F0E9FB2B6891
:108130001B691868FFF772FD0122324B1A702B4C35
:10814000206804F0DDFB206804F0C8FA012004F088
:1081500011FF09222C4B32E0002AADD09C42ABD952
:10816000FFF7EAFCA8E7002B02D0019B8342D9D39A
:10817000FFF754FDFFF778FD84420DD2040000267E
:108180002B681B680293009B01339BB20093009AFB
:10819000039B9342B0D1C5E78442F4D9201A072843
:1081A000F1DD0136F6B2022EEDD9BBE7013DEDB2AD
:1081B000002D00D06BE70122124B1D70124B1A806C
:1081C0000122124B1A7005B0F0BD0E4A1370FFF772
:1081D0005DFD2060B3E700210A4A20001370084BC0
:1081E0005956FDF7D5FFF4E768190020FC1B002065
:1081F000AF000020FFFDFFFFFC180020F818002052
:108200006E190020F4180020EA1A0020B91A002084
:1082100070B5FFF72BFC184B1868FFF74DFC031ED9
:1082200008D1164B1B681868FFF746FC03000020B6
:10823000834217D01249134A08781400002188425B
:1082400011D114004B3421784D0053531F230131B9
:1082500019402170202802D001304A321070FFF7F7
:108260006BFC012070BD0234A51E2D889D42F8D004
:108270000131C9B2E3E7C04604190020FC1B00200D
:108280005E190020141900200300020030B50028F8
:1082900000D1012200208A420DD880246402A3422A
:1082A00009D2A14200D30A490A4B0B481D7800238A
:1082B0009D4201D1002030BD0488944201D38C42FC
:1082C00003D90133DBB20230F2E70120F3E7C04605
:1082D000FFFF00005E19002014190020284B37B55D
